:0200000460009A
:10000000464346420004015600000000010303007D
:100010000101000001040000400000000000000099
:1000200000000000000000000000000000000000D0
:1000300000000000000000000000000000000000C0
:1000400000000000010406000000000000000000A5
:100050000000800000000000000000000000000020
:100060000000000000000000000000000000000090
:100070000000000000000000000000000000000080
:10008000EB04180A063204260000000000000000FD
:100090000504012400000000000000000000000032
:1000A0006B0418080832042600000000000000005D
:1000B0000604000000000000000000000000000036
:1000C0008104042400000000000000000000000083
:1000D00020041808000000000000000000000000DC
:1000E00001040420000000000000000000000000E7
:1000F0003204180804220000000000000000000084
:1001000090041830002400000000000000000000EF
:100110000204180800200000000000000000000099
:100120003504000000000000000000000000000096
:10013000600400000000000000000000000000005B
:10014000F5060000000000000000000000000000B4
:10015000000000000000000000000000000000009F
:10016000000000000000000000000000000000008F
:10017000000000000000000000000000000000007F
:10018000000000000000000000000000000000006F
:10019000000000000000000000000000000000005F
:1001A000000000000000000000000000000000004F
:1001B000000000000000000000000000000000003F
:1001C000000100000010000000000000000000001E
:1001D000000001000000000000000000000000001E
:1001E000000000000000000000000000000000000F
:1001F00000000000000000000000000000000000FF
:10100000D10020410020006000000000000000002E
:1010100020100060001000600000000000000000D0
:10102000000000600000800000000000FFFFFFFFE4
:1020000000000220F15D0560295C05602D5C056023
:10201000255C0560255C0560255C0560000000000E
:10202000000000000000000000000000315C0560BE
:10203000255C056000000000C93B0560994805600B
:102040003D5C0560415C0560455C0560495C056080
:102050004D5C0560515C0560555C0560595C056030
:102060005D5C0560615C0560655C0560695C0560E0
:102070006D5C0560715C0560755C0560795C056090
:102080007D5C0560255C0560255C0560255C056060
:10209000815C0560855C0560895C05608D5C056020
:1020A000915C0560955C0560995C05609D5C0560D0
:1020B000A15C0560A55C0560A95C0560AD5C056080
:1020C000B15C0560B55C0560B95C0560BD5C056030
:1020D000C15C0560C55C0560255C0560255C05602C
:1020E000255C0560255C0560255C0560255C056058
:1020F000255C0560255C0560255C0560255C056048
:10210000255C0560255C0560255C0560255C056037
:10211000255C0560255C0560255C0560255C056027
:10212000C95C0560CD5C0560D15C0560D55C05606F
:10213000D95C0560255C0560255C0560255C056053
:10214000255C0560255C0560255C0560255C0560F7
:10215000255C0560255C0560255C0560255C0560E7
:10216000255C0560255C0560255C0560255C0560D7
:10217000255C0560255C0560255C0560255C0560C7
:10218000B1200560C5200560D9200560ED200560FF
:102190000121056015210560292105603D210560AB
:1021A0005121056065210560DD5C0560E15C05602D
:1021B000255C0560255C0560255C0560255C056087
:1021C000255C0560255C0560255C0560255C056077
:1021D000255C05609D490560255C0560255C056002
:1021E000255C0560255C0560255C0560E55C056097
:1021F000E95C0560255C0560ED5C0560F15C0560EF
:1022000087F1046071F10460F55C0560F95C0560BC
:10221000255C0560255C0560255C0560255C056026
:10222000255C0560255C0560255C0560255C056016
:10223000255C0560255C0560255C0560255C056006
:10224000255C0560255C0560255C0560255C0560F6
:10225000255C0560255C0560255C0560255C0560E6
:10226000255C0560255C0560255C0560255C0560D6
:10227000255C0560255C0560255C0560255C0560C6
:10228000255C0560255C0560255C0560255C0560B6
:10229000255C0560255C0560255C0560255C0560A6
:1022A000FD5C0560015D0560055D0560255C056000
:1022B000095D0560255C0560255C0560255C0560A1
:1022C000255C0560255C0560255C0560255C056076
:1022D000255C0560255C0560255C0560255C056066
:1022E000255C0560255C0560255C0560255C056056
:1022F000255C0560255C0560255C0560255C056046
:10230000255C0560255C0560255C0560255C056035
:10231000255C0560255C0560255C0560255C056025
:10232000255C0560255C0560255C0560255C056015
:10233000255C0560255C0560255C0560255C056005
:10234000255C0560255C0560255C0560255C0560F5
:10235000255C0560255C0560255C0560255C0560E5
:10236000255C0560255C0560255C0560255C0560D5
:10237000255C0560255C0560255C0560255C0560C5
:10238000255C0560255C0560255C0560255C0560B5
:10239000255C0560255C0560255C0560255C0560A5
:1023A000255C0560255C0560255C0560255C056095
:1023B000255C0560255C0560255C0560255C056085
:1023C000255C0560255C0560255C0560255C056075
:1023D000255C0560255C0560255C0560255C056065
:1023E000255C0560255C0560255C0560255C056055
:1023F000255C0560255C0560255C0560FFFFFFFF2F
:10240000024B5A69026058610020704700080020A2
:10241000024B5A6912685A61704700BF00080020D9
:10242000C460056146618761C0F81C80C0F82090D7
:10243000C0F824A0C0F828B0C0F82CD080ED0C8BD8
:1024400080ED0E9B80ED10ABC0F808E0FFF7D8BF21
:10245000104908B54B690BB950F0C4FE1A685860B2
:102460004A611846C468056946698769D0F81C80C6
:10247000D0F82090D0F824A0D0F828B0D0F82CD0F4
:1024800090ED0C8B90ED0E9B90ED10ABD0F808E02A
:10249000012070470008002010B5044600215FF0BD
:1024A0007BF8B0FA80F35B09002C08BF002303B966
:1024B00010BD20465EF0DCFF08B500215FF06CF82F
:1024C00008BD10B5044601215FF066F8B0FA80F34C
:1024D0005B09002C08BF002303B910BD20465EF045
:1024E000C7FF08B5FFF7D8FF08BD10B50C4601229D
:1024F0005FF04EF80246B0FA80F04009002C08BFA9
:10250000002008B9104610BD20465EF0B1FF08B5A6
:102510005FF03EF808BD08B55EF0A6FF08BD0000FC
:1025200008B501FB00F00830FFF7C6FF034650B1C5
:10253000064A526A02B1106000221A60034A516AC8
:10254000596053620833184608BD00BF00080020D8
:10255000B0B108B50346083853F8042C12B153F84B
:10256000081C116053F8082C2AB153F8043C53603E
:10257000FFF7D1FF08BD53F8042C024B5A62F7E76E
:10258000704700BF000800202DE9F04180460F464B
:102590001646214B1B6ADA689C68A24215D21E4B74
:1025A0001D6AEC682A6922F814801A6A5269175564
:1025B0001A6AA11D42F82160196ACA680132CA600C
:1025C0001B6A58682044BDE8F08164000A2C38BFBB
:1025D0000A24C4EBC4001830FFF76EFF034698B11D
:1025E00000F1180202EB8402026102EB4402426134
:1025F0000948016A19604A68C9680A445A609C60BF
:102600000022DA600362CAE7034B0022C3F83823D2
:1026100020465EF02DFF00BF0008002008B50146EF
:10262000094B186A00E000680B6842689342FAD3CD
:102630009B1A0B60C268934200D208BD034B044A48
:102640008521044850F0D0FD00080020D81806600D
:10265000D0490660E8180660014441F2055304E0E1
:1026600003EB431310F8012B53408842F8D398B280
:1026700000B9013070470000034B044A1A6200227F
:10268000C3F83823704700BF00080020C48D0760DE
:102690002DE9F84381468846FFF7DEFF0746114BD8
:1026A0001D6A19E00134B44215D22B6933F8143095
:1026B000BB42F7D16B691B5D4345F3D1A31D424675
:1026C000494655F8230052F0A8FA0028EAD1686874
:1026D0002044BDE8F8832D6815B1EE680024E2E7D8
:1026E0000020F6E700080020F8B506460C46FFF784
:1026F000CFFF60BBFF2C2BD8671C334BD3F83803BC
:1027000038B11A46D3F840333B44D2F83C138B42DD
:1027100022D82D4BD3F83833B3B32B4AD2F83853E1
:10272000D2F840331D443B44C2F840332146304682
:10273000FFF792FF074622463146284652F0FAF943
:1027400000232B552A4621463846FFF71DFFF8BDCA
:102750001E491F485EF000FF00223944FFF7D7FEF4
:1027600030B1194AD2F83C333B44C2F83C33D0E78D
:10277000154D0022D5F84013D5F83803FFF7C7FEF2
:102780000023C5F83833C4E77F2F0ED93D462846CD
:10279000FFF792FE0C4BC3F8380340B10A4BC3F865
:1027A0003C530022C3F84023B7E78025EFE73846C3
:1027B000FFF782FE044BC3F8380308B13D46EDE74E
:1027C00038465EF055FE00BF00080020F81806608D
:1027D0001CC0066010B5044652F030FA014620468F
:1027E000FFF782FF10BD00B583B0019001A8FFF78D
:1027F00015FF0369019A33F8120003B05DF804FB7A
:1028000000B583B0019001A8FFF708FF4269019B62
:10281000D05C03B05DF804FB00B583B0019001A863
:10282000FFF7FCFE019B063350F8230003B05DF870
:1028300004FB10B582B001900C4601A8FFF7EEFE34
:102840004269019BD25C2260063350F8230002B03B
:1028500010BD00002DE9F04180460F4614461E468B
:10286000002303600B6013603360144B1D6A0EE09D
:1028700012F8013B21680B44013323608242F7D3F5
:1028800028465EF021FE3368034433602D687DB135
:102890000B4B9D420CD0D8F800300133C8F8003003
:1028A000EA683B6813443B606A69E8681044E5E7FE
:1028B0002268336813443360BDE8F08100080020CB
:1028C000C48D076070B50B4B1E6A08E054F8042BEA
:1028D00009490A4800F0B8FDAC42F7D3366846B162
:1028E000074B9E4205D006F11804F56804EB8505F8
:1028F000F2E770BD0008002008190660146E06603B
:10290000C48D076038B543681944036899420DD9EE
:102910000546037B5BB901F1100424F00704083479
:1029200021468068FFF7E1FD2C60A86038BD0021DA
:1029300001485EF011FE00BF1CC0066070B5044681
:102940000E4615461146FFF7DDFFA06863682A466C
:102950003146184452F019F963682B44636070BD26
:10296000F8B507460C46154646688E4200D23446F6
:1029700015B9B8682044F8BD29463846FFF7C2FFAC
:10298000BB686019321B1919184452F0FEF87B68B5
:102990002B447B60EDE738B50446084601B90120B9
:1029A000206000256560FFF777FDA060257338BDC6
:1029B00038B505460C460131FFF7EDFF6C6038BDB8
:1029C00001600023436082600123037370470000AD
:1029D00038B505461446FFF7DEFF2560014B6360FE
:1029E00038BD00BF3D29006010B50446037B13B11C
:1029F0000023A36010BD8068FFF78DFDF8E738B5B0
:102A000005461020FFF748FD04462946FFF7C3FF9F
:102A1000204638BD58B110B50446037B1BB1204693
:102A2000FFF779FD10BD8068FFF775FDF7E7704788
:102A300038B5037B63B904460D46016829448068B4
:102A4000FFF753FD23681D442560A060184438BD7E
:102A5000002101485EF080FD1CC0066038B50446C8
:102A60000D46FFF74FFFA06863681D44656018447A
:102A700038BD10B50446026843689A4205D0A26882
:102A800063680021D154A06810BD0121FFF7D0FF79
:102A9000F5E710B50C460121FFF7E0FF047010BD0B
:102AA00010B50C467F291FD9B1F5006F21D3B1F5C0
:102AB000803F2BD3B1F5881F3AD20421FFF7CEFF18
:102AC000A30C63F00F030370C4F3053343F08003DA
:102AD0004370C4F3851343F08003837004F03F0414
:102AE00044F08004C47003E00121FFF7B7FF0470D5
:102AF00010BD0221FFF7B2FFA30963F03F0303708B
:102B000004F03F0444F080044470F1E70321FFF730
:102B1000A5FF230B63F01F030370C4F3851343F079
:102B20008003437004F03F0444F080048470DFE7C6
:102B3000024B034AA421034850F056FB486D06603F
:102B4000686D0660586D066038B505460C46084647
:102B500052F074F8024621462846FFF7EFFE38BDD2
:102B600010B514460122FFF7FBFE047010BD10B52E
:102B700014460122FFF7F4FE047010BD43688B4237
:102B800002D20023436070475B1A4360704738B538
:102B9000154642688A4205D904460B4629448A42B2
:102BA00001D8436038BD8068D21A521B01441844D2
:102BB00051F0EBFF63685B1B6360F3E708B5084601
:102BC00011465EF0B1FC08BD70B505460C460846DE
:102BD00052F034F8064620B16B6802462146286858
:102BE0009847304670BD00002DE9F04F83B0054690
:102BF000019193460D9AA2EB0B029DF8301020290B
:102C000018BF002909D0302903D00DF13009012760
:102C100006E0DFF89890102702E0DFF89490102784
:102C200013F0800A0DD01446002A08DB4FEA640A2C
:102C3000A2EB6404BAF1000F08DD56461DE0541CF7
:102C4000F4E713F001041ED19246F3E74FF0000AB7
:102C5000BBF1000F05D06B685A4601992868984768
:102C6000DA44002C1EDDA24416E0B8466B684246EA
:102C7000494628689847A6EB0806002EE8DDBE42C4
:102C8000F3DCB046F2E71446E2E73E466B683246B4
:102C9000494628689847A41B002C03DDBC42F4DC9D
:102CA0002646F3E7504603B0BDE8F08F306E06606D
:102CB0001C6E06602DE9F04389B00746DDF840E060
:102CC000119E9DF84880139C00208DF81F0062B172
:102CD000814206DB16F0020F23D02B228DF81F2035
:102CE00003E02D228DF81F20494209BB30238DF8C7
:102CF0001B300DF11B0516F040093CD09DF81F302C
:102D000063BB4FF000090194CDF80080334607AA59
:102D1000521B29463846FFF767FF484409B0BDE813
:102D2000F08316F0040FE0D020228DF81F20DCE79E
:102D300007AD09E0AEF10A00024405F8012D03AA2F
:102D40009542D8D96345D6D8B1FBF3F003FB1012F6
:102D50008C460146092AEDDC3032EEE70122019271
:102D6000CDF8008033460DF11F013846FFF73CFFD8
:102D70008146013CC7E79DF81F30002BC3D003AA52
:102D80009542C0D905F8013C013DBCE72DE9F04F63
:102D900091B081460D46164605931A9C9DF86CA08D
:102DA0001D9F022A18BF082A06D0B2F1100318BFCF
:102DB00001230A2A00D01BBB15F0010F0CD115F01E
:102DC000030F03D12A68934B9A4205D028460DF091
:102DD00035FB450045F0010514F0810302D1BAF13D
:102DE000300F13D0284611F011FD00281FDB14F01E
:102DF000020F13D02B238DF83C300DF13D0818E065
:102E0000854B864AD021864850F0EEF91C9ABA428A
:102E100001DB1F46E6E71C971F46E3E714F0040FAB
:102E20001AD020238DF83C300DF13D0801E00DF162
:102E30003C0814F0100F1BD0022E10D0082E49D0E1
:102E4000102E15D14346302203F8022B059A173273
:102E500088F8012098460BE00DF13C08E9E743466D
:102E6000302203F8022B059A013288F80120984697
:102E7000002388F800300FABA8EB030814F0200FF4
:102E800038D100220BAB0A93102309930023089337
:102E9000012F01DD44F0400400238DF81F3014F0B1
:102EA000400B29D003929DF8143002930023019324
:102EB00000962B4608AA09A90AA811F0BDFA0646F1
:102EC00003782D2B26D101368DF81F30089B013B4E
:102ED00008931FE04346302203F8012B14F4007FCF
:102EE00006D0059B0E3388F8013008F10208BFE7D1
:102EF0009846BDE72C22C5E703929DF81430029353
:102F00000FAB019300962B4608AA09A90AA811F055
:102F100093FA0646012F42DD089DAF4200DD3D4693
:102F2000BBF1000F04D09DF81F3003B101354544BB
:102F30001C9BAB4209DD14F0010B03D0A3EB050B86
:102F4000002505E01C9B5D1B02E04FF0000B5D4679
:102F500024F001044FF0300A2DBB14F0400F05D0CF
:102F60009DF81F3053BBB8F1000F35D1012F42DD62
:102F70000197CDF800A02346089A31464846FFF74E
:102F800033FE0544BBF1000F37D10A980BAB9842D2
:102F900001D0FFF7C0FA284611B0BDE8F08F4FF01E
:102FA000000B5D46D8E701952023009300231A46C5
:102FB0001C494846FFF718FE0546CEE7012201925C
:102FC000002300930DF11F014846FFF70DFE054455
:102FD0001C9B013B1C93C6E7012301930023009334
:102FE00042460FA94846FFF7FFFD05441C9BA3EB93
:102FF00008031C93BAE71C9FBAE7CDF804B020235E
:10300000009300231A4607494846FFF7EDFD0544A3
:10301000BBE700BF5CC80660786D0660046E0660A2
:10302000AC6D0660881708602DE9F0438BB006464A
:1030300014469846129F12F0020F04D112F0040FAA
:1030400029D1002300E02B230093139B0A46202163
:1030500002A80BF029FF054614F4807F10D0431C12
:103060001F2B0DD800F128020DEB0205252205F8D3
:10307000202C03F128026A44002102F8201C1D467E
:1030800014F0400917D09DF808302F2B05D902A95C
:103090004FF0000910E02023D6E70122019200231F
:1030A000009302A93046FFF79FFD8146013F013D95
:1030B0000DF1090100E002A90197CDF80080234637
:1030C0002A463046FFF790FD48440BB0BDE8F08338
:1030D0002DE9F04F89B0074605924FF00008F9E05E
:1030E000013423780BB1252BFAD1A14206D27B689B
:1030F000651A2A4638689847A84421460B78002B61
:1031000000F092814C1C4FF02009002602E046F0AE
:10311000010601342378B3B3A3F12002102A00F290
:10312000878001A151F822F073310060793100608D
:103130003132006031320060313200603132006083
:103140003132006031320060313200603132006073
:10315000313200606D310060313200600F3100604B
:1031600031320060313200607F31006046F002068B
:10317000CFE746F00406CCE746F00806C9E746F07C
:1031800040069946C5E7002506E005EB850503EBFB
:103190004503A3F1300501342378A3F13002D2B204
:1031A000092AF2D92E2B45D04FF0FF3A23786C2B09
:1031B00062D02278002A00F03781A2F14503332B38
:1031C00000F22181DFE813F00B010B010B011F015D
:1031D0001F011F011F011F011F011F011F01FA0015
:1031E0001F011F011F011F011F011F011F01E2001D
:1031F0001F011F011F011F011F011F011F011F01CF
:103200001F015A007500D1000B010B010B011F01BA
:103210001F011F011F011F011F011F011F01FA00D4
:1032200088001F01A2001F01E2001F011F01E20030
:103230000025B1E7611C63782A2B1AD10234059B63
:103240001A1D0592D3F800A0BAF1000FAEDA4FF0C4
:10325000000AABE70AEB8A0A03EB4A03A3F1300A40
:1032600001310B78A3F13002D2B2092AF2D90C460F
:10327000EAE74FF0000AF4E701349AE7059B1A1DCC
:1032800005921B6853B10195CDF800903346042296
:1032900067493846FFF7A8FC80441AE00195CDF84D
:1032A00000903346052263493846FFF79DFC804471
:1032B0000FE0059B1A1D05921B688DF81C300195C7
:1032C000CDF800903346012207A93846FFF78CFC61
:1032D0008044611C0C4604E7059B1A1D059207A952
:1032E0001868FFF7A6FA0146BAF1000F04DB079B46
:1032F0009A4501D2CDF81CA00195CDF80090334637
:10330000079A3846FFF770FC8044E2E7059B1A1DD8
:103310000592D3F800B0BAF1000318BF0123BBF146
:10332000000F18BF0023ABB9584651F087FC524636
:103330006FEA0A03DB0F824528BF002303B9024668
:103340000195CDF80090334659463846FFF74CFCBE
:103350008044BEE70195CDF80090334606223649F9
:103360003846FFF741FC8044B3E7059B1A1D0592E0
:1033700019680395CDF808900196612300930A23FC
:1033800001223846FFF796FC8044A2E7531C03F065
:10339000060302F0F0020F3AD2B20599081D05901B
:1033A00009680395CDF8089001960092C3F11003C7
:1033B00000223846FFF77EFC80448AE7059B1A1DF1
:1033C000059219680395CDF8089001966123009342
:1033D000102300223846FFF76DFC804479E7059BF7
:1033E000073323F0070303F10802059293ED000B66
:1033F0002178CDF804A000954B4632463846FFF7B9
:1034000013FE804465E7252A07D17B680122214607
:103410003868984708F101085BE7084B084A4FF401
:103420000E7108484FF0E0FE404609B0BDE8F08F4D
:10343000C06D06604C950660C86D0660D06D066074
:10344000F86D0660AC6D06600EB400B582B003AADC
:1034500052F8041B0192FFF73BFE02B05DF804EB4B
:1034600003B07047024612F8013B184613F0800F74
:1034700013D003F07F00402302E020EA03005B0842
:103480001842FAD104E0013203F03F0343EA80100E
:10349000137803F0C0018029F5D07047013000E0B7
:1034A0000130037803F0C003802BF9D07047024647
:1034B0000020914207D911F8013D03F0C003802B91
:1034C000F7D00130F5E7704703460144002000E0E3
:1034D00001338B4206D21A7802F0C002802AF7D05C
:1034E0000130F5E7704700007F2806D8054B1B5CCC
:1034F00013F0020F03D10020704700207047012015
:10350000704700BF446E06607F2806D8054B1B5CE1
:1035100013F0080F03D100207047002070470120EE
:10352000704700BF446E06607F2806D8054B1B5CC1
:1035300013F0040F03D100207047002070470120D2
:10354000704700BF446E06607F2806D8054B1B5CA1
:1035500013F0400F03D10020704700207047012076
:10356000704700BF446E06607F2808D8074B1B5C7D
:1035700013F00C0F05D15F2805D000207047002004
:103580007047012070470120704700BF446E0660FD
:103590007F2806D8054B1B5C13F0100F03D10020C9
:1035A0007047002070470120704700BF446E0660DE
:1035B0007F2806D8054B1B5C13F0200F03D1002099
:1035C0007047002070470120704700BF446E0660BE
:1035D00010B50446FFF7DCFF08B9204610BD2034C3
:1035E000FBE710B50446FFF7E3FF08B9204610BD1E
:1035F000203CFBE73038092802D920F020000738AA
:103600007047014400220BE0BF2B15D9F72B1ED8C1
:10361000DB0803F00603E5221A4102F00302013041
:1036200088420ED20378002AEED003F0C003802B2C
:103630000BD1013AD2B2F2E713F0800FEFD00020A5
:103640007047B2FA82F040097047002070470020AE
:103650007047023900E00239814202D30B88002B07
:10366000F9D00231081A40107047994212D314D889
:1036700000EB410002EB410251B130F8023D32F85B
:1036800002CDB3EB0C030AD4002B0BDC0139F3E7BA
:10369000002070474FF0FF307047012070474FF017
:1036A000FF30704701207047B2EB131F1CD910B5D3
:1036B0008446180903F00F0401EB4001101A02467A
:1036C00004E0E3402CF8023B013A02313AB10B88A6
:1036D000012AF6D9B1F802E043EA0E43F1E73CF8DB
:1036E000023C03B9013810BD0020704770B5049D3D
:1036F000541B8446002209E031F802EB33F8026BD8
:10370000B64472442CF8022B120C013D002DF3D16B
:1037100006E031F8023B1A442CF8022B120C013C53
:10372000002CF6D10AB12CF8022BACEB00004010B3
:1037300070BD70B58E46049D541B01464FF0000CC1
:103740000AE03EF8022B33F8026B921B944421F8F6
:1037500002CB4FEA2C4C013D002DF2D107E03EF8A0
:10376000023B9C4421F802CB4FEA2C4C013C002C3C
:10377000F5D1FFF76EFF70BD10B58E46014608E02B
:103780003EF802CB32F8024B0CEA040C21F802CBD3
:10379000013B002BF4D1FFF75CFF10BD2DE9F04792
:1037A0000D46089EDDF824A0DDF828E00B9CBAF158
:1037B000000F0AD10027BEF1000F09D14FF0000819
:1037C0004CB94FF00009014618E04FF6FF77F2E7D9
:1037D0004FF6FF78F4E74FF6FF79F4E7CC46644400
:1037E0000EEA040C87EA0C0C1AFA8CFC21F802CBC6
:1037F000240C4FEA1E4E4FEA1C4A02356AB1B5F856
:1038000000C08CEA080CE644013E013A9642E5D835
:1038100033F802CB8CEA090CE1E7BAF1000F01D0D2
:1038200021F802ABFFF715FFBDE8F08730B5039C28
:10383000121B844608E031F802EB33F8025B4EEAD3
:10384000050E2CF802EB013C002CF4D104E031F819
:10385000023B2CF8023B013A002AF8D1ACEB000005
:10386000401030BD38B58C46049C121B014608E060
:103870003CF802EB33F8025B8EEA050E21F802EB0E
:10388000013C002CF4D104E03CF8023B21F8023B5F
:10389000013A002AF8D1FFF7DCFE38BD2DE9F041EE
:1038A0000D46069E079FDDF820C0DDF82480014606
:1038B0000EE04FF6FF7EC6448CEA0E0417FA84F43D
:1038C00021F8024B4FEA1E484FEA1C4C270C0235E8
:1038D00072B12C8864444FF6FF7CA444013E013A47
:1038E0009642E6D833F8024B4FF6FF7EA644E2E755
:1038F0000FB121F8027BFFF7ACFEBDE8F0818446F2
:1039000091B100B5BCF800E002FB0E332CF8023B8D
:103910001B0C01390029F5D10BB12CF8023BACEBA3
:10392000000040105DF804FB0BB12CF8023BACEB3F
:103930000000401070472DE9F04704460D4616463A
:103940001946089827464FF0000E19E0BEF800C04F
:1039500038F8029BB1F800A00AFB09CC94442EF879
:1039600002CB4FEA1C42013B002BEFD10AB12EF8EB
:10397000022BAEEB040E4FEA6E0E01380237023115
:1039800020B1A8463346BE460022EDE77046BDE8AA
:10399000F08700002DE9F04F85B005460C460192F6
:1039A0001E46DDF83CB00F683946FFF75EFE48B1B1
:1039B000002811DB6FF000403044019B33F81020E9
:1039C000002311E00023236001230E9A1380CBF81B
:1039D000003005B0BDE8F08F0023CBF80030F8E7E9
:1039E000520092B201339BB212F4004FF8D0002281
:1039F00025F81720216801312160AC460AE0BCF8A7
:103A0000001001FA03F73A432CF8022BC3F110021D
:103A1000D1408AB2216805EB41076745EFD8019F85
:103A200037F810209C4602FA03F00290012E09D9C3
:103A3000504A324437F81220C3F1100322FA03F33C
:103A4000184302906FF00043C81805EB4000891B33
:103A5000CBF8001019440E9B03EB41030395CDF8FE
:103A60003CB09B463FE039F8022B02FA0CF242EAE6
:103A700018481FFA88F20EFB02F2298811FA83F126
:103A800097B2C91B25F8021B120CC2EB234202EBB2
:103A90002143A842E7D8B0F8008098442346444622
:103AA000984611E037F8022B02FA0CF242EA15456B
:103AB0000A8812FA85F2134421F8023B1B0C884253
:103AC000F0D81C440EF1FF3E24B15146019F002363
:103AD0001D46F4E744462BF802E90238D8F80030D6
:103AE000013BC8F800302368B3420FD9038830F88F
:103AF00002EC4EEA034E029BBEFBF3FEA0EB460A2D
:103B00005546DDF8049000239846C2E7039DDDF892
:103B10003CB06FF00040184405EB4000002309E082
:103B2000028842FA0CF10B4320F80239CCF1100361
:103B30009A4093B2A842F3D20E9902E0013BCBF82F
:103B40000030DBF800304BB16FF000421A4431F81E
:103B50001220002AF2D001E0013B23602368002BF1
:103B60003FF437AF6FF000421A4435F81220002AB4
:103B7000F2D02EE7FEFFFF7F40B110B5044680680B
:103B8000FEF7C9FC2046FEF7C6FC10BD70470000DA
:103B90002DE9F0470D46089E099CDDF828A04CB998
:103BA0000027BAF1000F08D14FF0000801464FF08E
:103BB000010915E04FF6FF77F3E74FF6FF78F5E7D9
:103BC000C646D64444EA0E0C6FEA0C0C19FA8CFC7B
:103BD00021F802CB4FEA1E4A240C4FEA1C49023559
:103BE0006AB1B5F800C08CEA070C6444013E013AA2
:103BF0009642E5D833F802EB8EEA080EE1E7B9F118
:103C0000000F03D1FFF725FDBDE8F087034B044A01
:103C10004FF4A17103484FF0E7FA00BFC46E06608D
:103C2000706F0660D06E066038B504460D460129F7
:103C300013D9A06820B12368C3F39D03AB420BD214
:103C4000237813F0020F0AD16900FEF74EFCA06042
:103C5000236865F39F03236038BD0225E9E7034B22
:103C6000034A40F2AE2103484FF0BEFAE06E066010
:103C7000906F0660D06E066038B503F10F0E4FEA04
:103C80001E1E13F00F0500D110250EEB02046FF07D
:103C9000004304EB030C00EB4C00134401EB430125
:103CA00000230BE031F802C94CEA0303C5F1100C04
:103CB00023FA0CFC20F802C91B04013A002AF1D1B6
:103CC000C5F11005EB400380CEF101035A0000EB73
:103CD000430552420021284650F06EFF00E0013CAF
:103CE00034B16FF00043234435F81330002BF6D085
:103CF000204638BD38B5036833F0030323D00546AA
:103D00000C20FEF7C9FB04462A78037862F300030F
:103D10000370DBB26FF3410303702868C0F39D00AA
:103D2000236860F39F0323606B6863604000FEF7C5
:103D3000B3FBA0602A68C2F39D025200A96850F04C
:103D4000F9FE204638BD034B034A40F2B521034833
:103D50004FF04AFAF06E0660646F0660D06E06603F
:103D600003786FF300030370DBB26FF3410303705A
:103D700003686FF39F030360002343608360704711
:103D800048B108B5027812F0020F00D008BD806873
:103D9000FEF7C1FBFAE7704738B504460D4649689F
:103DA000FFF742FF2A78237862F3000323706A68E2
:103DB00062605200A968A06850F0BCFE38BD38B5FA
:103DC000054631B903786FF30003037000234360A5
:103DD00038BD0C460221FFF727FF002C06DB2B78AD
:103DE0006FF300032B7000226A600CE02B7843F025
:103DF00001032B706442F6E7A9686A68501C68608A
:103E000021F81240240C002CF6D1E1E738B5044625
:103E10000D46FFF7A5FF29462046FFF7D0FF38BD26
:103E200010B504786FF3000404705FFA84FE4EF05E
:103E3000020E80F800E0046862F39F040460002230
:103E4000426081601946FFF7BAFF10BD70B50646A3
:103E500014461D460421FFF7E7FE9DF8103013EAD3
:103E6000D57309D0337843F001033370624265EBB8
:103E700045030021716010E033786FF30003337065
:103E800022462B46F5E7B06871684C1C746020F838
:103E90001120120C42EA03421B0C52EA0301F2D138
:103EA00070BD2DE9F843074653EC102B1C46DA0F82
:103EB000037862F30003037047F6F07313EA1443C8
:103EC00055D010EE101A47F6F072934254D0C4F356
:103ED0000A56A6F2FF33002B52DB002B54D0A6F279
:103EE000EF38B8F1000F53DB4FEA28185A4203F0BD
:103EF0000F0902F00F0258BFC2F10009C4F3130406
:103F00000D4644F48014332B45DCC3F13400A3F197
:103F10001402C3F11403C14004FA02F2114324FA5B
:103F200003F341EA0305C4404FF000094E46414601
:103F30003846FFF779FEC7F80480C6BBB9F1000F19
:103F400043D005FA09F2BB6823F81620C9F1100323
:103F500009F11009A3F12002DD4004FA09F945EA4C
:103F6000090524FA02F21543DC4001362DE0002158
:103F7000FFF725FFBDE8F8830021FFF720FFF9E7F1
:103F80000021FFF71CFFF5E70121FFF718FFF1E71C
:103F900008F10F08A8E7A9F1340909F00F09A6F202
:103FA0003346002E01DB3611C1E70F36FBE7720006
:103FB0000021B86850F000FEC0E7BB6823F8165037
:103FC0002D0C45EA0445240C01364645F5D1D1E7D0
:103FD0002DE9F041069E242E11D8054688461C4640
:103FE0008F18C2F35B02511CFFF71EFE74B12B78D1
:103FF00043F001032B7000236B6044461BE0174B1A
:10400000174A40F2323117484FF0EEF82B786FF331
:1040100000032B70EFE7A2F16103192B19D8A2F16D
:104020005703B34215D29BB2B2B26968A868FFF7D2
:1040300066FC68600134BC420BD22278A2F13003E6
:10404000092BEED9A2F14103192BE4D8A2F13703D1
:10405000E7E7A4EB0800BDE8F08100BF006F066051
:104060007C6F0660D06E0660F8B5074614461D46A4
:1040700021B1531E1D444FF0FF3600E00126A11C64
:10408000C900013909093846FFF7CEFD3B786FF3C7
:1040900000033B700021796016E02B788B404CEADE
:1040A000030C1FFA8CFC08313544013C0F29CCBFAE
:1040B000002301230CB1002BEFD1BA687B68581C98
:1040C000786022F813C0103914B14FF0000CEDE7FE
:1040D000B868796800EB4101FFF7BBFA7860F8BD7A
:1040E00010B504460B7803F00103027802F00102D8
:1040F000981A0AD14B688A686168A068FFF7B5FA18
:10410000237813F0010F00D0404210BD10B50446D3
:10411000884201D0FFF740FE23786FF3000323703D
:1041200010BD10B50446884201D0FFF735FE636824
:104130003BB1237803F0010282F0010262F3000335
:10414000237010BD10B584B00446884201D0FFF73B
:1041500023FE6268A2B1237813F0010F1DD02378EB
:104160006FF3000323700123ADF80E30A0680093B5
:104170000DF10E030146FFF7DCFA606004B010BDDC
:1041800001212046FFF750FDA268012313806360E0
:10419000237843F001032370F0E7511C2046FFF71A
:1041A00043FD0123ADF80E30A06800930DF10E031E
:1041B00062680146FFF79AFA6060237843F00103D2
:1041C0002370DBE770B505460C464B680BB116460D
:1041D00022B921462846FFF7DFFD70BD02F10F012D
:1041E00003EB1111FFF720FD33466268A168A86850
:1041F000FFF742FD686022782B7862F300032B7092
:10420000EBE7F0B585B005460C46496809B116469E
:104210002AB921462846FFF7BFFD05B0F0BDFFF7DC
:1042200003FD33466268A168A868FFF73DFA68603D
:1042300021782B7861F300032B70DBB213F0010FB0
:10424000EBD04FEA161C06F00F060023ADF80E3037
:1042500000E001336168994209D9634507D2A76834
:1042600037F81370002FF4D00123ADF80E306145FC
:104270000AD9A36833F81C100123B340013B19424B
:1042800002D00123ADF80E30BDF80E30002BC4D0A3
:1042900020B9AA68012313806B60BEE7A9680123D7
:1042A00000930DF10E0302460846FFF71FFA6860FF
:1042B000B3E770B582B005460E461446536892685F
:1042C0004968B068FFF7D1F9002802DB234634467D
:1042D0001E4623783278534013F0010F1AD16168DB
:1042E00001312846FFF7A0FCA1686268B3687068D6
:1042F0000090A868FFF7FAF9686023786A68002AD6
:104300000CBF002303F001032A7863F300022A7034
:1043100002B070BD61682846FFF786FCA16862683C
:10432000B36870680090A868FFF703FA6860E4E774
:10433000F0B583B005460E46144653689268496846
:10434000B068FFF792F900281FDB234634461E466B
:10435000002723783278534013F0010F17D061689B
:1043600001312846FFF760FCA1686268B368706895
:104370000090A868FFF7BAF968606B68ABB92B7852
:104380006FF300032B7003B0F0BD0127E1E7616814
:104390002846FFF749FCA1686268B368706800901E
:1043A000A868FFF7C6F96860E7E74FB1237803F024
:1043B000010383F001032A7863F300022A70E2E725
:1043C00022782B7862F300032B70DCE72DE9F041B3
:1043D00084B006460D4614464A6863689A4202D382
:1043E00023460C461D46237813F0010F03D12B788A
:1043F00013F0010F2CD0616801313046FFF714FC37
:10440000A1686268AB68D5F804E0207895F800C030
:1044100080EA0C080CF00107039700F001000290FD
:1044200018F0010F0CBF012000200190CDF800E032
:10443000B068FFF7B3F9706023782A7802F00102C0
:104440001340327863F30002327004B0BDE8F081AB
:1044500061683046FFF7E8FB6B68AA68A168B0683E
:10446000FFF78AF9706033786FF300033370ECE77D
:10447000F0B585B005460E4614464A6863689A4210
:1044800002D323460C461E46237813F0010F03D1B6
:10449000337813F0010F1BD0616801312846FFF714
:1044A000C3FBA1686268B36877682078347804F049
:1044B0000104029400F0010001900097A868FFF742
:1044C00067FB68602B7843F001032B7005B0F0BDEB
:1044D00061682846FFF7A8FBA1686268B368706846
:1044E0000090A868FFF7A2F968602B786FF30003CB
:1044F0002B70EBE7F0B585B006460D4614464A68CA
:1045000063689A4202D323460C461D4623782A78D4
:10451000534013F0010F24D161683046FFF784FB4C
:10452000237813F0010F0ED1A1686268AB68686848
:104530000090B068FFF796F9706033786FF300036E
:10454000337005B0F0BDA1686268AB686C6800208C
:104550000390029001900094B068FFF79FF970609B
:10456000EBE7616801313046FFF75EFBA1686268E6
:10457000AB686F6820782C7884F0010404F00104A3
:10458000039480F0010000F00100029001200190EE
:104590000097B068FFF782F97060337843F0010349
:1045A0003370CEE7F0B583B004464B6873B30D4665
:1045B0001646536853B381422DD0824233D0002730
:1045C0006968736819442046FFF72EFB2268C2F31E
:1045D0009D0252000021A06850F0EEFAA9686A68B6
:1045E000B36870680090A068FFF7A5F960602B7849
:1045F0003278534013F0010F1ED123786FF300037C
:1046000023703846FFF7B8FA03B0F0BD002120460A
:10461000FFF7D5FBF8E70846FFF76CFB0546A64217
:1046200007D00746CCE71046FFF764FB064607466F
:10463000C6E707460646C3E7237843F00103237025
:10464000DFE770B506464B689BB11446137813F04C
:10465000010F0ED153688BB10846FFF74BFB05469F
:104660002046FFF747FB044601213046FFF7A7FB32
:1046700015E000213046FFF7A2FB70BD0121FFF7D6
:104680009EFBFAE7A068012362680146FFF70CF879
:10469000606088B12A4629462846FFF783FF636891
:1046A00053B1A3681B8813F0010FEBD02A463146A3
:1046B0003046FFF777FFE5E72846FFF75DFA20462B
:1046C000FFF75AFAD9E700002DE9F04186B01F46FE
:1046D0005B68002B45D005460C46164651680131F3
:1046E000FFF7A2FA7268013252000021A86850F068
:1046F00063FA2B786FF300032B70A846002348F869
:10470000043F716801312046FFF78EFA314620469A
:10471000FFF742FBCDF80480AB6800937B68BA6872
:10472000211DA068FFF736F92378616800290CBFC6
:10473000002203F0010262F30003237033783A7819
:10474000534013F0010F09D06B68003B18BF0123E1
:104750002A7863F300022A7063684BB906B0BDE89B
:10476000F0810B4B0B4A40F2CC510B484EF03CFD14
:104770004FF0FF3103A8FFF749FB03AA294628465B
:10478000FFF797FD3A4621462046FFF792FDE5E701
:104790000C6F0660546F0660D06E0660F0B585B091
:1047A00006461F464B68F3B10D461446137813F0C6
:1047B000010F18D17B68012B03D1BB681B88012B2B
:1047C00011D001213046FFF7FAFA63687BB1284621
:1047D000FFF790FA05462046FFF78CFA044601A839
:1047E000FFF7BEFA18E000213046FFF7E8FA05B0FF
:1047F000F0BDA068012362680146FEF755FF6060C6
:10480000E8B12A4629462846FFF7CCFE3B462A4611
:10481000294601A8FFF758FF636883B1A3681B8886
:1048200013F0010FE5D02A4631463046FFF7BAFEB5
:104830003B463246314601A8FFF746FFD9E701A8BB
:10484000FFF79EFA2846FFF797F92046FFF794F9FD
:10485000CDE784468168436801EB4303002004E010
:1048600033F8023C43EA004013469A1E9942F7D3BC
:104870009CF8003013F0010F00D04042704710B494
:104880008468436804EB4303002204E0BCF8003072
:1048900043EA02426346A3F1020C9C4204D2B2F501
:1048A000004FF3D3002006E0037813F0010F00D08F
:1048B00052420A6001205DF8044B70472DE9F8432D
:1048C00016461D460A4609B19C1900E01C46876839
:1048D000D0F804804FF001094FF0000E7346B8F194
:1048E000000F2CD0103337F8021B41EA0E4E09E0BE
:1048F000A4460CF8011BA91961451BD0083B4FEADF
:104900001E2E6446072B17DD1FFA8EF190F800C0AB
:104910001CF0010F06D0C94359FA81FC1FFA8CF133
:10492000CCF30729002AE3D004F1FF3C04F8011C72
:104930006545E3D1BDE8F88308F1FF38CFE74AB118
:10494000621B037813F0010F08D0FF21284650F0B6
:1049500033F9EFE7AA19121B2546F2E70021F5E724
:104960008168436801EB43039FED0D0B0CE033F8C6
:10497000023C07EE103AB8EEC77B9FED0B6B00EEE2
:10498000067BB0EE470B13469A1E9942EFD303788D
:1049900013F0010F01D0B1EE400B7047AFF3008070
:1049A0000000000000000000000000000000F040D7
:1049B0002DE9F84F9A469DF828900B9B53B18346FA
:1049C0000C4617468B1E1E2B0BD8436813BB7AB1BF
:1049D0000B9B12E0444B454A4FF4D06144484EF0E3
:1049E00003FC444B414A40F2816141484EF0FCFBDC
:1049F0000B9B05E0013703F8012B3A78002AF9D127
:104A00001A46302102F8011B002159700B9BD01A65
:104A1000BDE8F88F4FEA43084046FDF73DFD0546E7
:104A20004246DBF8081050F085F80B990E462EE050
:104A3000B0F800C04CEA0343B3FBF4FCA0F800C09C
:104A400004FB1C3302388542F2D93033392B01D9AB
:104A500053443A3BB4460CF8013B2B46934203D2F5
:104A6000188858B90233F9E70123B9F1000F0CD0C7
:104A7000ACEB0102032A03D0664607E00023F4E70B
:104A8000B11C86F801900E4600E0664623B905EB9E
:104A9000080210460023D5E72846FDF73CFD57B134
:104AA000384650F0CBF83B1803E013F8012D06F818
:104AB000012BBB42F9D89BF8003013F0010F02D054
:104AC0002D2306F8013B721E0B9B05E01978107828
:104AD00003F8010B02F801199342F7D30023337056
:104AE0000B9BF01A94E700BF206F0660446F0660CE
:104AF000D06E06602C6F06608368C268934203D252
:104B00005A1C8260187870474FF0FF30704710B51C
:104B1000044603681BB92046FDF7FDFC10BD406844
:104B2000FDF7F9FCF7E70000F8B505460C46164618
:104B30001F461020FDF7B0FC0760446084603444D9
:104B4000C4602860024B6B60024BAB60F8BD00BFD5
:104B5000F94A00600F4B00600069B0F1FF3F14BFDD
:104B600000200120704700690A2814BF002001209E
:104B700070470069814214BF00200120704703691B
:104B80008B4205D0934201D000207047012070472E
:104B9000012070470069884207D0904207D09842B0
:104BA00001D000207047012070470120704701208C
:104BB0007047006988420BD090420BD098420BD0CE
:104BC0009DF80030984201D00020704701207047C6
:104BD00001207047012070470120704740698142E1
:104BE00014BF00200120704743698B4205D09342D7
:104BF00001D0002070470120704701207047836971
:104C00008B4205D0934201D00020704701207047AD
:104C10000120704703698B4201D00020704743692F
:104C2000934201D00020704701207047436943F050
:104C300020036F2B18BF622B05D0782B01D00020EA
:104C400070470120704701207047406930380728BD
:104C50008CBF00200120704710B582B0044622228C
:104C60002721FFF78CFFA0BB6623009362237522E8
:104C700072212046FFF79DFF28B1222227212046DE
:104C8000FFF7B2FF40BB662272212046FFF7C2FF4A
:104C900028B9722266212046FFF7BCFF28B12222E4
:104CA00027212046FFF7ABFFC0B9622272212046C0
:104CB000FFF7B0FF28B9722262212046FFF7AAFF52
:104CC00070B1222227212046FFF799FF10B1012061
:104CD00000E0012002B010BD0120FBE70120F9E750
:104CE0000020F7E710B5044603690A2B1DD0092BF5
:104CF00021D0C36A0133C36262692261A36963611F
:104D0000236F13B3616E8B421CD2A16E581C2067B7
:104D1000CB5CA361EAB9E3692361236A6361636AD7
:104D2000A36100236366236713E0836A0133836210
:104D30000123C362E0E7C36A073323F007030133AB
:104D4000C362D9E70023A361E4E7A36860689847DA
:104D5000A06163690D2B04D0A369B3F1FF3F0AD0B2
:104D600010BD0A236361A3690A2BF5D1A3686068AB
:104D70009847A061F0E76369B3F1FF3FF0D00A2BD9
:104D8000EED00A23A361EBE7026CC16B6FF0004326
:104D90000B4432F813007047C36B013BC363704789
:104DA00038B504460D46C36B816B8B4206D2226C2C
:104DB000E36B591CE16322F8135038BD08314900F8
:104DC000006CFDF792FB2064A36B0833A363EEE74E
:104DD0002DE9F04106469046002405E024012846CE
:104DE000FEF708FC044439464F1E51B13046FFF728
:104DF00079FF35692846FEF7A7FB03460028EDD169
:104E000002E0C8F8004001231846BDE8F081000028
:104E10002DE9F04782B004468A4616462221FFF764
:104E2000A8FE70B94FF027092046FFF75BFF4A46FE
:104E300049462046FFF7EEFE30B9012766B9002546
:104E40003BE14FF02209EFE72046FFF74BFF2046FA
:104E5000FFF748FF0327F1E77F4904F16000FDF702
:104E600073FEECE7D4F8648000250DE021697B290E
:104E700018BF5B293ED10135C9B204F16000FDF7CE
:104E800008FE2046FFF72EFF2046FFF765FE40B9DB
:104E9000002DEBD17D223A212046FFF770FE00283D
:104EA000E4D0A16E626E8B1813F8013C3D2B27D025
:104EB0002C2104F16000FDF7ECFD7B2104F1500092
:104EC000FDF7E7FD3EB37B212046FFF752FE10B30E
:104ED0002046FFF707FF7B212046FFF74AFE002808
:104EE000C0D07B2104F15000FDF7D3FD2046FFF731
:104EF000F9FEE2E77D2918BF5D29BDD1013DBBE781
:104F0000A2EB0802414404F15000FDF717FD636E67
:104F1000013B6366CCE75C212046FFF72AFE0028B0
:104F200000F0C2802046FFF7DDFE2569BAF1000FD0
:104F30003ED1A5F10A036E2B00F28380DFE803F077
:104F4000D3818181818181818181818181818181FF
:104F500081818181818181813D818181813D8181C9
:104F60008181818181818181818181818181818131
:104F70008181818181818181818181818181818121
:104F8000818181817E8181818181815F8181818136
:104F900081813D81818181A4558181815D81818172
:104FA00081818181598181815381575F5B81630058
:104FB0005C2104F15000FDF773FDB5F1FF3F00F0F7
:104FC0009480B5F5881F03D294F84C300C2B5DD03B
:104FD000FF2D03D894F84C300D2B5ED0012384F8BC
:104FE0004C30002566E00D25EBE70825E9E70925AB
:104FF000E7E70A25E5E70B25E3E70C25E1E794F869
:105000004C300D2B10D000230193782D14D0752D2A
:1050100010D0082101AA2046FFF7DAFE10B90123BB
:1050200084F84C30019DC8E75C2104F15000FDF785
:1050300037FDC2E70421EDE70221EBE707485CF00A
:10504000CFFAA5F13008B8F1070F19D95C2104F1A6
:105050005000FDF725FDB0E7A06F0660AC6F06605D
:105060002046FFF73FFE236903EBC803A3F1300896
:105070002046FFF7EAFD28B1013DF1D145469CE706
:105080000325F5E7454698E707259AE7294604F101
:105090005000FDF705FD00250CE0E9B204F15000D9
:1050A000FDF7F7FC002505E0217C04F15000FDF739
:1050B000F0FC00252046FFF715FE2046FFF74CFDCB
:1050C000D8B9012F13D9AF4217D949462046FFF767
:1050D00050FD00283FF4F6AE0135216904F150007F
:1050E000FDF7DEFCE6E70025E4E70025E2E70A211C
:1050F0002046FFF73EFD0028E5D0AF4202D903234A
:1051000084F84C30294604F15000FDF737FD02B019
:10511000BDE8F08708B50069FEF7E6F908BDF8B507
:1051200004460E46002703E02046FFF7DBFD2F462E
:105130002046FFF711FD48B92046FFF714FD05464C
:1051400030B1002EF0D0636B002BEDD13846F8BDA6
:105150002046FFF7DFFF90B923212046FFF709FD26
:1051600088B90A225C212046FFF754FD0028EDD0C3
:105170002046FFF7B7FD2046FFF7B4FDD8E72046ED
:10518000FFF7B0FDD4E72046FFF7ACFD02E0204674
:10519000FFF7A8FD2046FFF7DFFC0028C8D1204616
:1051A000FFF7E1FC0028F2D0C2E708B54069FEF73E
:1051B000BBF908BD08B50069FEF7B6F908BD08B52A
:1051C0000069FEF7A1F908BD10B50446FFF7F7FF27
:1051D00030B923695F2B05D07F2B05D9012000E072
:1051E000012010BD0120FCE70020FAE710B50446BD
:1051F000FFF7EAFF08B1012010BD2046FFF7DAFFF4
:105200000028F9D00120F7E72DE9F8430446436E62
:105210000BB1036F9BB1002161652046FFF77FFF53
:10522000A36A6364E56AA564236B002B1BDB002B78
:1052300020DD072284F84C20013B236318E029215C
:105240006030FDF726FC2369E36163692362A3698B
:105250006362A36E1A7822615A7862619B78A361B7
:1052600003232367D7E7082284F84C200133236304
:10527000BDE8F88318B3636B0BBB062384F84C308E
:10528000013D2046FFF780FDA842F1D00DD229460E
:105290002046FFF785FD236B01332363E8E72046B3
:1052A000FFF77AFD236B013B23632046FFF76CFD7C
:1052B000A842F4D8DCD0022384F84C30D8E720464A
:1052C000FFF74AFC814618B1002384F84C30CFE741
:1052D0002046FFF7C1FC00287BD0002384F84C3027
:1052E0004AE072212046FFF744FC0746A8B162213C
:1052F0002046FFF773FC60B901264FF00C086621C9
:105300002046FFF76BFC054608B3052384F84C30B4
:10531000AEE702264FF00D08F1E766212046FFF7C1
:1053200028FC0546002843D072212046FFF756FC92
:10533000074618B901264FF00C0808E0052384F849
:105340004C3095E74D464F4601264FF00C0894F837
:105350004C3093BB84F84C8096BB2A463946204695
:10536000FFF756FD01212046FFF7D9FE2046FFF743
:1053700073FC00283FF47CAF75212046FFF7F9FB52
:1053800005460028DED162212046FFF7F2FB002807
:10539000A7D072212046FFF721FC074620B9054619
:1053A00001264FF00D08D2E702264FF00D08CEE798
:1053B000074600264FF00C08C9E74345CCD057E715
:1053C0002046FFF78FFC022EC7D12046FFF78AFC4C
:1053D000C3E72046FFF7F8FE0546002842D0092320
:1053E00084F84C3004F15005217C2846FDF751FB30
:1053F0002046FFF777FC06E0217C2846FDF749FBB5
:105400002046FFF76FFC2046FFF7A6FB20B9204699
:10541000FFF7ECFE0028EFD12846FDF72AFB0646F1
:105420000025232D3FF624AF914B53F8251030462D
:105430004FF00DFC20B10028FFF61AAF0135F0E760
:1054400005F10F03DBB284F84C30122B7FF410AF60
:10545000884BD3F844331BB9112384F84C3007E749
:105460000F23FAE72046FFF7A5FE60B92E2120465C
:10547000FFF77FFB10B900277F4D7DE02046FFF747
:1054800094FE0028F7D02E212046FFF772FB60B172
:105490000B2384F84C3004F1500621693046FDF7A7
:1054A000FFFA2046FFF71EFC45E00A2384F84C3043
:1054B00030212046FFF75DFB05460028EBD0204653
:1054C000FFF7B4FB0546E6E70B2384F84C30652173
:1054D0003046FDF7E5FA2046FFF704FC2B21204675
:1054E000FFF747FB20B92D212046FFF742FB10B301
:1054F00021693046FDF7D4FA2046FFF7F3FB1AE0A6
:105500002046FFF757FE48BB2E212046FFF731FB10
:1055100020BB5F212046FFF72CFB00283FF4A8AEFC
:105520002046FFF7DFFB06E021693046FDF7B8FAB9
:105530002046FFF7D7FB2046FFF70EFB00287FF43D
:1055400097AE35B9452265212046FFF718FB0028A4
:10555000BAD12046FFF733FE0028D1D04A236A2271
:105560002E212046FFF716FB0028DDD00B2384F800
:105570004C30D9E7013701352E7856B131462046F7
:10558000FFF7F7FA28B9632E18BF652EF2D101355F
:10559000F0E72046FFF7A6FB2B781BB9012384F820
:1055A0004C3065E6212B04D02E2B12D00135B846A5
:1055B0002DE03D212046FFF7DCFA18B9012384F8DD
:1055C0004C3055E62046FFF78DFB3A2384F84C30EB
:1055D0004EE62E2211462046FFF71CFB18B95D232C
:1055E00084F84C3044E62046FFF77CFB2046FFF76A
:1055F00079FB0E2384F84C303AE608F1010869780B
:105600002046FFF7B6FA08BB632E05D002352E7888
:10561000632EF2D0652EF0D0184BDB5D84F84C3051
:10562000572B18BF552B1BD0563B042B3FF620AEF3
:1056300001A252F823F000BF695600607152006069
:105640006956006061560060695600602046FFF7A9
:1056500049FB2B78652B01D04746D7E74746DBE768
:10566000636B0133636303E6636B013B6363FFE5D5
:10567000F070066000080020C46F0660C470066009
:1056800070B584B0064601AD85E80E007420FCF7C5
:1056900003FF0446034643F8046B95E8070083E8DC
:1056A00007000123A3626FF00102E2620025256377
:1056B00065630A22A263E3631420FCF7EDFE206415
:1056C000202104F15000FDF766F9294604F160003D
:1056D000FDF761F9236C1D80A56165612561204698
:1056E000FFF700FB2046FFF7FDFA2046FFF7FAFA26
:1056F0002046FFF789FDA36C012B02D0072384F815
:105700004C30204604B070BD30B585B0054601ACC4
:105710002046FFF709FA94E80E002846FFF7B0FF8D
:1057200005B030BD30B585B0054601AC0146204618
:1057300023F060FD2846FDF74DF894E80E00FFF7D2
:105740009FFF05B030BD98B110B50446C3684068EE
:10575000984704F15000FDF747F904F16000FDF7A8
:1057600043F9206CFCF7D7FE2046FCF7D4FE10BDB1
:1057700070470000F8B505460E4617463020FCF786
:10578000B0FE04460570C660012D18BF072D0DD16F
:1057900036B116F0030F03D1B3681B09838208E00A
:1057A0000A4B0B4A38210B484DF01EFD0A4B5B5D3E
:1057B000838209F0F9FD206127830423E3842020FC
:1057C000FCF76AFEE0622046F8BD00BF107B066071
:1057D000C87B06602C7B0660D47B066010B504464F
:1057E000C06AFCF798FE2046FCF795FE10BD024605
:1057F0000023008D98420ED910B4D06A00EBC3008C
:1058000044688C4204D00133108D9842F5D80020B2
:105810005DF8044B70470020704770B504460E4693
:105820001546FFF7E4FF034608B1184670BD238D07
:10583000E18C8B420CD2E16A228D531C238501EB53
:10584000C20301F8325000225A705A805E60ECE7C1
:105850000631C900E06AFCF748FEE062E38C0633DB
:10586000E384E8E738B50D46446864B1636883B102
:10587000002229462046FFF7D0FF03787BB9062394
:1058800003706468F2E70E4B0E4A73210E484DF028
:10589000ABFC0E4B0B4A75210B484DF0A5FC042BBD
:1058A00004D0053BDBB2012B03D838BD05230370C0
:1058B000FBE7074B034A822103484DF095FC00BFEC
:1058C000407B0660AC7B06602C7B0660587B0660E4
:1058D0006C7B066008B5034618465B68002BFBD15D
:1058E000FFF785FF08BDF8B507460E4644686CB162
:1058F0002046646854B175682946FFF778FF002890
:10590000F6D00378043BDBB2022B00D9F8BD0623A6
:10591000337029463846FFF7A5FFF7E783682BB9B0
:1059200021B111F0030F01D10B688360704703466A
:10593000C068421CDA607047036A1B8B012B02D0DF
:10594000C3680B44C360704710B50446836A9B6FFD
:10595000406A9847238B01339BB22383226A918C40
:105960008B4200D9938410BD2DE9F04106461C46B8
:105970000F4631B111F0030F03D14B68D9B29142F8
:1059800005D017B139463046A047BDE8F0814FEA4F
:105990001328002505E0AB1C57F823103046A0471C
:1059A00001354545F7DBF0E708B5034B9D228968D3
:1059B000FFF7DAFF08BD00BF8591006008B5034B13
:1059C0006B228968FFF7D0FF08BD00BF8996006091
:1059D00010B50446836AD3F884300021406A9847A2
:1059E000A36A1B6B1021606A9847A36AD3F8C8307A
:1059F0000121606A984703212046FFF79DFF10BDF3
:105A000038B50446836A5B6C0022406A9847A36AF3
:105A1000D3F8BC5000231A461946606AA8472046AE
:105A2000FFF7D6FF38BD08B5836A1B6D8968002271
:105A30000909406A984708BD8068704738B5044630
:105A4000836ADD6B0846FFF7F7FF0146606AA847E7
:105A500038BD70B505460C4600F1080601213046F8
:105A60005BF0E6FDE100012241F0020130465BF00F
:105A7000B3FD01234360002105F114000FF000FC89
:105A800070BD10B50446084611461A46FFF772FE6F
:105A9000236A436000238360E3692BB11A469B6845
:105AA000002BFBD1906010BDE061FCE72DE9F041D7
:105AB00082B00446C38A13F0040F11D0038D013B5A
:105AC000002511E065B16B4695E8030083E803000B
:105AD00092E8030085E8030093E8030082E80300EE
:105AE000002525842CE0013B002BF9DBE26A02EB68
:105AF000C302517811F0020FE4D1002DF3D1012936
:105B0000F1D11546EFE7D8F804200A2A22D116E091
:105B10000323F35523E0238B032B04D0E38A43F0C4
:105B20001003E3821EE0D8F804000AF014FA0128FA
:105B300018DCF3E7238C5A1C2284A8F802300135C4
:105B4000238DAB4217DDE66AEF0006EBC50823782C
:105B5000012BD8D0012B02D9F35D012BD8D0F35DF6
:105B6000032BD8D0F35D042BE4D098F8013013F068
:105B7000010FE4D0DEE7002300E00133228D9A42DA
:105B80000FDDE26A02EBC30112F83320052AF4D1DB
:105B90004A7812F0010FF0D1228C4A80013222841F
:105BA000EBE76368002B4DD0002005461DE0274B36
:105BB000274A40F64D5127484DF016FB0133228D00
:105BC0009A4211DDE26A02EBC30112F83320062A81
:105BD000F4D177684A689742F0D14A7812F0010F01
:105BE000E5D14D800135E9E7013063681A8D8242C5
:105BF0000ADDDB6A03EBC00613F83030053BDBB28D
:105C0000012BF1D80023DAE7002D1BDD002303E090
:105C10004A882A444A800133228D9A420BDDE26A87
:105C200002EBC30112F83320062AF1D14A7812F0B0
:105C3000010FF0D0ECE7ADB2638B2B446383238C70
:105C40001D44258402B0BDE8F08100BFDC7B066006
:105C5000DC8A0660007C06602DE9F04F85B0B2F169
:105C6000000920DB07460E469A46002B22DB002B5C
:105C700003DDCB8A43F00803CB82A6F81E903A6A74
:105C8000D38A43F03003D3823B6A1B78002B43D185
:105C9000BB6AD3F8B04053464A463146786AA047BB
:105CA00005B0BDE8F08F274B274A4FF41B712748FA
:105CB0004DF09AFA264B244A40F26D2123484DF0CC
:105CC00093FA0134338DA34216DDF36A03EBC40269
:105CD00013F83430062BF4D1D8F8041053689942E5
:105CE000EFD1BB6AD3F810900023B8F80220786A8D
:105CF000C8470BF1010BE4E701353B6A1A8DAA4254
:105D00000FDDDB6A03EBC50813F83530053BDBB26A
:105D1000012BF1D80024D5E70025AB46CDF80C9037
:105D2000EBE7DDF80C90BBF1000FB1D0BB6AD3F804
:105D3000B440CDF800A04B465A463146786AA04799
:105D4000AEE700BF147C0660148A0660007C066023
:105D5000287C06602DE9F04104460E4611461A469D
:105D60008578003D18BF0125B0F81080478A0023D0
:105D7000837003824382104BFFF7F6FD63680BB11B
:105D8000BDE8F081618A59B1238A4BB9A36AD3F87F
:105D90009C300022606A9847A36A1B6C606A98472F
:105DA000238A628A31462046FFF756FFA570A4F881
:105DB00010806782E4E700BF896F006038B5044651
:105DC0000D464378012B06D04C23AA68296920464A
:105DD000FFF7C0FF38BD036A1B8B0A460221FFF79D
:105DE00050FE2861F0E770B505460C464378012B5C
:105DF00008D0A6694623E26831462846FFF7AAFF85
:105E0000B08A70BD13460A460721FFF73AFEA0612B
:105E1000EFE7000010B5038B63B10446013B038339
:105E2000836AD3F88030406A984701212046FFF703
:105E300083FD10BD034B044A4FF4937103484DF0AA
:105E4000D3F900BF3C7C066010890660007C0660C8
:105E500070B5044615468368C3F3DC06C069023694
:105E60007600013E00EB96008000FCF715FBA86071
:105E700026F003063044E860002307E0174B184A79
:105E800040F2D91117484DF0AFF90133E16899425A
:105E900017D904F108014A689342EFD28A6852F890
:105EA0003310002918BF0429EFD0216901EBC30288
:105EB0005268521051F83310C908A86820F812101F
:105EC000E3E7002306E0216AEA6851F8231042F86C
:105ED00023100133E1699942F5D870BD587C066002
:105EE000848806606C7C066038B5436803B138BDB1
:105EF00004460D46114604480CF030FF6060294608
:105F00002046FFF70BFDF2E788C006602DE9F04F51
:105F10008DB00546427001620023C3600B78072BE9
:105F200030D10E469046012A05D9036B1B68021D2D
:105F30004146C06A9847F7685FB317F0030428D159
:105F4000059797F80490B9F1030F29D16B78032BCB
:105F50002DD03969002950D001F00F030493022B92
:105F600044D10B09752B4BD035D83E2B4AD05E2B34
:105F700037D17B690B930AAA19210BA85BF040FB70
:105F8000824672E0A04A0021FFF7AEFF0DB0BDE8E7
:105F9000F08F9E4B9E4A40F666419E484DF024F994
:105FA0009D4B9B4A40F668419A484DF01DF909AA5D
:105FB000462107F10C005BF023FB01462B6B9B682D
:105FC000099AE86A984770836B68002BC1D0059BDB
:105FD0001B68AB60DAE7B3F59B6F02D1CDF8109088
:105FE000C7E78E4A2846FFF77FFFCFE78C4A28464F
:105FF000FFF77AFF02230493BBE702230493B8E779
:106000000494B6E701230493B3E7864B804A40F635
:10601000984180484DF0E8F8834A2846FFF764FF2E
:10602000B4E7824B7A4A40F6A5417A484DF0DCF855
:10603000012866D1089B1B6803F00F03022B60D177
:106040002846FFF774FC0146B8F1010F08D92B6B05
:10605000DB68089A12681209E86A9847002858D045
:106060006B68002B40F0AD800134544580F0AB806C
:106070004FEA840B0A9B53F824100029C5D011F075
:10608000030FC2D10B79082BEED0052BC4D18B683E
:10609000002BC6D013F0030FC3D1CA68002ABBD1AE
:1060A0001A792C2AB8D19F6807F00F02022AB3D1BF
:1060B000DE68002EB0D016F0030FADD13379302B4F
:1060C000AAD13F0908AAA42106F108005BF098FABA
:1060D000814640F2F1339F42AAD040F23B339F42C7
:1060E0001FD040F27A339F4232D0B8F1010FB7D9B6
:1060F0002B6BD3F810B0089B02463946E86AD847A4
:10610000AEE74B4A0A9B53F80B102846FFF7ECFE0C
:106110003CE7484A0A9B53F80B102846FFF7E4FE79
:1061200034E701280CD1089B196811F0010F07D042
:10613000B8F1010F94D94910E86A04F043FA8FE7E7
:106140003D4A0A9B53F80B102846FFF7CDFE1DE78A
:10615000012822D9089B1B6813F0010F1DD0B8F14C
:10616000010F7FF67DAF5B100127CDF81CB00696BE
:106170009B464F4523D209A9089B53F827005BF0A3
:1061800033FA90B1EE6A09980EF047FC0246594680
:10619000304604F01EFA0137EBE7284A0A9B53F811
:1061A0000B102846FFF7A0FEF0E6DDF81CB0244AED
:1061B0000A9B53F80B102846FFF796FEE6E6069E6C
:1061C0004EE7059603E76B78012B07D92B6B5B68CD
:1061D0000499E86A98476B78042B04D06B68002B0D
:1061E0007FF4F5AED2E6EB6ADA68296A9B684C8BDD
:1061F00008690499039102940021019100910521FD
:1062000009F0F0F8EAE700BF7C7C0660A07C06603D
:10621000C08A0660007C0660C47C0660F47C066070
:10622000047D06602C7D0660507D0660747D0660EE
:106230009C7D0660B87D0660C87D0660E47D0660D2
:106240000C7E066008B5024AFFF74EFE08BD00BF8F
:10625000307E066070B505460E46137813B1062BE6
:1062600010D170BD1446012313701146006AFFF768
:106270003AFB2378012BF4D1044A31462846FFF734
:1062800033FEEEE7024AFFF72FFEEAE7507E066094
:10629000707E066070B504460B79092B0FD0C58A55
:1062A0004FF6FF739D420CD0228B638B9A420DD325
:1062B000A16A4E6FD21A2946606AB04770BD858ABE
:1062C000EEE7064A2046FFF70FFEEDE7044B054ACE
:1062D00040F2094104484CF087FF00BF947E0660FD
:1062E000B47E0660F48A0660007C066010B514680F
:1062F0004FEA141CBCF1730F2BD1022913D1516842
:106300000A09412A15D040F22F44A24214D040F28B
:10631000F744A24214D040F24334A24214D10422E2
:106320001A60012016E00C4A2146FFF7DDFD01202E
:1063300010E0012018600DE002221A60012009E03F
:1063400003221A60012005E0034AFFF7CDFD01207A
:1063500000E0002010BD00BFF07E066010B50446CE
:106360000170032902D00023638010BD408810B95A
:1063700000236360F7E78000FCF7B3F86060F2E7A2
:10638000C1B138B5044601F00F03022B04D00A4A0C
:10639000FFF7AAFD002038BD0D09284609F0DBFDF6
:1063A0000028F8DA2A46054905480CF0AFFD606080
:1063B0000020F0E700207047247F0660107F066011
:1063C0003CC106602DE9F84305460C461646026AB4
:1063D000D08A10F0020F1CD101F00F0102291DD04C
:1063E0006CB314F0030F2AD127462179B1422DD086
:1063F00099423BD09DF82030994269D1A1680909A2
:1064000040F00200D0824FF0050900296BD1BDE8B1
:10641000F883494A2846FFF767FDF8E72109AB787A
:1064200033B1938B0133938300274FF00109ECE7DD
:10643000538B0133538300274FF00109E5E73F4BAE
:106440003F4A40F615313F484CF0CEFEA16809099D
:10645000AB782BB1938B013393834FF00109D4E7D1
:10646000538B013353834FF00109CEE7AB78C3B9A7
:106470000123AB70A168002931D001F00F03022B7A
:1064800015D011F0030F1CD10B794B2B19D1D38AE6
:1064900043F00403D382A768B96809094FF00309E0
:1064A000B3E7254A21462846FFF71EFDAFE7D38A0A
:1064B00043F00403D382A168090900274FF00309C0
:1064C000A3E7214B1E4A40F634311E484CF08CFEA7
:1064D0001E4B1B4A40F63C311A484CF085FE002703
:1064E0004FF0030991E70022286AFFF796F98046EA
:1064F0000378DBB90423037080F801902B6A1B8BAF
:10650000032B84D13B1E18BF0123482E7FF47FAF9D
:10651000002B3FF47CAFF9682846FFF731FF98F86D
:10652000013043EA001388F8013070E7084A214639
:106530002846FFF7D9FC6AE748750660107B0660BD
:10654000908A0660007C0660487F0660807F066057
:10655000B07F066000B583B0502300934F234E22D6
:10656000FFF730FF03B05DF804FB00B583B04A23AA
:10657000009349234822FFF725FF03B05DF804FB91
:1065800008B54278012A07D00B46026A816A1031A9
:10659000406A03F033F908BD006AFFF73EF9FAE7F5
:1065A00000293BD038B504460D4611F0010F05D047
:1065B000836A5B6B4910406A984738BD11F0030F3E
:1065C00016D0090905F00F05022D09D0062D0AD0B5
:1065D0000629F2D0836A1B6BC9B2406A9847ECE780
:1065E000FFF7CEFFE9E7836A9B6B406A9847E4E7D1
:1065F000836ADB680968406A98472B793A2B06D88A
:10660000074A52F82330294620469847D5E7054BDC
:10661000054A40F6E62105484CF0E6FD704700BF0C
:106620006C8B0660C87F0660308A0660007C06605E
:106630002DE9F04704460D461646022A19D1D5F831
:106640000C80B8F1000F0DD018F0030F0AD14746A7
:10665000D8F80430DAB28E2A0FD03B79312B2FD004
:10666000322B4FD03C4A29462046FFF73DFCBDE87F
:10667000F0878968FFF794FFE1E74FEA132A022EBB
:106680000FD04FF0000908E009F1020357F823107A
:106690002046FFF785FF09F101090AF1FF334B4559
:1066A000F2DC0AF1010A58F82A7017B117F0030F4B
:1066B000D3D02A4B2A4A4FF4E9712A484CF094FD72
:1066C000022E09D1A36A5B6E606A9847A36ADB6CED
:1066D0000121606A9847CAE7B9682046FFF760FF62
:1066E000012E05D0A36ADB6C0121606A9847BEE7E2
:1066F000A36A9B6D606A9847A36ADB6C0021606A9D
:106700009847B4E7BB6803F00F03022B0BD1012EAF
:1067100010D0022E1AD0A36A1B6DB9680122090994
:10672000606A9847A3E7104B0D4A4FF4F2710D4889
:106730004CF05AFDA36A5B6D606A9847A36A1B6DB3
:10674000B96800220909606A984790E7A36A1B6E3E
:10675000606A9847DFE700BF28800660FC7F06601C
:106760004C8A0660007C06601C7406602DE9F047C8
:1067700007460C4615461E4608465AF045FE38B1F7
:1067800025B9BB6A9B6E3146786A9847BDE8F087A9
:1067900020465AF095FED0B974B114F0030F0BD116
:1067A00063684FEA1329DBB21E2B18D01F2B4ED083
:1067B000202B51D02D2B57D021463846FFF7F0FE25
:1067C000BB6ADB6E32462946786A9847DEE7002DC1
:1067D000DCD0BB6A9B6E3146786A9847D6E79DBB92
:1067E0003846FFF7A4F882464FF000080BE008F1A6
:1067F0000201534685F0010254F821103846FFF794
:10680000B5FF08F1010809F1FF324245EFDC09F15B
:10681000010133462A4654F821103846FFF7A6FFF7
:10682000BB6A9B6A5146786A9847AFE708F1020154
:1068300033462A4654F821103846FFF797FF08F1EF
:106840000108C845F2DBA1E74FF00008F9E7002D89
:10685000C6D14FF00008F4E7334685F00102A16885
:106860003846FFF783FF91E7A3686BB113F0030F7E
:1068700013D11B79922B10D1002D87D0BB6A9B6E50
:106880003146786A984781E7002D7FF47FAFBB6A75
:106890009B6E3146786A984778E7034B034A4FF47A
:1068A000D97103484CF0A0FC44800660408A066021
:1068B000007C066010B50446036A1B78072B18BFDE
:1068C000022B11D1896899B9836A1B6B1021406A28
:1068D0009847A36AD3F8C8300021606A984701211D
:1068E0002046FFF729F810BD0F4AFFF7FDFAFAE737
:1068F00011F0030F02D10B79AF2B0DD02046FFF71B
:106900004FFEA36AD3F8C8300021606A984701217E
:106910002046FFF711F8E6E78968FFF741FE2046B9
:10692000FFF756F8DFE700BF8480066070B54B685C
:106930001B0A022B21D104461646CD6825B315F05B
:10694000030F21D12B79AC2B1ED14378012B22D000
:1069500000231A4669692046FFF77EF9E968204658
:10696000FFF71EFE062E1ED0A36AD3F8B8500023F0
:106970001A460121606AA84770BD0E4B0E4A40F6C8
:106980009A110E484CF030FC0D4B0B4A40F69B110F
:106990000A484CF029FC036A1B8B0A463146FFF774
:1069A00070F86861D4E7A36AD3F884300021606A84
:1069B0009847D9E7A0800660FC890660007C0660E5
:1069C000CC80066038B505460C46C968FFF7E8FD7F
:1069D000A1682846FFF7E4FD38BD000038B504463D
:1069E0000D460B79342B16D0836A1B6B1021406A3D
:1069F00098472B79352B1DD1AD6815BBA36A1B6B4E
:106A00001021606A9847A36AD3F89C3004220221BF
:106A1000606A984738BD8968FFF7C2FDED6815B117
:106A200015F0030FE5D03B4B3B4A40F655213B4860
:106A30004CF0DAFB3A4B384A40F65C2137484CF0D0
:106A4000D3FB15F0030F59D12B799A2B0DD09B2B2B
:106A500025D029462046FFF7A3FDA36AD3F89C3032
:106A600004220221606A9847D4E7A36A1B6B1021B5
:106A7000606A9847A96839B9A36AD3F89C300422A0
:106A80000221606A9847C5E72046FFF789FDA36A9F
:106A9000D3F89C3004220321606A9847BAE7A968BA
:106AA0002046FFF77DFDEB687BB113F0030F0CD19F
:106AB0001A799C2A10D19968A9B9A36AD3F89C3095
:106AC00004220221606A9847A4E7124B124A40F65A
:106AD000712112484CF088FB124B0F4A40F673218B
:106AE0000E484CF081FB2046FFF75AFDA36AD3F80D
:106AF0009C3004220321606A98478BE72946204690
:106B0000FFF74EFDA36AD3F89C3004220221606A8D
:106B100098477FE708810660E8890660007C066088
:106B2000308106606481066010B504468968FFF70D
:106B300037FDA36ADB6C0021606A984710BD000036
:106B40002DE9F04383B0044615468E6856B9002AF5
:106B500000F0C080836AD3F89C3002220021406A92
:106B60009847B7E016F0030F40F0A9803379372B30
:106B70001CD09F2B40F0A380F06848B310F00307AF
:106B800026D10379A12B2AD0AC2B40F08B80B3689F
:106B900033B113F0030F03D11B79372B00F0898039
:106BA000052231462046FFF7C1FE93E032B1836AE9
:106BB000D3F89C3002220121406A98473146204692
:106BC000FFF7EEFCA36AD3F8A030606A984781E033
:106BD000424B434A40F6E91142484CF005FB01AAFA
:106BE000A22108305AF00CFD8046B16829B111F09D
:106BF000030F02D10B79372B05D02046FFF7D0FCCD
:106C00004FF0000921E035B1A36AD3F89C3002228D
:106C1000411C606A9847B1682046FFF7C1FCA36A2F
:106C2000D3F8A030606A98474FF001090DE00025C5
:106C30002046FFF7B5FCB9F1000F1FD0C5B1A36A1C
:106C4000D3F8A030606A9847013747451ED2019BB0
:106C500053F827100029EAD011F0030F04D10B7963
:106C6000372B03D00025E3E70025E1E70125DFE727
:106C70001D4A31462046FFF737F92BE0002DE3D0BF
:106C80001A4A31462046FFF72FF923E0B9F1000FE9
:106C900020D1A36AD3F89C30032208F10101606A75
:106CA000984717E0124B0E4A40F624210D484CF04D
:106CB0009BFA042231462046FFF738FE0AE03146AF
:106CC0002046FFF76DFCA36AD3F89C300322012114
:106CD000606A984703B0BDE8F08300BF0881066092
:106CE000CC890660007C066094810660B4810660F1
:106CF000D481066008B50122FFF722FF08BD00001D
:106D000038B505460C46C968FFF74AFCA168C1F3CF
:106D10000711342910D04039C9B2012905D8AB6A0E
:106D2000D3F89430686A984738BD044B044A40F65B
:106D3000CF0104484CF058FA0221F0E7BC7306601A
:106D400090890660007C0660F8B505460E464F68DF
:106D50003F0A8968FFF724FC012412E0023356F849
:106D600023102846FFF71CFC023456F82430C3F3E6
:106D70000713A3F12501AB6AD3F89830C9B2686A4A
:106D80009847631CBB42E9DBF8BD2DE9F04105469D
:106D90000E464F685FFA87F8A8F10D085FFA88F889
:106DA0003F0A8968FFF7FCFB01240CE0A31C56F89E
:106DB00023102846FFF7F4FBAB6AD3F8983041461E
:106DC000686A98470134BC42F0DBBDE8F0810000FE
:106DD0002DE9F84304460F464E68360A8968FFF7E6
:106DE000DFFB032E04DC4FF000084FF0010918E030
:106DF0002046FEF79CFD8046F7E7C3F30713262BDA
:106E00003FD0353BD9B2A36AD3F89830606A98472F
:106E1000B54205DAA36A1B6F42460021606A9847B3
:106E2000A94609F10103B34249DA023357F82310A6
:106E30002046FFF7B5FB09F10205B54207DAA36A60
:106E40005B6D606A9847A36A5B6E606A984709F158
:106E5000020957F8293003F00F020A2ACDD093B166
:106E600013F0030F0FD11A79852A13D0862A18D16F
:106E70009B68EBB9A36AD3F898300721606A9847FA
:106E8000C6E70621BFE7204B204A4FF4096120489E
:106E90004CF0AAF9A36AD3F898303221606A984777
:106EA000B6E71C4B194A40F6960119484CF09CF97C
:106EB000A36AD3F898303321606A9847A8E7032E75
:106EC00001DCBDE8F8832046FEF731FD0546A36AE4
:106ED0009B6E0146606A9847A36A9B6A4146606A56
:106EE0009847A36A9B680121606A9847A36A1B6E52
:106EF000606A9847A36ADB6D606A9847A36A9B6AD9
:106F00002946606A9847DCE7048206607C8906604F
:106F1000007C06602C82066010B504468968FFF785
:106F20003FFBA36AD3F894300321606A984710BDF1
:106F30002DE9F84305460F4691F80490B9F11E0F6C
:106F400014BF4FF000094FF00109FEF7F0FC804636
:106F50007E68360A0024B4420FDAA31C57F82310C7
:106F60002846FFF71DFB0134B442F4DAAB6A1B6F0D
:106F700042464946686A9847EDE7AB6A9B6A4146D4
:106F8000686A9847BDE8F88370B5044601F00F03BE
:106F9000022B12D051B111F0030F07D10B794F2BF7
:106FA00018BF492B0CD10123A37070BD3A4B3B4A4B
:106FB00040F29B213A484CF017F94FF0FF33EEE7CF
:106FC000B3F1FF3F1FD029DB502B27DC482B25DBFB
:106FD000483B082B22D801A252F823F00170006030
:106FE0001D700060AB6F00601D7000601D70006060
:106FF0001D7000602B7000601D700060AB6F006042
:107000008E680D69A5B9A378002BCED1638A002BB9
:10701000CBD0244A2046FEF767FFC6E7224B1F4A23
:107020004FF430711E484CF0DFF88E68CD68E9E708
:10703000A3784BB3238A01339BB22382012B0ED05A
:1070400029462046FFF7ACFAA36A9B6B3109606AB8
:107050009847A36AD3F8A030606A9847A5E7618A89
:1070600069B1A36AD3F89C300022606A9847A36A8A
:10707000D3F89C3002220021606A9847E0E7A36AB7
:107080001B6C606A9847F2E7638A01336382294682
:107090002046FFF785FA88E7107B06605C8906606A
:1070A000007C066064820660448206602DE9F0413F
:1070B000CD68002D33D004460E4615F0030F2ED1B7
:1070C0002B79812B2BD1FEF732FC80462046FEF730
:1070D0002EFC074643460022A9682046FFF746FBE0
:1070E000B1682046FFF75CFAA36A9B6E3946606A76
:1070F0009847A36A9B6A4146606A9847A36A9B685F
:107100004FF0FF31606A9847E9682046FFF748FA78
:10711000A36A9B6A3946606A9847BDE8F081034BD1
:10712000034A40F6340103484CF05EF8948206604E
:1071300044890660007C06602DE9F84F04460D4640
:10714000B0F814A0B0F81690B0F81A80FEF7EFFB74
:1071500006462046FEF7EBFB0746A682E082238B1D
:107160006383A8685AF050F980B1A4F814A0A4F879
:107170001690A4F81A8029692046FFF711FAA36A2D
:107180009B6A3146606A9847BDE8F88F2046FEF753
:10719000CEFB8346A8685AF093F920B9A36A9B6E88
:1071A0003946606A9847A36A9B6A5946606A98475D
:1071B000E9682046FFF7F4F9A36A9B6A3946606ADA
:1071C00098475B460122A9682046FFF7CFFACCE733
:1071D0002DE9F04782B006468946FEF7A8FB8046B7
:1071E000D9F808005AF010F928BB3046FEF79FFB8B
:1071F000044603460022D9F808103046FFF7B6FAD5
:10720000D9F80C103046FFF7CBF9D9F808005AF03E
:1072100057F9002854D1D9F8103013B9D9F81430DF
:1072200023B1B36A9B6E4146706A9847B36A9B6A02
:107230002146706A984701AA712109F110005AF09D
:10724000DFF90746002507E0214B224A40F2425170
:1072500021484BF0C9FF0135BD422CD2019B53F8A8
:107260002540002CF0D014F0030FEDD12379722BC0
:10727000EAD1A0685AF0C8F80028ECD13046FEF7F1
:1072800056FB824603460022A1683046FFF76EFA9D
:10729000E1683046FFF784F9A0685AF011F978B92F
:1072A000B36A9B6E4146706A9847B36A9B6A5146BF
:1072B000706A9847CFE7D9F814103046FFF770F995
:1072C000B36A9B6A4146706A984702B0BDE8F0878E
:1072D000D48206605C8B0660007C0660184BD3F895
:1072E000443303B1704770B504460D46FEF71FFBEB
:1072F000064603460122A9682046FFF737FAA36A2B
:107300005B6901221F21606A9847E96859B9A36A3D
:10731000D3F8C4300121606A9847A36A9B6A31465A
:10732000606A984770BD2046FFF73AF9A36AD3F820
:10733000B85000231A460121606AA847E7E700BF5A
:107340000008002038B504468D6835B9836AD3F843
:10735000C4300021406A984738BD15F0030F02D1B0
:107360002B795E2B0AD029462046FFF719F9A36A2C
:10737000D3F8C4300121606A9847EDE7A968FFF7A8
:107380000FF9E9682046FFF70BF9A36AD3F8C43078
:107390000221606A9847DFE710B504468968FFF765
:1073A000FFF8A36ADB6D606A984710BDF8B5044624
:1073B000036A1B78072B0CD18D6875B9836A1B6B28
:1073C0001021406A9847A36AD3F8C030606A984792
:1073D000F8BD164AFEF788FDFAE715F0030F02D153
:1073E0002B791B2B04D029462046FFF7D9F8EAE772
:1073F000EF68FEF79CFA064603460022B96820466D
:10740000FFF7B4F9A9682046FFF7CAF8A36AD3F8D2
:10741000C030606A9847A36A9B6A3146606A9847A1
:10742000F9682046FFF7BCF8CDE700BF108306607F
:10743000F8B505460F464E68360A002406E0A31C40
:1074400057F823102846FFF7ABF80134B442F6D3BF
:10745000AB6AD3F89C3000223146686A9847F8BD81
:1074600008B5896839B9836AD3F89C30002211467F
:10747000406A984708BD11F0030F11D14B68DAB28A
:10748000922A0DD11B0A022B07D1CB682BB113F026
:10749000030F02D11B79AC2B09D0FFF7C9FFE9E735
:1074A000054B064A40F6B71105484BF09DFE0622F3
:1074B000FFF73CFADEE700BF44800660B88906604B
:1074C000007C0660F8B505460E464F683F0A00246A
:1074D00000E00134BC420EDAA31C56F82310284603
:1074E000FFF75EF86B68002BF3D0023456F82410D7
:1074F0002846FEF713FAF8BD10B50446FFF7E2FF81
:10750000A36AD3F898302221606A984710BD38B535
:1075100004468D683DB9836AD3F89C30012200216E
:10752000406A984738BD15F0030F03D16B68DAB293
:10753000922A0BD029462046FFF732F8A36AD3F8E7
:107540009C3001221146606A9847EBE71B0A022B28
:1075500007D1EB682BB113F0030F02D11B79AC2BD1
:107560000CD029462046FFF7ADFFA36AD3F89C3024
:1075700069680122090A606A9847D3E7032229460D
:10758000FFF7D4F9CEE708B54278012A07D00B46B9
:10759000026A816A1831406A02F030F908BD006A57
:1075A00002F019F9FAE7000008B571B10B4611F0C5
:1075B000030F14D001F00F01022928D119095AB183
:1075C000022A09D0FEF7DCFF25E0344B344A40F2B2
:1075D000112134484BF008FEFFF7D5FF1BE0496846
:1075E0005FFA81FCBCF12D0F1CD009D8BCF1060F4D
:1075F0000CD0BCF12C0F0AD11946FFF719F80AE09C
:10760000BCF12E0F34D0BCF19D0F00D122B1264A1F
:107610001946FEF769FC08BD03F10802090A00F0EB
:10762000C7F8F8E799680029F1D011F0030F18D1D5
:107630008C460979922914D1002AE8D1DCF804108B
:10764000090A022908D1DCF80C202AB112F0030F34
:1076500002D11279AC2ADAD00CF1080200F0A8F8B5
:10766000D9E7124B0E4A40F23A210E484BF0BCFDCE
:10767000002ACCD1996861B111F0030F03D18C4677
:107680000A79922ADAD003F10802012100F090F879
:10769000C1E7114600F08CF8BDE700BF2C830660FF
:1076A000608A0660007C0660288006604480066070
:1076B0002DE9F04705460C4692469946FEF737F904
:1076C00006462846FEF733F98046AB6A9B6A314688
:1076D000686A9847AB6AD3F888304146686A984729
:1076E0000022A1682846FFF75FFF246926E0514683
:1076F0002846FEF755FF2B6A1978062908D0AB6A91
:10770000D3F8A4304FEA89020532686A984730E01E
:10771000AB6AD3F8C8300021686A9847012128462F
:10772000FEF70AF9AB6ADB6D686A984721E03346D9
:107730000022A1682846FFF719F8E468002CD6D08B
:1077400094F804C0BCF1AD0FF1D0BCF1AC0F21D165
:10775000E1682846FEF724FFAB6AD3F884300121A4
:10776000686A984709F10103524621462846FFF707
:107770009FFFAB6A9B6E3146686A9847AB6A9B6A0B
:107780004146686A9847AB6AD3F88C30686A984774
:10779000BDE8F087034B044A40F6783103484BF0CC
:1077A00023FD00BF488306606C8A0660007C06608B
:1077B0002DE9F04107460D46164600244FF0FF38EC
:1077C00006E01F4A3846FEF78FFBBDE8F081013422
:1077D000AC4216D256F824100029F8D011F0030F4D
:1077E000F5D10A79222AF2D1B8F1FF3FE9D1BB6A7B
:1077F000D3F8AC302A1B013A2146786A9847A04654
:10780000E5E7B8F1FF3F01D000240EE0BB6AD3F8F2
:10781000A8302946786A9847F6E756F824300022BF
:1078200099683846FFF7C0FE0134AC42CDD2A0457E
:10783000F3D0002256F824103846FFF7B5FEF3E7E0
:10784000948306602DE9F84304461E4621B9194683
:10785000FEF7A6FEBDE8F88315468946FEF767F8F1
:107860000746D5F80080B8F1000F06D018F0030FD6
:1078700003D198F804307B2B20D041462046FEF7F8
:107880008FFE002239462046FEF75EF8A36ADB6DC4
:10789000606A984733462A1D09F1FF312046FFF7F9
:1078A000D1FFA36ADB6F3946606A984703212046FF
