:0200000460009A
:10000000464346420004015600000000010303007D
:100010000101000001040000400000000000000099
:1000200000000000000000000000000000000000D0
:1000300000000000000000000000000000000000C0
:1000400000000000010406000000000000000000A5
:100050000000800000000000000000000000000020
:100060000000000000000000000000000000000090
:100070000000000000000000000000000000000080
:10008000EB04180A063204260000000000000000FD
:100090000504012400000000000000000000000032
:1000A0006B0418080832042600000000000000005D
:1000B0000604000000000000000000000000000036
:1000C0008104042400000000000000000000000083
:1000D00020041808000000000000000000000000DC
:1000E00001040420000000000000000000000000E7
:1000F0003204180804220000000000000000000084
:1001000090041830002400000000000000000000EF
:100110000204180800200000000000000000000099
:100120003504000000000000000000000000000096
:10013000600400000000000000000000000000005B
:10014000F5060000000000000000000000000000B4
:10015000000000000000000000000000000000009F
:10016000000000000000000000000000000000008F
:10017000000000000000000000000000000000007F
:10018000000000000000000000000000000000006F
:10019000000000000000000000000000000000005F
:1001A000000000000000000000000000000000004F
:1001B000000000000000000000000000000000003F
:1001C000000100000010000000000000000000001E
:1001D000000001000000000000000000000000001E
:1001E000000000000000000000000000000000000F
:1001F00000000000000000000000000000000000FF
:10100000D10020410020006000000000000000002E
:1010100020100060001000600000000000000000D0
:10102000000000600000800000000000FFFFFFFFE4
:1020000000000220498704608185046085850460A2
:102010007D8504607D8504607D850460000000008E
:10202000000000000000000000000000898504603E
:102030007D850460000000009D6C0460D574046020
:1020400095850460998504609D850460A185046080
:10205000A5850460A9850460AD850460B185046030
:10206000B5850460B9850460BD850460C1850460E0
:10207000C5850460C9850460CD850460D185046090
:10208000D58504607D8504607D8504607D85046060
:10209000D9850460DD850460E1850460E585046020
:1020A000E9850460ED850460F1850460F5850460D0
:1020B000F9850460FD85046001860460058604607E
:1020C000098604600D86046011860460158604602C
:1020D000198604601D8604607D8504607D8504602A
:1020E0007D8504607D8504607D8504607D85046058
:1020F0007D8504607D8504607D8504607D85046048
:102100007D8504607D8504607D8504607D85046037
:102110007D8504607D8504607D8504607D85046027
:102120002186046025860460298604602D8604606B
:10213000318604607D8504607D8504607D85046052
:102140007D8504607D8504607D8504607D850460F7
:102150007D8504607D8504607D8504607D850460E7
:102160007D8504607D8504607D8504607D850460D7
:102170007D8504607D8504607D8504607D850460C7
:10218000715404608154046091540460A15404604B
:10219000B1540460C1540460D1540460E15404603B
:1021A000F15404600155046035860460398604608A
:1021B0007D8504607D8504607D8504607D85046087
:1021C0007D8504607D8504607D8504607D85046077
:1021D0007D850460C97504607D8504607D8504602B
:1021E0007D8504607D8504607D8504603D86046096
:1021F000418604607D8504604586046049860460EC
:10220000772E0460612E04604D8604605186046060
:102210007D8504607D8504607D8504607D85046026
:102220007D8504607D8504607D8504607D85046016
:102230007D8504607D8504607D8504607D85046006
:102240007D8504607D8504607D8504607D850460F6
:102250007D8504607D8504607D8504607D850460E6
:102260007D8504607D8504607D8504607D850460D6
:102270007D8504607D8504607D8504607D850460C6
:102280007D8504607D8504607D8504607D850460B6
:102290007D8504607D8504607D8504607D850460A6
:1022A00055860460598604605D8604607D850460FF
:1022B000618604607D8504607D8504607D850460A1
:1022C0007D8504607D8504607D8504607D85046076
:1022D0007D8504607D8504607D8504607D85046066
:1022E0007D8504607D8504607D8504607D85046056
:1022F0007D8504607D8504607D8504607D85046046
:102300007D8504607D8504607D8504607D85046035
:102310007D8504607D8504607D8504607D85046025
:102320007D8504607D8504607D8504607D85046015
:102330007D8504607D8504607D8504607D85046005
:102340007D8504607D8504607D8504607D850460F5
:102350007D8504607D8504607D8504607D850460E5
:102360007D8504607D8504607D8504607D850460D5
:102370007D8504607D8504607D8504607D850460C5
:102380007D8504607D8504607D8504607D850460B5
:102390007D8504607D8504607D8504607D850460A5
:1023A0007D8504607D8504607D8504607D85046095
:1023B0007D8504607D8504607D8504607D85046085
:1023C0007D8504607D8504607D8504607D85046075
:1023D0007D8504607D8504607D8504607D85046065
:1023E0007D8504607D8504607D8504607D85046055
:1023F0007D8504607D8504607D850460FFFFFFFFAF
:10240000024B5A69026058610020704700080020A2
:10241000024B5A6912685A61704700BF00080020D9
:10242000C460056146618761C0F81C80C0F82090D7
:10243000C0F824A0C0F828B0C0F82CD080ED0C8BD8
:1024400080ED0E9B80ED10ABC0F808E0FFF7D8BF21
:10245000104908B54B690BB943F0A5FF1A685860DD
:102460004A611846C468056946698769D0F81C80C6
:10247000D0F82090D0F824A0D0F828B0D0F82CD0F4
:1024800090ED0C8B90ED0E9B90ED10ABD0F808E02A
:10249000012070470008002010B5002104464EF0CE
:1024A0001BFA18B914B120464EF05AFA10BD00219B
:1024B0004EF012BA10B5012104464EF00DFA18B9CB
:1024C00014B120464EF04CFA10BDFFF7E5BF10B531
:1024D00001220C464EF004FA18B914B120464EF011
:1024E0003FFA10BD4EF0FCB94EF062BA484308B551
:1024F0000830FFF7DCFF40B1044A536A03B11860AB
:102500000021C0E900135062083008BD0008002017
:10251000034678B153F8042C083812B153F8081C5C
:10252000116053F8083C13B15A604EF041BA024BA7
:102530005A62FAE7704700BF00080020054B0268A6
:102540001B6A59688A4203D3521A026018467047C0
:102550001B68F6E700080020014441F20553884259
:1025600004D398B2012838BF0120704703EB43130E
:1025700010F8012B5340F2E7034B044A1A62002281
:10258000C3F83823704700BF000800207435066088
:102590002DE9F04780460E46FFF7DEFF124B074657
:1025A0001C6A0CB920461AE0D4F80C90002504F1FE
:1025B000180A4D4501D12468F3E7236933F8153033
:1025C000BB420ED163695B5DB3420AD132464146DC
:1025D0005AF8250045F02FF918B960682844BDE87D
:1025E000F0870135E5E700BF000800202DE9F8433A
:1025F00081460E46FFF7CCFF0246002840F08B8054
:10260000FF2E03D9454946484EF002FA454C751C49
:10261000D4F8380390B1D4E9CF132B448B4229D995
:102620002944FFF75FFF0746D8B90246D4F84013A4
:10263000D4F83803FFF756FFC4F83873802D2F46BF
:1026400038BF80273846FFF732FFC4F83803D0BBC5
:102650002846FFF72CFFC4F8380398BB28464EF0F5
:102660007FF9D4F83C332B44C4F83C33D4F83833E6
:10267000002BE3D0D4F840333146D4F838734846C1
:102680001F442B44C4F84033FFF766FF49464FF020
:10269000000980463246384645F06CF807F8069047
:1026A000236AD3E90253AB4225D36D000A2D38BF0C
:1026B0000A25C5EBC5001830FFF7F9FE48B9C4F884
:1026C0003803CBE72F460023C4F83C73C4F84033EB
:1026D000D0E700F11803226A03EB8503026003616F
:1026E00003EB450343615368D268C0F80C90134470
:1026F000C0E901352062236AD3E903215B6921F82F
:102700001280911D9E54236A43F82170D9680131CB
:10271000D9605B681A441046BDE8F8837B0C0560FD
:10272000B47B05600008002010B5044645F095F81C
:1027300001462046BDE81040FFF758BF07B501909D
:1027400001A8FFF7FBFE019A036933F8120003B0FA
:102750005DF804FB07B5019001A8FFF7EFFE019BB0
:102760004269D05C03B05DF804FB07B5019001A895
:10277000FFF7E4FE019B063350F8230003B05DF839
:1027800004FB13B5019001A80C46FFF7D7FE019B8F
:102790004269D25C063350F82300226002B010BDBB
:1027A0002DE9F8431D460023074688460360164678
:1027B0000B6013602B60154BDFF854901C6A0CB152
:1027C0004C4505D12B68326813442B60BDE8F88373
:1027D0003B6801333B60E268D8F80030134462691B
:1027E000C8F80030E368D1188A4207D320464EF07B
:1027F000F7F82B68246818442860E0E7336812F87B
:10280000010B013303443360EEE700BF00080020F2
:10281000743506602DE9F8430D4B0E4F1C6ADFF846
:102820003880DFF838900CB1BC4201D1BDE8F883A4
:1028300004F11805E36805EB8306B54201D324686B
:10284000F1E755F8042B4146484600F0D3FCF4E785
:102850000008002074350660890C0560E4570560A7
:1028600038B54368054619440368994210D9037B7B
:102870001BB1002107484EF0CBF801F1100480682D
:1028800024F0070408342146FFF721FE2C60A860DD
:1028900038BD00BFB47B056070B504460E461146D6
:1028A0001546FFF7DDFF31462A46D4E901301844CA
:1028B00044F087FF63682B44636070BD70B5466861
:1028C0000446B14228BF31460D460121FFF7C8FF3B
:1028D000A368681C721B5919184444F072FF63689E
:1028E000A06801332844636070BD012938B538BF42
:1028F000012104460025084621606560FFF7CCFDF4
:102900002573A06038BD38B505460C460131FFF788
:10291000ECFF6C6038BD00230160C0E90132012387
:102920000373704738B514460546FFF7DEFF024BC8
:102930002560636038BD00BF99280060037B10B537
:10294000044613B98068FFF7CFFD0023A36010BDD4
:1029500013B501901020FFF79FFD04460199FFF782
:10296000C4FF204602B010BD10B5044648B1037B39
:1029700013B98068FFF7B8FD2046BDE81040FFF7A7
:10298000B3BD10BD38B5037B04460D461BB1002115
:1029900006484EF03DF8016880682944FFF797FD2E
:1029A0002368A0601D441844256038BDB47B0560D1
:1029B00038B504460D46FFF753FFD4E901301D44F6
:1029C0001844656038BDD0E9002310B59A4204462A
:1029D00002D10121FFF7D6FF0021D4E90132D15401
:1029E000A06810BD10B50C460121FFF7E1FF04708F
:1029F00010BD7F29F8B50C46CEB204D80121FFF7EF
:102A0000D7FF0670F8BD06F03F06B1F5006FC1F3C1
:102A1000871546F0800607D265F03F050221FFF7D3
:102A2000C7FF46700570EDE705F03F05B1F5803F43
:102A3000C1F3073745F0800508D267F01F0703216F
:102A4000FFF7B6FF457007708670DBE7A40C07F050
:102A50003F07042164F00F0467F07F07FFF7A8FF2A
:102A6000857004704770C670CCE713B504460846FD
:102A7000019144F0F2FE01990246204602B0BDE801
:102A80001040FFF709BF10B51446FFF717FF047099
:102A900010BD10B51446FFF711FF047010BD436858
:102AA0008B422CBF591A00214160704738B504464B
:102AB0001546084662688A4203D929448A4201D8E9
:102AC000606038BDA368521A1844194444F079FE76
:102AD00063685B1B6360F4E7084611464DF024BF52
:102AE00037B505460846019144F0B7FE044620B1CB
:102AF00002466B68019928689847204603B030BDAC
:102B00002DE9F74F89469DF8301017460D9A11F0C0
:102B1000DF0F0646A2EB07023DD030290CA825495D
:102B200013BF80464FF0100A88464FF0010A13F099
:102B3000800535D002EBD2746510A2EB6404002D41
:102B400035DDAB46DA45524673684146A8BF5A4662
:102B5000306801929847019AABEB020BBBF1000F72
:102B6000F0DC2FB13D4473683A46494630689847D7
:102B7000002C0CDD2544A245574673684146A8BF8A
:102B800027463068E41B3A469847002CF3DC284679
:102B900003B0BDE8F08FDFF820804FF0100AC6E7E1
:102BA00013F0010401D11546C9E71446D9E7002501
:102BB000D7E700BFFD570560EC5705602DE9F043EE
:102BC000064689B00020119D9DF84880139F8DF81E
:102BD0000F000AB381421ADA2D2249428DF80F20E4
:102BE000109A08AC0DF11009A2F10A008E46B1FB53
:102BF000F3FC03FB1C126146092A8CBF1218303209
:102C000004F8012D4C450ED07345EFD90BE0A80711
:102C100027D52B228DF80F200029E1D130230DF18B
:102C20001F048DF81F3015F040099DF80F301CD09F
:102C300023B301222B460DF10F013046013FCDE9B0
:102C40000082FFF75DFF814608AA2B4621463046E9
:102C5000121BCDE90087FFF753FF484409B0BDE8D8
:102C6000F0836A07D8D52022D4E7002BECD004AA41
:102C70009442E9D904F8013C013CE5E79946E3E7D1
:102C80002DE9F04F93B081461E46C8079DF8743079
:102C90000C4692461C9D0793DDE91E870BD4A107C5
:102CA00003D121687F4B994205D020460AF0AEFD42
:102CB000400040F0010415F0810306D1079A302A44
:102CC00003D1B845B8BFB8461F4620460DF1280BC2
:102CD0000DF0A8FF002818DBAA0712D52B238DF8CA
:102CE00028300DF12903E806F6B21CD5BAF1020F1F
:102CF0000DD13020194601F8020B701C58700B469C
:102D000011E06B0701D52023E9E75B46EBE7BAF159
:102D1000080F62D130211970A90549BF06F10E01D3
:102D2000013359700233002115F0200F0EA81970DD
:102D3000A3EB0B030B904FF0100006930CBF0B4658
:102D40002C23012F8DF82710C8BF45F0400515F042
:102D50004002CDE90C010592CDE9026347D023463C
:102D60000DAA0BA8CDE900A10CA90DF033FE037844
:102D700082462D2B06D18DF8273000F1010A0D9BDC
:102D8000013B0D93012F40F385800D9C059BBC42B8
:102D9000B8BF3C462BB19DF8273003B10134069BE8
:102DA0001C44A0452EDD15F00103A8EB04042AD134
:102DB00026461C4625F001054EB1202301963A49CE
:102DC0004846009300231A46FFF79AFE0646059BE5
:102DD000002B5CD1302307933AE0BAF1100FA2D157
:102DE0003020194601F8020B06F1170086E70AABFE
:102DF0000DAA0CA90BA8CDE900A323460DF0EAFD0E
:102E00008246BFE700240026D4E7002426469DF82A
:102E100027305BB1002301220DF12701484608F15C
:102E2000FF38CDE90032FFF76BFE0644069B63B125
:102E30000023012259464846CDE90032069AFFF7A1
:102E40005FFE069B0644A8EB0308012FD8BF474648
:102E5000079B51460D9A484600932B460197FFF772
:102E60004FFE06444CB120230F494846019400937D
:102E700000231A46FFF744FE06440B980EAB984217
:102E800001D0FFF731FB304613B0BDE8F08F30239F
:102E90000793BCE7059B002BB7D11C461E4647464F
:102EA000D6E700BFA8800560EAB606602DE9F043CA
:102EB000164698468BB00746B2070A4602A84FF05E
:102EC000200154BFC6F380032B23DDF8489058BF80
:102ED0005B010093139B09F0D3FBF305044610D567
:102EE000431C1F2B0DD800F1280200210DEB02041A
:102EF000252204F8202C03F128021C466A4402F81B
:102F0000201C16F040051DD09DF808302F2B4FF0E7
:102F1000000319D8012202A9384609F1FF39013C02
:102F2000CDE90032FFF7ECFD0DF10901054633460E
:102F300022463846CDE90089FFF7E2FD28440BB070
:102F4000BDE8F08302A9F2E702A91D46EFE7000001
:102F50002DE9F04F074689B014460025DFF890822E
:102F60000B461E4613F8012BA2BBB14235D30B789A
:102F7000002B00F03681013120234FF0000A084673
:102F800010F8012B32B12B2A3CD02FD8202A3CD06C
:102F9000212A3DD04FF000094FF00A0C0E4611F8DF
:102FA000012BA2F13000092835D92E2A59D1727887
:102FB0002A2A35D000224FF00A0E0E4611F8010BD6
:102FC000A0F1300CBCF1090F2DD80EFB020BABF1B8
:102FD0003002F2E7252AC4D1C7E7A6EB01097B68D6
:102FE00038684A464D4498473146C0E72D2A05D0F7
:102FF000302ACFD14AF0400A134601E04AF0010AD4
:103000000146BCE74AF0020AFAE74AF0040AF7E789
:103010004AF0080AF4E70CFB0922A2F13009BDE7E7
:10302000023654F8042B22EAE27B32786C2A08BF7D
:1030300001363178002900F0D480782960D85729EA
:1030400012D847295AD844295AD907345246384603
:1030500024F00704CDE9009BB4EC020BFFF726FF38
:1030600060E04FF0FF3BE0E7A1F15802202A47D88B
:1030700001A050F822F000BFB331006001310060C0
:1030800001310060013100600131006001310060F8
:1030900001310060013100600131006001310060E8
:1030A0000F31006031310060973100604B300060BB
:1030B0004B3000604B300060013100600131006036
:1030C00001310060013100600131006001310060B8
:1030D0000131006001310060D33100604531006092
:1030E000013100606F31006001310060B331006078
:1030F0000131006001310060B3310060502968D0B7
:103100007B68012231463868013598470BE054F856
:10311000042BCDE9003953463AB1042233493846ED
:10312000FFF7EEFC0544711C1AE705224146F6E75D
:1031300054F8042B07A98DF81C200122CDE9003991
:103140005346ECE707A954F8040B0493FFF719FB67
:10315000BBF1FF3F0146049B04D0079A934538BF5B
:10316000CDF81CB0079ACDE900395346D7E754F89B
:10317000041B05930846049144F06FFBBBF1FF3F2D
:103180000246DDE9041302D0584528BF5A46CDE96E
:1031900000395346C3E7CDE9023961230122CDF856
:1031A00004A000930A2354F8041B3846FFF706FDD9
:1031B000B8E74A1C21F00F01CDF804A002F0060286
:1031C0000F39CDE90239C9B2C2F1100300910022D2
:1031D000E9E7CDE902396123CDF804A0009310237B
:1031E000F5E7284609B0BDE8F08F00BFD857056065
:1031F000DD5705600EB403B503AA52F8041B019213
:10320000FFF7A6FE02B05DF804EB03B0704790F93B
:1032100000200378002A0ADA03F07F0340221342D9
:1032200007D110F8012F02F0C001802905D01846FF
:10323000704723EA02035208F1E702F03F0242EA34
:103240008313EEE7431C18460133027802F0C002F4
:10325000802AF8D070470023814201D81846704771
:1032600011F8012D02F0C002802A18BF0133F3E7E4
:1032700001440346002099421A4600D8704712784C
:10328000013302F0C002802A18BF0130F3E70000CA
:103290007F289DBF024B185CC0F3400000207047A0
:1032A0000E5805607F289DBF024B185CC0F3C0001C
:1032B000002070470E5805607F289DBF024B185CA8
:1032C000C0F38000002070470E5805607F289DBF26
:1032D000024B185CC0F38010002070470E58056048
:1032E0007F2809D8064B1B5C13F00C0F06D1A0F108
:1032F0005F035842584170470020704701207047D3
:103300000E5805607F289DBF024B185CC0F300106B
:10331000002070470E5805607F289DBF024B185C47
:10332000C0F34010002070470E58056008B50246F3
:10333000FFF7E8FF00B12032104608BD08B502468D
:10334000FFF7EAFF00B1203A104608BD30380928DF
:1033500084BF20F020000738704701440246002057
:1033600010B5E524914203D8B0FA80F0400917E087
:1033700012F8013B30B103F0C003802B11D1431E82
:10338000D8B2EFE7BF2B09D9F72B09D8DB0803F038
:10339000060344FA03F303F00300E3E71B06E1D559
:1033A00010BD0020FCE7023981420B4603D31A8886
:1033B0000239002AF8D00233181A40107047B2EBD5
:1033C000131F70B54FEA131416D9121B03F00F0325
:1033D00001EB440115460E46012D31F8024B18BF92
:1033E0003468013D24FA03F4A4B220F8024BF2D170
:1033F00004B9013A104670BD0022FBE7F0B5059F05
:103400000024D21B2646A74210D100EB470500231B
:1034100001EB47019A4214D105EB42031EB1012191
:10342000023325F81210181A4010F0BD31F814506C
:1034300033F814C06544354420F814502E0C013480
:10344000E1E731F81340344425F81340260C0133EA
:10345000E0E7F0B4049F0025D21B2C46AF420BD10D
:1034600000EB4706002301EB47059A420FD106EB1C
:103470004201F0BCFFF797BF31F81560344433F8D0
:103480001560A41B20F8154024140135E6E735F833
:1034900013100C4426F8134024140133E5E72DE9FA
:1034A000F043079C0239DDF828E0154684464FF6C4
:1034B000FF78A4EB0209DDE9087655B900EB42017B
:1034C0001FB10123023120F81230BDE8F043FFF7AD
:1034D0006ABF31F8024F013D4444264405EB09041C
:1034E000AC4296BF33F8024B4FF6FF744444744429
:1034F00086EA040E360C17FA8EF74FEA144E2CF8B3
:10350000027B3F0CD9E7022938B538BF02210446B7
:1035100080680D4618B12368B1EB930F07D9690095
:10352000FEF7D5FF2368A06065F39F03236038BDD5
:1035300038B504460C20FEF7AFFF05462368227815
:10354000C3F39D0023F0030302F001024000134384
:103550002B6063686B60FEF79FFFA8602268A1681C
:10356000C2F39D02520044F005F9284638BD994245
:1035700010B511D313D800EB410002EB410209B999
:10358000084610BD30F8023D32F8024D1B1B002BDF
:1035900002DB04D10139F2E74FF0FF30F1E70120FF
:1035A000EFE710B5044638B18068FEF79DFF20466E
:1035B000BDE81040FEF798BF10BD70B50C46022163
:1035C0000546FFF7A0FF002C2B78B5BF0122002293
:1035D0006142214662F30003AA682B70012388B27E
:1035E0001446090C1E4622F8020B03F10103F6D122
:1035F0006E60208070BD0023C0E900338360704797
:1036000028B103789B0702D48068FEF76DBF70472E
:1036100038B505460C464968FFF775FF22782B78C8
:10362000A86862F300032B706368A1686B6062682E
:10363000BDE83840520044F09DB80A4629B90178E7
:10364000426062F3000101707047FFF7B6BF08B532
:10365000FFF7D1FFBDE80840FFF7EFBF920042F04F
:1036600002020260002210B4C0E901215DF8044B9F
:103670001946FFF7E2BFF8B514461D469DF81870CD
:1036800004210646FFF73FFF22462B4627B1002DB7
:103690000CDA624265EB4503317867F30001317063
:1036A0000021716052EA030102D1F8BD0027F3E75F
:1036B000D6E901104C1C746020F81120120C42EA6B
:1036C00003421B0CEEE72DE9F84353EC102B1E468A
:1036D0000378074610EE105AF20F62F300030370EE
:1036E00047F6F07313EA164207D13B786FF30003F5
:1036F0003B7000237B60BDE8F8839A42F5D0C6F3A7
:103700000A52A2F2FF34002CEFDB04D10121BDE804
:10371000F843FFF752BFA2F2EF38C6F31306332C7B
:103720004FEA281846F480163FDCC4F13402A4F1B5
:103730001403C4F1140406FA03F3D54026FA04F482
:10374000D6401D4325430024A14641463846FFF795
:10375000DAFEC7F80480B9F1000F05D04FEA49023C
:103760000021B86844F045F89CB105FA04F2BB6842
:1037700023F81920C4F11003103409F10109A3F151
:103780002002DD4006FA04F426FA02F2DE40254368
:1037900015434B469845AED0BA6822F813502D0C0D
:1037A000013345EA0645360CF4E7A2F233430C3404
:1037B000002B04F00F04B8BFA2F224434FEA2319F0
:1037C000C3E72DE9F8438F18C2F35B0204460D46A8
:1037D000511C9846089EFFF796FE2378AC460022BF
:1037E0001FFA86FE68F300032370BC4560466260E2
:1037F00002D3401BBDE8F88301780CF1010CA1F164
:103800003003092B05D9A1F14103192B12D8A1F1DD
:103810003703B342EDD2A06890468146B8F1000F5D
:103820000FD100EB420113B1023120F81230091A16
:103830004A10DAE7A1F16103192BDAD8A1F1570395
:10384000E7E7B9F8001008F1FF3801FB0E3329F85B
:10385000023B1B0CE2E7F8B5044615461E46C1B113
:10386000531E4FF0FF371E44E90020460F3109096F
:10387000FFF749FE237800216FF300036160237096
:103880004DB9D4E9011000EB4101FFF78CFD6060F8
:10389000F8BD0127E8E700230F290ADC3278013D53
:1038A0003E4402FA01F201F1080143EA02039BB22D
:1038B000F2D162681039501C6060A06820F81230A4
:1038C000DEE738B5057804460B7805F0010203F011
:1038D0000103981A08D1D1E90132D4E90110FFF7A8
:1038E00046FEEB0748BF404238BD884210B504464B
:1038F00001D0FFF78DFE23786FF30003237010BD16
:10390000884210B5044601D0FFF782FE63683BB1E0
:103910002378C3F30002C2F1010262F300032370B3
:1039200010BD88421FB5044601D0FFF771FE6268E2
:1039300062B901212046FFF7E6FD0123A26813804A
:103940006360237843F00103237010E02378D907E4
:103950000FD56FF30003A168237001230846ADF86B
:103960000E3000930DF10E03FFF773FD606004B09D
:1039700010BD511C2046FFF7C6FD0123A168ADF81C
:103980000E30009308460DF10E036268FFF736FD16
:103990006060D6E72DE9F8434B6805460E461446AD
:1039A00003B12AB931462846BDE8F843FFF730BED7
:1039B00002F10F014FEA111803EB1111FFF7A3FDFC
:1039C000A96814F00F044FF0000ED6E9013208BFC9
:1039D000102408EB030702EB4302C4F1100407F1C3
:1039E000004C0CF1FF3C01EB4C0C1946E14601BBCD
:1039F0006FF00102C8F101082EFA04FE53434FEAAA
:103A000048020CEB030052422CF803E000EB48089C
:103A10004046A8F1020843F0ECFE17B138F8173021
:103A20009BB12B786F60327862F300032B70BDE896
:103A3000F88332F8020D013940EA0E0020FA04FE44
:103A400029F802E94FEA004ED1E7013FE5E72DE909
:103A5000FF410D4649680646144601B132B9294670
:103A6000304604B0BDE8F041FFF7D2BDFFF74BFD93
:103A7000B768D5F8088023466A6838464146FFF79C
:103A80009EFC337870600246297861F3000333703E
:103A9000DB072AD5002320096968ADF80E3099426A
:103AA00001D083420ED181421FD904F00F040123BB
:103AB00038F8101003FA04F4013C214211D0ADF89B
:103AC0000E3007E038F813504DB101238142ADF8B4
:103AD0000E30EAD801235AB93B80736005E0013308
:103AE000DDE7BDF80E30002BF4D104B0BDE8F08165
:103AF000009339460DF10E033846FFF77FFC7060E6
:103B0000F3E773B50C4615460646D2E90132D1E912
:103B10000110FFF72CFD0028BEBF23462C461D4692
:103B2000237861682A785340DB071AD40131304684
:103B3000FFF7E9FC6B68B0680093AB68D4E901213A
:103B4000FFF75CFC706023783278C3F30003002831
:103B50000CBF002303F0010363F30002327002B0D4
:103B600070BD3046FFF7CFFC6B68B0680093AB6860
:103B7000D4E90121FFF76DFCE4E7F7B50C461746E1
:103B80000546D2E90132D1E90110FFF7F0FC002827
:103B9000BDBF23463C4601260026B8BF1F462378FA
:103BA00061683A785340DB0719D501312846FFF7A1
:103BB000AAFC7B68A8680093BB68D4E90121FFF7E1
:103BC0001DFC6860B8B1237803F001030EB183F0E7
:103BD00001032A7863F300022A7003B0F0BD28467F
:103BE000FFF791FC7B68A8680093BB68D4E90121CA
:103BF000FFF72FFCE5E70346EBE72DE9F04F14460E
:103C00004A680D4685B0636806469A423EBF0B4639
:103C100025461C462B786968DB0722D4237813F0ED
:103C200001071ED1FFF76FFCB068AD683B46D4E9D1
:103C3000011C99420CD100EB4101FFF7B4FB0023BA
:103C40007060327863F30002327005B0BDE8F08F27
:103C500035F813203CF81340224020F8132001339C
:103C6000E7E701313046FFF74EFC2F78237807F065
:103C70000108D5F804C087EA030147F30007B068DC
:103C800003F00109C94343F30003A268834601F02E
:103C9000010E41F300019BB289B200930291B9B2C7
:103CA00067460191A968A1F1020A6168A1EB0C01C4
:103CB00003918FB900EB4C01BEF1000F03D001233B
:103CC000023120F81C30FFF76EFB706022782B78F1
:103CD000C2F300021340B4E73AF8021F013F019B10
:103CE0005940039B8844D919B9429BBF32F8021B43
:103CF000009B00995940029B894408EA09014FEA58
:103D000019494FEA184859401EFA81F14FEA114EFD
:103D10002BF8021BCDE72DE9F84F15464A680C46F3
:103D200006466B689A423EBF0B462C461D462378DA
:103D30006168DB0732D42A7812F001072ED1FFF731
:103D4000E2FBA16864683A46D6F808C0D5E9013EAE
:103D5000E41A934213D101EB430100220CEB43031D
:103D6000944215D103EB44030022A3EB0C0358103B
:103D70003378706062F300033370BDE8F88F31F878
:103D800012003EF8125028432CF812000132E0E7EE
:103D900031F8120023F812000132E1E70131304618
:103DA000FFF7B1FB22782B784FF0010A616802F02F
:103DB0000108B06803F0010942F3000243F3000375
:103DC000A468834692B29BB2A4F1020CD5E901E744
:103DD0000D46AEEB010E2DB900EB4101FFF7E3FA02
:103DE0000122C5E73CF8024F013D5440A0440EEBD0
:103DF0000504AC4296BF37F8024B1C465C40A14418
:103E000048EA09044FEA19494FEA1848E4431AFA04
:103E100084F44FEA144A2BF8024BDCE7F0B5154660
:103E20004A680C4685B06B6806469A423EBF0B4610
:103E30002C461D46277861682B785F4017F00107F4
:103E40003BD1FFF760FB237813F0010329D16168B0
:103E5000B068A768D5E9012C891A9A4212D107EBFC
:103E60004207002300EB4202994214D102EB4101C8
:103E7000FFF799FA00277060337867F30003337017
:103E800005B0F0BD37F813403CF813506C4020F8F3
:103E900013400133E1E737F8134022F813400133B0
:103EA000E2E7CDE9027701976B68B0680093AB68F1
:103EB000D4E90121FFF7F3FADCE701310127FFF72D
:103EC00022FB2B78B068DB4303F0010303932378D4
:103ED0000197DB4303F0010302936B680093AB6827
:103EE000D4E90121FFF7DBFA7060C5E74B682DE9E3
:103EF000F04F044685B00E4615460BB1536843B9E2
:103F000023786FF3000323700023636005B0BDE8DE
:103F1000F08F81422ED1FFF70BFBA54206460746E4
:103F200000D105466B68204671681944FFF7EBFA2B
:103F300022680021A068C2F39D02520043F059FCA0
:103F4000B368D4F808E00022D6F804900193F44650
:103F5000AB680EEB4908114602936B680393039B11
:103F6000934231D0ACF10200DDF804B00023CDF86B
:103F7000009018E0824204D1FFF7DAFA05460746BE
:103F8000D0E70027CEE730F802AF53443BF802AB4E
:103F90001946029B33F8123003FB0A130099038081
:103FA00001391B0C009100990029ECD14146881C75
:103FB00013B10146A8F80030A1EB0E010CF1020C80
:103FC000013280464910CAE7616038462A78337862
:103FD0005340227863F30002227005B0BDE8F04F31
:103FE000FFF7DFBA4B6870B50546144613B1137876
:103FF000DA0706D52B786FF300032B7000236B6074
:1040000070BD636823B90121BDE87040FFF7D5BAE0
:104010000846FFF78DFA06462046FFF789FA012188
:1040200004462846FFF7C9FA636883B1A3681B8872
:10403000DB0704D5324629462846FFF757FFA1681B
:10404000012362680846FFF7BAF9606038B9304664
:10405000FFF7A7FA2046BDE87040FFF7A2BA324644
:1040600031463046FFF742FFDEE72DE9F04F0C46C0
:1040700051688FB09046013105460293FFF743FA2D
:10408000D8F804200021A86800260132520043F02D
:10409000B0FB2B786E6020466FF300032B70D8F8CE
:1040A00004100131FFF72FFA41462046FFF7B0FA1E
:1040B000029BA768D4F8049038464946D3E9013AF0
:1040C00000935246AB680393009BFFF750FA002819
:1040D00035D10123039A606013806B602378616897
:1040E000C3F3000200290CBF002202F0010262F3B8
:1040F0000003029A237098F8003012785340DB07CF
:1041000040F100816B682A78003B18BF012363F3FC
:1041100000022A70002900F0F5800BA84FF0FF3153
:10412000FFF795FA0BAA29462846FFF7EAFC029A00
:10413000214620460FB0BDE8F04FFFF7E2BC01DAA0
:104140006E60CBE7009B03F10042013A4FEA420E5A
:104150003AF81230180406F1010150D507EB490B6B
:10416000002109F10100BC460BF1020327F81910E8
:1041700060600193B3B2C3F110060496019EB4458A
:1041800041D33AF812209A400492009A012A09D9A0
:104190000AEB0E02C3F1100132F8022CCA40049956
:1041A00011430491009AAAF1020A801A039A6860E6
:1041B00000F10040013802EB400206920EF10202CB
:1041C0000992626805920599009A8A4227D301F103
:1041D000004B0022C3F110000BF1FF3B07EB4B0B30
:1041E0005F4576D96FF000416B682BB15A18039880
:1041F00030F81220002A76D06FF0004178E05B00A2
:104200000E469BB2A6E7BCF8006006FA03F941EA45
:1042100009090499CE402CF8029BB1B2AEE7BBF875
:10422000001000203BF8022C864642EA0142049925
:10423000B2FBF1F20192099AABEB02021646CDE90C
:10424000072AB3450FD8BBF80010084400283BD11B
:10425000069AABF1020B019922F802190692059A0F
:10426000013A6260ADE7089AB6F8009032F8021F92
:1042700019FA80F999400892019A41EA1E4E1FFAF4
:104280008EF151431FFA81FC090CA9EB0C0CC1EB18
:10429000204126F802CB01EB2C40D2E739F802CFBF
:1042A0000CFA03FC4CEA1E4EB6F800C011FA8EF16F
:1042B0008C444FEA1C4126F802CBB345EED8019A54
:1042C0000844013A0192C1E70021D146079E8E467B
:1042D000F3E7BBF8001041FA03F6814032432BF8B4
:1042E00002298AB27CE7013B6B607DE7013B63609A
:1042F0006368002B3FF4F2AE5A1837F81220002AF8
:10430000F4D0EBE60FB0BDE8F08FF0B51F464B6878
:1043100085B004460D4616464BB11378DA0706D42D
:104320007B68012B0BD1BB681B88012B07D123783D
:104330006FF3000323700023636005B0F0BD01211B
:104340002046FFF73AF97368002BF6D02846FFF7AE
:10435000EFF805463046FFF7EBF8064601A8FFF7F1
:104360004AF97368B3B1B3681B88DB070AD52A46DC
:1043700021462046FFF7BAFD3B462246214601A8CA
:10438000FFF773FEB168012372680846FFF717F85C
:10439000706058B901A8FFF733F92846FFF701F913
:1043A000304605B0BDE8F040FFF7FBB82A46294685
:1043B0002846FFF79BFD3B462A46294601A8FFF702
:1043C00054FECEE7D0E90121002301EB420210B5F3
:1043D000914205D30278D20748BF5B42184610BD10
:1043E00032F8024D44EA0343F2E730B5D0E9012444
:1043F000002304EB4202944206D302780120D20744
:1044000048BF5B420B6030BDB3F5004F04D232F8B9
:10441000025D45EA0343EEE70020F4E72DE9F047AB
:104420000546D1B1981800264FF0010C03EB0209A4
:104430003746D5E90184A4F1020EB8F1000F0ED180
:10444000B9B3C21A18462B7813F0010FBDE8F04734
:1044500014BFFF21002143F0CCB91846E3E73EF832
:10446000024F103744EA064695F800A0072F0AF0DD
:10447000010A02DC08F1FF38DFE7B4B2BAF1000F3D
:1044800006D0E4435CFA84FC1FFA8CF4CCF3072CCE
:10449000E4B249B100F1FF3A00F8014C53450BD0AA
:1044A000083F360A5046DFE782460AF8014BCA4504
:1044B000F5E71A44121AC6E7BDE8F08700000000CD
:1044C000D0E901329FED0C0B9FED0D6B02EB430326
:1044D0009A4205D30378DB0748BFB1EE400B704723
:1044E00033F8021D07EE101AB8EEC77B00EE067B0C
:1044F000B0EE470BECE700BF00000000000000003A
:10450000000000000000F0402DE9F84F44688146AB
:104510008A4615461E469DF828B00B9F9CB982B16D
:10452000551E3A4615F8011F134639B930221A7044
:10453000002203F8012FD81BBDE8F88F02F8011BF9
:10454000F0E73B46F2E764002046FDF7A5FF804612
:104550002246D9F8081043F00DF93A463B4608EBDD
:104560000401A6F13A00A1F1020C0026E0456446E0
:1045700039D930361C46392E88BF361804F8016BFD
:104580004646B142B44638D8BBF1000F0AD00126E6
:10459000A4EB020CBCF1030F02BF9C1C83F801B01A
:1045A0002246F6B14046FDF79FFF5DB1284643F035
:1045B00054F92A18611E1346AB4229D8954288BF88
:1045C0000020044499F80030DB0744BF2D2304F891
:1045D000013B3B46621E9A421FD80023E01B23701A
:1045E000AAE72346BFE7248844EA0646B6FBFAF466
:1045F0000AFB14662CF80249B8E7BCF800C0023682
:10460000BCF1000FBDD0BBF1000FEAD00026BFE720
:1046100013F8016D01F8016FCEE71978107803F8EF
:10462000010B02F80119D6E7D0E9023293423DBFEF
:104630005A1C826018784FF0FF307047036810B53D
:10464000044613B14068FDF74FFF2046BDE8104017
:10465000FDF74ABFF8B50C461F4616460546102022
:10466000FDF71AFF054B8460C0E900743444C46050
:104670006B60034B2860AB60F8BD00BF294600604B
:104680003D46006002690A2A10B5044635D1836AA6
:10469000013383620123A269E36263696261226F6D
:1046A0002361002A31D0616E8A423BBF501CA16E4B
:1046B0000022206738BF8A5CA2613BB9E269636669
:1046C0002261226A23676261626AA261D4E90523DA
:1046D0000D2A07D10A229342626103D1D4E9010372
:1046E0009847A061A369013306D163695A1C03D0BE
:1046F0000A2B1CBF0A23A36110BDC36A092A04BF89
:10470000073323F007030133C5E7D4E901039847D2
:10471000A061DBE70369272B2BD0222B29D0A3F143
:10472000620113291ED8174A0A41D2071AD44269D6
:10473000272A1ED0222A1CD0722B1CD1662A06D111
:104740008269272A15D0222A13D0722B15D14369EA
:10475000622B0CD1806927280BD0A0F1220358428C
:1047600058417047662BF0D14269722AE8D0002088
:10477000704701207047662BF6D0622BF7D1436952
:10478000722BE6E7EEFFF6FF70B504460D460026F5
:104790002069431C01D1304670BD0A2808D115B1EB
:1047A000636B002BF7D020460126FFF76BFFEFE786
:1047B000FEF76EFD18B12046FFF764FFE8E72369B6
:1047C000232B08D12046FFF75DFF23695A1CDFD059
:1047D0000A2BF7D1DCE75C2BDDD163690A2BDAD138
:1047E0002046FFF74FFFE6E7436E2DE9F04F044602
:1047F0002DED028B85B0A3B1036F93B929216030F1
:10480000FEF7F0F82369E36163692362A3696362D9
:10481000A36E1A7822615A7862619B78A3610323A0
:104820002367002120466165FFF7AEFFA36AE56AB2
:104830006364236BA564002B01930ADA019F0823AC
:10484000013784F84C30276305B0BDEC028BBDE81E
:10485000F08F05D0072384F84C30019B5F1EF2E7F0
:10486000002834D0636B93BB06236FF00042013DF8
:1048700084F84C30D4E90F30991830F811108D427B
:10488000E2D019D9A16B8B4207D308314900FDF75B
:104890001EFEA36B20640833A363D4E90F32591CB6
:1048A000E16322F81350236B01332363CCE7013B10
:1048B000E363236B013B2363E36B991830F811101A
:1048C0008D42F4D3C0D0022384F84C30BCE7256974
:1048D0006A1C01D10023F7E72046FFF71BFF814642
:1048E000002800F0B581002384F84C302369752B33
:1048F00051D0622B07D16369722B51D1C846022671
:104900000D23002512E0722B06D16369622BF5D0CE
:10491000662B49D10523D7E7662B49D16369722BF2
:10492000F8D04D4601260C234FF0000894F84C2097
:10493000002A3FD184F84C303EB12046FFF7A2FE5A
:10494000022E02D12046FFF79DFE23692046222B2E
:1049500014BF4FF0270B4FF0220BFFF793FE236994
:104960005B452AD163699B4527D120464FF0030A56
:10497000FFF788FE2046FFF785FE25B1B24904F116
:104980006000FEF772F804F16003002704F150069E
:1049900008EE103A1EE0012600250C23A846C5E7C4
:1049A00001260D230025BFE7C84601260C23A8E7F2
:1049B000019EF1E79A42BFD046E74FF0010ADCE7DB
:1049C000934533D1594630460137FEF712F8204659
:1049D000FFF758FE2269511C00F02F81BAF1010F38
:1049E00002D10A2A00F029815745E9D3394604F15A
:1049F0005000FEF754F801212046FFF7C5FE20467F
:104A0000FFF788FE00287FF471AF1DE72046FFF70F
:104A100039FE21697B291ED13046FDF7E3FF204690
:104A2000FFF730FE7B213046FDF7DCFF21690DB139
:104A30007B29EBD05C2940F0FB8020460291FFF7F8
:104A400021FE27690299B8F1000F38D03046FDF7F2
:104A5000D0FF3946CBE0676E002221694B1C04D0A1
:104A6000C2B93A2901D07D2914D1D4E91921881875
:104A700010F8010C3D2807D1D21B39443046FDF710
:104A80000BFF636E013B63662C2118EE100AFDF7E5
:104A9000A9FFC7E721F020005B280BD10132C9B282
:104AA00018EE100A0292FDF79DFF2046FFF7EAFD7F
:104AB000029AD2E75D2808BF02F1FF32EFE7782FB4
:104AC00006D85B2F0BD8222F72D053D80A2F4FD085
:104AD000A7F13001072900F2A58003279BE0A7F189
:104AE0005C021C2AF4D801A151F822F0B14B0060FD
:104AF000D14A0060D14A0060D14A0060D14A0060CA
:104B0000614B00608D4B0060D14A0060D14A00606B
:104B1000D14A00609D4B0060D14A0060D14A0060DC
:104B2000D14A0060D14A0060D14A0060D14A006099
:104B3000D14A0060954B0060D14A0060D14A0060C4
:104B4000D14A0060894B0060D14A0060914B0060FF
:104B5000A14B0060994B0060D14A0060014C00609D
:104B6000072194F84C300C2B5ED13046FDF741FF05
:104B700000272CE7552F13D0AAD8272F18D04E2F57
:104B8000A6D132484BF05CFF0D21EAE70821E8E7A7
:104B90000921E6E70A21E4E70B21E2E70C21E0E73F
:104BA00094F84C200D2A05D15C213046FDF721FFF9
:104BB0003946D6E7752F0CBF04270827002114E0DB
:104BC00020460291FFF75EFD226910460392FEF730
:104BD0007DFB002800F04F810299039A09011046DD
:104BE0000291FEF7B3FB02990144013FE8D2481C51
:104BF000BED0B1F5881FB4D3012384F84C30B7E799
:104C00000227DBE720460291FFF73CFD226902996B
:104C1000303A02EBC1016269303A072AE7D8013F16
:104C2000F0D1E4E75C2111E7FF29E5D80D2BE3D1B2
:104C3000C9B23046FDF7D6FE9AE757453CBF03227E
:104C400084F84C20D2E600BFD3580560DC580560DC
:104C50002846FEF727FB054620B920695F2801D0CA
:104C60007F283ED9092304F1500584F84C30217C7B
:104C70002846FDF7B7FE2046FFF704FD2069421CD9
:104C80001BD128467E4FFDF79EFE0025064657F8AD
:104C9000041B304642F0E8FD00281CD10F35EDB270
:104CA000122D84F84C507FF4CFAD764BD3F84433BB
:104CB000002B0CBF11230F2306E6FEF7F3FA0028A2
:104CC000D5D120695F28D2D07F28D0D8FEF7F4FA5A
:104CD0000028CCD1D5E7FFF6B7AD0135242DD6D1CC
:104CE000B2E5FEF7E9FA68B321692E2935D10B2325
:104CF00084F84C3004F150060B273046FDF779FE5E
:104D00002046FFF7BFFC2069431C3FF49DAD002DFA
:104D100036D120F02003452B32D16521304684F86E
:104D20004C70FDF766FE2046FFF7ACFC21692B298D
:104D300001D02D29E7D13046FDF75BFE2046FFF775
:104D4000A1FCE0E723692E2B04D16069FEF7B4FAD9
:104D50000028C9D100264C4D32E00A23302984F8BE
:104D60004C30C7D1636943F02003623B162B97BFD9
:104D7000464D01251D4105F0010585F00105B9E706
:104D8000FEF790FA28B121692E290DD184F84C70D4
:104D9000D1E72069FEF790FA0028F4D123692E2B81
:104DA000F1D05F2BCAD04FE521F020034A2BC2D1AE
:104DB000ECE7652F01D0632F00D1013501360135B5
:104DC0002F7817B12369BB42F3D12046FFF75AFC75
:104DD0000FB9012378E5212F07D123693D2BF8D1A5
:104DE0002046FFF74FFC3A236EE52E2F0FD12369A3
:104DF0002E2B02D163692E2B01D05D2364E5204662
:104E0000FFF740FC2046FFF73DFC0E235CE5033531
:104E1000334615F8027C632F1AD0652F18D01C4A30
:104E2000D35C552B84F84C300ED0563BDBB2042BB0
:104E30003FF60AAD012202FA03F313F0150F17D162
:104E400013F00A0F3FF400AD636B01336363FBE4BF
:104E500015F8012C01362169914207D12046FFF750
:104E600011FC3346652FDAD00235D2E7632FFAE71B
:104E7000636B013BEAE70123014684F84C3070E69E
:104E800090590560000800208E580560FEDFBFFFC6
:104E9000635905607FB501AD0646742085E80E00B4
:104EA000FDF7FAFA0446034695E8070043F8046B59
:104EB000002583E8070001236FF001021420C4E9F4
:104EC0000A320A22C4E90C55C4E90E23FDF7E4FABC
:104ED0002021206404F15000FDF707FD294604F16C
:104EE0006000FDF702FD236C20461D802561C4E9AA
:104EF0000555FFF7C7FB2046FFF7C4FB2046FFF729
:104F0000C1FB2046FFF770FCA36C2046012B1CBFA1
:104F1000072384F84C3004B070BD30B585B0054629
:104F200001AC2046FFF796FB284694E80E00FFF7F9
:104F3000B1FF05B030BD30B585B00546014601ACC6
:104F400020461DF0C9F92846FDF7EEFB94E80E0057
:104F5000FFF7A0FF05B030BD10B5044690B1C3689F
:104F60004068984704F15000FDF7E8FC04F1600048
:104F7000FDF7E4FC206CFDF7B7FA2046BDE81040D1
:104F8000FDF7B2BA10BD0000F8B5054630200E4658
:104F90001746FDF79AFA072D04460570C66001D042
:104FA000012D0FD1B368C3F30F13A38207F098FD4F
:104FB0000423206120202783E384FDF76DFAE0625B
:104FC0002046F8BD014B5B5DEFE700BFC45F0560A5
:104FD00010B50446C06AFDF787FA2046BDE81040C8
:104FE000FDF782BA30B50022048D944202D8002326
:104FF000184630BDC36A03EBC2035D688D42F7D02B
:105000000132F2E770B504460D461646FFF7EAFF97
:10501000C0B9E38C228D9A4208D30633E06AD900E6
:10502000FDF755FAE38CE0620633E384238DE26AF0
:10503000591C02EBC300218502F833600023456050
:105040004370438070BD034618465B68002BFBD15C
:10505000FFF7C8BFF8B544680E462CB9F8BD042B5D
:10506000FCD105230370F9E7254628466D68002D1D
:10507000F4D077683946FFF7B5FF0028F5D00378FC
:10508000043B022BEAD8062535700022394620461B
:10509000FFF7B8FF0378002BE1D105706468F4E7EF
:1050A000036A1B8B012B1EBFC368C918C160704700
:1050B000836A10B504469B6F406A9847238B226A27
:1050C0000133918C9BB29942238338BF938410BDE6
:1050D000038B013B10B503830446836A406AD3F80F
:1050E0008030984720460121BDE81040FFF7D8BF27
:1050F000F7B51E4651B111F0030510D14F68FCB24F
:1051000094420CD13F0A0C1DBD4201DB03B0F0BD3F
:1051100054F8041F01350190B0470198F4E7334675
:1051200003B0BDE8F04018472DE9F04F04460D46A6
:1051300098462DED028B08EE102A83B01BB1CB8A66
:1051400043F00803CB8218EE103AEB83236ADA8A25
:1051500042F03002DA821B78002B4CD1A36A18EEA1
:10516000102A2946606AD3F8B0604346B44603B0BB
:10517000BDEC028BBDE8F04F6047DB6A03EBC60B6A
:1051800013F83630053B012B1DD84FF0000917E00E
:10519000EB6A03EBC90213F83930062B0ED1DBF8AA
:1051A00004105368994209D1A36A0AF1010ABBF8B5
:1051B00002201B69606A1F460023B84709F10109F4
:1051C0002B8D4B45E4DC0136236A1A8DB242D4DCC8
:1051D000D4E90903BAF1000FC0D0CDF800805246DF
:1051E000D3F8B440294618EE103AA04703B0BDECFE
:1051F000028BBDE8F08F0026B246E5E7F8B50E4613
:1052000011461A46002304468578076983700361B6
:105210000E4BFFF76DFF6368BBB9618A51B1228AFB
:1052200042B9A36A606AD3F89C309847A36A606A5F
:105230001B6C9847238A3146628A2046FFF774FF29
:10524000003D276118BF0125A570F8BDF55D006020
:10525000024B9D228968FFF74BBF00BF717A006047
:10526000024B6B228968FFF743BF00BF7D77006068
:10527000836A002110B50446D3F88430406A984709
:10528000A36A606A10211B6B9847A36A606A0121B8
:10529000D3F8C830984720460321BDE81040FFF7F7
:1052A000FFBE38B5836A04460022406A5B6C9847AB
:1052B000A36A606AD3F8BC5000231A461946A8476F
:1052C0002046BDE83840FFF7D3BF836A00228968D3
:1052D0001B6D0909406A1847836A8968DB6B406A5D
:1052E000184710B50446084611461A46FFF74CFE0B
:1052F000236A436000238360E3690BB9E06110BD5A
:105300001A469B68002BFBD19060F8E770B5437894
:1053100005460C46012B06D1036A0A4602211B8B67
:10532000FFF7DFFF2061A268284621694C23BDE812
:105330007040FFF763BF70B51346427805460C46D0
:10534000012A04D10A460721FFF7CBFFA061A66915
:1053500028464623E2683146FFF750FFB08A70BD09
:105360002DE9F04F85B005460C4600AF11B901217B
:10537000116015E011F003081BD10B79682B07D1E0
:10538000CB681B0913608C68002CF0D04FF001082B
:1053900004F00F03022B0FD12109B8F1000FE7D061
:1053A000AB6A0022686ADB6A98471437BD46BDE8DD
:1053B000F08F4FF00008EBE7B8F1000F02D1A368BF
:1053C0001B091360A14659F8046F360ACA4606F154
:1053D000FF3B09EB86065AF8040F0009FDF7BAF9FE
:1053E000B2458344F7D10BF1070323F00703ADEB7C
:1053F000030D6B469A4659F8040F07F10C013B6008
:105400000009FDF7BEF9FA68014650467A6042F09D
:10541000B1F97A68B1453B68924418D159461846AB
:10542000FDF7E4F8AB6A01460022DB6A686A984738
:10543000B8F1000FB9D00834A642B6D054F8041F12
:105440000022AB6A0909686A1B6D9847F4E74FF0C0
:105450002E020AF8012BCEE731B101F00303826876
:10546000134304BF0B6883607047000038B543687E
:105470000D46044611464BB905480AF017FA29466D
:1054800060602046BDE83840FFF7E6BF38BD00BF8A
:10549000207C05602DE9F04F0E46044615462DEDA3
:1054A000028B0162002142708DB0C1603378072BFE
:1054B00007D08B4A0DB0BDEC028BBDE8F04FFFF773
:1054C000D5BF012A05D0036B021D2946C06A1B689F
:1054D00098476378D6F80C90032B10D10BAA46217D
:1054E00009F10C004BF0E4FA236B01460B9A9B6820
:1054F000E06A984763687083002B40F0B680D9F863
:105500001010B9B101F00F06022E0FD10B09752B47
:105510003CD006D83E2B3BD05E2B0CD0714A2046A7
:10552000C8E7B3F59B6FF9D1032604E06E4A204625
:10553000FFF79CFF0226D9F814304FF0000A09AAA1
:10554000192108A808934BF0B3FA0690069B9A45D8
:1055500020D16378012B15D9236B3146E06A5B6853
:1055600098476378042B0DD1206A05210396438B5D
:10557000E26A02930023CDE90033D2E902320069E6
:1055800007F0C8FA6368002B6FD114E00026D2E759
:105590000126D0E7099B4FEA8A0B53F82A100B79B2
:1055A000082B02D10AF1010AD0E7052B08D04F4A97
:1055B0002046FFF75BFF0DB0BDEC028BBDE8F08F1E
:1055C000CB68002BF3D18B681A792C2AEFD19F6816
:1055D00007F00F02022AEAD1DB680593002BE6D020
:1055E0009A07E4D11B79302BE1D1059B0AAAA421AB
:1055F0003F0903F108004BF05BFA40F2F1338046BB
:105600009F421BD1012805D10A9A136803F00F03AA
:10561000022B04D0364A099B53F80B10C8E7E16807
:10562000012D01F10103E3601AD01268236B120906
:10563000E06ADB68984798B92E4AECE740F23B33C2
:105640009F4216D1012803D10A9B1968CB0701D4C8
:10565000294AE0E7012D03D04910E06A03F0DCFAA3
:105660006368002B9ED0DDF81490D9F80030A36059
:10567000A1E740F27A339F4226D1012804D90A9B40
:105680001B6813F0010701D11C4AC4E7012DE7D0C4
:105690005B1008EE103A0A9B0BA953F827004BF059
:1056A0005BF908B9164AB6E7E36A01370B98079326
:1056B0000BF0BEFB079B024618EE101A184603F0CB
:1056C000B2FAB845E7D1CBE7012DC9D0236B02462A
:1056D0003946E06AD3F810B00A9BD847C0E700BF4C
:1056E000CB5F0560EF5F0560FC5F056024600560CF
:1056F0004760056063600560736005608F600560EA
:10570000B4600560014AFFF7B1BE00BFD660056016
:105710000B79092B4FF6FF7370B508BF858A0446D5
:1057200018BFC58A9D4202D1064AFFF79FFE218B12
:10573000628BA36A8A1A606A29465B6FBDE8704073
:10574000184700BFF360056013B50446B9B101F016
:105750000F03022B0FD10A091046019207F02EFE0B
:105760000028019A05DA074907480AF035F9606010
:10577000002002B010BD054AFFF778FEF8E70846A2
:10578000F7E700BF13610560D47C05600360056026
:1057900010B404460B46006A6278012A03D15DF812
:1057A000044BFFF72FBCA16A0246606A10315DF816
:1057B000044B02F011BD000070B505460C460029EF
:1057C0002DD0CA0706D5836A49105B6B686ABDE8AD
:1057D000704018478B0716D004F00F040909022CFB
:1057E0000AD0062C0CD0062919D0836AC9B2406AA7
:1057F0001B6BBDE870401847BDE87040FFF7C8BF9D
:10580000836A9B6BE2E7836A0968DB68406A9847B2
:105810002279034B2146284653F82230D7E770BD42
:10582000D06305602DE9F74F04460D4616461F4626
:1058300028464BF0A9F820B1CEB9A36A39469B6E31
:105840004CE028464BF080F908B186B1F5E7002D11
:1058500055D0AB0753D16B684FEA132BDBB21E2B2D
:105860001BD1F6B1043505EB8B0B5D450DD103B0B3
:10587000BDE8F08F43465AF8041F2046019209F113
:105880000109FFF7CFFF019A19E03B46324655F870
:10589000041F2046FFF7C6FFE7E71F2B23D1002E8A
:1058A000E0D0D4F80C8005F1040A4FF0000986F02E
:1058B000010208F10103E3600BF1FF330093009B49
:1058C0004B45D7DC0BF101013B463246204655F8EB
:1058D0002110FFF7A7FFA36A41469B6A606A03B0E5
:1058E000BDE8F04F1847202B03D1AD6886F00106C4
:1058F0009EE72D2B03D1AB68002BA6D19CE7294650
:105900002046FFF759FFA36A3A463146DB6E606ACC
:1059100003B0BDE8F04F1847026A38B51278044664
:105920000B46072A06D0022A04D0154ABDE83840A3
:10593000FFF79CBD9D6885B9A36A1021606A1B6B47
:105940009847A36A0021606AD3F8C8309847204678
:105950000121BDE83840FFF7A3BBAB070BD12B7982
:10596000AF2B08D12046A968FFF726FF2046BDE8E7
:105970003840FFF77DBC29462046FFF71DFFE0E7D2
:105980002561056070B5437804461546CE68012B45
:1059900006D1036A0A4629461B8BFFF7A2FC7061F9
:1059A0000023716920461A46FFF7BEFBF1682046C6
:1059B000FFF702FF062D05D1A36A0021606AD3F824
:1059C00084309847A36A0121606AD3F8B850002355
:1059D000AC461A46BDE87040604738B505460C46EF
:1059E000C968FFF7E9FEA1682846BDE83840FFF71F
:1059F000E3BE0B79342B70B504460D4610D189688F
:105A0000FFF7DAFEED68AD6885B9A36A1021606A18
:105A10001B6B9847A36A04220221D3F89C301AE03A
:105A2000836A1021406A1B6B9847ECE7AB071FD1D4
:105A30002B799A2B13D1A36A1021606A1B6B9847AC
:105A4000A9680029E6D02046FFF7B6FEA36A042223
:105A50000321D3F89C30606ABDE8704018479B2B47
:105A600006D1A9682046FFF7A7FEEB689968E8E72A
:105A700029462046FFF7A0FECCE710B5044689680A
:105A8000FFF79AFE0021A36A606ADB6CBDE8104054
:105A9000184700002DE9F7438D68044616465DB9A6
:105AA000002A75D0836A02222946D3F89C30606AA6
:105AB00003B0BDE8F043184715F0030740F08A80B3
:105AC0002B79372B13D132B1836A02220121406A2C
:105AD000D3F89C30984720462946FFF76DFEA36A0D
:105AE000606AD3F8A03003B0BDE8F04318479F2B9D
:105AF00070D1EB681A79A12A5AD1A22101AA03F127
:105B000008004AF0D5FFA968804621B38B0722D14F
:105B10000B79372B1FD136B1A36A411C0222606A70
:105B2000D3F89C309847A9682046FFF745FEA36A42
:105B30004FF00109606AD3F8A0309847474510D16B
:105B4000B9F1000F24D1A36A0322791C606AD3F84B
:105B50009C3098471CE020464FF00009FFF72CFED0
:105B6000ECE7019B53F82710A9B18E0713D10E79EA
:105B7000A6F13700464246412046FFF71DFEB9F127
:105B8000000F11D04EB9184A29462046FFF76EFC87
:105B900003B0BDE8F0830026EEE7A36A606AD3F89D
:105BA000A03098470137C9E7002EFBD00F4AEBE73A
:105BB000AB685BB19A0709D11B79372B06D1042258
:105BC000294603B0BDE8F043FFF7DCBE05222946B5
:105BD0002046F6E729462046FFF7EEFDA36A03229A
:105BE0000121D3F89C3062E73E6105605B6105608E
:105BF0000122FFF74FBF70B50D46C9680446FFF795
:105C0000DBFDA968A36AC1F30711606AD3F8943079
:105C1000342916BF40390221C9B2BDE87040184787
:105C2000F8B54F680C46002689683F0A0C340546D3
:105C3000FFF7C2FD02360834B74200DCF8BD54F865
:105C4000041C2846FFF7B8FD54F8081CAB6A090984
:105C5000686AD3F898302539C9B29847EAE72DE940
:105C6000F0414E680C4601270546A6F10D08360A9C
:105C700054F8081F5FFA88F8FFF79EFDB74201DB72
:105C8000BDE8F08154F8041F2846FFF795FDAB6A84
:105C90004146686AD3F8983001379847EEE72DE916
:105CA000F0414E680D4689680446360A0127FFF721
:105CB00083FD032E89BFD4F80C804FF0000808F153
:105CC0000103E3607B1C9E4222DC032E55DDE56868
:105CD000606A6B1C2946E360A36A9B6E9847A36ABF
:105CE0004146606A9B6A9847A36A0121606A9B6883
:105CF0009847A36A606A1B6E9847A36A606ADB6D67
:105D00009847A36A2946606A9B6ABDE8F041184734
:105D1000023729692046FFF74FFDB74207DAA36A29
:105D2000606A5B6D9847A36A606A5B6E9847EB6830
:105D3000A26A03F00F01606AD2F898200A2911D1F3
:105D4000C3F30713262B16BF353B0621D9B2904764
:105D5000B74205DAA36A42460021606A1B6F984782
:105D60000835AFE71979852901D13221EFE79B6822
:105D70000BB90721EBE73321E9E7BDE8F08110B566
:105D800004468968FFF718FD0321A36A606AD3F807
:105D90009430BDE8104018472DE9F0470D46D0F883
:105DA0000C800446002755F8046F5FFA86F9360A1E
:105DB000A9F11E03D3F1000949EB030908F101031E
:105DC000C360B74206DBA36A4146606A9B6ABDE8CE
:105DD000F0471847013755F8041F2046FFF7ECFC41
:105DE000B742F0DAA36A42464946606A1B6F984799
:105DF000E7E7000001F00F03022B70B504460FD057
:105E00000B79492B01D04F2B02D10123A37070BD18
:105E10004A2BFCD0502BFAD0482B0DD10D696DB90F
:105E2000A378002BF3D1638A002BF0D020461D4AC3
:105E3000BDE87040FFF71ABBCD68F0E7A3788E6825
:105E40003BB3238A01339BB2012B23820ED1618A9B
:105E5000D4E90903D1B1D3F89C3000229847A36A52
:105E600002220021606AD3F89C30984729462046D8
:105E7000FFF7A2FCA36A606A31099B6B9847A36A8B
:105E8000606AD3F8A030BDE8704018471B6C984793
:105E9000E5E7638A2946204601336382BDE8704006
:105EA000FFF78ABC7A6105602DE9F041C5680446B8
:105EB000D1F80C800E46AB1C0022D8F808106F1CDD
:105EC000C3602B46FFF7AEFCB1682046FFF774FCB9
:105ED000A36A3946606A9B6E9847A36A2946606A3E
:105EE0009B6A9847A36A606A4FF0FF319B689847A6
:105EF000D8F80C102046FFF75FFCA36A3946606AA9
:105F00009B6ABDE8F04118472DE9F047C668044692
:105F1000D0F814A00D46B31C06F10108B0F81A9091
:105F2000C360038B8682A0F81680438388684AF09A
:105F30002BFDF8B9E768A8687B1CE3604AF004FE13
:105F400020B9A36A4146606A9B6E9847A36A3946A6
:105F5000606A9B6A9847E9682046FFF72DFCA36AB0
:105F60004146606A9B6A98473B460122A9682046E1
:105F7000FFF758FC29692046C4F814A0A4F81A9029
:105F8000FFF71AFCA36A3146606A9B6ABDE8F047D6
:105F900018472DE9F347C66804460D46731CC360D5
:105FA00088684AF0F1FC0246E8B9E7682046A9682B
:105FB0007B1CE3603B46FFF735FC2046E968FFF7B2
:105FC000FBFBA8684AF0C0FDD8B92B690BB96B6917
:105FD00023B1A36A3146606A9B6E9847A36A39462B
:105FE000606A9B6A984701AA712105F11000002799
:105FF0004AF05EFD81464F450BD169692046FFF7A7
:10600000DBFBA36A3146606A9B6A984702B0BDE831
:10601000F087019B53F82780D8F808004AF0B4FCB9
:106020000246F8B9D4F80CA02046D8F808100AF1B6
:106030000103E3605346FFF7F5FB2046D8F80C1048
:10604000FFF7BAFBD8F808004AF07EFD0028D8D147
:10605000A36A3146606A9B6E9847A36A5146606A9C
:106060009B6A98470137C6E770B58D6804463DB90D
:10607000836A2946D3F8C430606ABDE87040184787
:10608000AB070ED12B795E2B0BD1A968FFF794FBE0
:10609000E9682046FFF790FBA36A0221D3F8C430D9
:1060A000EAE729462046FFF787FBA36A0121D3F8D8
:1060B000C430E1E710B504468968FFF77DFBA36AA9
:1060C000606ADB6DBDE8104018472DE9F0410C46D1
:1060D000054654F8046F360A04EB8607BC4208D123
:1060E000AB6A3146686A0022D3F89C30BDE8F041C3
:1060F000184754F8041F2846FFF75EFBEEE789684F
:10610000034610B441B9826A406AD2F89C400A46FC
:1061100023465DF8044B18474A68120A022A0BD13D
:10612000CA684AB1940707D11279AC2A04D1062271
:106130005DF8044BFFF726BC18465DF8044BFFF7EB
:10614000C4BF2DE9F0410E4605460F46002456F81F
:10615000043F4FEA1328444501DBBDE8F08156F8BF
:10616000041F2846FFF728FB6B683BB10234284622
:1061700057F82410BDE8F041FFF76EB90134EAE7A3
:1061800010B50446FFF7DDFF2221A36A606AD3F849
:106190009830BDE81040184770B58D68044645B981
:1061A000836A01222946D3F89C30606ABDE87040BA
:1061B0001847A9071ED16B68DAB2922A1AD11B0AB6
:1061C000022B0CD1EB6853B19A0708D11B79AC2B89
:1061D00005D129460322BDE87040FFF7D3BB29460D
:1061E0002046FFF7AEFF6968A36A0122090AD3F8C7
:1061F0009C30DAE729462046FFF7DEFAA36A01223F
:10620000D3F89C301146D0E7184B2DE9F041D3F874
:10621000447304460D463FBBC66801228968731C5F
:10622000C3603346FFF7FEFAA36A1F2101225B69B0
:10623000606A9847E96851B12046FFF7BDFAA36A42
:106240003A460121D3F8B8503B46606AA847A36A92
:106250000121606AD3F8C4309847A36A3146606A66
:106260009B6ABDE8F0411847BDE8F08100080020B6
:10627000026A2DE9F04112780446072A04D01B4A2D
:10628000BDE8F041FFF7F2B88D685DB9836A10216F
:10629000406A1B6B9847A36A606AD3F8C030BDE8B8
:1062A000F041184715F003021DD12B791B2B1AD191
:1062B000C668EF68731CB968C3603346FFF7B2FA6B
:1062C000A9682046FFF778FAA36A606AD3F8C0305D
:1062D0009847A36A3146606A9B6A9847F9682046E6
:1062E000FFF76AFAD7E72946F9E700BFA86105601A
:1062F00010B4026A044640780B46012804D11046C7
:106300005DF8044B01F059BFA16A606A18315DF86D
:10631000044B01F061BF00008B072DE9F14F0446EB
:106320000D46164611D001F00F03022B16D1D707E8
:106330004FEA111104D401B0BDE8F04FFFF7D8BF08
:1063400001B0BDE8F04FFFF723BA4968CBB22D2B5F
:106350007BD00BD8062B0DD02C2B12D04E4A2946C1
:10636000204601B0BDE8F04FFFF780B82E2B7FD05C
:106370009D2BF3D1002EF1D105F10802090A204628
:106380007BE0022A02D0A968FFF716FAEF68002F17
:10639000E4D017F00309E1D17B68B846DAB28E2A5F
:1063A0000DD1022E4FEA132805D007F1040A08F197
:1063B000FF3BD94511DB08F1010857F8288098F810
:1063C0000430312B24D1022E0FD1A36A606A5B6E98
:1063D0009847A36ADB6C012115E05AF8041F204698
:1063E00009F10109FFF7E8F9E3E7D8F808102046BA
:1063F000FFF7E2F9012EA36AECD19B6D606A984722
:10640000A36A0021DB6C606A01B0BDE8F04F184759
:10641000322BA3D1012ED4E909030CD15B6D98472F
:10642000A36AD8F8081000221B6D0909606A01B040
:10643000BDE8F04F1847022E01D11B6E9847A36AA2
:106440000122D8F808101B6DEFE7AA68002A85D052
:10645000002E83D15168090A022907D1D3682BB1D4
:10646000980703D11B79AC2B3FF478AF083286E74D
:10647000002A7FF473AFA96821B901B0BDE8F04FDD
:1064800000F074B88E0703D10B790A46922BE1D045
:1064900005F10802012172E7C26105602DE9F047AC
:1064A000C7681E4604460D46BB1C3946904607F198
:1064B0000109C360836A406A9B6A9847A36A494698
:1064C000606AD3F888309847A96800222046FFF711
:1064D00023FF2D69002D2DD141462046FFF76CF991
:1064E000236A1978A36A06291DD1D3F8C830294632
:1064F000606A984720460121FEF7D2FDA36A606AD0
:10650000DB6D9847A36A3946606A9B6E9847A36A19
:10651000606A49469B6A9847A36A606AD3F88C30E0
:10652000BDE8F0471847B200D3F8A430606A0532DE
:106530009847E7E72B79AD2B07D1A9683B460022A6
:106540002046FFF76FF9ED68C4E7E9682046FFF7DA
:1065500033F9A36A606A0121D3F884309847731C29
:10656000424629462046FFF799FFCBE72DE9F8433D
:1065700004460D46904601F1FF3900264FF0FF37E3
:10658000B9F1FF3F0CD17B1C05D1A36A2946606A93
:10659000D3F8A83098470026AE421DD1BDE8F88355
:1065A00058F8261071B18A070CD10B79222B09D12A
:1065B00001370BD1A36A37464A463146D3F8AC308F
:1065C000606A9847013609F1FF39D9E72046084A41
:1065D000BDE8F843FEF74ABF58F82610B7424FF01F
:1065E0000002204608BF89680136FFF795FED3E711
:1065F000DD6105602DE9F7430446904699460F4654
:1066000029B9194603B0BDE8F043FFF7D5B8C6680D
:10661000731CC360156845B315F0030225D12B79AF
:106620007B2B22D1A9680192FFF7C6F8019A314667
:106630002046FEF73DFD019AE9682046FFF76CFE13
:106640004B4608F10402791E2046FFF7D3FFA36AE8
:106650003146606ADB6F984703212046FEF720FD34
:1066600003B0BDE8F043FEF733BD29462046FFF7EF
:10667000A3F8204600223146FEF71AFDA36A606A9D
:10668000DB6D9847DCE737B50C46054601AA7A2151
:1066900004F108004AF00CFAE3680146019A284622
:1066A000FFF7A8FF03B030BDD1E902232DE9F04F79
:1066B00002F00F0204460E46022A2DED028B87B02F
:1066C00040F00481002B00F00181980740F0FE802B
:1066D0001A792C2A40F0FA809A6802F00F010229F8
:1066E00040F0F48012097C2A40F0F080DB681A79CF
:1066F000302A40F0EB809B6805AAA42104A80493EB
:106700004AF0D6F9431E022B00F2E080059B0128D7
:106710001A6800F0CD80022800F029819D68E90701
:1067200040F1D480690800F0D180D3F804A032B1E0
:10673000930704D11179A639022940F2C780BAF132
:10674000000F08D01AF0030F05D19AF80410A639EB
:10675000022940F2BB80B3681AF0010B776908EE9A
:10676000103A3369218B08EE903A6369E668029328
:10677000638B06F10208618306F10401019306F1BF
:10678000010306F10309A6820393E382E16005D1C8
:10679000514620460392FFF70FF8039A1146204610
:1067A000FFF70AF8A26A4946606A926E9047A26AA9
:1067B0004146606A926A9047A26A606A526D904749
:1067C000002218EE101A2046FFF7A6FD18EE901AC8
:1067D0002046FEF7F1FFA26A711C606A926A904738
:1067E00029462046FEF7E8FFA26A0E21606AD2F829
:1067F00098209047A26A4946606A926A9047A26AC6
:10680000BBF1000F58D1936D606A9847A36A606A24
:106810001B6E9847002DA36A606AACBF002101215E
:10682000D3F898309847A36A42460121DB6E606A2C
:106830009847029B6361019B6383002F44D0A36A46
:10684000606ADB6D9847BBF1000F03D1A36A606AF1
:10685000DB6D984739462046FEF7AEFFE568606A73
:106860006B1C2946E360A36A9B6E98478BF001017D
:10687000A36A0131606A9B689847A36A3146606ADF
:106880009B6A9847A36A606ADB6D9847BBF1000F6B
:1068900003D1A36A606ADB6D984727B1A36A2946D2
:1068A000606A9B6A984707B0BDEC028BBDE8F08F29
:1068B00092460325024642E7606A526D9047514670
:1068C0002046FEF779FFA5E73D46D6E7E568204676
:1068D000238BB4F81A906F1C63836FEA4543D4F896
:1068E00014A005F102086FEA5343F168E782A3821E
:1068F000EB1CE360FEF760FFA36A606A0121D3F836
:1069000084309847A36A3946606A9B6A9847A36AAD
:106910004146606AD3F8883098470022B168204623
:10692000FFF7FAFC31692046FEF746FFA36A3946B5
:10693000606A9B6E9847A36A4146606A9B6A984763
:10694000A36A606AD3F88C30984771692046C4F80E
:1069500014A0A4F81A90FEF72FFFA36A2946606AD4
:106960009B6A07B0BDEC028BBDE8F04F18470325CA
:10697000DBE62DE9F74F044690460F4629B9194644
:1069800003B0BDE8F04FFEF717BFC668321D06F131
:10699000010A06F1020B06F10309C260D8F80050A3
:1069A000002D00F0F28015F0030240F0EE8029790E
:1069B0007B2940F0EA80A968CDE90032FEF7FCFEB1
:1069C000A16A606A496D8847A8212046FEF769FCE4
:1069D000019AE9682046FFF79FFC009B314620465C
:1069E00002220093FEF764FBA26A0321606A9268A8
:1069F000904708F10402009B791E2046FFF7B9FF7B
:106A0000A36A606A6FF002019B689847A36A10212D
:106A1000606A1B6B9847A36A606A1B6E9847A36AFB
:106A20005146606A9B6E9847A36A3146606A9B6ACA
:106A30009847A36A606A5B6D9847A36A0122606AFF
:106A40005B6921219847A36A606A0821D3F89830CE
:106A50009847A36A5A460021606ADB6E9847A36A8A
:106A6000606A5B6D9847A36A606A5B6E9847A36A29
:106A7000606A1B6E9847A36A0022A921606A5B6C5A
:106A80009847A36A606A5B6E9847A36A606A5B6E08
:106A90009847A36A606A5B6D9847A36A00220A213F
:106AA000606A1B6D9847A36A606A1B6E9847A36A69
:106AB000606A10211B6B9847A36A0321606AD3F8B0
:106AC000BC5000231A46A8472046FEF7D1FBA36A14
:106AD0004A460021606ADB6E9847A36A606ADB6DF4
:106AE0009847A36A606A10211B6B9847A36A4946BE
:106AF000606A9B6E9847A36A606A02219B68984708
:106B0000A36A5946606A9B6A9847A36A606A5B6E8B
:106B10009847A36A606A5B6E9847A36A5146606AA9
:106B20009B6A9847A36A0022606A5B6CA921984718
:106B3000A36A1021606A1B6B9847A36A606A5B6D49
:106B40009847A36A606A5B6D9847A36A0321606AED
:106B5000D3F8BC5000231A46A8472046FEF788FB0E
:106B6000A36A606ADB6D9847A36A606A4FF0FF31E1
:106B70009B689847A36A606A49469B6A9847204683
:106B800003B0BDE8F04FFEF7A3BA294620460093B4
:106B9000FEF712FEA26A606A526D90472046A82155
:106BA000FEF77FFBA26A606AD26D904715E72DE978
:106BB000F041CD6804460E4635BB0378BBB1036A8D
:106BC0001D78A5B9D121FEF7E3FDB1682046FEF797
:106BD000F3FDA36A2A460121D3F8B8602B46606A08
:106BE000B047A36A606ADB6DBDE8F0411847B16841
:106BF0008B0700F0C28001F00F03022B40F0C4802D
:106C00002046FEF7D9FDECE7AF0740F0B0806B6897
:106C1000DAB25B2A13D1ED68002D4CD1006A0378FB
:106C2000072B40F0B180896801F00F03022B40F080
:106C3000AB800422BDE8F041D140FEF7E3B9562A0B
:106C400013D101228968FFF767FBE9682046FEF748
:106C5000B3FDA968A36A0909606AD3F898303F397F
:106C6000C9B298470222B1687CE0572A23D11B0A97
:106C70005F1E013355F82310FEF79EFD002F03DD44
:106C8000A36A606A5B6D9847B168043500260022EC
:106C90002046FFF741FBBE4276DA0136BE4203DAF8
:106CA000A36A606A5B6D9847002255F8041F20466E
:106CB000FFF732FBEFE7A90759D16B68DAB2062A72
:106CC00055D1B768002F52D0BA0750D17A68D1B2E7
:106CD00006294CD11B0A4FEA1228B3EB122F46D1DA
:106CE000A8F10203012B42D8BB6823B1980702D157
:106CF0001B79222B3BD0FB6823B1990702D11B796A
:106D0000222B34D0B8F1020F06D03B6923B19A0789
:106D100002D11B79222B2AD0A9682046FEF74CFD10
:106D2000E9682046FEF748FDB8F1030F07D1204679
:106D30002969FEF741FDA36A606A5B6E9847A36A02
:106D4000606A1B6E98470022B9682046FFF7E4FA94
:106D50000022F9682046FFF7DFFAB8F1030F13D1DC
:106D6000002239692046BDE8F041FFF7D5BA29462F
:106D70002046FEF721FD002275E700293FF440AFD1
:106D80000B793A2B7FF43CAFBDE8F0810023032A56
:106D90002DE9F04104460D46164642700162C3607B
:106DA00080F8342002D1C08E50BBA0634FF00008A1
:106DB000A36A3146606A1B682A46A4F83680984761
:106DC00006212046FEF76CF96778EE68012F04BFB4
:106DD000A5F82280A5F82480B6B1B20714D1337982
:106DE0003F2B11D1B168FEF7E7FCA36A606AD3F8C4
:106DF000C0309847A36A606A5B68BDE8F0411847F5
:106E00008000FBF762FBD0E72B784BB93146204678
:106E1000FEF7D2FCA36A1B6B1021606A9847E4E777
:106E2000072B16D1012F12D1002346222046A37032
:106E3000574BF168FEF75CF92B8B032B07D13169B7
:106E40002046FEF781FCEB8A43EA8010E8827169F4
:106E5000DDE7022B1BD1A36A3168DB68606A9847C3
:106E60006378012B07D100234C222046A370494BA5
:106E7000B168FEF73DF9F1682046FEF79DFCEB8A0C
:106E8000DB07B2D5A36A606ADB6D9847C2E7033BB4
:106E9000032B4FD8012FD6F80C8005D10422394698
:106EA000206AFEF7AFF86F83A36A3168DB68606A17
:106EB00098472B78032B24D1A36A0122D3F89C3066
:106EC0000021606A98472B78062B28D1A36A606A54
:106ED0001B6C984701212046FEF75AFCA36A606AA2
:106EE0001B6C9847A36A606A1B6C98470023B268C2
:106EF00041462046FFF7D2FA2B78062B7FF475AF78
:106F000088E7042B04D1A36A0222D3F89C30D7E788
:106F1000052BD8D1A36A0322D3F89C30D0E72046B2
:106F20000121FEF735FCA36A0121606AD3F88430A1
:106F30009847DBE7012F04D104220A212846FEF7F7
:106F400061F817212046FEF723FC16212046FFF7A3
:106F5000CFF9B168A36A0909606A9B6B98471A2147
:106F60002046FFF7C5F931692046FEF725FC0A21C6
:106F70002846FEF737F80378042BA36A3FF44BAF9B
:106F80001D690A2142880023606AA8472DE700BFD7
:106F9000097D0060117D006001F00F03022B70B5C8
:106FA00004460D46164602D00B4AFEF75FFA3146FC
:106FB0002046FEF701FCA36A606A5B6D9847266A6B
:106FC000290920463378033B032B9CBF7368236257
:106FD000FFF78EF9266270BDC26105602DE9F04FA2
:106FE000002787B04FF0010B0446B9463E46B8462D
:106FF00003A81D46CDE9022105AAA42149F058FDA8
:107000000190019B9F4211D126B1A36A4946606A53
:107010005B6B9847029AD4E90903002A73D0D3F82E
:10702000BC40334642462946A04713E0059B53F82F
:1070300027A0BAF1000F5BD01AF0030F58D19AF8CD
:107040000420A62A19D1B00707D5304A5146204658
:10705000FEF70CFA07B0BDE8F08F1D2F01D92C4ABE
:10706000F4E70BFA07F246F00106DAF8081049EAED
:1070700002092046FEF7A0FB20E0A72A0ED1A26A53
:1070800046F00206606A126C9047DAF8081008F1C0
:1070900001082046FEF790FB0137B2E7A82A27D166
:1070A000DAF80C2072B191070CD11179AA2907D115
:1070B00092682046DAF80810FFF76EFF0135EBE71B
:1070C000AC290FD0DAF8081001F00F02022A01D023
:1070D000104ABBE7A26A0909606A926B9047DAF826
:1070E0000C10D4E7062251462046FEF74BFCE5E79C
:1070F000B30701D5084AA9E7B8F1000F01D0074A44
:10710000A4E75146B5E7D3F8B8408AE7F7610560D0
:107110000662056014620560356205604D620560B7
:1071200070B50D46417804461346012903D12A461D
:10713000FEF7D7F86861A36A606A9B6C98476E692E
:107140000023204631461A46FDF7EEFFA36AB18AB6
:107150009B6B606A9847E96829B18B0703D10B796B
:10716000A32B08BF0021204602230022FFF736FF91
:10717000B08A70BD002389681A46FFF72FBF000050
:107180002DE9F8430C4689680546FEF715FBE668CD
:10719000002E57D07768296AFBB209788E2BA36836
:1071A00019BF04F10C0601273F0A0836072903F02E
:1071B0000F024BD1022A47D11A099A2A48D13268C4
:1071C0001179302944D19268002A41D10A212846F8
:1071D000FEF7DEFA2A6AD36A128D32B93168284680
:1071E0003F4ABDE8F843FEF741B95978C9070FD5C2
:1071F00059682846FEF7CCFA022FAB6A0BD8D3F8B1
:10720000B84000230221686A1A46A047012417E00B
:10721000013A0833E1E7726811793229EFD1B46895
:1072200021793029EBD1916801225B6C0909686AE8
:107230009847A1680324002301222846FFF7CEFEC9
:10724000A74226D8BDE8F8830024F9E7022AFBD13B
:1072500040F2B922B2EB131FF6D133681A79302A03
:10726000F2D19B68002BEFD013F00304ECD11B7913
:107270002F2BE5D1AB6A22462146686AD3F8B88045
:107280002346C0473368224628469968FEF702FC29
:10729000BCE704F10108A30056F82410B8451AD23F
:1072A0000A79322A17D13344D3F8049099F804307C
:1072B000302B10D189680022AB6A0909686A5B6CBF
:1072C000984700230122D9F808102846FFF786FEC8
:1072D00008F10104B4E72846A046FEF76DFAF7E787
:1072E0006E620560026A0B4610B512780446072AE2
:1072F00006D0022A04D0074ABDE81040FEF7B6B80F
:1073000020461946FFF73CFF2046BDE81040FDF738
:10731000AFBF00BF86620560D1E90212FFF73CBE35
:10732000036A10B504461A8BFFF7FAFE01462046A1
:10733000BDE81040FEF7DCBF036A10B504461A8BA7
:10734000FDF7F9FF01462046BDE81040FEF7D0BF2B
:107350002DE9F04F8D6887B004462B79032B0AD1B5
:107360002946FFF7E9FFAA69D38A43F00103D382D4
:1073700007B0BDE8F08F026AD28AD20706D4634A0A
:10738000294607B0BDE8F04FFEF770B8162B40F065
:10739000AF80C668E968331D06F1010A4FEA111B88
:1073A00006F10208C36006F10309FEF705FAA36AB5
:1073B000606A00225B6CAA219847A36A606AD3F8CE
:1073C000BC7000231A461946B84759462046FEF7B6
:1073D0008FFFE7686369BA1C606A0293E260638B9F
:1073E000228B01937B1C6283A26A1946E382926A14
:1073F000A78203939047012251462046FDF758FE8D
:1074000059462046FEF7C4F92046AC21FDF749FF56
:10741000A96820460022FEF77FFFA26A4146606A03
:10742000D2F890B00022D847A26A5146606A926AA8
:107430009047A26A606AD2F8CC209047A26A606A3C
:10744000526D9047A26A606A40F2EA21D2F814A015
:107450000122D047A26A606A0821D2F8982090479A
:10746000A26A0021606AD2F86CA04A46D047A26A9C
:10747000606AD26D9047A26A3146606AD2F890A0E5
:107480000122D047A26A4946606A926A9047A26A7E
:107490000121606A926890472046FDF719FEA26AB2
:1074A000606AD2F8D0209047A26A4146606A926A28
:1074B000904729692046FEF77FF9039BA26A194687
:1074C000606A926E9047029B3146606A6361019BDD
:1074D0006383A36A9B6A984769692046FEF76CF943
:1074E000A36A3946606A9B6A07B0BDE8F04F184747
:1074F00005AA7A2105F1080049F0DAFAEB6801469D
:10750000059A2046FFF735FA32E700BF9F62056013
:107510002DE9F04F85B004460026DFF820A1019147
:1075200002AA019B4221B14603F1080049F0C0FACA
:10753000236A83461D8B5E450AD1019BD9680B796E
:10754000032B51D12A462046FDF7F5FE054659E0AA
:10755000029B03AA6C2153F8263003F10800009324
:1075600049F0A6FA039B074619680A09732A0DD049
:107570004FF001082046FEF71FF9B84528D3009BBD
:10758000D96859B12046FEF717F907E0022807D05D
:1075900052462046FDF76AFF09F101090136CAE7A4
:1075A00059680B09412B0DD040F22F4293420BD06A
:1075B00040F2F742934209D040F243329342E7D17E
:1075C0000425E9E70125E7E70546E5E70325E3E7C5
:1075D000039B0022606A53F8281008F10108A36A8F
:1075E00009091B6D9847C8E7442B17D18E682A46B6
:1075F00020463146FDF79FFEB2690546D38A43F027
:107600000103D3820027ABEB0909B9450BD8294602
:107610002046FEF76DFE05B0BDE8F08F2A462046F5
:10762000FFF77EFD92E7A36A0121606A0137D3F874
:10763000B86000231A46B047E7E700BFC56205609F
:10764000F0B58D6885B004460E4605F00F030A2B91
:1076500007D0002D31D015F003012ED12B79652BE9
:107660001ED10295002503AA652102A849F020FA3F
:10767000039B002140F2DA5203EB8000834215D1D4
:10768000F26840F22A439A4237D1236A1F78B7B191
:10769000394A3146204605B0BDE8F040FDF7E6BE68
:1076A000622BEDD1AB680293ED68DCE753F8047B05
:1076B00097420CBF01310331E0E70021E0E7A36A04
:1076C000606A5B6B9847A36A606A05219B6B984769
:1076D000A36A3A46606AD3F89C300121984703AA0E
:1076E00029462046FDF73CFEA36A02223946DB6AA2
:1076F000606A05B0BDE8F0401847A36A0027606AD9
:107700005B6B984706F10C0002AA6A2149F0D0F998
:107710000646B742D4E9090312D1D3F89C300022BF
:10772000314698472946002503AA2046FDF718FE52
:10773000B542D4E909030CD1DB6D984705B0F0BD23
:10774000029A9B6B52F827200137916809099847E4
:10775000DFE7029ADB6A52F825700122B96809094D
:1077600001919847FB682BB9019920460135FEF736
:10777000BFFDDDE71909F8E7E3620560836A37B505
:1077800004460D465B6B0021406A9847A36A606A15
:1077900010211B6B98472946204601AAFDF7E0FD02
:1077A0000199204603B0BDE83040FEF7A1BD10B4FA
:1077B000026A044640780B46012804D110465DF861
:1077C000044B00F0FABCA16A606A20315DF8044BFA
:1077D00000F002BD2DE9F04F2DED028B83B0C5689E
:1077E0001E4604460E9B0F460192294608EE103AAB
:1077F000AB1C012205F1010AC360FDF759FC3946B3
:1078000020460027FDF7D8FFA36A00225146D3F88F
:107810009030606A9847A36A2946606A9B6A9847D5
:10782000A36A606AD3F8CC309847D4F80C8008F18A
:107830000103E360019B9F421BDB2046FDF748FCF0
:10784000A36A606AD3F8D0309847A36A5146606A49
:107850009B6A984718EE101A2046FDF7ADFFA36A01
:107860004146606A9B6A03B0BDEC028BBDE8F04FF5
:1078700018473346D4F80C90043601371A68009242
:1078800009F10102E260009AD2F808B0BBF1000FE2
:1078900047D1019ABA4237D10025A36A606AAB4644
:1078A000DB6D9847009B2046D968FDF785FFCDB179
