:0200000460009A
:10000000464346420004015600000000010303007D
:100010000101000001040000400000000000000099
:1000200000000000000000000000000000000000D0
:1000300000000000000000000000000000000000C0
:1000400000000000010406000000000000000000A5
:100050000000200000000000000000000000000080
:100060000000000000000000000000000000000090
:100070000000000000000000000000000000000080
:10008000EB04180A063204260000000000000000FD
:100090000504012400000000000000000000000032
:1000A0006B0418080832042600000000000000005D
:1000B0000604000000000000000000000000000036
:1000C0008104042400000000000000000000000083
:1000D00020041808000000000000000000000000DC
:1000E00001040420000000000000000000000000E7
:1000F0003204180804220000000000000000000084
:1001000090041830002400000000000000000000EF
:100110000204180800200000000000000000000099
:100120003504000000000000000000000000000096
:10013000600400000000000000000000000000005B
:10014000F5060000000000000000000000000000B4
:10015000000000000000000000000000000000009F
:10016000000000000000000000000000000000008F
:10017000000000000000000000000000000000007F
:10018000000000000000000000000000000000006F
:10019000000000000000000000000000000000005F
:1001A000000000000000000000000000000000004F
:1001B000000000000000000000000000000000003F
:1001C000000100000010000000000000000000001E
:1001D000000001000000000000000000000000001E
:1001E000000000000000000000000000000000000F
:1001F00000000000000000000000000000000000FF
:10100000D1002041002000600000000048B50460CD
:1010100020100060001000600000000000000000D0
:10102000000000600000200000000000FFFFFFFF44
:102000000000022081DB0260014D0000054D000050
:10201000FD4C0000FD4C0000FD4C000000000000E5
:10202000000000000000000000000000094D00005A
:10203000FD4C000000000000FD610260C172026002
:10204000154D0000194D00001D4D0000214D0000F0
:10205000254D0000294D00002D4D0000314D0000A0
:10206000354D0000394D00003D4D0000414D000050
:10207000454D0000494D00004D4D0000514D000000
:10208000554D0000FD4C0000FD4C0000FD4C0000D3
:10209000594D00005D4D0000614D0000654D000090
:1020A000694D00006D4D0000714D0000754D000040
:1020B000794D00007D4D0000814D0000854D0000F0
:1020C000894D00008D4D0000914D0000954D0000A0
:1020D000994D00009D4D0000FD4C0000FD4C00009E
:1020E000FD4C0000FD4C0000FD4C0000FD4C0000CC
:1020F000FD4C0000FD4C0000FD4C0000FD4C0000BC
:10210000FD4C0000FD4C0000FD4C0000FD4C0000AB
:10211000FD4C0000FD4C0000FD4C0000FD4C00009B
:10212000A14D0000A54D0000A94D0000AD4D0000DF
:10213000B14D0000FD4C0000FD4C0000FD4C0000C6
:10214000FD4C0000FD4C0000FD4C0000FD4C00006B
:10215000FD4C0000FD4C0000FD4C0000FD4C00005B
:10216000FD4C0000FD4C0000FD4C0000FD4C00004B
:10217000FD4C0000FD4C0000FD4C0000FD4C00003B
:102180003501000045010000550100006501000017
:10219000750100008501000095010000A501000007
:1021A000B5010000C5010000B54D0000B94D0000AB
:1021B000FD4C0000FD4C0000FD4C0000FD4C0000FB
:1021C000FD4C0000FD4C0000FD4C0000FD4C0000EB
:1021D000FD4C000091730260FD4C0000FD4C0000BE
:1021E000FD4C0000FD4C0000FD4C0000BD4D00000A
:1021F000C14D0000FD4C0000C54D0000C94D000060
:10220000C1320260B1320260CD4D0000D14D0000FC
:10221000FD4C0000FD4C0000FD4C0000FD4C00009A
:10222000FD4C0000FD4C000029020000FD4C0000A8
:10223000FD4C0000FD4C0000FD4C0000FD4C00007A
:10224000FD4C000011020000170200001D020000FA
:1022500023020000FD4C0000FD4C0000FD4C00007E
:10226000FD4C0000FD4C0000FD4C0000FD4C00004A
:10227000FD4C0000FD4C0000FD4C0000FD4C00003A
:10228000FD4C0000FD4C0000FD4C0000FD4C00002A
:10229000FD4C0000FD4C0000FD4C0000FD4C00001A
:1022A000D54D0000D94D0000DD4D0000FD4C000073
:1022B000E14D0000FD4C0000FD4C0000FD4C000015
:1022C000FD4C0000FD4C0000FD4C0000FD4C0000EA
:1022D000FD4C0000FD4C0000FD4C0000FD4C0000DA
:1022E000FD4C0000FD4C0000FD4C0000FD4C0000CA
:1022F000FD4C0000FD4C0000FD4C0000FD4C0000BA
:10230000FD4C0000FD4C0000FD4C0000FD4C0000A9
:10231000FD4C0000FD4C0000FD4C0000FD4C000099
:10232000FD4C0000FD4C0000FD4C0000FD4C000089
:10233000FD4C0000FD4C0000FD4C0000FD4C000079
:10234000FD4C0000FD4C0000FD4C0000FD4C000069
:10235000FD4C0000FD4C0000FD4C0000FD4C000059
:10236000FD4C0000FD4C0000FD4C0000FD4C000049
:10237000FD4C0000FD4C0000FD4C0000FD4C000039
:10238000FD4C0000FD4C0000FD4C0000FD4C000029
:10239000FD4C0000FD4C0000FD4C0000FD4C000019
:1023A000FD4C0000FD4C0000FD4C0000FD4C000009
:1023B000FD4C0000FD4C0000FD4C0000FD4C0000F9
:1023C000FD4C0000FD4C0000FD4C0000FD4C0000E9
:1023D000FD4C0000FD4C0000FD4C0000FD4C0000D9
:1023E000FD4C0000FD4C0000FD4C0000FD4C0000C9
:1023F000FD4C0000FD4C0000FD4C0000FFFFFFFF06
:10240000024B5A69026058610020704700080020A2
:10241000024B5A6912685A61704700BF00080020D9
:10242000C460056146618761C0F81C80C0F82090D7
:10243000C0F824A0C0F828B0C0F82CD080ED0C8BD8
:1024400080ED0E9B80ED10ABC0F808E0FFF7D8BF21
:10245000104908B54B690BB923F0ABFB1A685860FB
:102460004A611846C468056946698769D0F81C80C6
:10247000D0F82090D0F824A0D0F828B0D0F82CD0F4
:1024800090ED0C8B90ED0E9B90ED10ABD0F808E02A
:10249000012070470008002010B50021044631F0EB
:1024A000BBF818B914B1204631F07EF910BD0021F7
:1024B00031F0B2B810B50121044631F0ADF818B9C9
:1024C00014B1204631F070F910BDFFF7E5BF10B52B
:1024D00001220C4631F0C8F818B914B1204631F089
:1024E00063F910BD31F0C0B831F0CAB8054B1B6AB2
:1024F0005A68824204D8801A043053F8200070478A
:102500001B68F5E700080020014441F205538842AA
:1025100004D398B2012838BF0120704703EB43135E
:1025200010F8012B5340F2E7034B044A1A620022D1
:10253000C3F82C23704700BF00080020CC9904602A
:102540002DE9F84F80460D46FFF7DEFF134B074697
:102550001C6A0CB920461EE004F1100BE3685E46CD
:102560000BEB83094E45B24601D32468F1E756F8D8
:10257000040B0388BB42F5D18378AB42F2D12A46E3
:102580004146033024F093FA0028EBD1AAEB0B0A62
:10259000606800EBAA00BDE8F88F00BF00080020CB
:1025A0002DE9F04780460E46FFF7CAFF0246002895
:1025B0007FD1FF2E03D94049404831F011F9404CFA
:1025C000351DD4F82C0390B1D4E9CC132B448B42A5
:1025D0002AD92944FFF786FF0746E0B90246D4F816
:1025E0003413D4F82C03FFF77DFFC4F82C73802D2F
:1025F0002F4638BF80273846FFF759FFC4F82C0311
:1026000000283DD12846FFF752FFC4F82C03B0BB89
:10261000284631F0C9F8D4F830332B44C4F83033AD
:10262000D4F82C33002BE2D0D4F834933146D4F8CC
:102630002CA340464D440AEB0907C4F83453FFF776
:1026400063FF0AF80900000A324641467870F81C18
:10265000BE7024F0CBF9B9190026CE70236AD3E9F5
:102660000253AB421BD36D000A2D38BF0A25281D2B
:102670008000FFF71CFF48B9C4F82C03C8E72F46B9
:102680000023C4F83073C4F83433CDE7226A5368AA
:102690000260D268C6601344C0E901352062236A33
:1026A000D9685A68481C0431013AD860024443F89A
:1026B00021701046BDE8F087D339036094AB036006
:1026C0000008002010B5044624F003FA0146204615
:1026D000BDE81040FFF764BF08B5FFF707FF0088AB
:1026E00008BD08B5FFF702FF807808BD08B5FFF701
:1026F000FDFE033008BD08B5FFF7F8FE8378033010
:102700000B6008BD2DE9F8431D46002307468846A7
:10271000036016460B6013602B60164BDFF8589071
:102720001C6A0CB14C4505D12B68326813442B60F0
:10273000BDE8F8833B6801333B60E268D8F80030BD
:102740001344C8F8003004F11003E26803EB82027E
:10275000934207D3204630F047FF2B682468184483
:102760002860DEE753F8041B88783168043101449F
:102770003160EDE700080020CC9904602DE9F843B2
:102780000E4B0F4F1C6ADFF83C80DFF83C900CB119
:10279000BC4201D1BDE8F88304F11005E36805EB04
:1027A0008306B54201D32468F1E755F8042B41466E
:1027B0004846033200F0DAFCF3E700BF00080020CF
:1027C000CC990460E13903605C84036038B54468E7
:1027D000054603682144994211D9037BDB0703D5E1
:1027E0000021074830F0FCFF01F11004806824F05C
:1027F000070408342146FFF76AFE2C60A86038BD44
:1028000094AB036070B504460E4611461546FFF7BB
:10281000DDFF31462A46D4E90130184424F00DF991
:1028200062682A44626070BD70B546680446B14271
:1028300028BF31460D460121FFF7C8FFA368681C79
:10284000721B5919184424F0F8F86368A068013322
:102850002844636070BD012938B538BF01210446A2
:102860000025084621606560FFF716FE237BA06007
:1028700065F30003237338BD38B505460C460131B6
:10288000FFF7E9FF6C6038BD00230160C0E9013249
:10289000037B43F0010303737047000038B514460F
:1028A0000546FFF7D8FF024B2560636038BD00BFC7
:1028B00005280060037BDB0710B5044602D480685E
:1028C000FFF712FE0023A36010BD13B50190102086
:1028D000FFF7E2FD04460199FFF7BDFF204602B075
:1028E00010BD10B5044650B1037BDB0702D48068ED
:1028F000FFF7FAFD2046BDE81040FFF7F5BD10BD1B
:1029000038B5037B04460D46DB0703D50021074895
:1029100030F066FF016880682944FFF7D8FD23681E
:10292000A0601D441844256038BD00BF94AB03600F
:1029300038B504460D46FFF749FFD4E901301D4480
:102940001844656038BDD0E9002310B59A420446AA
:1029500002D10121FFF7D4FF0021D4E90132D15483
:10296000A06810BD10B50C460121FFF7E1FF04700F
:1029700010BD7F29F8B50C46CEB204D80121FFF76F
:10298000D7FF0670F8BD06F03F06B1F5006FC1F342
:10299000871546F0800607D265F03F050221FFF754
:1029A000C7FF46700570EDE705F03F05B1F5803FC4
:1029B000C1F3073745F0800508D267F01F070321F0
:1029C000FFF7B6FF457007708670DBE7A40C07F0D1
:1029D0003F07042164F00F0467F07F07FFF7A8FFAB
:1029E000857004704770C670CCE713B5044608467E
:1029F000019124F06EF801990246204602B0BDE82C
:102A00001040FFF7FFBE10B51446FFF70DFF04702E
:102A100010BD10B51446FFF707FF047010BD4368E2
:102A20008B422CBF591A00214160704738B50446CB
:102A30001546084662688A4203D929448A4201D869
:102A4000606038BDA368521A1844194423F0F5FF9A
:102A50006268521B6260F4E70846114630F0BCBE63
:102A600037B505460846019124F033F8044620B1F5
:102A700002466B68019928689847204603B030BD2C
:102A80002DE9F74F89469DF8301017460D9A11F041
:102A9000DF0F0646A2EB07023DD030290CA82549DE
:102AA00013BF80464FF0100A88464FF0010A13F01A
:102AB000800535D002EBD2746510A2EB6404002DC2
:102AC00035DDAB46DA45524673684146A8BF5A46E3
:102AD000306801929847019AABEB020BBBF1000FF3
:102AE000F0DC2FB13D4473683A4649463068984758
:102AF000002C0CDD2544A245574673684146A8BF0B
:102B000027463068E41B3A469847002CF3DC2846F9
:102B100003B0BDE8F08FDFF820804FF0100AC6E761
:102B200013F0010401D11546C9E71446D9E7002581
:102B3000D7E700BF75840360648403602DE9F04328
:102B4000064689B00020119D9DF84880139F8DF89E
:102B50000F000AB381421ADA2D2249428DF80F2064
:102B6000109A08AC0DF11009A2F10A008E46B1FBD3
:102B7000F3FC03FB1C126146092A8CBF1218303289
:102B800004F8012D4C450ED07345EFD90BE0A80792
:102B900027D52B228DF80F200029E1D130230DF10C
:102BA0001F048DF81F3015F040099DF80F301CD020
:102BB00023B301222B460DF10F013046013FCDE931
:102BC0000082FFF75DFF814608AA2B46214630466A
:102BD000121BCDE90087FFF753FF484409B0BDE859
:102BE000F0836A07D8D52022D4E7002BECD004AAC2
:102BF0009442E9D904F8013C013CE5E79946E3E752
:102C00002DE9F04F93B01E4681460C469DF8743076
:102C100092461C9D0793CB07DDE91E870BD48807DE
:102C200003D109687E4B994205D020460AF0FCFE8C
:102C3000400040F0010415F0810306D1079A302AC4
:102C400003D1B845B8BFB8461F4620460DF1280B42
:102C50000DF0FAFF002818DBA90712D52B230DF180
:102C600029018DF82830EB06F6B21DD5BAF1020F16
:102C70000DD130200B4603F8020B701C487019462A
:102C800012E06A0701D52023E9E75946EBE7BAF1DC
:102C9000080F61D1A8054FF030030B7049BF06F152
:102CA0000E0301314B700231002315F0200FA1EB10
:102CB0000B020EA80B700CBF19462C21012F069297
:102CC000C8BF45F040050B9010208DF8273015F057
:102CD0004002CDE90C030592CDE9026146D00DAA70
:102CE0000CA90BA8CDE900A323460DF089FE0378BB
:102CF00082462D2B06D18DF8273000F1010A0D9B5D
:102D0000013B0D93012F40F384800D9C059BBC4239
:102D1000B8BF3C462BB19DF8273003B10134069B68
:102D20001C44A0452DDD15F00103A8EB040429D1B6
:102D300026461C4625F001054EB12023019639494F
:102D40004846009300231A46FFF79AFE0646059B65
:102D5000D3B9302307933AE0BAF1100FA4D1302051
:102D60000B4603F8020B06F1170087E70AAB0DAA22
:102D70000CA90BA8CDE900A323460DF041FE824625
:102D8000C0E700240026D5E7302307939DF82730BD
:102D90005BB1002301220DF12701484608F1FF38FD
:102DA000CDE90032FFF76CFE0644069B63B10023B9
:102DB000012259464846CDE90032069AFFF760FEE7
:102DC000069B0644A8EB0308012FD8BF4746079B84
:102DD00051460D9A484600932B460197FFF750FE47
:102DE00006444CB120230F49484601940093002328
:102DF0001A46FFF745FE06440B980EAB984201D0E9
:102E0000FFF772FB304613B0BDE8F08F0024264672
:102E1000BCE7059B002BF9D11C461E464746D6E76A
:102E2000E4B20360E60B04602DE9F04316468BB074
:102E300007469846B207DDF8489040D416F0040FD4
:102E40000CBF002320230A4600932021139B02A8D5
:102E500009F082FAF305044610D5431C1F2B0DD848
:102E600000F1280200210DEB0204252204F8202C99
:102E700003F128021C466A4402F8201C16F04005A3
:102E80001FD09DF808302F2B4FF000031BD80122D4
:102E900002A9384609F1FF39013CCDE90032FFF7BC
:102EA000EFFD0DF109010546334622463846CDE9CE
:102EB0000089FFF7E5FD28440BB0BDE8F0832B2324
:102EC000C1E702A9F0E702A91D46EDE72DE9F04FA1
:102ED000074689B014460025DFF88C820B461E4653
:102EE00013F8012B92B9B14213D30B78002B00F0E9
:102EF0003481013120234FF0000A084610F8012BDD
:102F000082B94FF000094FF00A0C2AE0252AE6D1D9
:102F1000E9E7A6EB01097B6838684A464D449847C3
:102F20003146E2E72D2A03D14AF0010A0146E4E7DF
:102F30002B2A02D14AF0020AF8E7202A02D14AF0ED
:102F4000040AF3E7212A02D14AF0080AEEE7302A00
:102F5000D7D14AF0400A1346E8E70CFB0929A9F14A
:102F600030090E4611F8012BA2F130000928F4D9DE
:102F70002E2A33D172782A2A0FD00A464FF00A0C33
:102F80000021164612F801BBABF13000092807D822
:102F90000CFB01BBABF13001F3E7023654F8041B24
:102FA00021EAE17B32786C2A08BF013631780029AA
:102FB00000F0D38078295FD8572912D8472959D8EB
:102FC000442959D907345246384624F00704CDE93C
:102FD000009BB4EC020BFFF727FF5FE04FF0FF3BD5
:102FE000E0E7A1F15802202A46D801A050F822F0CB
:102FF0002B310060793000607930006079300060FA
:10300000793000607930006079300060793000609C
:10301000793000607930006087300060A93000604E
:103020000F310060C52F0060C52F0060C52F006004
:10303000793000607930006079300060793000606C
:10304000793000607930006079300060793000605C
:103050004B310060BD30006079300060E7300060C7
:10306000793000602B310060793000607930006089
:103070002B310060502968D07B68012231463868C6
:10308000013598470BE054F8042BCDE9003953463D
:103090003AB1042233493846FFF7F2FC0544711C6B
:1030A0001CE705224146F6E754F8042B07A98DF8E2
:1030B0001C200122CDE900395346ECE707A954F85A
:1030C000040B0493FFF717FBBBF1FF3F0146049B82
:1030D00004D0079A934538BFCDF81CB0079ACDE9C4
:1030E00000395346D7E754F8041B0593084604916A
:1030F00023F0EFFCBBF1FF3F0246DDE9041302D0F1
:10310000584528BF5A46CDE900395346C3E7CDE9B3
:10311000023961230122CDF804A000930A2354F858
:10312000041B3846FFF70AFDB8E74A1C21F00F01DF
:10313000CDF804A002F006020F39CDE90239C9B278
:10314000C2F1100300910022E9E7CDE902396123C1
:10315000CDF804A000931023F5E7284609B0BDE898
:10316000F08F00BF50840360558403600EB403B534
:1031700003AA52F8041B0192FFF7A8FE02B05DF803
:1031800004EB03B0704790F9001002460378002961
:1031900001DB1846704703F07F004023184206D138
:1031A00012F8013F03F0C001802904D0704720EAE3
:1031B00003005B08F2E703F03F0343EA8010EFE708
:1031C000431C18460133027802F0C002802AF8D06E
:1031D000704703460020994200D8704711F8012D2E
:1031E00002F0C002802A18BF0130F4E70144034610
:1031F000002099421A4600D870471278013302F035
:10320000C002802A18BF0130F3E700007F289DBF6D
:10321000024B185CC0F340000020704786840360B6
:103220007F289DBF024B185CC0F3C0000020704790
:10323000868403607F289DBF024B185CC0F380002A
:1032400000207047868403607F289DBF024B185C76
:10325000C0F3801000207047868403607F2809D85F
:10326000064B1B5C13F00C0F06D1A0F15F03584214
:1032700058417047002070470120704786840360E2
:103280007F289DBF024B185CC0F3001000207047E0
:10329000868403607F289DBF024B185CC0F34010FA
:1032A000002070478684036008B50246FFF7E8FFF8
:1032B00000B12032104608BD08B50246FFF7EAFF0C
:1032C00000B1203A104608BD3038092884BF20F0EC
:1032D00020000738704701440246002010B5E5245D
:1032E000914203D8B0FA80F0400917E012F8013B90
:1032F00030B103F0C003802B11D10138C0B2EFE729
:10330000BF2B09D9F72B09D8D80800F0060044FADA
:1033100000F000F00300E3E71B06E1D510BD00203C
:10332000FCE7023981420B4603D31A880239002A8E
:10333000F8D00233181A40107047B2EB131F70B563
:1033400005464FEA131615D9901B03F00F0401EB45
:10335000460102460E46012A31F8023B18BF336887
:10336000013A23FA04F39BB225F8023BF2D103B9E8
:10337000013870BD0020FCE7F0B5059F0024D21B8A
:103380002646A74210D100EB470C002401EB470171
:10339000A24214D10CEB42031EB1012102332CF8DE
:1033A0001210181A4010F0BD31F8145033F814C040
:1033B0006544354420F814502E0C0134E1E731F80F
:1033C000145035442CF814502E0C0134E0E7F0B4BE
:1033D000049F0025D21B2C46AF420BD100EB4706C1
:1033E000002301EB47059A420FD106EB4201F0BCE6
:1033F000FFF797BF31F81560344433F81560A41B0C
:1034000020F8154024140135E6E735F813100C4474
:1034100026F8134024140133E5E7022938B538BFF4
:103420000221044680680D4618B12368B1EB930F62
:1034300007D96900FFF74BF82368A06065F39F0385
:10344000236038BD38B504460C20FFF725F8054643
:1034500023682278C3F39D0023F0030302F00102E6
:10346000400013432B6063686B60FFF715F8A8609A
:103470002268A168C2F39D02520023F0B7FA2846E1
:1034800038BD994210B511D313D800EB410002EBBF
:10349000410209B9084610BD30F8023D32F8024D2C
:1034A0001B1B002B02DB04D10139F2E74FF0FF3088
:1034B000F1E70120EFE710B5044638B18068FFF767
:1034C00013F82046BDE81040FFF70EB810BD38B520
:1034D0000C4602210546FFF7A0FF002C2B78B5BF54
:1034E000012200226142214662F3000301222B7077
:1034F000AB68023B23F8021F090C104602F10102DF
:10350000F8D1686038BD0023C0E90033836070479C
:1035100028B103789B0702D48068FEF7E5BF7047A7
:1035200038B505460C464968FFF777FF22782B78B7
:10353000A86862F300032B706368A1686B6062681F
:10354000BDE83840520023F051BA0A4629B9017843
:10355000426062F3000101707047FFF7B8BF08B521
:10356000FFF7D1FFBDE80840FFF7EFBF920042F040
:1035700002020260002210B4C0E901215DF8044B90
:103580001946FFF7E2BFF8B514461D469DF81870BE
:1035900004210646FFF741FF22462B4627B1002DA6
:1035A0000CDA624265EB4503317867F30001317054
:1035B0000021716052EA030102D1F8BD0027F3E750
:1035C000D6E901104C1C746020F81120120C42EA5C
:1035D00003421B0CEEE72DE9F84353EC102B1E467B
:1035E0000378074610EE105AF20F62F300030370DF
:1035F00047F6F07313EA164207D13B786FF30003E6
:103600003B7000237B60BDE8F8839A42F5D0C6F397
:103610000A52A2F2FF34002CEFDB04D10121BDE8F5
:10362000F843FFF754BFA2F2EF38C6F31306B8F120
:10363000000F46F48016B8BFA2F57878332C4FEA15
:1036400028183FDCC4F13402A4F11403C4F11404BB
:1036500006FA03F3D54026FA04F4D6401D43254369
:103660000024A14641463846FFF7D7FEC7F804803C
:10367000B9F1000F05D04FEA49020021B86823F0E4
:10368000F4F99CB105FA04F2BB6823F81920C4F1DF
:103690001003103409F10109A3F12002DD4006FAFC
:1036A00004F426FA02F2DE40254315434B469845C2
:1036B000A9D0BA6822F813502D0C013345EA06450B
:1036C000360CF4E7A2F233430C34002B04F00F0461
:1036D000B8BFA2F224434FEA2319C3E72DE9F84308
:1036E0008F18C2F35B0204460D46511C9846089E93
:1036F000FFF793FE237829461FFA86FC68F3000340
:10370000237000236360B942084602D3401BBDE822
:10371000F88302780131A2F13003092B05D9A2F117
:103720004103192B14D8A2F13703B342EED2D4E9E6
:1037300001E0F0468146B8F1000F10D100EB4E02D7
:1037400013B1023220F81E30121A52106260DAE70A
:10375000A2F16103192BD9D8A2F15703E5E7B9F813
:10376000002008F1FF3802FB0C3329F8023B1B0C48
:10377000E1E7F8B5044615461E46C1B1531E4FF0A9
:10378000FF371E44E90020460F310909FFF745FEC7
:10379000237800216FF30003616023704DB9D4E9F1
:1037A000011000EB4101FFF7BCFD6060F8BD01278F
:1037B000E8E700230F290ADC3278013D3E4402FA93
:1037C00001F201F1080143EA02039BB2F2D16268FF
:1037D0001039501C6060A06820F81230DEE738B560
:1037E0000B780446057803F0010305F00100181A70
:1037F00008D1D1E90132D4E90110FFF742FEEB070D
:1038000048BF404238BD884210B5044601D0FFF79A
:1038100087FE23786FF30003237010BD884210B534
:10382000044601D0FFF77CFE63683BB12378C3F305
:103830000002C2F1010262F30003237010BD88424E
:103840001FB5044601D0FFF76BFE626862B9012123
:103850002046FFF7E2FD0123A2681380636023780E
:1038600043F00103237010E02378D9070FD56FF3DD
:103870000003A168237001230846ADF80E300093C1
:103880000DF10E03FFF7A3FD606004B010BD511CE5
:103890002046FFF7C2FD0123D4E90121ADF80E3027
:1038A000009308460DF10E03FFF766FD6060D6E752
:1038B0002DE9F8434B6805460E46144603B12AB974
:1038C00031462846BDE8F843FFF72ABE02F10F0152
:1038D0004FEA111803EB1111FFF79FFD14F00F04CD
:1038E000A8684FF0000C08BF1024D6E90131C4F1DC
:1038F000100408EB030701EB430E194607F10042E1
:10390000013A00EB42008146E9B96FF001022CFA5E
:1039100004F45343C218C452C8F1010302EB430339
:1039200008F1FF321846520023F09FF8831E17B1AA
:1039300033F817209AB12B786F60327862F3000366
:103940002B70BDE8F8833EF8022D013942EA0C0CD9
:103950002CFA04F24FEA0C4C29F80229D4E7013F73
:10396000E5E7F0B50E46496885B00546144601B155
:1039700032B93146284605B0BDE8F040FFF7D0BD6A
:10398000FFF74BFD2346A868D6E90121FFF7D5FCD8
:103990002B786860327862F300032B70DB072DD53B
:1039A000002322097168ADF80E30994201D093428C
:1039B0000FD1914222D9B36804F00F0433F81220DA
:1039C000012303FA04F4013C224213D0ADF80E3077
:1039D00008E0B76837F8137057B101239142ADF88A
:1039E0000E30E8D8A968012350B90B806B6005E060
:1039F0000133DAE7BDF80E30002BF3D105B0F0BD8E
:103A00000246009308460DF10E03FFF7B5FC68600F
:103A1000F4E773B50C4616460546D2E90132D1E902
:103A20000110FFF72EFD0028BEBF234634461E4678
:103A30002378616832785340DB071BD40131284674
:103A4000FFF7EBFC7368A8680093B368D4E9012121
:103A5000FFF792FC686023786A68C3F30003002ACA
:103A60000CBF002303F001032A7863F300022A70DD
:103A700002B070BD2846FFF7D0FC7368A8680093B9
:103A8000B368D4E90121FFF7A2FCE3E7F7B50D46DF
:103A900016460446D2E90132D1E90110FFF7F1FCE4
:103AA0000028BDBF2B46354601270027B8BF1E465C
:103AB0002B78696832785340DB0714D501312046F2
:103AC000FFF7ABFC7368A0680093B368D5E90121E8
:103AD000FFF752FC60606268237882B962F30003EA
:103AE000237003B0F0BD2046FFF797FC7368A06811
:103AF0000093B368D5E90121FFF769FCEAE72A786A
:103B000002F00102002FE9D0C2F10102E6E72DE93F
:103B1000F04F16464A680C4685B0736805469A42CF
:103B20003EBF34460B461E4623786168DA0756BF0F
:103B30003378012303F001031944FFF76EFCB368E7
:103B4000726836780093A868D4E901E9247882463F
:103B5000A2EB0E02A9F1020984EA060106F00106B1
:103B60000392CB07C6F10008B44654BF04F0010B22
:103B70004FF0000B04F001041FFA88F8CBF10001AC
:103B8000274689B20191614289B20291714699B981
:103B900000EB4E01BBF1000F03D00123023120F8EE
:103BA0001E30FFF7BEFB34402B78686064F30003DF
:103BB0002B7005B0BDE8F08F39F8022F0139029B58
:103BC0005A40039B17445A18914229BF009B424612
:103BD00033F8022B82EA080228BF0093019B944429
:103BE00007EA0C024FEA1C4C3F0C5A401BFA82F2C7
:103BF0004FEA124B2AF8022BC9E72DE9F04F16467F
:103C00004A680C4685B0736805469A423EBF344602
:103C10000B461E4623786168DB0756BF33780123C5
:103C200003F001031944FFF7F8FBA868D4E901A7E2
:103C30002478A7F10208574614F0010F04F001049C
:103C4000009018BF0122A446D6E901B3367808BF18
:103C500006F0010206F001065142C6F10009B6461F
:103C600089B21FFA89F90191614289B20291ABEBE5
:103C70000A01039167B900EB4A013443FFF751FB96
:103C80002B78686064F300032B7005B0BDE8F08FFB
:103C900038F802BF013F02998BEA010B0399DC441B
:103CA00001EB070B01995F452ABF33F802BBCB46F6
:103CB0008BEA090BDE444CEA0E0B4FEA1E4E4FEA2C
:103CC0001C4C8BEA010B009912FA8BF221F8022BA3
:103CD000120C0091CEE72DE9F74F15464A680C46C5
:103CE00006466B684FF6FF7B9A423EBF2C460B465A
:103CF0001D4623786168DB0756BF2B78012303F04C
:103D000001031944FFF789FB23782A78A16883EA25
:103D1000020CD4F80480B068DB43D243A1F1020A5C
:103D200069680CF0010CAF6803F00103A1EB080116
:103D300002F00102C64681460191BEF1000F19D181
:103D400000EB4801BCF1000F03D00123023120F841
:103D50001830FFF7E6FA706023782A78C3F300037F
:103D6000C2F300025340327863F30002327003B0B2
:103D7000BDE8F08F3AF8021F0EF1FF3E59440B44A4
:103D8000019971448E452ABF37F8021B4FF6FF7127
:103D900059440A4483EA0201120C1B0C1CFA81FCF0
:103DA00029F802CB4FEA1C4CC7E74B682DE9F04FCE
:103DB000044685B00E4615460BB1536843B92378C7
:103DC0006FF3000323700023636005B0BDE8F08F3C
:103DD00081422ED1FFF736FBA5420646074600D1A9
:103DE00005466B68204671681944FFF716FB226888
:103DF0000021A068C2F39D02520022F036FEB36893
:103E0000D4F808E00022D6F804900193F446AB6899
:103E10000EEB4908114602936B680393039B934290
:103E200031D0ACF10200DDF804B00023CDF80090F1
:103E300018E0824204D1FFF705FB05460746D0E7AC
:103E40000027CEE730F802AF53443BF802AB1946E7
:103E5000029B33F8123003FB0A13009903800139E7
:103E60001B0C009100990029ECD14146881C13B12C
:103E70000146A8F80030A1EB0E010CF1020C013252
:103E800080464910CAE7616038462A783378534043
:103E9000227863F30002227005B0BDE8F04FFFF70F
:103EA0000ABB4B6870B50546144613B11378DA07A0
:103EB00006D52B786FF300032B7000236B6070BD69
:103EC000636823B90121BDE87040FFF700BB0846D5
:103ED000FFF7B8FA06462046FFF7B4FA0121044678
:103EE0002846FFF7F4FA636883B1A3681B88DB07F1
:103EF00004D5324629462846FFF757FF0123D4E967
:103F000001210846FFF719FA606038B93046FFF71B
:103F1000D2FA2046BDE87040FFF7CDBA32463146AE
:103F20003046FFF742FFDEE72DE9F04F0C465168BF
:103F30008FB09046013105460293FFF76EFAD8F82C
:103F400004200021A86800260132520022F08DFDD5
:103F50002B786E6020466FF300032B70D8F80410A6
:103F60000131FFF75AFA41462046FFF7D9FA029B82
:103F7000A768D4F8049038464946D3E9013A01933A
:103F80005246AB680393019BFFF77BFA002832D1BE
:103F90000123039A606013806B6023786168C3F328
:103FA000000200290CBF002202F0010262F30003AC
:103FB000029A237098F8003012785340DB0717D527
:103FC0006B682A78003B18BF012363F300022A7054
:103FD00071B14FF0FF310BA8FFF7C1FA0BAA2946C8
:103FE0002846FFF716FD029A21462046FFF711FDED
:103FF0000FB0BDE8F08F01DA6E60CEE7019B03F1F0
:104000000042013A4FEA420E3AF81230180406F123
:10401000010153D5B3B2002107EB490B09F10100AF
:1040200027F81910BC4600930BF10209C3F11003E5
:1040300060600493CC4545D33AF81220009B02FA05
:1040400003F30493019B012B0AD90AEB0E02009B98
:1040500032F8022CC3F11001CA40049911430491B3
:10406000019BAAF1020AC01A039B686000F100409C
:10407000013803EB400306930EF1020309936368D2
:104080000593059A019B934229D302F1004B009BB3
:1040900000200BF1FF3BC3F1100607EB4B0B5F4514
:1040A00073D96FF000416B682BB15A18039830F840
:1040B0001220002A74D06FF0004176E05B000E46BB
:1040C0009BB2A3E7BCF80060009B06FA03F3194318
:1040D000049B2CF8021B26FA03F189B2AAE7BBF86D
:1040E000001000203BF8022C049B864642EA014265
:1040F000B2FBF3F2099BABEB03031E46CDE9073A93
:10410000B3450ED8BBF800100844002838D1069BF0
:10411000ABF1020B23F802290693059B5A1E62603D
:10412000ADE7089BB6F8009033F8021F19FA80F942
:104130000893009B994041EA1E4E1FFA8EF15143AD
:104140001FFA81FC090CA9EB0C0CC1EB204126F8ED
:1041500002CB01EB2C40D3E739F802CF009B0CFADD
:1041600003FC4CEA1E4EB6F800C011FA8EF1614411
:1041700026F8021B090CB345EED80844013AC4E7FF
:104180000021D146079E8E46F5E7BBF80020009B34
:1041900042FA03F1B240014390B22BF802197EE7D4
:1041A000013B6B607FE7013B63606368002B3FF47A
:1041B000F4AE5A1837F81220002AF4D0EDE6F0B524
:1041C0001F464B6885B004460D4616464BB1137822
:1041D000DA0706D47B68012B0BD1BB681B88012B47
:1041E00007D123786FF3000323700023636005B0C9
:1041F000F0BD01212046FFF76AF97368002BF6D065
:104200002846FFF71FF905463046FFF71BF906461B
:1042100001A8FFF778F97368B3B1B3681B88DB07AF
:104220000AD52A4621462046FFF7BFFD3B462246D7
:10423000214601A8FFF778FE0123D6E901210846AF
:10424000FFF77BF8706048B901A8FFF761F92846CD
:10425000FFF731F93046FFF72EF9C8E72A4629461D
:104260002846FFF7A2FD3B462A46294601A8FFF74C
:104270005BFED0E7D0E901210346002001EB4202BA
:1042800010B5914204D31B78DB0748BF404210BDF4
:1042900032F8024D44EA0040F3E730B5D0E901249A
:1042A000002304EB4202944206D302780120D20795
:1042B00048BF5B420B6030BDB3F5004F04D232F80B
:1042C000025D45EA0343EEE70020F4E72DE9F047FD
:1042D0000546D1B1981800264FF0010C03EB0209F6
:1042E0003746D5E90184A4F1020EB8F1000F0ED1D2
:1042F000B9B3C21A18462B7813F0010FBDE8F04786
:1043000014BFFF21002122F0B0BB1846E3E73EF8BE
:10431000024F103744EA064695F800A0072F0AF02E
:10432000010A02DC08F1FF38DFE7B4B2BAF1000F8E
:1043300006D0E4435CFA84FC1FFA8CF4CCF3072C1F
:10434000E4B249B100F1FF3A00F8014C53450BD0FB
:10435000083F360A5046DFE782460AF8014BCA4555
:10436000F5E713441A1AC6E7BDE8F087000000001D
:10437000D0E901329FED0C0B9FED0D6B02EB430377
:104380009A4205D30378DB0748BFB1EE400B704774
:1043900033F8021D07EE101AB8EEC77B00EE067B5D
:1043A000B0EE470BECE700BF00000000000000008B
:1043B000000000000000F0402DE9F84F44688046FE
:1043C000894615469B469DF828A00B9E9CB982B154
:1043D000551E334615F8011F184639B930230370AE
:1043E000002300F8013F801BBDE8F88F03F8011B94
:1043F000F0E73046F2E76400ABF13A0B2046FEF7F7
:104400004BF807462246D8F8081022F0EFFA31465A
:1044100032463819A0F1020C00236745644639D9A9
:1044200030331446392B88BF5B4404F8013B3B46CC
:1044300098429C4638D8BAF1000F0AD00123A4EB69
:10444000010CBCF1030F02BF941C82F801A02146AD
:10445000F3B13846FEF748F85DB1284622F039FB43
:104460002A18611E1346AB4229D8954288BF002006
:10447000044498F80030DB0744BF2D2304F8013BC7
:104480003346621E9A421FD80023A01B2370ABE75D
:104490002246BFE7248844EA0343B3FBF9F409FB4F
:1044A00014332CF80249B8E7BCF800C00233BCF161
:1044B000000FBDD0BAF1000FEAD00023BFE713F818
:1044C000017D01F8017FCEE71978107803F8010B20
:1044D00002F80119D6E7D0E9023293423DBF5A1CD7
:1044E000826018784FF0FF307047036810B50446BB
:1044F00013B14068FDF7F8FF2046BDE81040FDF716
:10450000F3BF0000F8B50C461F46164605461020BE
:10451000FDF7C2FF054B8460C0E900743444C460F9
:104520006B60034B2860AB60F8BD00BFD7440060F0
:10453000EB44006002690A2A10B5044635D1836A4B
:10454000013383620123A269E36263696261226FBE
:104550002361002A31D0616E8A423BBF501CA16E9C
:104560000022206738BF8A5CA2613BB9E2696366BA
:104570002261226A23676261626AA26163690D2B0C
:1045800008D10A22A3699342626103D1D4E90103ED
:104590009847A061A369013306D163695A1C03D00F
:1045A0000A2B1CBF0A23A36110BDC36A092A04BFDA
:1045B000073323F007030133C5E7D4E90103984724
:1045C000A061DBE70369272B2BD0222B29D0A3F195
:1045D000620113291ED8174ACA40D2071AD5426968
:1045E000272A1ED0222A1CD0722B1CD1662A06D163
:1045F0008269272A15D0222A13D0722B15D143693C
:10460000622B0CD1806927280BD0A0F122035842DD
:1046100058417047662BF0D14269722AE8D00020D9
:10462000704701207047662BF6D0622BF7D14369A3
:10463000722BE6E71100090070B504460D4600260E
:104640002069431C01D1304670BD0A2808D115B13C
:10465000636B002BF7D020460126FFF76BFFEFE7D7
:10466000FEF7D4FD18B12046FFF764FFE8E72369A1
:10467000232B08D12046FFF75DFF23695A1CDFD0AA
:104680000A2BF7D1DCE75C2BDDD163690A2BDAD189
:104690002046FFF74FFFE6E7436E2DE9F04F044653
:1046A0002DED028B85B0A3B1036F93B92921603042
:1046B000FEF758F92369E36163692362A3696362C2
:1046C000A36E1A7822615A7862619B78A3610323F2
:1046D0002367002120466165FFF7AEFFA36AE56A04
:1046E0006364236BA564002B01930ADA019F0823FE
:1046F000013784F84C30276305B0BDEC028BBDE870
:10470000F08F05D0072384F84C30019B5F1EF2E741
:10471000002834D0636B93BB06236FF00042013D49
:1047200084F84C30D4E90F30991830F811108D42CC
:10473000E2D019D9A16B8B4207D308314900FDF7AC
:10474000C6FEA36B20640833A363D4E90F32591C5F
:10475000E16322F81350236B01332363CCE7013B61
:10476000E363236B013B2363E36B991830F811106B
:104770008D42F4D3C0D0022384F84C30BCE72569C5
:104780006A1C01D10023F7E72046FFF71BFF814693
:10479000002800F0B581002384F84C302369752B84
:1047A00051D0622B07D16369722B51D1C8460226C2
:1047B0000D23002512E0722B06D16369622BF5D020
:1047C000662B49D10523D7E7662B49D16369722B44
:1047D000F8D04D4601260C234FF0000894F84C20E9
:1047E000002A3FD184F84C303EB12046FFF7A2FEAC
:1047F000022E02D12046FFF79DFE23692046222B80
:1048000014BF4FF0270B4FF0220BFFF793FE2369E5
:104810005B452AD163699B4527D120464FF0030AA7
:10482000FFF788FE2046FFF785FE25B1B24904F167
:104830006000FEF7DAF804F16003002704F1500687
:1048400008EE103A1EE0012600250C23A846C5E715
:1048500001260D230025BFE7C84601260C23A8E743
:10486000019EF1E79A42BFD046E74FF0010ADCE72C
:10487000934533D1594630460137FEF77AF8204642
:10488000FFF758FE2269511C00F02F81BAF1010F89
:1048900002D10A2A00F029815745E9D3394604F1AB
:1048A0005000FEF7BCF801212046FFF7C5FE204668
:1048B000FFF788FE00287FF471AF1DE72046FFF761
:1048C00039FE21697B291ED13046FEF74BF8204680
:1048D000FFF730FE7B213046FEF744F821690DB129
:1048E0007B29EBD05C2940F0FB8020460291FFF74A
:1048F00021FE27690299B8F1000F38D03046FEF743
:1049000038F83946CBE0676E002221694B1C04D091
:10491000C2B93A2901D07D2914D1D4E919218818C6
:1049200010F8010C3D2807D1D21B39443046FDF761
:1049300069FF636E013B63662C2118EE100AFEF7D7
:1049400011F8C7E721F020005B280BD10132C9B272
:1049500018EE100A0292FEF705F82046FFF7EAFD6E
:10496000029AD2E75D2808BF02F1FF32EFE7782F05
:1049700006D85B2F0BD8222F72D053D80A2F4FD0D6
:10498000A7F13001072900F2A58003279BE0A7F1DA
:104990005C021C2AF4D801A353F822F0614A00609B
:1049A000814900608149006081490060814900605F
:1049B000114A00603D4A0060814900608149006001
:1049C000814900604D4A0060814900608149006072
:1049D000814900608149006081490060814900602F
:1049E00081490060454A006081490060814900605A
:1049F00081490060394A006081490060414A006095
:104A0000514A0060494A006081490060B14A006033
:104A1000072194F84C300C2B5ED13046FDF7A9FFEE
:104A200000272CE7552F13D0AAD8272F18D04E2FA8
:104A3000A6D132482EF000FE0D21EAE70821E8E772
:104A40000921E6E70A21E4E70B21E2E70C21E0E790
:104A500094F84C200D2A05D15C213046FDF789FFE2
:104A60003946D6E7752F0CBF04270827002114E02C
:104A700020460291FFF75EFD226910460392FEF781
:104A8000E3FB002800F04C810299039A09011046CB
:104A90000291FEF719FC02990144013FE8D2481C3B
:104AA000BED0B1F5881FB4D3012384F84C30B7E7EA
:104AB0000227DBE720460291FFF73CFD22690299BD
:104AC000303A02EBC1016269303A072AE7D8013F68
:104AD000F0D1E4E75C2111E7FF29E5D80D2BE3D104
:104AE000C9B23046FDF73EFF9AE757453CBF032267
:104AF00084F84C20D2E600BF4B85036054850360E8
:104B00002846FEF78DFB054620691DB95F2801D0B8
:104B10007F283ED9092304F15005C1B284F84C30F6
:104B20002846FDF71FFF2046FFF704FD2069421CC1
:104B30001BD128467D4FFDF706FF0025064657F896
:104B4000041B304621F0CCFF00281CD10F35EDB2FC
:104B5000122D84F84C507FF4CFAD754BD3F8383319
:104B6000002B0CBF11230F2306E6FEF759FB40B9BB
:104B700020695F2805D07F2803D8FEF75BFB00285B
:104B8000D7D0217CCCE7FFF6B7AD0135242DD6D1A7
:104B9000B2E5FEF74FFB68B321692E2935D10B230F
:104BA00084F84C3004F150060B273046FDF7E1FE47
:104BB0002046FFF7BFFC2069431C3FF49DAD002D4C
:104BC00039D120F02003452B35D16521304684F8BA
:104BD0004C70FDF7CEFE2046FFF7ACFC21692B2977
:104BE00001D02D29E7D13046FDF7C3FE2046FFF75F
:104BF000A1FCE0E723692E2B04D16069FEF71AFBC4
:104C00000028C9D100264B4D35E00A23302984F80D
:104C10004C30C7D1656945F02005A5F16203162B1C
:104C200097BF454D0125DD40ED4398BF05F00105D7
:104C300085F00105B6E7FEF7F3FA28B121692E29C0
:104C40000DD184F84C70CEE72069FEF7F3FA002806
:104C5000F4D123692E2BF1D05F2BC7D04CE521F086
:104C600020034A2BBFD1ECE7652F01D0632F00D181
:104C70000135013601352F7817B12369BB42F3D1D5
:104C80002046FFF757FC0FB9012375E5212F07D107
:104C900023693D2BF8D12046FFF74CFC3A236BE506
:104CA0002E2F0FD123692E2B02D163692E2B01D019
:104CB0005D2361E52046FFF73DFC2046FFF73AFC07
:104CC0000E2359E50335334615F8027C632F0FD0C8
:104CD000652F0DD0194AD35C03F0FD0284F84C30E7
:104CE000552A01D0592B13D1636B0133636303E55C
:104CF00015F8012C01362169914207D12046FFF7B2
:104D000019FC3346652FE5D00235DDE7632FFAE75E
:104D1000562B02D0582A7FF4EFAC636B013BE5E7DA
:104D20000123014684F84C3073E600BF0C86036013
:104D3000000800200685036001204000DF85036035
:104D40007FB501AD0646742085E80E00FDF7A4FB93
:104D50000446034695E8070043F8046B002583E802
:104D6000070001236FF001021420C4E90A320A226D
:104D7000C4E90C55C4E90E23FDF78EFB2021206405
:104D800004F15000FDF767FD294604F16000FDF7CE
:104D900062FD236C20461D802561C4E90555FFF79F
:104DA000C9FB2046FFF7C6FB2046FFF7C3FB2046A2
:104DB000FFF772FCA36C2046012B1CBF072384F86D
:104DC0004C3004B070BD30B585B0054601AC20460E
:104DD000FFF798FB284694E80E00FFF7B1FF05B0F7
:104DE00030BD30B585B00546014601AC204619F00E
:104DF00007FE2846FDF766FC94E80E00FFF7A0FFCB
:104E000005B030BD10B5044690B1C36840689847FE
:104E100004F15000FDF74EFD04F16000FDF74AFD7E
:104E2000206CFDF761FB2046BDE81040FDF75CBB40
:104E300010BD00002DE9F041054630200E46904699
:104E40001F46FDF742FB072D04460570C660A0F81B
:104E5000148001D0012D10D1B268C2F30F12E2828A
:104E600007F0F0FE04232061202067832385FDF7EF
:104E700013FBE0622046BDE8F081014B5A5DEEE78E
:104E8000228C036010B50446C06AFDF72DFB204656
:104E9000BDE81040FDF728BB30B500220446458D23
:104EA000954201D8002030BDE36A03EBC20043689D
:104EB0008B42F8D00132F3E770B504460D46164632
:104EC000FFF7EAFFC0B9238D628D9A4208D30633FB
:104ED000E06AD900FDF7FBFA238DE06206332385F3
:104EE000638DE26A591C02EBC300618502F83360EE
:104EF000002345604370438070BD034618465B68DD
:104F0000002BFBD1FFF7C8BFF8B544680E462CB99B
:104F1000F8BD032BFCD104230370F9E7254628468E
:104F20006D68002DF4D077683946FFF7B5FF00288B
:104F3000F5D00378033B022BEAD805253570002213
:104F400039462046FFF7B8FF0378002BE1D1057002
:104F50006468F4E7436A5B8B012B1EBF03695B182F
:104F600003617047C36A10B50446DB6F806A9847D7
:104F7000A38B626A0133D18C9BB29942A38338BF61
:104F8000D38410BD838B013B10B583830446C36A71
:104F9000806AD3F88430984720460121BDE810404C
:104FA000FFF7D8BFF7B51E4659B111F0030511D16F
:104FB0004F68FCB294420DD13F0A01F10804BD4292
:104FC00001DB03B0F0BD54F8041B01350190B0477C
:104FD0000198F4E7334603B0BDE8F04018472DE9E7
:104FE000F04F04460D4698462DED028B08EE102A30
:104FF00083B01BB10B8B43F008030B8318EE103A00
:105000002B84636A1A8B42F030021A831B78002BC0
:105010004CD1E36A18EE102A2946A06AD3F8B4608E
:105020004346B44603B0BDEC028BBDE8F04F604789
:10503000DB6A03EBC60B13F83630043B012B1DD89B
:105040004FF0000917E0EB6A03EBC90213F839309F
:10505000052B0ED1DBF804105368994209D1E36A9D
:105060000AF1010ABBF802205B69A06A1F4600230F
:10507000B84709F101096B8D4B45E4DC0136636AE1
:105080005A8DB242D4DCBAF1000FC2D0E36A524664
:10509000CDF800802946D3F8B86018EE103AA06A1F
:1050A000B04703B0BDEC028BBDE8F08F0026B246DE
:1050B000E5E70000F8B50E4611461A4600230446FF
:1050C00085794769837143610E4BFFF76BFFA368D6
:1050D000BBB9E18A51B1A28A42B9E36AA06AD3F8A6
:1050E000A0309847E36AA06A5B6C9847A38A314670
:1050F000E28A2046FFF773FF003D676118BF012574
:10510000A571F8BD35670060024B9D228968FFF7E5
:1051100049BF00BF45740060024B6B228968FFF7EE
:1051200041BF00BFE1570060C36A002110B50446CB
:10513000D3F88830806A9847E36AA06A10215B6BD5
:105140009847E36AA06A0121D3F8CC3098472046FB
:105150000321BDE81040FFF7FDBE38B5C36A044621
:105160000022806A9B6C9847E36AA06AD3F8C0501B
:1051700000231A461946A8472046BDE83840FFF7E5
:10518000D3BFC36A002289685B6D0909806A18472A
:10519000C36A89681B6C806A184710B504460846C4
:1051A00011462268FFF746FE636A4360002383606E
:1051B000236A0BB9206210BD1A469B68002BFBD1F5
:1051C0009060F8E770B5437905460C46012B06D18F
:1051D000436A0A4602215B8BFFF7DFFF2061A2686A
:1051E000284621694C23BDE87040FFF763BF70B5C6
:1051F0001346427905460C46012A04D10A46072186
:10520000FFF7CBFFA061A66928464623E268314636
:10521000FFF750FFF08A70BD2DE9F04F87B00546CB
:105220000C4600AF11B90121116015E011F003081F
:105230001BD10B79682B07D1CB681B0913608C68D5
:10524000002CF0D04FF0010804F00F03022B0FD117
:105250002109B8F1000FE7D0EB6A0022A86A1B6BA6
:1052600098471C37BD46BDE8F08F4FF00008EBE7CC
:10527000B8F1000F02D1A3681B0913606368002610
:105280004FEA132904F1080309F1FF3A9B46FB603A
:105290004E4526DB0AF107034FF0000B23F007030E
:1052A000ADEB030D6B461E46CB4522DB514618463F
:1052B000FDF776F9EB6A014600221B6BA86A984756
:1052C000B8F1000FCDD00C3401264E45C9DA54F8A0
:1052D000041B0022EB6A01360909A86A5B6D984736
:1052E000F3E75BF8040B01360009FDF7FAF9824495
:1052F000CEE7BBF1000F03D04FF02E0206F8012BD2
:105300007B6007F11401FB680BF1010B53F8040BF0
:105310000009FB60FDF7EFF97A6901463046BA6093
:1053200021F064FBBA687B681644BDE731B101F037
:105330000303C268134304BF0B68C36070470000D7
:1053400038B583680D46044611464BB905480AF046
:10535000D7FA2946A0602046BDE83840FFF7E6BFEF
:1053600038BD00BF48AC03602DE9F04F0E464162E6
:10537000002142718DB00446016115463378072B38
:1053800005D0844A0DB0BDE8F04FFFF7D9BF012A20
:1053900006D0436B00F108022946006B1B68984752
:1053A0006379D6F80C90032B10D10BAA462109F192
:1053B0000C002EF0A9F9636B01460B9A9B68206BD9
:1053C0009847A368B083002B40F0B580D9F810103F
:1053D000C1B101F00F06022E10D10B09752B3DD083
:1053E00006D83E2B3CD05E2B0DD06B4A2046C9E739
:1053F00040F285429342F8D1032604E0674A2046F2
:10540000FFF79EFF0226D9F814304FF0000A0AAACF
:10541000192109A809932EF077F90690069B9A4561
:1054200020D16379012B15D9636B3146206B5B6802
:1054300098476379042B0DD10023606A0396029389
:10544000226B818BCDE9003105210069D2E902325E
:1054500007F012FCA368002B6DD114E00026D2E700
:105460000126D0E70A9B4FEA8A0B53F82A100B79E2
:10547000082B02D10AF1010AD0E7052B06D0484AD1
:105480002046FFF75DFF0DB0BDE8F08FCB68002B25
:10549000F5D18B681A792C2AF1D19F6807F00F0299
:1054A000022AECD1DB680593002BE8D09807E6D1FF
:1054B0001B79302BE3D1059B0BAAA4213F0903F1F3
:1054C00008002EF021F940F2B93380469F421BD1EB
:1054D000012805D10B9A136803F00F03022B04D0A7
:1054E000304A0A9B53F80B10CAE72169012D01F1DC
:1054F000010323611AD01268636B1209206BDB6809
:10550000984798B9284AECE740F213339F4216D1E6
:10551000012803D10B9B1968CA0701D4234AE0E78D
:10552000012D03D04910206B03F003FAA368002B70
:10553000A0D0DDF81490D9F80030E360A3E7B7F508
:10554000537F1CD1012804D90B9B196811F0010766
:1055500001D1174AC5E7012DE8D049100B9B53F83C
:105560002720D30701D4134ABBE701375210206B21
:10557000079103F0E5F9B8450799EFD1D6E7012D7A
:10558000D4D0636B02463946206BD3F810B00B9B26
:10559000D847CBE7298C03604D8C03605A8C03609D
:1055A000828C0360A58C0360C18C0360D18C036086
:1055B000ED8C0360128D0360014AFFF7C1BE00BF8E
:1055C000348D03600B79092B4FF6FF7370B508BF5C
:1055D000058B044618BF458B9D4202D1064AFFF752
:1055E000AFFEA18BE28BE36A8A1AA06A29469B6F01
:1055F000BDE87040184700BF518D036013B50446E5
:10560000B9B101F00F03022B0FD10A091046019224
:1056100008F094F80028019A05DA074907480AF0CB
:1056200005FAA060002002B010BD054AFFF788FE11
:10563000F8E70846F7E700BF718D036074AD0360BB
:10564000618C036010B404460B46406A6279012AFB
:1056500003D15DF8044BFFF72FBCE16A0246A06A54
:1056600014315DF8044B02F04BBC10B4426A04469E
:1056700040790B46012804D110465DF8044B02F036
:1056800031BCE16AA06A1C315DF8044B02F038BC01
:10569000436A10B504465A8BFFF7A9FD0146204620
:1056A000BDE81040FFF7E1BFF0B58D6885B0044656
:1056B0000E4605F00F030E2B06D0002D30D0AB07A1
:1056C0002ED12B79652B1ED10295002503AA6521C9
:1056D00002A82EF019F8039B002140F2DE5203EBE2
:1056E0008000984215D1F26840F22E439A4236D19A
:1056F000636A1F78B7B1394A3146204605B0BDE824
:10570000F040FFF71DBE622B0AD1AB680293ED6833
:10571000DCE753F8047B97420CBF01310331E0E72B
:105720000021E0E7E36AA06A9B6B9847E36A0521E2
:10573000A06ADB6B9847E36A3A460121D3F8A030B0
:10574000A06A984703AA29462046FFF765FDE36A49
:10575000022239461B6BA06A984705B0F0BDE36A88
:105760000027A06A9B6B984706F10C0002AA6A21E9
:105770002DF0CAFF0646B742D4E90A0311D1D3F887
:10578000A0300022314698472946002503AA20462A
:10579000FFF742FDB542D4E90A030BD11B6E9847CF
:1057A000DBE7029ADB6B52F8272001379168090981
:1057B0009847E0E7029A1B6B52F825700122B968FE
:1057C000090901919847FB682BB9019920460135D9
:1057D000FFF74BFFDEE71909F8E700BF838D036091
:1057E000C36A37B504460D469B6B0021806A984713
:1057F000E36AA06A10215B6B984701AA29462046FC
:10580000FFF70AFD01992046FFF72FFF03B030BDD7
:1058100010B4426A044640790B46012804D1104670
:105820005DF8044B02F05EBBE16AA06A24315DF8CA
:10583000044B02F065BB000037B504460D46002955
:1058400036D0CA0707D5C36A49109B6BA06A03B05C
:10585000BDE8304018478B0736D001F00F050B0923
:10586000062D09D00A2D0FD0022D23D1194603B0E1
:10587000BDE83040FFF7E6BEC26A1946806AD26BC7
:1058800003B0BDE8304010474279042A03D0C36A10
:1058900006211B6CDAE701A91846FCF72CFFE36A26
:1058A000A46A01991D6C0DF0D5FC01462046A8475D
:1058B00003B030BD062BFBD0C26AD9B2806A526BEE
:1058C00003B0BDE830401047C36A09681B69806AAD
:1058D00098472A79024B2946204653F82230B6E7EA
:1058E000449003608B072DE9F14F04460D461646A0
:1058F00011D001F00F03022B16D1D7074FEA111177
:1059000004D401B0BDE8F04FFFF7AFBE01B0BDE871
:10591000F04FFFF797BE4968CBB22D2B7BD00BD849
:10592000062B0DD02C2B12D04E4A2946204601B012
:10593000BDE8F04FFFF704BD2E2B7FD09D2BF3D198
:10594000002EF1D105F10802090A20467BE0022A67
:1059500002D0A968FFF770FFEF68002FE4D017F0BE
:105960000309E1D17B68B846DAB28E2A0DD1022E46
:105970004FEA132805D007F1080A08F1FF3BD94583
:1059800011DB08F1010857F8288098F80430312B12
:1059900024D1022E0FD1E36AA06A9B6E9847E36A76
:1059A0001B6D012115E05AF8041B204609F101097D
:1059B000FFF742FFE3E7D8F808102046FFF73CFF67
:1059C000012EE36AECD1DB6DA06A9847E36A0021FF
:1059D0001B6DA06A01B0BDE8F04F1847322BA3D170
:1059E000012ED4E90A030CD19B6D9847E36AD8F8DD
:1059F000081000225B6D0909A06A01B0BDE8F04FF4
:105A00001847022E01D15B6E9847E36A0122D8F84D
:105A100008105B6DEFE7AA68002A85D0002E83D1BD
:105A20005168090A022907D1D3682BB1980703D11D
:105A30001B79AC2B3FF478AF083286E7002A7FF45D
:105A400073AFA96821B901B0BDE8F04F00F00CB800
:105A50008E0703D10B790A46922BE1D005F108029B
:105A6000012172E7A08D03602DE9F84304460D463D
:105A7000904601F1FF3900264FF0FF37B9F1FF3FA3
:105A80000CD17B1C05D1E36A2946A06AD3F8AC305F
:105A900098470026AE421DD1BDE8F88358F826107D
:105AA00071B18A070CD10B79222B09D101370BD1A7
:105AB000E36A37464A463146D3F8B030A06A984781
:105AC000013609F1FF39D9E72046084ABDE8F84315
:105AD000FFF736BC58F82610B7424FF000022046B8
:105AE00008BF89680136FFF7FDFED3E7BB8D036071
:105AF0002DE9F74F04460D4616461F4628462DF061
:105B000077FE20B1CEB9E36A3946DB6E4CE0284619
:105B10002DF0AEFD08B186B1F5E7002D55D0AB07ED
:105B200053D16B684FEA132BDBB21E2B1BD1F6B19E
:105B3000083505EB8B0B5D450DD103B0BDE8F08F4B
:105B400043465AF8041B2046019209F10109FFF768
:105B5000CFFF019A19E03B46324655F8041B204618
:105B6000FFF7C6FFE7E71F2B23D1002EE0D0D4F8C4
:105B7000108005F1080A4FF0000986F0010208F1D3
:105B8000010323610BF1FF330093009B4B45D7DCEE
:105B90000BF101013B463246204655F82110FFF734
:105BA000A7FFE36A4146DB6AA06A03B0BDE8F04F95
:105BB0001847202B03D1AD6886F001069EE72D2BF8
:105BC00003D1AB68002BA6D19CE729462046FFF7FE
:105BD00033FEE36A3A4631461B6FA06A03B0BDE864
:105BE000F04F18472DE9F04707691E4604460D4659
:105BF000BB1C3946904607F101090361C36A806AFC
:105C0000DB6A9847E36A4946A06AD3F88C30984724
:105C1000A96800222046FFF765FE2D69002D2DD1D1
:105C200041462046FFF708FE636AE06A19780629B4
:105C30001DD1D0F8CC302946A06A984720460121D2
:105C4000FFF788F9E36AA06A1B6E9847E36A394652
:105C5000A06ADB6E9847E36AA06A4946DB6A984708
:105C6000E36AA06AD3F89030BDE8F0471847B20065
:105C7000D0F8A850A06A0532A847E7E72B79AD2BEA
:105C800007D1A9683B4600222046FFF731FFED68A7
:105C9000C4E7E9682046FFF7CFFDE36AA06A012167
:105CA000D3F888309847731C424629462046FFF7B0
:105CB00099FFCBE72DE9F041C36A0D460026044663
:105CC0004271114606612A461B684562806A984700
:105CD00006212046FFF73EF96779012F08BF6E6263
:105CE000EE686EB1B2070BD133793F2B08D1B168A2
:105CF000FFF7A2FDE36AA06AD3F8C43098472CE00E
:105D00002B784BB931462046FFF796FDE36A5B6B73
:105D10001021A06A9847EDE7072B24D1012F12D15B
:105D2000002346222046A3715E4BF168FFF73AF943
:105D30006B8B032B07D131692046FFF75FFC2B8B60
:105D400043EA8010288320467169FFF775FDE36AF6
:105D5000A06A9B6898470028D8D0E36AA06A5B686D
:105D6000BDE8F0411847022B1BD1E36A31681B697B
:105D7000A06A98476379012B07D100234C22204663
:105D8000A371494BB168FFF70DF9F1682046FFF7A1
:105D900053FD2B8BDB07ADD5E36AA06A1B6E9847DA
:105DA000B4E7033B032B4FD8012FD6F80C8005D165
:105DB00003223946606AFFF77FF8AF83E36A3168F0
:105DC0001B69A06A98472B78032B24D1E36A012230
:105DD000D3F8A0300021A06A98472B78062B28D151
:105DE000E36AA06A5B6C984701212046FFF72AFC12
:105DF000E36AA06A5B6C9847E36AA06A5B6C9847A9
:105E00000023B26841462046FFF7ECFE2B78062BB4
:105E10007FF470AF7AE7042B04D1E36A0222D3F84F
:105E2000A030D7E7052BD8D1E36A0322D3F8A030FE
:105E3000D0E720460121FFF705FCE36A0121A06AB3
:105E4000D3F888309847DBE7012F04D103220A21D9
:105E50002846FFF731F817212046FFF7F3FB1621FC
:105E60002046FFF702FCB168E36A0909A06ADB6B10
:105E700098471A212046FFF7F8FB31692046FFF7C3
:105E8000DBFC0A212846FFF707F80378032BE36AB7
:105E90003FF43DAF5D690A2142880023A06AA8470C
:105EA00028E700BF917B0060997B0060426A38B5AB
:105EB000127804460B46072A06D0022A04D0154A57
:105EC000BDE83840FFF73CBA9D6885B9E36A102108
:105ED000A06A5B6B9847E36A0021A06AD3F8CC30D4
:105EE000984720460121BDE83840FFF733B8AB079B
:105EF0000BD12B79AF2B08D12046A968FFF79CFC6A
:105F00002046BDE83840FFF70FB929462046FFF785
:105F100093FCE0E7D58D036001F00F03022B70B511
:105F200004460D46164602D00B4AFFF709FA3146E1
:105F30002046FFF781FCE36AA06A9B6D9847666A7A
:105F4000290920463378033B032B9CBF73686362A7
:105F5000FFF78BFB666270BDA08D0360D1E9021272
:105F6000FFF7DABF70B5437904461546CE68012BBA
:105F700006D1436A0A4629465B8BFFF70EF970612A
:105F80000023716920461A46FFF729F8F168204678
:105F9000FFF752FC062D05D1E36A0021A06AD3F871
:105FA00088309847E36A0121A06AD3F8BC500023E7
:105FB000AC461A46BDE87040604700002DE9F04F3E
:105FC0004FF0000B87B004461E46D946DA465F46BE
:105FD000D84603A8CDE9022105AAA4212DF094FBFF
:105FE0000190019B9B451AD16FB1BAF1000F72D19C
:105FF000E36AA06A5B6C9847B9F1000F71D1E36A5C
:10600000A06A5B6C9847029AD4E90A03002A6ED012
:10601000D3F8C0403B4642463146A04710E0059ABF
:1060200052F82B50002D49D0A80747D12A79A62A2B
:106030000FD1F90707D52F4A29462046FFF780F9E7
:1060400007B0BDE8F08F47F00107AA460BF1010B3E
:10605000C7E7A72A07D1BA0701D5274AECE747F0D7
:106060000207A946F2E7A82A28D1EA686AB193078D
:106070000BD11179AA2906D192682046A968FFF7A9
:106080004BFF0136E2E7AC2912D0A96801F00F02FC
:10609000022A01D0194ACFE7E26A0909A06A08F189
:1060A0000108D26B9047E9682046FFF7C5FBCDE7B2
:1060B000062229462046FFF755FFE2E70FB1104AB6
:1060C000BAE7B8F1000F01D00E4AB5E729462046DD
:1060D000FFF7B2FBD5E7DAF808102046FFF7ACFB74
:1060E0008AE7D9F808102046FFF7A6FB8BE7D3F81C
:1060F000BC408FE7EE8D0360058E03601D8E03604C
:106100003E8E0360598E036070B50D46417904469A
:106110001346012903D12A46FFF73FF86861E36A75
:10612000A06ADB6C98476E690023204631461A4608
:10613000FEF755FFE36AF18ADB6BA06A9847E968CE
:1061400029B18B0703D10B79A32B08BF002120466F
:1061500002230022FFF732FFF08A70BD436A10B5B8
:1061600004465A8BFFF7D0FF01462046BDE8104099
:10617000FFF77BBA002389681A46FFF71FBF38B5BF
:1061800005460C46C968FFF757FBA1682846BDE8DD
:106190003840FFF751BB0B79342B70B504460D46E0
:1061A00010D18968FFF748FBED68AD6885B9E36AEF
:1061B0001021A06A5B6B9847E36A04220221D3F89E
:1061C000A0301AE0C36A1021806A5B6B9847ECE745
:1061D000AB071FD12B799A2B13D1E36A1021A06A48
:1061E0005B6B9847A9680029E6D02046FFF724FB9F
:1061F000E36A04220321D3F8A030A06ABDE870400E
:1062000018479B2B06D1A9682046FFF715FBEB68C2
:106210009968E8E729462046FFF70EFBCCE710B562
:1062200004468968FFF708FB0021E36AA06A1B6D3A
:10623000BDE81040184700002DE9F7438D6804467B
:1062400016465DB9002A75D0C36A02222946D3F8E2
:10625000A030A06A03B0BDE8F043184715F003076B
:1062600040F08A802B79372B13D132B1C36A0222D6
:106270000121806AD3F8A030984720462946FFF7CD
:10628000DBFAE36AA06AD3F8A43003B0BDE8F043B8
:1062900018479F2B70D1EB681A79A12A5AD1A221F5
:1062A00001AA03F108002DF02FFAA968804621B356
:1062B0008B0722D10B79372B1FD136B1E36A411CF2
:1062C0000222A06AD3F8A0309847A9682046FFF7B9
:1062D000B3FAE36A4FF00109A06AD3F8A4309847F3
:1062E000474510D1B9F1000F24D1E36A0322791C8C
:1062F000A06AD3F8A03098471CE020464FF0000970
:10630000FFF79AFAECE7019B53F82710A9B18E0723
:1063100013D10E79A6F13700464246412046FFF7D9
:106320008BFAB9F1000F11D04EB9184A2946204610
:10633000FFF706F803B0BDE8F0830026EEE7E36A56
:10634000A06AD3F8A43098470137C9E7002EFBD0E4
:106350000F4AEBE7AB685BB19A0709D11B79372B82
:1063600006D10422294603B0BDE8F043FFF7FABD89
:10637000052229462046F6E729462046FFF75CFA23
:10638000E36A03220121D3F8A03062E77B8E036029
:10639000988E03600122FFF74FBF00002DE9F743FD
:1063A0000C4689680546FFF747FAE668002E58D084
:1063B0007768696AFBB209788E2BA36819BF04F16C
:1063C0000C0601273F0A0836072903F00F024DD1BA
:1063D000022A49D11A099A2A4AD1326811793029F8
:1063E00046D19268002A43D10A212846FFF72AF9AC
:1063F0006A6AD36A528D3AB9414A2846316803B075
:10640000BDE8F043FEF79CBF5978C9070FD559681E
:106410002846FFF717F9022FEB6A0BD8D3F8BC40D8
:1064200000230221A86A1A46A047012417E0013A76
:106430000833E0E7726811793229EFD1B468217925
:106440003029EBD1916801229B6C0909A86A984711
:10645000A1680324002301222846FFF7AFFDA742CD
:1064600026D803B0BDE8F0830024F8E7022AFBD168
:106470001B09B3F5247FF7D133681A79302AF3D199
:106480009C68002CEBD014F00302EDD123792F2B64
:10649000EAD1EB6A1146A86AD3F8BC4013460192D0
:1064A000A04733682846019A9968FFF7C5FEBCE704
:1064B00004F10108A30056F82410B8451AD20A794D
:1064C000322A17D13344D3F8049099F80430302B92
:1064D00010D189680022EB6A0909A86A9B6C984769
:1064E00000230122D9F808102846FFF767FD08F1BC
:1064F0000104B4E72846A046FFF79EF9F7E700BF7E
:10650000B78E0360426A0B4610B512780446072A1C
:1065100006D0022A04D0074ABDE81040FEF710BF9B
:1065200020461946FFF73AFF2046BDE81040FEF727
:10653000FBBD00BFCF8E036070B50D46C968044631
:10654000FFF77AF9A968E36AC1F30711A06AD3F8E3
:106550009830342916BF40390221C9B2BDE87040D5
:106560001847F8B54F680C46002689683F0A0C3476
:106570000546FFF761F902360834B74200DCF8BD82
:1065800054F8041C2846FFF757F954F8081CEB6A26
:106590000909A86AD3F89C302539C9B29847EAE7B7
:1065A0002DE9F0414E680C4601278968A6F10D08D7
:1065B0000C34360A05465FFA88F8FFF73DF9B74212
:1065C00001DBBDE8F08154F8041B2846FFF734F9DD
:1065D000EB6A4146A86AD3F89C3001379847EEE74A
:1065E0002DE9F0414E680D4689680446360A0127B8
:1065F000FFF722F9032E89BFD4F810804FF000086E
:1066000008F1010323617B1C9E4222DC032E55DD31
:106610002569A06A6B1C29462361E36ADB6E9847F3
:10662000E36A4146A06ADB6A9847E36A0121A06AEF
:10663000DB689847E36AA06A5B6E9847E36AA06AE2
:106640001B6E9847E36A2946A06ADB6ABDE8F04101
:106650001847023729692046FFF7EEF8B74207DAF4
:10666000E36AA06A9B6D9847E36AA06A9B6E9847AD
:10667000E968E36A01F00F02A06AD3F89C300E2AA1
:1066800011D1C1F30711262916BF35390621C9B228
:106690009847B74205DAE36A42460021A06A5B6F79
:1066A00098470835AFE70A79852A01D13221EFE70B
:1066B0008A680AB90721EBE73321E9E7BDE8F081F1
:1066C00010B504468968FFF7B7F80321E36AA06AAA
:1066D000D3F89830BDE8104018472DE9F0474E68D0
:1066E0000446D0F8108001F108055FFA86F900270A
:1066F000360AA9F11E03D3F1000949EB030908F199
:1067000001030361B74206DBE36A4146A06ADB6A24
:10671000BDE8F0471847013755F8041B2046FFF73E
:106720008BF8B742F0DAE36A42464946A06A5B6FEB
:106730009847E7E701F00F03022B70B504460FD02E
:106740000B79492B01D04F2B02D10123A37170BDCE
:106750004A2BFCD0502BFAD0482B0DD10D696DB9C6
:10676000A379002BF3D1E38A002BF0D020461D4AF9
:10677000BDE87040FEF7E4BDCD68F0E7A37943B310
:10678000A38A8E6801339BB2012BA3820ED1E18ACA
:10679000D4E90A03D1B1D3F8A03000229847E36AC4
:1067A00002220021A06AD3F8A0309847294620464B
:1067B000FFF742F8E36AA06A3109DB6B9847E36AA6
:1067C000A06AD3F8A430BDE8704018475B6C9847C6
:1067D000E5E7E38A294620460133E382BDE87040BD
:1067E000FFF72AB8E88E03602DE9F04105690446F9
:1067F000D1F80C800E46AB1C0022D8F808106F1C94
:1068000003612B46FFF774F9B1682046FFF714F8CF
:10681000E36A3946A06ADB6E9847E36A2946A06AB4
:10682000DB6A9847E36AA06A4FF0FF31DB6898475C
:10683000D8F80C102046FEF7FFFFE36A3946A06A3D
:10684000DB6ABDE8F04118472DE9F743044690465E
:1068500099460F4629B9194603B0BDE8F043FEF743
:10686000EBBF0669731C036115684DB315F0030295
:1068700026D12B797B2B23D1A9680192FEF7DCFF6F
:10688000019A31462046FEF76DFB019AE9682046E1
:10689000FFF728F84B4608F10402791E2046FFF75F
:1068A000D3FFE36A3146A06AD3F8803098470321CA
:1068B0002046FEF74FFB03B0BDE8F043FEF762BB96
:1068C00029462046FEF7B8FF204600223146FEF753
:1068D00049FBE36AA06A1B6E9847DBE737B50C46B5
:1068E000054601AA7A2104F108002CF00DFFE368A7
:1068F0000146019A2846FFF7A7FF03B030BD00000C
:106900002DE9F04F2DED028B83B005691E4604463C
:106910000E9B0F460192294608EE103AAB1C01224D
:1069200005F1010A0361FEF71DFB394620460027E9
:10693000FEF782FFE36A00225146D3F89430A06A42
:106940009847E36A2946A06ADB6A9847E36AA06A27
:10695000D3F8D0309847D4F8108008F101032361B0
:10696000019B9F421BDB2046FEF70CFBE36AA06AFB
:10697000D3F8D4309847E36A5146A06ADB6A984757
:1069800018EE101A2046FEF757FFE36A4146A06A48
:10699000DB6A03B0BDEC028BBDE8F04F184733460D
:1069A000D4F81090043601371A68009209F10102F8
:1069B0002261009AD2F808B0BBF1000F47D1019ACA
:1069C000BA4237D10025E36AA06AAB461B6E9847EE
:1069D000009B2046D968FEF72FFFCDB1E26A102157
:1069E000A06A526B9047E26A5946A06AD26A904701
:1069F000E36A1021A06A5B6B984729462046FEF7A0
:106A000034FE20462946FEF703FF2046FEF7BAFA79
:106A1000E36A01224146A06AD3F894309847E36ABA
:106A20004946A06ADB6A9847E36A0121A06ADB68ED
:106A3000984795E720461F4A1968FEF781FC2046D3
:106A400003B0BDEC028BBDE8F04FFEF79BBA1BF024
:106A500003052DD19BF804205B46762A03D1DD681F
:106A6000DBF808B02D09E36AA06A9B6D9847594688
:106A70002046FEF7E1FEE36A0821A06AD3F89C30C5
:106A80009847E36A4A4600211B6FA06A9847002D89
:106A900098D029462046FEF7E8FDD4F810B02046ED
:106AA0000BF10102594622610222FEF75BFA8FE7E1
:106AB0000025D8E7168F03602DE9F04307691646D5
:106AC00085B00D467A1C39460393044602610222C2
:106AD000DDE90C98FEF746FA039B16BBE36A032137
:106AE000A06ADB68984729462046FEF7A5FEE36AC0
:106AF0006FF00201A06ADB689847E36A1021A06A80
:106B00005B6B9847E36A3946A06ADB6A9847204680
:106B10004146FEF791FE204605B0BDE8F043FEF782
:106B200031BA324629462046CDF80090FFF7E8FEFC
:106B3000E3E77FB5CD6806460C462B79782B09D163
:106B4000AB680193002300931A468968FFF7B4FFEE
:106B500004B070BD742B03AA4FF0770116D105F174
:106B600008002CF0D1FD2B6902463BB9EB6800937D
:106B70003046039BA168FFF7C3FEE9E79B683046F8
:106B8000A1680193EB680093039BDFE704F10C001D
:106B90002CF0BAFD00230246E9E78B6803F00F03EF
:106BA000022B2DE9F04F04460E462DED028B87B0E7
:106BB00040F00581CB68002B00F00181980740F080
:106BC000FE801A792C2A40F0FA809A6802F00F01B0
:106BD000022940F0F48012097C2A40F0F080DB6842
:106BE0001A79302A40F0EB809B6805AAA42104A8FA
:106BF00004932CF089FD431E022B00F2E0800599DE
:106C000001280A6800F0CD800228D1F804A000F025
:106C10002C818D68E90740F1D2806B0800F0CF80AD
:106C200032B1930704D11179A639022940F2C78005
:106C3000BAF1000F08D01AF0030F05D19AF804102A
:106C4000A639022940F2BB80B3681AF0010B7769BC
:106C500008EE103A3369A18B08EE903AA3692669D1
:106C60000293E38B06F10208E18306F1040101932C
:106C700006F1010306F1030926830393638321616F
:106C800005D1514620460392FEF7D6FD039A1146E0
:106C90002046FEF7D1FDE26A4946A06AD26E9047CF
:106CA000E26A4146A06AD26A9047E26AA06A926D9F
:106CB0009047002218EE101A2046FEF713FE18EE39
:106CC000901A2046FEF7B8FDE26A711CA06AD26AEB
:106CD000904729462046FEF7AFFDE26A0E21A06AE2
:106CE000D2F89C209047E26A4946A06AD26A90474F
:106CF000E26ABBF1000F58D1D36DA06A9847E36AEE
:106D0000A06A5B6E9847002DE36AA06AACBF0021C1
:106D10000121D3F89C309847E36A424601211B6F5A
:106D2000A06A9847029BA361019BE383002F44D094
:106D3000E36AA06A1B6E9847BBF1000F03D1E36AB8
:106D4000A06A1B6E984739462046FEF775FD2569F7
:106D5000A06A6B1C29462361E36ADB6E98478BF0BF
:106D60000101E36A0131A06ADB689847E36A3146B2
:106D7000A06ADB6A9847E36AA06A1B6E9847BBF17A
:106D8000000F03D1E36AA06A1B6E984727B1E36A3C
:106D90002946A06ADB6A984707B0BDEC028BBDE8C4
:106DA000F08F92460325024642E7A06A926D904713
:106DB00051462046FEF740FDA5E73D46D6E725694A
:106DC0002046A38BB4F81E906F1CE3836FEA454303
:106DD000D4F818A005F102086FEA5343F1686783FD
:106DE0002383EB1C2361FEF727FDE36A0121A06AE0
:106DF000D3F888309847E36A3946A06ADB6A984737
:106E0000E36A4146A06AD3F88C3098470022B16803
:106E10002046FEF767FD20463169FEF70DFDE36A67
:106E2000A06A9B68984720B9E36A3946A06ADB6E7E
:106E30009847E36A4146A06ADB6A9847E36AA06A1A
:106E4000D3F89030984771692046C4F818A0A4F888
:106E50001E90FEF7F1FCE36A2946A06ADB6A07B0E0
:106E6000BDEC028BBDE8F04F18470325D8E62DE9AD
:106E7000F04706690446D0F818A00D46B31C06F189
:106E80000108B0F81E900361838B0683A0F81A8076
:106E9000C38388682CF0ACFCF8B92769A8687B1C10
:106EA00023612CF0E5FB20B9E36A4146A06ADB6E62
:106EB0009847E36A3946A06ADB6A9847E968204642
:106EC000FEF7BAFCE36A4146A06ADB6A98473B4694
:106ED0000122A9682046FEF70BFE29692046C4F866
:106EE00018A0A4F81E90FEF7A7FCE36A3146A06A3A
:106EF000DB6ABDE8F04718472DE9F3470669044609
:106F00000D46731C036188682CF072FC024610BBAE
:106F100027692046A9687B1C23613B46FEF7E8FDF4
:106F20002046E968FEF788FCA8682CF0A1FB00BBAE
:106F30002B690BB96B694BB1E36AA06A9B689847F0
:106F400020B9E36A3146A06ADB6E9847E36A3946A6
:106F5000A06ADB6A984701AA712105F11000002799
:106F60002CF0D2FB81464F450BD169692046FEF7D4
:106F700063FCE36A3146A06ADB6A984702B0BDE869
:106F8000F087019B53F82780D8F808002CF030FCDC
:106F9000024620BBD4F810A02046D8F808100AF109
:106FA000010323615346FEF7A3FD2046D8F80C10D9
:106FB000FEF742FCD8F808002CF05AFB0028D8D184
:106FC000E36AA06A9B68984720B9E36A3146A06AE1
:106FD000DB6E9847E36A5146A06ADB6A984701373F
:106FE000C1E72DE9F74F044690460F4629B91946E7
:106FF00003B0BDE8F04FFEF71FBC0669321D06F175
:10700000010A06F1020B06F103090261D8F80050EB
:10701000002D00F0F28015F0030240F0EE80297997
:107020007B2940F0EA80A968CDE90032FEF704FC34
:10703000E16AA06A896D8847A8212046FEF78DF88D
:10704000019AE9682046FEF74DFC009B3146204638
:1070500002220093FDF786FFE26A0321A06AD2684C
:10706000904708F10402009B791E2046FFF7B9FF04
:10707000E36AA06A6FF00201DB689847E36A1021B7
:10708000A06A5B6B9847E36AA06A5B6E9847E36A05
:107090005146A06ADB6E9847E36A3146A06ADB6A14
:1070A0009847E36AA06A9B6D9847E36A0122A06A49
:1070B0009B6921219847E36AA06A0821D3F89C3094
:1070C0009847E36A5A460021A06A1B6F9847E36A13
:1070D000A06A9B6D9847E36AA06A9B6E9847E36A33
:1070E000A06A5B6E9847E36A0022A921A06A9B6CA4
:1070F0009847E36AA06A9B6E9847E36AA06A9B6E12
:107100009847E36AA06A9B6D9847E36A00220A21C8
:10711000A06A5B6D9847E36AA06A5B6E9847E36A72
:10712000A06A10215B6B9847E36A0321A06AD3F839
:10713000C05000231A46A8472046FDF7F5FFE36A32
:107140004A460021A06A1B6F9847E36AA06A1B6E3B
:107150009847E36AA06A10215B6B9847E36A494647
:10716000A06ADB6E9847E36AA06A0221DB68984751
:10717000E36A5946A06ADB6A9847E36AA06A9B6E95
:107180009847E36AA06A9B6E9847E36A5146A06AF3
:10719000DB6A9847E36A0022A06A9B6CA9219847A2
:1071A000E36A1021A06A5B6B9847E36AA06A9B6D53
:1071B0009847E36AA06A9B6D9847E36A0321A06A37
:1071C000D3F8C05000231A46A8472046FDF7ACFF6D
:1071D000E36AA06A1B6E9847E36AA06A4FF0FF312A
:1071E000DB689847E36AA06A4946DB6A984720460D
:1071F00003B0BDE8F04FFDF7C5BE29462046009319
:10720000FEF71AFBE26AA06A926D90472046A82119
:10721000FDF7A3FFE26AA06A126E904715E700002F
:107220002DE9F04F8D6887B004462B79032B0AD1E6
:107230002946FEF72DFAAA69138B43F00103138345
:1072400007B0BDE8F08F426A128BD20706D4634ABA
:10725000294607B0BDE8F04FFEF772B8162B40F094
:10726000AF800669E968331D06F1010A4FEA111B78
:1072700006F10208036106F10309FEF7DDFAE36A8D
:10728000A06A00229B6CAA219847E36AA06AD3F8FF
:10729000C07000231A461946B84759462046FEF7E3
:1072A000E4F92769A369BA1CA06A02932261E38BFF
:1072B000A28B01937B1CE283E26A19466383D26A44
:1072C000278303939047012251462046FDF74AFE4B
:1072D00059462046FEF7B6F92046AC21FDF73DFFA2
:1072E000A96820460022FEF7FDFAE26A4146A06A3C
:1072F000D2F894B00022D847E26A5146A06AD26A16
:107300009047E26AA06AD2F8D0209047E26AA06A69
:10731000926D9047E26AA06A40F2B121D2F818A0BB
:107320000122D047E26AA06A0821D2F89C20904747
:10733000E26A0021A06AD2F870A04A46D047E26A09
:10734000A06A126E9047E26A3146A06AD2F894A011
:107350000122D047E26A4946A06AD26A9047E26AAF
:107360000121A06AD26890472046FDF70BFEE26A31
:10737000A06AD2F8D4209047E26A4146A06AD26A55
:10738000904729692046FEF757FA039BE26A19469F
:10739000A06AD26E9047029B3146A06AA361019B0E
:1073A000E383E36ADB6A984769692046FEF744FA9B
:1073B000E36A3946A06ADB6A07B0BDE8F04F1847B8
:1073C00005AA7A2105F108002CF09EF9EB68014628
:1073D000059A2046FFF705FE32E700BF348F0360B1
:1073E00070B58D6804463DB9C36A2946D3F8C830E4
:1073F000A06ABDE870401847AB070ED12B795E2B11
:107400000BD1A968FEF718FAE9682046FEF714FACE
:10741000E36A0221D3F8C830EAE729462046FEF79E
:107420000BFAE36A0121D3F8C830E1E710B504464E
:107430008968FEF701FAE36AA06A1B6EBDE8104096
:107440001847000001F00F03022B2DE9F047054615
:107450000C4604D10909BDE8F047FEF7D9B9002967
:1074600056D011F0030653D10B792C2B38D18968F3
:10747000FEF7E2F9E668002E4AD016F0030847D17D
:1074800077683346FAB28E2A09D13F0A06F1080915
:1074900007F1FF3AC24510DC013756F827301A7958
:1074A000312A12D199682846FEF7C6F9EB6AA86A14
:1074B00002211B6DBDE8F047184759F8041B284608
:1074C00008F10108FEF7B8F9E4E7322A20D19968FB
:1074D0000222EB6AA86A09095B6DBDE8F04718470C
:1074E0002D2B15D18C689CB163681B0A022B07D029
:1074F00004F108076368B6EB132F10D3BDE8F087DB
:10750000E368002BF4D09A07F2D11B79AC2BEFD1B2
:1075100021462846054ABDE8F047FDF711BF57F858
:10752000041B28460136FFF78DFFE3E75A8F0360FF
:107530002DE9F0414E6801F108040546360A04EBD6
:107540008607BC4208D1EB6A3146A86A0022D3F80C
:10755000A030BDE8F041184754F8041B2846FEF758
:107560006BF9EEE78968034610B441B9C26A806AD4
:10757000D2F8A0400A4623465DF8044B18474A68F3
:10758000120A022A0BD1CA684AB1940707D11279AC
:10759000AC2A04D106225DF8044BFEF7E3BC184682
:1075A0005DF8044BFFF7C4BF2DE9F041CD680446F8
:1075B0000E4635BB0379BBB1436A1D78A5B9CF210F
:1075C000FEF740F8B1682046FEF736F9E36A2A462E
:1075D0000121D3F8BC602B46A06AB047E36AA06AD9
:1075E0001B6EBDE8F0411847B1688B0700F09A8028
:1075F00001F00F03022B40F09C802046FEF71CF99F
:10760000ECE7AF0740F099806B68DAB25B2A14D1DF
:10761000ED68002D40F08F80406A0378072B40F022
:107620008880896801F00F03022B40F082800322DA
:107630000909BDE8F041FDF73FBC562A13D10122EC
:107640008968FEF74FF9E9682046FEF7F5F8A96862
:10765000E36A0909A06AD3F89C303F39C9B2984758
:107660000222B16859E0572A65D11B0A5F1E013317
:1076700055F82310FEF7E0F8002F03DDE36AA06A57
:107680009B6D9847B1680835002600222046FEF71A
:1076900029F9BE424DDA0136BE4203DAE36AA06A36
:1076A0009B6D9847002255F8041B2046FEF71AF9F7
:1076B000EFE76B68DAB2062A3FD1B768002F3CD0FB
:1076C000B8073AD17A68D1B2062936D11B0AB3EB92
:1076D000122F32D1022B30D1BB6823B1990702D1CE
:1076E0001B79222B29D0FB6823B19A0702D11B7981
:1076F000222B22D0A9682046FEF79EF8E968204692
:10770000FEF79AF8E36AA06A5B6E98470022B968B0
:107710002046FEF7E7F80022F9682046BDE8F04170
:10772000FEF7E0B800293FF468AF0B793A2B7FF4FD
:1077300064AFBDE8F081AB07BBD029462046FEF719
:107740007BF800228DE700002DE9F04F85B004465C
:107750000026DFF81CA1019102AA019B4221B1463B
:1077600003F108002BF0D0FF636A83465D8B5E4512
:107770000AD1019BD9680B79032B50D12A462046A8
:10778000FDF735FD054658E0029B03AA6C2153F82E
:10779000263003F1080000932BF0B6FF039B074649
:1077A00019680A09732A0DD04FF001082046FEF728
:1077B00043F8B84527D3009BD96859B12046FEF756
:1077C0003BF807E0022807D052462046FDF7B8FDF7
:1077D00009F101090136CAE759680B09412B0CD0A0
:1077E00040F2F23293420AD0B3F5946F09D040F2DE
:1077F0001B329342E8D10425EAE70125E8E7054674
:10780000E6E70325E4E7039B0022A06A53F828106B
:1078100008F10108E36A09095B6D9847C9E7442B41
:1078200017D18E682A4620463146FDF7E0FCB26942
:107830000546138B43F0010313830026ABEB0909C4
:10784000B1450BD829462046FDF70FFF05B0BDE82E
:10785000F08F2A462046FEF757FC93E7E36A0121A2
:10786000A06A0136D3F8BC7000231A46B847E7E790
:10787000728F03604B682DE9F04105460E461F0AE2
:1078800001F108080024BC4201DBBDE8F08158F892
:10789000041B2846FDF7D0FFAB683BB102342846F5
:1078A00056F82410BDE8F041FDF740BD0134EAE789
