:0200000460009A
:10000000464346420004015600000000010303007D
:100010000101000001040000400000000000000099
:1000200000000000000000000000000000000000D0
:1000300000000000000000000000000000000000C0
:1000400000000000010406000000000000000000A5
:100050000000200000000000000000000000000080
:100060000000000000000000000000000000000090
:100070000000000000000000000000000000000080
:10008000EB04180A063204260000000000000000FD
:100090000504012400000000000000000000000032
:1000A0006B0418080832042600000000000000005D
:1000B0000604000000000000000000000000000036
:1000C0008104042400000000000000000000000083
:1000D00020041808000000000000000000000000DC
:1000E00001040420000000000000000000000000E7
:1000F0003204180804220000000000000000000084
:1001000090041830002400000000000000000000EF
:100110000204180800200000000000000000000099
:100120003504000000000000000000000000000096
:10013000600400000000000000000000000000005B
:10014000F5060000000000000000000000000000B4
:10015000000000000000000000000000000000009F
:10016000000000000000000000000000000000008F
:10017000000000000000000000000000000000007F
:10018000000000000000000000000000000000006F
:10019000000000000000000000000000000000005F
:1001A000000000000000000000000000000000004F
:1001B000000000000000000000000000000000003F
:1001C000000100000010000000000000000000001E
:1001D000000001000000000000000000000000001E
:1001E000000000000000000000000000000000000F
:1001F00000000000000000000000000000000000FF
:10100000D10020410020006000000000000000002E
:1010100020100060001000600000000000000000D0
:10102000000000600000200000000000FFFFFFFF44
:1020000000000220E1E60260814E0000854E0000E3
:102010007D4E00007D4E00007D4E0000000000005F
:10202000000000000000000000000000894E0000D9
:102030007D4E000000000000716F02606980026048
:10204000954E0000994E00009D4E0000A14E0000EC
:10205000A54E0000A94E0000AD4E0000B14E00009C
:10206000B54E0000B94E0000BD4E0000C14E00004C
:10207000C54E0000C94E0000CD4E0000D14E0000FC
:10208000D54E00007D4E00007D4E00007D4E0000CC
:10209000D94E0000DD4E0000E14E0000E54E00008C
:1020A000E94E0000ED4E0000F14E0000F54E00003C
:1020B000F94E0000FD4E0000014F0000054F0000EA
:1020C000094F00000D4F0000114F0000154F000098
:1020D000194F00001D4F00007D4E00007D4E000096
:1020E0007D4E00007D4E00007D4E00007D4E0000C4
:1020F0007D4E00007D4E00007D4E00007D4E0000B4
:102100007D4E00007D4E00007D4E00007D4E0000A3
:102110007D4E00007D4E00007D4E00007D4E000093
:10212000214F0000254F0000294F00002D4F0000D7
:10213000314F00007D4E00007D4E00007D4E0000BE
:102140007D4E00007D4E00007D4E00007D4E000063
:102150007D4E00007D4E00007D4E00007D4E000053
:102160007D4E00007D4E00007D4E00007D4E000043
:102170007D4E00007D4E00007D4E00007D4E000033
:10218000C5570260D5570260E5570260F5570260F7
:1021900005580260155802602558026035580260E3
:1021A0004558026055580260354F0000394F000015
:1021B0007D4E00007D4E00007D4E00007D4E0000F3
:1021C0007D4E00007D4E00007D4E00007D4E0000E3
:1021D0007D4E0000398102607D4E00007D4E000082
:1021E0007D4E00007D4E00007D4E00003D4F000002
:1021F000414F00007D4E0000454F0000494F000058
:1022000089350260793502604D4F0000514F000062
:102210007D4E00007D4E00007D4E00007D4E000092
:102220007D4E00007D4E0000016202607D4E000088
:102230007D4E00007D4E00007D4E00007D4E000072
:102240007D4E00007D4E00007D4E00007D4E000062
:102250007D4E00007D4E00007D4E00007D4E000052
:102260007D4E00007D4E00007D4E00007D4E000042
:102270007D4E00007D4E00007D4E00007D4E000032
:102280007D4E00007D4E00007D4E00007D4E000022
:102290007D4E00007D4E00007D4E00007D4E000012
:1022A000554F0000594F00005D4F00007D4E00006B
:1022B000614F00007D4E00007D4E00007D4E00000D
:1022C0007D4E00007D4E00007D4E00007D4E0000E2
:1022D0007D4E00007D4E00007D4E00007D4E0000D2
:1022E0007D4E00007D4E00007D4E00007D4E0000C2
:1022F0007D4E00007D4E00007D4E00007D4E0000B2
:102300007D4E00007D4E00007D4E00007D4E0000A1
:102310007D4E00007D4E00007D4E00007D4E000091
:102320007D4E00007D4E00007D4E00007D4E000081
:102330007D4E00007D4E00007D4E00007D4E000071
:102340007D4E00007D4E00007D4E00007D4E000061
:102350007D4E00007D4E00007D4E00007D4E000051
:102360007D4E00007D4E00007D4E00007D4E000041
:102370007D4E00007D4E00007D4E00007D4E000031
:102380007D4E00007D4E00007D4E00007D4E000021
:102390007D4E00007D4E00007D4E00007D4E000011
:1023A0007D4E00007D4E00007D4E00007D4E000001
:1023B0007D4E00007D4E00007D4E00007D4E0000F1
:1023C0007D4E00007D4E00007D4E00007D4E0000E1
:1023D0007D4E00007D4E00007D4E00007D4E0000D1
:1023E0007D4E00007D4E00007D4E00007D4E0000C1
:1023F0007D4E00007D4E00007D4E0000FFFFFFFF80
:10240000024B5A69026058610020704700080020A2
:10241000024B5A6912685A61704700BF00080020D9
:10242000C460056146618761C0F81C80C0F82090D7
:10243000C0F824A0C0F828B0C0F82CD080ED0C8BD8
:1024400080ED0E9B80ED10ABC0F808E0FFF7D8BF21
:10245000104908B54B690BB924F081FA1A68586025
:102460004A611846C468056946698769D0F81C80C6
:10247000D0F82090D0F824A0D0F828B0D0F82CD0F4
:1024800090ED0C8B90ED0E9B90ED10ABD0F808E02A
:10249000012070470008002010B50021044631F0EB
:1024A000FBFE18B914B1204631F0BEFE10BD00216C
:1024B00031F0F2BE10B50121044631F0EDFE18B93D
:1024C00014B1204631F0B0FE10BDFFF7E5BF10B5E6
:1024D00001220C4631F030FE18B914B1204631F01B
:1024E000A3FE10BD31F028BE31F0E2BE0346054A1E
:1024F000106A1A6841688A4202D3521A1A607047F9
:102500000068F7E700080020014441F205538842C3
:1025100004D398B2012838BF0120704703EB43135E
:1025200010F8012B5340F2E7034B044A1A620022D1
:10253000C3F83423704700BF00080020ECB40460E7
:102540002DE9F04780460E46FFF7DEFF124B0746A7
:102550001C6A0CB920461AE0D4F80C90002504F14E
:10256000180A4D4501D12468F3E7236933F8153083
:10257000BB420ED163695B5DB3420AD1324641462C
:102580005AF8250025F033F918B960682844BDE8E9
:10259000F0870135E5E700BF000800202DE9F8438A
:1025A00081460E46FFF7CCFF0246002840F08B80A4
:1025B000FF2E03D94549464831F0FAFD454C751CBC
:1025C000D4F8340390B1D4E9CE132B448B4229D9EB
:1025D0002944FFF787FF0746D8B90246D4F83C13D1
:1025E000D4F83403FFF77EFFC4F83473802D2F46F0
:1025F00038BF80273846FFF75AFFC4F83403D0BBF2
:102600002846FFF754FFC4F8340398BB284631F03E
:102610000BFED4F838332B44C4F83833D4F83433B1
:10262000002BE3D0D4F83C333146D4F83473484619
:102630001F442B44C4F83C33FFF766FF49464FF074
:10264000000980463246384625F070F807F80690B3
:10265000236AD3E90253AB4225D36D000A2D38BF5C
:102660000A25C5EBC5001830FFF721FF48B9C4F8AB
:102670003403CBE72F460023C4F83873C4F83C3347
:10268000D0E700F11803226A03EB850302600361BF
:1026900003EB450343615368D268C0F80C901344C0
:1026A000C0E901352062236AD3E903215B6921F87F
:1026B0001280911D9E54236A43F821705868D9688E
:1026C00002440131D9601046BDE8F88367440360D5
:1026D00094B003600008002010B5044625F099F876
:1026E00001462046BDE81040FFF758BF07B50190EE
:1026F00001A8FFF7FBFE019A036933F8120003B04B
:102700005DF804FB07B5019001A8FFF7EFFE019B00
:102710004269D05C03B05DF804FB07B5019001A8E5
:10272000FFF7E4FE019B063350F8230003B05DF889
:1027300004FB13B5019001A80C46FFF7D7FE019BDF
:102740004269D25C063350F82300226002B010BD0B
:102750002DE9F8431D4600230746884603601646C8
:102760000B6013602B60154BDFF854901C6A0CB1A2
:102770004C4505D12B68326813442B60BDE8F883C3
:102780003B6801333B60E268D8F80030134462696B
:10279000C8F80030E368D1188A4207D3204631F0E8
:1027A00077FD2B68246818442860E0E7336812F846
:1027B000010B013303443360EEE700BF0008002043
:1027C000ECB404602DE9F8430D4B0E4F1C6ADFF8A2
:1027D0003880DFF838900CB1BC4201D1BDE8F883F5
:1027E00004F11805E36805EB8306B54201D32468BC
:1027F000F1E755F8042B4146484600F0D9FCF4E7D0
:1028000000080020ECB40460754403605489036040
:1028100038B54468054603682144994211D9037BC1
:10282000DB0703D50021074831F0C2FC01F1100499
:10283000806824F0070408342146FFF748FE2C6026
:10284000A86038BD94B0036070B504460E461146CA
:102850001546FFF7DDFF31462A46D4E9013018441A
:1028600024F08BFF62682A44626070BD70B54668D0
:102870000446B14228BF31460D460121FFF7C8FF8B
:10288000A368681C721B5919184424F076FF63680A
:10289000A06801332844636070BD012938B538BF92
:1028A000012104460025084621606560FFF7F4FD1C
:1028B000237BA06065F30003237338BD38B505465C
:1028C0000C460131FFF7E9FF6C6038BD0023016061
:1028D000C0E90132037B43F001030373704700003A
:1028E00038B514460546FFF7D8FF024B25606360F4
:1028F00038BD00BF49280060037BDB0710B50446E4
:1029000002D48068FFF7F0FD0023A36010BD13B56B
:1029100001901020FFF7C0FD04460199FFF7BDFFAD
:10292000204602B010BD10B5044650B1037BDB0752
:1029300002D48068FFF7D8FD2046BDE81040FFF7BD
:10294000D3BD10BD38B5037B04460D46DB0703D568
:102950000021074831F02CFC016880682944FFF70A
:10296000B6FD2368A0601D441844256038BD00BF33
:1029700094B0036038B504460D46FFF749FFD4E92B
:1029800001301D441844656038BDD0E9002310B5FE
:102990009A42044602D10121FFF7D4FF0021D4E975
:1029A0000132D154A06810BD10B50C460121FFF7CB
:1029B000E1FF047010BD7F29F8B50C46CEB204D8F3
:1029C0000121FFF7D7FF0670F8BD06F03F06B1F50D
:1029D000006FC1F3871546F0800607D265F03F050A
:1029E0000221FFF7C7FF46700570EDE705F03F05D0
:1029F000B1F5803FC1F3073745F0800508D267F095
:102A00001F070321FFF7B6FF457007708670DBE7ED
:102A1000A40C07F03F07042164F00F0467F07F0760
:102A2000FFF7A8FF857004704770C670CCE713B538
:102A300004460846019124F0ECFE01990246204626
:102A400002B0BDE81040FFF7FFBE10B51446FFF717
:102A50000DFF047010BD10B51446FFF707FF04709A
:102A600010BD43688B422CBF591A0021416070474A
:102A700038B504461546084662688A4203D9294497
:102A80008A4201D8606038BDA368521A18441944BC
:102A900024F073FE6268521B6260F4E70846114638
:102AA00031F0FEBB37B505460846019124F0B1FE72
:102AB000044620B102466B68019928689847204671
:102AC00003B030BD2DE9F74F89469DF83010174609
:102AD0000D9A11F0DF0F0646A2EB07023DD0302918
:102AE0000CA8254913BF80464FF0100A88464FF0C6
:102AF000010A13F0800535D002EBD2746510A2EB09
:102B00006404002D35DDAB46DA4552467368414614
:102B1000A8BF5A46306801929847019AABEB020B66
:102B2000BBF1000FF0DC2FB13D4473683A464946D3
:102B300030689847002C0CDD2544A2455746736841
:102B40004146A8BF27463068E41B3A469847002C08
:102B5000F3DC284603B0BDE8F08FDFF820804FF0AB
:102B6000100AC6E713F0010401D11546C9E714465F
:102B7000D9E70025D7E700BF6D8903605C89036052
:102B80002DE9F043064689B00020119D9DF848804C
:102B9000139F8DF80F000AB381421ADA2D224942A1
:102BA0008DF80F20109A08AC0DF11009A2F10A005F
:102BB0008E46B1FBF3FC03FB1C126146092A8CBF55
:102BC0001218303204F8012D4C450ED07345EFD960
:102BD0000BE0A80727D52B228DF80F200029E1D183
:102BE00030230DF11F048DF81F3015F040099DF8BA
:102BF0000F301CD023B301222B460DF10F013046BC
:102C0000013FCDE90082FFF75DFF814608AA2B4610
:102C100021463046121BCDE90087FFF753FF484499
:102C200009B0BDE8F0836A07D8D52022D4E7002B8D
:102C3000ECD004AA9442E9D904F8013C013CE5E750
:102C40009946E3E72DE9F04F93B01E4681460C46C6
:102C50009DF8743092461C9D0793CB07DDE91E87D3
:102C60000BD4880703D109687E4B994205D02046D2
:102C70000AF0F4FE400040F0010415F0810306D193
:102C8000079A302A03D1B845B8BFB8461F46204638
:102C90000DF1280B0EF002F8002818DBA90712D559
:102CA0002B230DF129018DF82830EB06F6B21DD546
:102CB000BAF1020F0DD130200B4603F8020B701C45
:102CC0004870194612E06A0701D52023E9E7594602
:102CD000EBE7BAF1080F61D1A8054FF030030B7094
:102CE00049BF06F10E0301314B700231002315F08C
:102CF000200FA1EB0B020EA80B700CBF19462C2164
:102D0000012F0692C8BF45F040050B9010208DF8AA
:102D1000273015F04002CDE90C030592CDE90261A0
:102D200046D00DAA0CA90BA8CDE900A323460DF0AF
:102D300091FE037882462D2B06D18DF8273000F1C5
:102D4000010A0D9B013B0D93012F40F384800D9CE4
:102D5000059BBC42B8BF3C462BB19DF8273003B160
:102D60000134069B1C44A0452DDD15F00103A8EBA2
:102D7000040429D126461C4625F001054EB1202326
:102D8000019639494846009300231A46FFF79AFEF8
:102D90000646059BD3B9302307933AE0BAF1100FEA
:102DA000A4D130200B4603F8020B06F1170087E789
:102DB0000AAB0DAA0CA90BA8CDE900A323460DF080
:102DC00049FE8246C0E700240026D5E7302307935A
:102DD0009DF827305BB1002301220DF12701484601
:102DE00008F1FF38CDE90032FFF76CFE0644069B80
:102DF00063B10023012259464846CDE90032069AC4
:102E0000FFF760FE069B0644A8EB0308012FD8BF1E
:102E10004746079B51460D9A484600932B4601971B
:102E2000FFF750FE06444CB120230F494846019459
:102E3000009300231A46FFF745FE06440B980EAB9D
:102E4000984201D0FFF750FB304613B0BDE8F08F39
:102E500000242646BCE7059B002BF9D11C461E46E4
:102E60004746D6E7E4B70360ADF604602DE9F043CA
:102E700016468BB007469846B207DDF8489040D416
:102E800016F0040F0CBF002320230A4600932021D4
:102E9000139B02A809F040FBF305044610D5431C20
:102EA0001F2B0DD800F1280200210DEB0204252272
:102EB00004F8202C03F128021C466A4402F8201C66
:102EC00016F040051FD09DF808302F2B4FF000035F
:102ED0001BD8012202A9384609F1FF39013CCDE98E
:102EE0000032FFF7EFFD0DF109010546334622469A
:102EF0003846CDE90089FFF7E5FD28440BB0BDE871
:102F0000F0832B23C1E702A9F0E702A91D46EDE7F4
:102F10002DE9F04F074689B014460025DFF88C8272
:102F20000B461E4613F8012B92B9B14213D30B780E
:102F3000002B00F03481013120234FF0000A0846B5
:102F400010F8012B82B94FF000094FF00A0C2AE06B
:102F5000252AE6D1E9E7A6EB01097B6838684A46ED
:102F60004D4498473146E2E72D2A03D14AF0010A41
:102F70000146E4E72B2A02D14AF0020AF8E7202AA8
:102F800002D14AF0040AF3E7212A02D14AF0080AE2
:102F9000EEE7302AD7D14AF0400A1346E8E70CFBA7
:102FA0000929A9F130090E4611F8012BA2F13000D0
:102FB0000928F4D92E2A33D172782A2A0FD00A464A
:102FC0004FF00A0C0021164612F801BBABF130009D
:102FD000092807D80CFB01BBABF13001F3E702363F
:102FE00054F8041B21EAE17B32786C2A08BF0136D1
:102FF0003178002900F0D38078295FD8572912D87A
:10300000472959D8442959D907345246384624F01B
:103010000704CDE9009BB4EC020BFFF727FF5FE04C
:103020004FF0FF3BE0E7A1F15802202A46D801A06B
:1030300050F822F06F310060BD300060BD3000609C
:10304000BD300060BD300060BD300060BD3000604C
:10305000BD300060BD300060BD300060CB3000602E
:10306000ED300060533100600930006009300060CD
:1030700009300060BD300060BD300060BD300060D0
:10308000BD300060BD300060BD300060BD3000600C
:10309000BD3000608F31006001310060BD300060E4
:1030A0002B310060BD3000606F310060BD300060CA
:1030B000BD3000606F310060502968D07B6801220C
:1030C00031463868013598470BE054F8042BCDE9B8
:1030D000003953463AB1042233493846FFF7F2FC2F
:1030E0000544711C1CE705224146F6E754F8042B01
:1030F00007A98DF81C200122CDE900395346ECE7E1
:1031000007A954F8040B0493FFF713FBBBF1FF3F2F
:103110000146049B04D0079A934538BFCDF81CB0F4
:10312000079ACDE900395346D7E754F8041B0593B5
:103130000846049124F06DFBBBF1FF3F0246DDE938
:10314000041302D0584528BF5A46CDE900395346EA
:10315000C3E7CDE9023961230122CDF804A0009331
:103160000A2354F8041B3846FFF70AFDB8E74A1C47
:1031700021F00F01CDF804A002F006020F39CDE9CD
:103180000239C9B2C2F1100300910022E9E7CDE98A
:1031900002396123CDF804A000931023F5E72846F7
:1031A00009B0BDE8F08F00BF488903604D89036016
:1031B0000EB403B503AA52F8041B0192FFF7A8FE50
:1031C00002B05DF804EB03B0704790F900100246BE
:1031D0000378002901DB1846704703F07F00402385
:1031E000184206D112F8013F03F0C001802904D033
:1031F000704720EA03005B08F2E703F03F0343EA6D
:103200008010EFE7431C18460133027802F0C00239
:10321000802AF8D0704703460020994200D87047B2
:1032200011F8012D02F0C002802A18BF0130F4E726
:1032300001440346002099421A4600D8704712788C
:10324000013302F0C002802A18BF0130F3E700000A
:103250007F289DBF024B185CC0F3400000207047E0
:103260007E8903607F289DBF024B185CC0F3C000BD
:10327000002070477E8903607F289DBF024B185C49
:10328000C0F38000002070477E8903607F289DBFC7
:10329000024B185CC0F38010002070477E890360E9
:1032A0007F2809D8064B1B5C13F00C0F06D1A0F148
:1032B0005F03584258417047002070470120704713
:1032C0007E8903607F289DBF024B185CC0F300100D
:1032D000002070477E8903607F289DBF024B185CE9
:1032E000C0F34010002070477E89036008B5024695
:1032F000FFF7E8FF00B12032104608BD08B50246CE
:10330000FFF7EAFF00B1203A104608BD303809281F
:1033100084BF20F020000738704701440246002097
:1033200010B5E524914203D8B0FA80F0400917E0C7
:1033300012F8013B30B103F0C003802B11D10138EA
:10334000C0B2EFE7BF2B09D9F72B09D8D80800F096
:10335000060044FA00F000F00300E3E71B06E1D5A5
:1033600010BD0020FCE7023981420B4603D31A88C6
:103370000239002AF8D00233181A40107047B2EB15
:10338000131F70B505464FEA131615D9901B03F0AD
:103390000F0401EB460102460E46012A31F8023BBA
:1033A00018BF3368013A23FA04F39BB225F8023BB5
:1033B000F2D103B9013870BD0020FCE7F0B5059FDC
:1033C0000024D21B2646A74210D100EB470C002454
:1033D00001EB4701A24214D10CEB42031EB10121C3
:1033E00002332CF81210181A4010F0BD31F81450A6
:1033F00033F814C06544354420F814502E0C0134C1
:10340000E1E731F8145035442CF814502E0C0134F7
:10341000E0E7F0B4049F0025D21B2C46AF420BD14D
:1034200000EB4706002301EB47059A420FD106EB5C
:103430004201F0BCFFF797BF31F81560344433F810
:103440001560A41B20F8154024140135E6E735F873
:1034500013100C4426F8134024140133E5E7022925
:1034600038B538BF0221044680680D4618B123687C
:10347000B1EB930F07D96900FFF729F82368A06023
:1034800065F39F03236038BD38B504460C20FFF771
:1034900003F8054623682278C3F39D0023F0030355
:1034A00002F00102400013432B6063686B60FEF77B
:1034B000F3FFA8602268A168C2F39D02520024F0C5
:1034C00035F9284638BD994210B511D313D800EB11
:1034D000410002EB410209B9084610BD30F8023D37
:1034E00032F8024D1B1B002B02DB04D10139F2E73D
:1034F0004FF0FF30F1E70120EFE710B5044638B197
:103500008068FEF7F1FF2046BDE81040FEF7ECBFF3
:1035100010BD38B50C4602210546FFF7A0FF002C70
:103520002B78B5BF012200226142214662F30003DD
:1035300001222B70AB68023B23F8021F090C1046D6
:1035400002F10102F8D1686038BD0023C0E9003300
:103550008360704728B103789B0702D48068FEF728
:10356000C3BF704738B505460C464968FFF777FF7B
:1035700022782B78A86862F300032B706368A16837
:103580006B606268BDE83840520024F0CFB80A464C
:1035900029B90178426062F3000101707047FFF7BA
:1035A000B8BF08B5FFF7D1FFBDE80840FFF7EFBF90
:1035B000920042F002020260002210B4C0E9012130
:1035C0005DF8044B1946FFF7E2BFF8B514461D46F7
:1035D0009DF8187004210646FFF741FF22462B464E
:1035E00027B1002D0CDA624265EB4503317867F3B1
:1035F000000131700021716052EA030102D1F8BD6F
:103600000027F3E7D6E901104C1C746020F8112064
:10361000120C42EA03421B0CEEE72DE9F84353EC8F
:10362000102B1E460378074610EE105AF20F62F375
:103630000003037047F6F07313EA164207D13B7894
:103640006FF300033B7000237B60BDE8F8839A4270
:10365000F5D0C6F30A52A2F2FF34002CEFDB04D1FE
:103660000121BDE8F843FFF754BFA2F2EF38C6F3DB
:103670001306B8F1000F46F48016B8BFA2F57878AB
:10368000332C4FEA28183FDCC4F13402A4F11403B0
:10369000C4F1140406FA03F3D54026FA04F4D64024
:1036A0001D4325430024A14641463846FFF7D7FE77
:1036B000C7F80480B9F1000F05D04FEA4902002194
:1036C000B86824F072F89CB105FA04F2BB6823F8DC
:1036D0001920C4F11003103409F10109A3F12002EB
:1036E000DD4006FA04F426FA02F2DE4025431543D3
:1036F0004B469845A9D0BA6822F813502D0C0133D7
:1037000045EA0645360CF4E7A2F233430C34002BAD
:1037100004F00F04B8BFA2F224434FEA2319C3E711
:103720002DE9F8438F18C2F35B0204460D46511C85
:103730009846089EFFF793FE237829461FFA86FCD9
:1037400068F30003237000236360B942084602D384
:10375000401BBDE8F88302780131A2F13003092B48
:1037600005D9A2F14103192B14D8A2F13703B342B2
:10377000EED2D4E901E0F0468146B8F1000F10D155
:1037800000EB4E0213B1023220F81E30121A521012
:103790006260DAE7A2F16103192BD9D8A2F15703CD
:1037A000E5E7B9F8002008F1FF3802FB0C3329F8EF
:1037B000023B1B0CE1E7F8B5044615461E46C1B1B5
:1037C000531E4FF0FF371E44E90020460F31090910
:1037D000FFF745FE237800216FF30003616023703B
:1037E0004DB9D4E9011000EB4101FFF7BCFD606069
:1037F000F8BD0127E8E700230F290ADC3278013DF4
:103800003E4402FA01F201F1080143EA02039BB2CD
:10381000F2D162681039501C6060A06820F8123044
:10382000DEE738B50B780446057803F0010305F0B0
:103830000100181A08D1D1E90132D4E90110FFF7CB
:1038400042FEEB0748BF404238BD884210B50446EF
:1038500001D0FFF787FE23786FF30003237010BDBC
:10386000884210B5044601D0FFF77CFE63683BB187
:103870002378C3F30002C2F1010262F30003237054
:1038800010BD88421FB5044601D0FFF76BFE626889
:1038900062B901212046FFF7E2FD0123A2681380EF
:1038A0006360237843F00103237010E02378D90785
:1038B0000FD56FF30003A168237001230846ADF80C
:1038C0000E3000930DF10E03FFF7A3FD606004B00E
:1038D00010BD511C2046FFF7C2FD0123D4E9012190
:1038E000ADF80E30009308460DF10E03FFF766FDAC
:1038F0006060D6E72DE9F8434B6805460E4614464E
:1039000003B12AB931462846BDE8F843FFF72ABE7D
:1039100002F10F014FEA111803EB1111FFF79FFDA0
:1039200014F00F04A8684FF0000C08BF1024D6E96B
:103930000131C4F1100408EB030701EB430E1946F3
:1039400007F10042013A00EB42008146E9B96FF00D
:1039500001022CFA04F45343C218C452C8F1010303
:1039600002EB430308F1FF321846520023F01DFF1B
:10397000831E17B133F817209AB12B786F60327815
:1039800062F300032B70BDE8F8833EF8022D013985
:1039900042EA0C0C2CFA04F24FEA0C4C29F80229EA
:1039A000D4E7013FE5E7F0B50E46496885B0054626
:1039B000144601B132B93146284605B0BDE8F040A1
:1039C000FFF7D0BDFFF74BFD2346A868D6E90121DC
:1039D000FFF7D5FC2B786860327862F300032B7018
:1039E000DB072DD5002322097168ADF80E3099420E
:1039F00001D093420FD1914222D9B36804F00F0451
:103A000033F81220012303FA04F4013C224213D0BC
:103A1000ADF80E3008E0B76837F8137057B10123DE
:103A20009142ADF80E30E8D8A968012350B90B8057
:103A30006B6005E00133DAE7BDF80E30002BF3D1FF
:103A400005B0F0BD0246009308460DF10E03FFF7E6
:103A5000B5FC6860F4E773B50C4616460546D2E936
:103A60000132D1E90110FFF72EFD0028BEBF234629
:103A700034461E462378616832785340DB071BD4F6
:103A800001312846FFF7EBFC7368A8680093B36820
:103A9000D4E90121FFF792FC686023786A68C3F3D8
:103AA0000003002A0CBF002303F001032A7863F30C
:103AB00000022A7002B070BD2846FFF7D0FC736880
:103AC000A8680093B368D4E90121FFF7A2FCE3E7FB
:103AD000F7B50D4616460446D2E90132D1E9011088
:103AE000FFF7F1FC0028BDBF2B4635460127002714
:103AF000B8BF1E462B78696832785340DB0714D56F
:103B000001312046FFF7ABFC7368A0680093B368EF
:103B1000D5E90121FFF752FC60606268237882B921
:103B200062F30003237003B0F0BD2046FFF797FC5B
:103B30007368A0680093B368D5E90121FFF769FCB9
:103B4000EAE72A7802F00102002FE9D0C2F101026F
:103B5000E6E72DE9F04F16464A680C4685B07368D3
:103B600005469A423EBF34460B461E46237861689E
:103B7000DA0756BF3378012303F001031944FFF736
:103B80006EFCB368726836780093A868D4E901E9DE
:103B900024788246A2EB0E02A9F1020984EA06010A
:103BA00006F001060392CB07C6F10008B44654BFE5
:103BB00004F0010B4FF0000B04F001041FFA88F829
:103BC000CBF10001274689B20191614289B202918D
:103BD000714699B900EB4E01BBF1000F03D00123F0
:103BE000023120F81E30FFF7BEFB34402B786860AE
:103BF00064F300032B7005B0BDE8F08F39F8022F95
:103C00000139029B5A40039B17445A18914229BF1D
:103C1000009B424633F8022B82EA080228BF009339
:103C2000019B944407EA0C024FEA1C4C3F0C5A409B
:103C30001BFA82F24FEA124B2AF8022BC9E72DE950
:103C4000F04F16464A680C4685B0736805469A429E
:103C50003EBF34460B461E4623786168DB0756BFDD
:103C60003378012303F001031944FFF7F8FBA86838
:103C7000D4E901A72478A7F10208574614F0010FF0
:103C800004F00104009018BF0122A446D6E901B354
:103C9000367808BF06F0010206F001065142C6F16F
:103CA0000009B64689B21FFA89F90191614289B2C9
:103CB0000291ABEB0A01039167B900EB4A0134436F
:103CC000FFF751FB2B78686064F300032B7005B09D
:103CD000BDE8F08F38F802BF013F02998BEA010B73
:103CE0000399DC4401EB070B01995F452ABF33F8C8
:103CF00002BBCB468BEA090BDE444CEA0E0B4FEAC3
:103D00001E4E4FEA1C4C8BEA010B009912FA8BF203
:103D100021F8022B120C0091CEE72DE9F74F154642
:103D20004A680C4606466B684FF6FF7B9A423EBFD8
:103D30002C460B461D4623786168DB0756BF2B785F
:103D4000012303F001031944FFF789FB23782A7844
:103D5000A16883EA020CD4F80480B068DB43D24344
:103D6000A1F1020A69680CF0010CAF6803F00103CD
:103D7000A1EB080102F00102C64681460191BEF1A5
:103D8000000F19D100EB4801BCF1000F03D0012353
:103D9000023120F81830FFF7E6FA706023782A78AD
:103DA000C3F30003C2F300025340327863F300020E
:103DB000327003B0BDE8F08F3AF8021F0EF1FF3EFB
:103DC00059440B44019971448E452ABF37F8021BB0
:103DD0004FF6FF7159440A4483EA0201120C1B0C8E
:103DE0001CFA81FC29F802CB4FEA1C4CC7E74B6850
:103DF0002DE9F04F044685B00E4615460BB15368C9
:103E000043B923786FF3000323700023636005B088
:103E1000BDE8F08F81422ED1FFF736FBA542064662
:103E2000074600D105466B68204671681944FFF7C4
:103E300016FB22680021A068C2F39D02520023F005
:103E4000B4FCB368D4F808E00022D6F804900193DB
:103E5000F446AB680EEB4908114602936B68039376
:103E6000039B934231D0ACF10200DDF804B0002393
:103E7000CDF8009018E0824204D1FFF705FB05461B
:103E80000746D0E70027CEE730F802AF53443BF8AF
:103E900002AB1946029B33F8123003FB0A13009958
:103EA000038001391B0C009100990029ECD1414697
:103EB000881C13B10146A8F80030A1EB0E010CF1EB
:103EC000020C013280464910CAE7616038462A7800
:103ED00033785340227863F30002227005B0BDE8C6
:103EE000F04FFFF70ABB4B6870B50546144613B197
:103EF0001378DA0706D52B786FF300032B700023B5
:103F00006B6070BD636823B90121BDE87040FFF7A5
:103F100000BB0846FFF7B8FA06462046FFF7B4FA9A
:103F2000012104462846FFF7F4FA636883B1A368C9
:103F30001B88DB0704D5324629462846FFF757FF82
:103F40000123D4E901210846FFF719FA606038B966
:103F50003046FFF7D2FA2046BDE87040FFF7CDBAF1
:103F6000324631463046FFF742FFDEE72DE9F04F9B
:103F70000C4651688FB09046013105460293FFF719
:103F80006EFAD8F804200021A868002601325200F9
:103F900023F00BFC2B786E6020466FF300032B7030
:103FA000D8F804100131FFF75AFA41462046FFF7CE
:103FB000D9FA029BA768D4F8049038464946D3E959
:103FC000013A01935246AB680393019BFFF77BFADA
:103FD000002832D10123039A606013806B6023783C
:103FE0006168C3F3000200290CBF002202F0010245
:103FF00062F30003029A237098F80030127853405D
:10400000DB0717D56B682A78003B18BF012363F3E1
:1040100000022A7071B14FF0FF310BA8FFF7C1FA0F
:104020000BAA29462846FFF716FD029A214620468C
:10403000FFF711FD0FB0BDE8F08F01DA6E60CEE73B
:10404000019B03F10042013A4FEA420E3AF8123066
:10405000180406F1010153D5B3B2002107EB490B57
:1040600009F1010027F81910BC4600930BF1020971
:10407000C3F1100360600493CC4545D33AF8122095
:10408000009B02FA03F30493019B012B0AD90AEB6C
:104090000E02009B32F8022CC3F11001CA400499B1
:1040A00011430491019BAAF1020AC01A039B6860A4
:1040B00000F10040013803EB400306930EF10203C8
:1040C000099363680593059A019B934229D302F1F2
:1040D000004B009B00200BF1FF3BC3F1100607EBE8
:1040E0004B0B5F4573D96FF000416B682BB15A18C9
:1040F000039830F81220002A74D06FF0004176E067
:104100005B000E469BB2A3E7BCF80060009B06FA7A
:1041100003F31943049B2CF8021B26FA03F189B21E
:10412000AAE7BBF8001000203BF8022C049B86464F
:1041300042EA0142B2FBF3F2099BABEB03031E46DA
:10414000CDE9073AB3450ED8BBF800100844002863
:1041500038D1069BABF1020B23F802290693059B8D
:104160005A1E6260ADE7089BB6F8009033F8021F54
:1041700019FA80F90893009B994041EA1E4E1FFAF4
:104180008EF151431FFA81FC090CA9EB0C0CC1EB19
:10419000204126F802CB01EB2C40D3E739F802CFBF
:1041A000009B0CFA03FC4CEA1E4EB6F800C011FA54
:1041B0008EF1614426F8021B090CB345EED8084481
:1041C000013AC4E70021D146079E8E46F5E7BBF8C9
:1041D0000020009B42FA03F1B240014390B22BF859
:1041E00002197EE7013B6B607FE7013B6360636818
:1041F000002B3FF4F4AE5A1837F81220002AF4D0FE
:10420000EDE6F0B51F464B6885B004460D461646F0
:104210004BB11378DA0706D47B68012B0BD1BB684E
:104220001B88012B07D123786FF300032370002331
:10423000636005B0F0BD01212046FFF76AF973689D
:10424000002BF6D02846FFF71FF905463046FFF74A
:104250001BF9064601A8FFF778F97368B3B1B36894
:104260001B88DB070AD52A4621462046FFF7BFFDFB
:104270003B462246214601A8FFF778FE0123D6E9F6
:1042800001210846FFF77BF8706048B901A8FFF7E5
:1042900061F92846FFF731F93046FFF72EF9C8E7F4
:1042A0002A4629462846FFF7A2FD3B462A462946CC
:1042B00001A8FFF75BFED0E7D0E90121034600200B
:1042C00001EB420210B5914204D31B78DB0748BFD3
:1042D000404210BD32F8024D44EA0040F3E730B5E9
:1042E000D0E90124002304EB4202944206D3027871
:1042F0000120D20748BF5B420B6030BDB3F5004FD1
:1043000004D232F8025D45EA0343EEE70020F4E709
:104310002DE9F0470546D1B1981800264FF0010C61
:1043200003EB02093746D5E90184A4F1020EB8F186
:10433000000F0ED1B9B3C21A18462B7813F0010F33
:10434000BDE8F04714BFFF21002123F02EBA184624
:10435000E3E73EF8024F103744EA064695F800A01E
:10436000072F0AF0010A02DC08F1FF38DFE7B4B2D8
:10437000BAF1000F06D0E4435CFA84FC1FFA8CF417
:10438000CCF3072CE4B249B100F1FF3A00F8014C3C
:1043900053450BD0083F360A5046DFE782460AF8FD
:1043A000014BCA45F5E713441A1AC6E7BDE8F08782
:1043B000D0E901329FED0C0B9FED0D6B02EB430337
:1043C0009A4205D30378DB0748BFB1EE400B704734
:1043D00033F8021D07EE101AB8EEC77B00EE067B1D
:1043E000B0EE470BECE700BF00000000000000004B
:1043F000000000000000F0402DE9F84F44688046BE
:10440000894615469B469DF828A00B9E9CB982B113
:10441000551E334615F8011F184639B9302303706D
:10442000002300F8013F801BBDE8F88F03F8011B53
:10443000F0E73046F2E76400ABF13A0B2046FEF7B6
:104440002BF807462246D8F8081023F06FF93146BA
:1044500032463819A0F1020C00236745644639D969
:1044600030331446392B88BF5B4404F8013B3B468C
:1044700098429C4638D8BAF1000F0AD00123A4EB29
:10448000010CBCF1030F02BF941C82F801A021466D
:10449000F3B13846FEF728F85DB1284623F0B9F9A4
:1044A0002A18611E1346AB4229D8954288BF0020C6
:1044B000044498F80030DB0744BF2D2304F8013B87
:1044C0003346621E9A421FD80023A01B2370ABE71D
:1044D0002246BFE7248844EA0343B3FBF9F409FB0F
:1044E00014332CF80249B8E7BCF800C00233BCF121
:1044F000000FBDD0BAF1000FEAD00023BFE713F8D8
:10450000017D01F8017FCEE71978107803F8010BDF
:1045100002F80119D6E7D0E9023293423DBF5A1C96
:10452000826018784FF0FF307047036810B504467A
:1045300013B14068FDF7D8FF2046BDE81040FDF7F5
:10454000D3BF0000F8B50C461F461646054610209E
:10455000FDF7A2FF054B8460C0E900743444C460D9
:104560006B60034B2860AB60F8BD00BF174500606F
:104570002B45006002690A2A10B5044635D1836ACA
:10458000013383620123A269E36263696261226F7E
:104590002361002A31D0616E8A423BBF501CA16E5C
:1045A0000022206738BF8A5CA2613BB9E26963667A
:1045B0002261226A23676261626AA26163690D2BCC
:1045C00008D10A22A3699342626103D1D4E90103AD
:1045D0009847A061A369013306D163695A1C03D0CF
:1045E0000A2B1CBF0A23A36110BDC36A092A04BF9A
:1045F000073323F007030133C5E7D4E901039847E4
:10460000A061DBE70369272B2BD0222B29D0A3F154
:10461000620113291ED8174ACA40D2071AD5426927
:10462000272A1ED0222A1CD0722B1CD1662A06D122
:104630008269272A15D0222A13D0722B15D14369FB
:10464000622B0CD1806927280BD0A0F1220358429D
:1046500058417047662BF0D14269722AE8D0002099
:10466000704701207047662BF6D0622BF7D1436963
:10467000722BE6E71100090070B504460D460026CE
:104680002069431C01D1304670BD0A2808D115B1FC
:10469000636B002BF7D020460126FFF76BFFEFE797
:1046A000FEF7D6FD18B12046FFF764FFE8E723695F
:1046B000232B08D12046FFF75DFF23695A1CDFD06A
:1046C0000A2BF7D1DCE75C2BDDD163690A2BDAD149
:1046D0002046FFF74FFFE6E7436E2DE9F04F044613
:1046E0002DED028B85B0A3B1036F93B92921603002
:1046F000FEF75AF92369E36163692362A369636280
:10470000A36E1A7822615A7862619B78A3610323B1
:104710002367002120466165FFF7AEFFA36AE56AC3
:104720006364236BA564002B01930ADA019F0823BD
:10473000013784F84C30276305B0BDEC028BBDE82F
:10474000F08F05D0072384F84C30019B5F1EF2E701
:10475000002834D0636B93BB06236FF00042013D09
:1047600084F84C30D4E90F30991830F811108D428C
:10477000E2D019D9A16B8B4207D308314900FDF76C
:10478000A6FEA36B20640833A363D4E90F32591C3F
:10479000E16322F81350236B01332363CCE7013B21
:1047A000E363236B013B2363E36B991830F811102B
:1047B0008D42F4D3C0D0022384F84C30BCE7256985
:1047C0006A1C01D10023F7E72046FFF71BFF814653
:1047D000002800F0B581002384F84C302369752B44
:1047E00051D0622B07D16369722B51D1C846022682
:1047F0000D23002512E0722B06D16369622BF5D0E0
:10480000662B49D10523D7E7662B49D16369722B03
:10481000F8D04D4601260C234FF0000894F84C20A8
:10482000002A3FD184F84C303EB12046FFF7A2FE6B
:10483000022E02D12046FFF79DFE23692046222B3F
:1048400014BF4FF0270B4FF0220BFFF793FE2369A5
:104850005B452AD163699B4527D120464FF0030A67
:10486000FFF788FE2046FFF785FE25B1B24904F127
:104870006000FEF7DCF804F16003002704F1500645
:1048800008EE103A1EE0012600250C23A846C5E7D5
:1048900001260D230025BFE7C84601260C23A8E703
:1048A000019EF1E79A42BFD046E74FF0010ADCE7EC
:1048B000934533D1594630460137FEF77CF8204600
:1048C000FFF758FE2269511C00F02F81BAF1010F49
:1048D00002D10A2A00F029815745E9D3394604F16B
:1048E0005000FEF7BEF801212046FFF7C5FE204626
:1048F000FFF788FE00287FF471AF1DE72046FFF721
:1049000039FE21697B291ED13046FEF74DF820463D
:10491000FFF730FE7B213046FEF746F821690DB1E6
:104920007B29EBD05C2940F0FB8020460291FFF709
:1049300021FE27690299B8F1000F38D03046FEF702
:104940003AF83946CBE0676E002221694B1C04D04F
:10495000C2B93A2901D07D2914D1D4E91921881886
:1049600010F8010C3D2807D1D21B39443046FDF721
:104970006BFF636E013B63662C2118EE100AFEF795
:1049800013F8C7E721F020005B280BD10132C9B230
:1049900018EE100A0292FEF707F82046FFF7EAFD2C
:1049A000029AD2E75D2808BF02F1FF32EFE7782FC5
:1049B00006D85B2F0BD8222F72D053D80A2F4FD096
:1049C000A7F13001072900F2A58003279BE0A7F19A
:1049D0005C021C2AF4D801A353F822F0A14A00601B
:1049E000C1490060C1490060C1490060C14900601F
:1049F000514A00607D4A0060C1490060C1490060C1
:104A0000C14900608D4A0060C1490060C149006031
:104A1000C1490060C1490060C1490060C1490060EE
:104A2000C1490060854A0060C1490060C149006019
:104A3000C1490060794A0060C1490060814A006054
:104A4000914A0060894A0060C1490060F14A0060F3
:104A5000072194F84C300C2B5ED13046FDF7ABFFAC
:104A600000272CE7552F13D0AAD8272F18D04E2F68
:104A7000A6D132482FF084FB0D21EAE70821E8E7B0
:104A80000921E6E70A21E4E70B21E2E70C21E0E750
:104A900094F84C200D2A05D15C213046FDF78BFFA0
:104AA0003946D6E7752F0CBF04270827002114E0EC
:104AB00020460291FFF75EFD226910460392FEF741
:104AC000E5FB002800F04C810299039A0901104689
:104AD0000291FEF71BFC02990144013FE8D2481CF9
:104AE000BED0B1F5881FB4D3012384F84C30B7E7AA
:104AF0000227DBE720460291FFF73CFD226902997D
:104B0000303A02EBC1016269303A072AE7D8013F27
:104B1000F0D1E4E75C2111E7FF29E5D80D2BE3D1C3
:104B2000C9B23046FDF740FF9AE757453CBF032224
:104B300084F84C20D2E600BF438A03604C8A0360AD
:104B40002846FEF78FFB054620691DB95F2801D076
:104B50007F283ED9092304F15005C1B284F84C30B6
:104B60002846FDF721FF2046FFF704FD2069421C7F
:104B70001BD128467D4FFDF708FF0025064657F854
:104B8000041B304622F04CFE00281CD10F35EDB23C
:104B9000122D84F84C507FF4CFAD754BD3F84033D1
:104BA000002B0CBF11230F2306E6FEF75BFB40B979
:104BB00020695F2805D07F2803D8FEF75DFB002819
:104BC000D7D0217CCCE7FFF6B7AD0135242DD6D167
:104BD000B2E5FEF751FB68B321692E2935D10B23CD
:104BE00084F84C3004F150060B273046FDF7E3FE05
:104BF0002046FFF7BFFC2069431C3FF49DAD002D0C
:104C000039D120F02003452B35D16521304684F879
:104C10004C70FDF7D0FE2046FFF7ACFC21692B2934
:104C200001D02D29E7D13046FDF7C5FE2046FFF71C
:104C3000A1FCE0E723692E2B04D16069FEF71CFB81
:104C40000028C9D100264B4D35E00A23302984F8CD
:104C50004C30C7D1656945F02005A5F16203162BDC
:104C600097BF454D0125DD40ED4398BF05F0010597
:104C700085F00105B6E7FEF7F5FA28B121692E297E
:104C80000DD184F84C70CEE72069FEF7F5FA0028C4
:104C9000F4D123692E2BF1D05F2BC7D04CE521F046
:104CA00020034A2BBFD1ECE7652F01D0632F00D141
:104CB0000135013601352F7817B12369BB42F3D195
:104CC0002046FFF757FC0FB9012375E5212F07D1C7
:104CD00023693D2BF8D12046FFF74CFC3A236BE5C6
:104CE0002E2F0FD123692E2B02D163692E2B01D0D9
:104CF0005D2361E52046FFF73DFC2046FFF73AFCC7
:104D00000E2359E50335334615F8027C632F0FD087
:104D1000652F0DD0194AD35C03F0FD0284F84C30A6
:104D2000552A01D0592B13D1636B0133636303E51B
:104D300015F8012C01362169914207D12046FFF771
:104D400019FC3346652FE5D00235DDE7632FFAE71E
:104D5000562B02D0582A7FF4EFAC636B013BE5E79A
:104D60000123014684F84C3073E600BF048B0360D6
:104D700000080020FE89036001204000D78A0360FC
:104D80007FB501AD0646742085E80E00FDF784FB73
:104D90000446034695E8070043F8046B002583E8C2
:104DA000070001236FF001021420C4E90A320A222D
:104DB000C4E90C55C4E90E23FDF76EFB20212064E5
:104DC00004F15000FDF769FD294604F16000FDF78C
:104DD00064FD236C20461D802561C4E90555FFF75D
:104DE000C9FB2046FFF7C6FB2046FFF7C3FB204662
:104DF000FFF772FCA36C2046012B1CBF072384F82D
:104E00004C3004B070BD30B585B0054601AC2046CD
:104E1000FFF798FB284694E80E00FFF7B1FF05B0B6
:104E200030BD30B585B00546014601AC204619F0CD
:104E30000FFF2846FDF750FC94E80E00FFF7A0FF97
:104E400005B030BD10B5044690B1C36840689847BE
:104E500004F15000FDF750FD04F16000FDF74CFD3A
:104E6000206CFDF741FB2046BDE81040FDF73CBB40
:104E700010BD0000F8B5054630200E461746FDF778
:104E800024FB072D04460570C66001D0012D0FD10B
:104E9000B368C3F30F13A38207F0B4FF04232061A8
:104EA00020202783E384FDF7F7FAE0622046F8BD6F
:104EB000014B5B5DEFE700BF2891036010B504462E
:104EC000C06AFDF711FB2046BDE81040FDF70CBBA2
:104ED00030B500220446058D954201D8002030BD32
:104EE000E36A03EBC20043688B42F8D00132F3E778
:104EF00070B504460D461646FFF7EAFFC0B9E38CCD
:104F0000228D9A4208D30633E06AD900FDF7DFFA12
:104F1000E38CE0620633E384238DE26A591C02EBE2
:104F2000C300218502F8336000234560437043804D
:104F300070BD034618465B68002BFBD1FFF7C8BF66
:104F4000F8B544680E462CB9F8BD032BFCD10423F8
:104F50000370F9E7254628466D68002DF4D0776880
:104F60003946FFF7B5FF0028F5D00378033B022B45
:104F7000EAD805253570002239462046FFF7B8FFEC
:104F80000378002BE1D105706468F4E7036A1B8B9A
:104F9000012B1EBFC3685B18C3607047836C10B5DC
:104FA0000446DB6F006C9847238B226A0133918C97
:104FB0009BB29942238338BF938410BD038B013B7E
:104FC00010B503830446836C006CD3F88430984793
:104FD00020460121BDE81040FFF7D8BFF7B51E46B7
:104FE00059B111F0030511D14F68FCB294420DD1B3
:104FF0003F0A01F10804BD4201DB03B0F0BD54F8E3
:10500000041B01350190B0470198F4E7334603B023
:10501000BDE8F04018472DE9F04F04460D4698468C
:105020002DED028B08EE102A83B01BB1CB8A43F022
:105030000803CB8218EE103AEB83236ADA8A42F037
:105040003002DA821B78002B4CD1A36C18EE102AA8
:105050002946206CD3F8B4604346B44603B0BDEC97
:10506000028BBDE8F04F6047DB6A03EBC60B13F819
:105070003630043B012B1DD84FF0000917E0EB6AD6
:1050800003EBC90213F83930052B0ED1DBF80410FD
:105090005368994209D1A36C0AF1010ABBF80220B6
:1050A0005B69206C1F460023B84709F101092B8D6D
:1050B0004B45E4DC0136236A1A8DB242D4DCBAF1E6
:1050C000000FC2D0A36C5246CDF800802946D3F819
:1050D000B86018EE103A206CB04703B0BDEC028BFC
:1050E000BDE8F08F0026B246E5E70000F8B50E46B1
:1050F00011461A46002304468578076983700361C8
:105100000E4BFFF76BFF6368BBB9618A51B1228A0E
:1051100042B9A36C206CD3F8A0309847A36C206CE4
:105120005B6C9847238A3146628A2046FFF773FFFB
:10513000003D276118BF0125A570F8BDB96000606A
:10514000024B9D228968FFF749BF00BFD173006001
:10515000024B6B228968FFF741BF00BFF553006027
:10516000836C002110B50446D3F88830006C984752
:10517000A36C206C10215B6B9847A36C206C012101
:10518000D3F8CC30984720460321BDE81040FFF704
:10519000FDBE38B5836C04460022006C9B6C9847BA
:1051A000A36C206CD3F8C05000231A461946A847B8
:1051B0002046BDE83840FFF7D3BF836C00228968E2
:1051C0005B6D0909006C1847836C89681B6C006C67
:1051D000184710B50446084611461A46FFF74AFE1E
:1051E000236A436000238360E3690BB9E06110BD6B
:1051F0001A469B68002BFBD19060F8E770B54378A6
:1052000005460C46012B06D1036A0A4602211B8B78
:10521000FFF7DFFF2061A268284621694C23BDE823
:105220007040FFF763BF70B51346427805460C46E1
:10523000012A04D10A460721FFF7CBFFA061A66926
:1052400028464623E2683146FFF750FFB08A70BD1A
:1052500013B5427804460B46012A04D1006A019135
:10526000FFF746FE019BA16C226A1431206C02B04C
:10527000BDE8104002F0F5BE13B5427804460B4677
:10528000012A04D1006A019102F0DDFE019BA16CAC
:10529000226A1C31206C02B0BDE8104002F0E1BE71
:1052A000036A10B504461A8BFFF7BDFF014620467E
:1052B000BDE81040FFF7E0BF13B5427804460B4647
:1052C000012A04D1006A019102F0BDFE019BA16C8C
:1052D000226A2431206C02B0BDE8104002F0C1BE49
:1052E0002DE9F04F87B005460C4600AF11B90121FA
:1052F000116015E011F003081BD10B79682B07D161
:10530000CB681B0913608C68002CF0D04FF00108AB
:1053100004F00F03022B0FD12109B8F1000FE7D0E1
:10532000AB6C0022286C1B6B98471C37BD46BDE850
:10533000F08F4FF00008EBE7B8F1000F02D1A3683F
:105340001B091360636800264FEA132904F1080360
:1053500009F1FF3A9B46FB604E4526DB0AF1070345
:105360004FF0000B23F00703ADEB030D6B461E4619
:10537000CB4522DB51461846FDF710F9AB6C0146D0
:1053800000221B6B286C9847B8F1000FCDD00C346D
:1053900001264E45C9DA54F8041B0022AB6C0136D5
:1053A0000909286C5B6D9847F3E75BF8040B01363D
:1053B0000009FDF7A7F98244CEE7BBF1000F03D047
:1053C0004FF02E0206F8012B7B6007F11401FB68F9
:1053D0000BF1010B53F8040B0009FB60FDF7A9F971
:1053E0007A6901463046BA6022F0A0F9BA687B6853
:1053F0001644BDE7836C37B504460D469B6B002110
:10540000006C9847A36C206C10215B6B984701AA35
:1054100029462046FFF764FF01992046FFF72CFF3D
:1054200003B030BD31B101F003038268134304BF00
:105430000B6883607047000038B543680D4604462A
:1054400011464BB905480AF077FA294660602046B4
:10545000BDE83840FFF7E6BF38BD00BF48B1036084
:105460002DE9F04F0E460162002142708DB00446D6
:10547000C16015463378072B05D0834A0DB0BDE8CF
:10548000F04FFFF7D9BF012A05D0036D021D294651
:10549000C06C1B6898476378D6F80C90032B10D12A
:1054A0000BAA462109F10C002EF03EFE236D0146A9
:1054B0000B9A9B68E06C984763687083002B40F000
:1054C000B380D9F81010C1B101F00F06022E10D12F
:1054D0000B09752B3DD006D83E2B3CD05E2B0DD052
:1054E0006A4A2046CAE740F26C429342F8D103264A
:1054F00004E0674A2046FFF79FFF0226D9F81430E0
:105500004FF0000A0AAA192109A809932EF00CFEEF
:105510000690069B9A4520D16378012B15D9236DFF
:105520003146E06C5B6898476378042B0DD1206AA4
:1055300005210396438BE26C02930023CDE90033EF
:10554000D2E90232006907F077FC6368002B6BD167
:1055500014E00026D2E70126D0E70A9B4FEA8A0B27
:1055600053F82A100B79082B02D10AF1010AD0E76F
:10557000052B06D0474A2046FFF75EFF0DB0BDE879
:10558000F08FCB68002BF5D18B681A792C2AF1D1DA
:105590009F6807F00F02022AECD1DB680593002B0D
:1055A000E8D09807E6D11B79302BE3D1059B3F0962
:1055B0000BAAA42103F108002EF0B6FDB7F5697F10
:1055C00080461BD1012805D10B9A136803F00F0305
:1055D000022B04D0304A0A9B53F80B10CBE7E1684A
:1055E000012D01F10103E36019D01268236D120946
:1055F000E06CDB68984790B9284AECE7B7F5407F44
:1056000016D1012803D10B9B1968CA0701D4244A7B
:10561000E1E7012D03D04910E06C03F032FA636832
:10562000002BA2D0DDF81490D9F80030A360A5E7D4
:1056300040F239339F421CD1012804D90B9B1968D1
:1056400011F0010701D1174AC5E7012DE7D0491034
:105650000B9B53F82720D30701D4134ABBE701372C
:105660005210E06C079103F013FAB8450799EFD197
:10567000D5E7012DD3D0236D02463946E06CD3F82F
:1056800010B00B9BD847CAE72F910360539103607A
:105690006091036088910360AB910360C7910360E0
:1056A000D7910360F391036018920360014AFFF7FA
:1056B000C3BE00BF3A9203600B79092B4FF6FF730C
:1056C00070B508BF858A044618BFC58A9D4202D1BD
:1056D000064AFFF7B1FE218B628BA36C8A1A206CFD
:1056E00029469B6FBDE87040184700BF5792036082
:1056F000F0B58D6885B004460E4605F00F030A2B01
:1057000006D0002D30D0AB072ED12B79652B1ED1C2
:105710000295002503AA652102A82EF005FD039B32
:10572000002140F2DA5203EB8000984215D1F26872
:1057300040F22A439A4236D1236A1F78B7B1394AD8
:105740003146204605B0BDE8F040FFF775BE622B3C
:105750000AD1AB680293ED68DCE753F8047B97420B
:105760000CBF01310331E0E70021E0E7A36C206CBE
:105770009B6B9847A36C0521206CDB6B9847A36C4F
:105780003A460121D3F8A030206C984703AA294655
:105790002046FFF7A5FDA36C022239461B6B206C47
:1057A000984705B0F0BDA36C0027206C9B6B984711
:1057B00006F10C0002AA6A212EF0B6FC0646B7429A
:1057C000A36C206C11D1D3F8A03000223146984749
:1057D0002946002503AA2046FFF782FDB542A36CA7
:1057E000206C0BD11B6E9847DBE7029ADB6B52F8FB
:1057F00027200137916809099847E0E7029A1B6B57
:1058000052F825700122B968090901919847FB688F
:105810002BB9019920460135FFF72EFDDEE7190966
:10582000F8E700BF7792036013B50446B9B101F001
:105830000F03022B0FD10A091046019207F09AFFBD
:105840000028019A05DA074907480AF00BF9606059
:10585000002002B010BD054AFFF7EEFDF8E708464C
:10586000F7E700BF9492036074B20360679103602E
:1058700070B505460C4600292DD0CA0706D5836CA5
:1058800049109B6B286CBDE8704018478B0716D0F9
:1058900004F00F040909022C0AD0062C0CD00629AA
:1058A00019D0836CC9B2006C5B6BBDE870401847BF
:1058B000BDE87040FFF7CCBC836CDB6BE2E7836C28
:1058C00009681B69006C98472279034B21462846DA
:1058D00053F82230D7E770BD349503608B072DE96C
:1058E000F14F04460D46164611D001F00F03022B6E
:1058F00016D1D7074FEA111104D401B0BDE8F04F1B
:10590000FFF7BABC01B0BDE8F04FFFF7A1BC496892
:10591000CBB22D2B7BD00BD8062B0DD02C2B12D03D
:105920004E4A2946204601B0BDE8F04FFFF784BD3E
:105930002E2B7FD09D2BF3D1002EF1D105F1080243
:10594000090A20467BE0022A02D0A968FFF790FFEF
:10595000EF68002FE4D017F00309E1D17B68B84667
:10596000DAB28E2A0DD1022E4FEA132805D007F1A4
:10597000080A08F1FF3BD94511DB08F1010857F887
:10598000288098F80430312B24D1022E0FD1A36C3B
:10599000206C9B6E9847A36C1B6D012115E05AF893
:1059A000041B204609F10109FFF762FFE3E7D8F87D
:1059B00008102046FFF75CFF012EA36CECD1DB6DD5
:1059C000206C9847A36C00211B6D206C01B0BDE8D2
:1059D000F04F1847322BA3D1012EA36C206C0CD1B1
:1059E0009B6D9847A36CD8F8081000225B6D0909DD
:1059F000206C01B0BDE8F04F1847022E01D15B6E5C
:105A00009847A36C0122D8F808105B6DEFE7AA68ED
:105A1000002A85D0002E83D15168090A022907D1B6
:105A2000D3682BB1980703D11B79AC2B3FF478AF27
:105A3000083286E7002A7FF473AFA96821B901B064
:105A4000BDE8F04F00F00CB88E0703D10B790A4681
:105A5000922BE1D005F10802012172E7A6920360C2
:105A60002DE9F84304460D46904601F1FF39002622
:105A70004FF0FF37B9F1FF3F0CD17B1C05D1A36C70
:105A80002946206CD3F8AC3098470026AE421DD191
:105A9000BDE8F88358F8261071B18A070CD10B794C
:105AA000222B09D101370BD1A36C37464A46314628
:105AB000D3F8B030206C9847013609F1FF39D9E7A7
:105AC0002046084ABDE8F843FFF7B6BC58F8261050
:105AD000B7424FF00002204608BF89680136FFF741
:105AE000FDFED3E7C19203602DE9F74F04460D4652
:105AF00016461F4628462EF06FFB20B1CEB9A36C88
:105B00003946DB6E4CE028462EF0A2FB08B186B188
:105B1000F5E7002D55D0AB0753D16B684FEA132B37
:105B2000DBB21E2B1BD1F6B1083505EB8B0B5D45A7
:105B30000DD103B0BDE8F08F43465AF8041B204650
:105B4000019209F10109FFF7CFFF019A19E03B46E5
:105B5000324655F8041B2046FFF7C6FFE7E71F2B28
:105B600023D1002EE0D0D4F80C8005F1080A4FF0C4
:105B7000000986F0010208F10103E3600BF1FF3335
:105B80000093009B4B45D7DC0BF101013B463246AD
:105B9000204655F82110FFF7A7FFA36C4146DB6AAA
:105BA000206C03B0BDE8F04F1847202B03D1AD683F
:105BB00086F001069EE72D2B03D1AB68002BA6D102
:105BC0009CE729462046FFF753FEA36C3A46314630
:105BD0001B6F206C03B0BDE8F04F1847026A38B560
:105BE000127804460B46072A06D0022A04D0154A2A
:105BF000BDE83840FFF720BC9D6885B9A36C102133
:105C0000206C5B6B9847A36C0021206CD3F8CC30E0
:105C1000984720460121BDE83840FFF7B7B9AB07E8
:105C20000BD12B79AF2B08D12046A968FFF720FEB6
:105C30002046BDE83840FFF793BA29462046FFF7D3
:105C400017FEE0E7DB92036070B543780446154623
:105C5000CE68012B06D1036A0A4629461B8BFFF743
:105C6000B8FA70610023716920461A46FFF7D3F92C
:105C7000F1682046FFF7FCFD062D05D1A36C00213D
:105C8000206CD3F888309847A36C0121206CD3F89E
:105C9000BC500023AC461A46BDE87040604738B59A
:105CA00005460C46C968FFF7E3FDA1682846BDE834
:105CB0003840FFF7DDBD0B79342B70B504460D4637
:105CC00010D18968FFF7D4FDED68AD6885B9A36C84
:105CD0001021206C5B6B9847A36C04220221D3F83F
:105CE000A0301AE0836C1021006C5B6B9847ECE7E6
:105CF000AB071FD12B799A2B13D1A36C1021206CE9
:105D00005B6B9847A9680029E6D02046FFF7B0FDF5
:105D1000A36C04220321D3F8A030206CBDE87040AE
:105D200018479B2B06D1A9682046FFF7A1FDEB6819
:105D30009968E8E729462046FFF79AFDCCE710B5B9
:105D400004468968FFF794FD0021A36C206C1B6D4D
:105D5000BDE81040184700002DE9F7438D68044660
:105D600016465DB9002A75D0836C02222946D3F805
:105D7000A030206C03B0BDE8F043184715F00307CE
:105D800040F08A802B79372B13D132B1836C0222F9
:105D90000121006CD3F8A030984720462946FFF730
:105DA00067FDA36C206CD3F8A43003B0BDE8F043CA
:105DB00018479F2B70D1EB681A79A12A5AD1A221DA
:105DC00001AA03F108002EF0AFF9A968804621B3BB
:105DD0008B0722D10B79372B1FD136B1A36C411C15
:105DE0000222206CD3F8A0309847A9682046FFF71C
:105DF0003FFDA36C4FF00109206CD3F8A430984705
:105E0000474510D1B9F1000F24D1A36C0322791CAE
:105E1000206CD3F8A03098471CE020464FF00009D2
:105E2000FFF726FDECE7019B53F82710A9B18E0779
:105E300013D10E79A6F13700464246412046FFF7BE
:105E400017FDB9F1000F11D04EB9184A2946204666
:105E5000FFF7F2FA03B0BDE8F0830026EEE7A36C8B
:105E6000206CD3F8A43098470137C9E7002EFBD047
:105E70000F4AEBE7AB685BB19A0709D11B79372B67
:105E800006D10422294603B0BDE8F043FFF7DCBE8B
:105E9000052229462046F6E729462046FFF7E8FC7A
:105EA000A36C03220121D3F8A03062E7F4920360CF
:105EB000119303600122FFF74FBF70B50D46C9680B
:105EC0000446FFF7D5FCA968A36CC1F30711206C49
:105ED000D3F89830342916BF40390221C9B2BDE841
:105EE00070401847F8B54F680C46002689683F0A8D
:105EF0000C340546FFF7BCFC02360834B74200DC20
:105F0000F8BD54F8041C2846FFF7B2FC54F8081CEE
:105F1000AB6C0909286CD3F89C302539C9B2984775
:105F2000EAE72DE9F0414E680C4601278968A6F1A1
:105F30000D080C34360A05465FFA88F8FFF798FC1E
:105F4000B74201DBBDE8F08154F8041B2846FFF797
:105F50008FFCAB6C4146286CD3F89C3001379847D6
:105F6000EEE72DE9F0414E680D4689680446360A91
:105F70000127FFF77DFC032E89BFD4F80C804FF07A
:105F8000000808F10103E3607B1C9E4222DC032E23
:105F900055DDE568206C6B1C2946E360A36CDB6E65
:105FA0009847A36C4146206CDB6A9847A36C01219B
:105FB000206CDB689847A36C206C5B6E9847A36CE1
:105FC000206C1B6E9847A36C2946206CDB6ABDE8E9
:105FD000F0411847023729692046FFF749FCB742CC
:105FE00007DAA36C206C9B6D9847A36C206C9B6EAA
:105FF0009847E968A36C01F00F02206CD3F89C303D
:106000000A2A11D1C1F30711262916BF35390621F5
:10601000C9B29847B74205DAA36C42460021206C0A
:106020005B6F98470835AFE70A79852A01D132219D
:10603000EFE78A680AB90721EBE73321E9E7BDE812
:10604000F08110B504468968FFF712FC0321A36CA8
:10605000206CD3F89830BDE8104018472DE9F04780
:106060004E680446D0F80C8001F108055FFA86F905
:106070000027360AA9F11E03D3F1000949EB0309F1
:1060800008F10103C360B74206DBA36C4146206CF4
:10609000DB6ABDE8F0471847013755F8041B204676
:1060A000FFF7E6FBB742F0DAA36C42464946206CA4
:1060B0005B6F9847E7E7000001F00F03022B70B514
:1060C00004460FD00B79492B01D04F2B02D101236D
:1060D000A37070BD4A2BFCD0502BFAD0482B0DD1A9
:1060E0000D696DB9A378002BF3D1638A002BF0D032
:1060F00020461D4ABDE87040FFF79EB9CD68F0E725
:10610000A37843B3238A8E6801339BB2012B238289
:106110000ED1618AA36C206CD1B1D3F8A0300022DB
:106120009847A36C02220021206CD3F8A030984736
:1061300029462046FFF79CFBA36C206C3109DB6BE2
:106140009847A36C206CD3F8A430BDE87040184782
:106150005B6C9847E5E7638A2946204601336382F2
:10616000BDE87040FFF784BB309303602DE9F04138
:10617000C5680446D1F80C800E46AB1C0022D8F846
:1061800008106F1CC3602B46FFF7AEFCB1682046B9
:10619000FFF76EFBA36C3946206CDB6E9847A36C4F
:1061A0002946206CDB6A9847A36C206C4FF0FF31C6
:1061B000DB689847D8F80C102046FFF759FBA36C12
:1061C0003946206CDB6ABDE8F04118472DE9F047FD
:1061D000C6680446D0F814A00D46B31C06F10108A9
:1061E000B0F81A90C360038B8682A0F816804383B0
:1061F00088682DF0F1FFF8B9E768A8687B1CE360B8
:106200002EF026F820B9A36C4146206CDB6E98472F
:10621000A36C3946206CDB6A9847E9682046FFF793
:1062200027FBA36C4146206CDB6A98473B46012262
:10623000A9682046FFF758FC29692046C4F814A035
:10624000A4F81A90FFF714FBA36C3146206CDB6AAC
:10625000BDE8F04718472DE9F347C66804460D46E8
:10626000731CC36088682DF0B7FF024610BBE76857
:106270002046A9687B1CE3603B46FFF735FC2046BF
:10628000E968FFF7F5FAA8682DF0E2FF00BB2B697B
:106290000BB96B694BB1A36C206C9B68984720B914
:1062A000A36C3146206CDB6E9847A36C3946206C9A
:1062B000DB6A984701AA712105F1100000272DF033
:1062C00033FF81464F450BD169692046FFF7D0FA6D
:1062D000A36C3146206CDB6A984702B0BDE8F087BA
:1062E000019B53F82780D8F808002DF075FF02466F
:1062F00020BBD4F80CA02046D8F808100AF10103FE
:10630000E3605346FFF7F0FB2046D8F80C10FFF788
:10631000AFFAD8F808002DF09BFF0028D8D1A36C65
:10632000206C9B68984720B9A36C3146206CDB6ECB
:106330009847A36C5146206CDB6A98470137C1E748
:1063400070B58D6804463DB9836C2946D3F8C830D2
:10635000206CBDE870401847AB070ED12B795E2B3F
:106360000BD1A968FFF784FAE9682046FFF780FAA5
:10637000A36C0221D3F8C830EAE729462046FFF78C
:1063800077FAA36C0121D3F8C830E1E710B50446D1
:106390008968FFF76DFAA36C206C1B6EBDE8104096
:1063A00018472DE9F0414E6801F108040546360A08
:1063B00004EB8607BC4208D1AB6C3146286C002246
:1063C000D3F8A030BDE8F041184754F8041B284624
:1063D000FFF74EFAEEE78968034610B441B9826CC4
:1063E000006CD2F8A0400A4623465DF8044B1847DB
:1063F0004A68120A022A0BD1CA684AB1940707D127
:106400001279AC2A04D106225DF8044BFFF71CBCBC
:1064100018465DF8044BFFF7C4BF4B682DE9F04107
:1064200005460E461F0A01F108080024BC4201DBA4
:10643000BDE8F08158F8041B2846FFF719FA6B688D
:106440003BB10234284656F82410BDE8F041FEF76F
:10645000E9BF0134EAE710B50446FFF7DEFF222169
:10646000A36C206CD3F89C30BDE81040184770B581
:106470008D68044645B9836C01222946D3F8A030C3
:10648000206CBDE870401847A9071ED16B68DAB2CE
:10649000922A1AD11B0A022B0CD1EB6853B19A072E
:1064A00008D11B79AC2B05D129460322BDE87040E9
:1064B000FFF7CABB29462046FFF7AFFF6968A36C08
:1064C0000122090AD3F8A030DAE729462046FFF76F
:1064D000CFF9A36C0122D3F8A0301146D0E72DE903
:1064E000F047C7681E4604460D46BB1C3946904619
:1064F00007F10109C360836C006CDB6A9847A36CE9
:106500004946206CD3F88C309847A9680022204671
:10651000FFF7E4F92D69002D2DD141462046FFF704
:10652000A7F9236AA06C197806291DD1D0F8CC30C0
:106530002946206C984720460121FEF727FDA36CD1
:10654000206C1B6E9847A36C3946206CDB6E984715
:10655000A36C206C4946DB6A9847A36C206CD3F887
:106560009030BDE8F0471847B200D0F8A850206C32
:106570000532A847E7E72B79AD2B07D1A9683B4641
:1065800000222046FFF7B0FAED68C4E7E96820462C
:10659000FFF76EF9A36C206C0121D3F8883098477F
:1065A000731C424629462046FFF799FFCBE72DE9A9
:1065B000F7430446904699460F4629B9194603B059
:1065C000BDE8F043FFF754B9C668731CC360156893
:1065D0004DB315F0030226D12B797B2B23D1A9686B
:1065E0000192FFF745F9019A31462046FEF7D6FCA5
:1065F000019AE9682046FFF771F94B4608F1040259
:10660000791E2046FFF7D3FFA36C3146206CD3F8E8
:106610008030984703212046FEF7B8FC03B0BDE860
:10662000F043FEF7CBBC29462046FFF721F9204670
:1066300000223146FEF7B2FCA36C206C1B6E98471B
:10664000DBE737B50C46054601AA7A2104F10800BC
:106650002DF06AFDE3680146019A2846FFF7A7FF7F
:1066600003B030BD8B6803F00F03022B2DE9F04F10
:1066700004460E462DED028B87B040F00581CB68B5
:10668000002B00F00181980740F0FE801A792C2A37
:1066900040F0FA809A6802F00F01022940F0F4807D
:1066A00012097C2A40F0F080DB681A79302A40F029
:1066B000EB809B6805AAA42104A804932DF034FD67
:1066C000431E022B00F2E080059901280A6800F0C1
:1066D000CD800228D1F804A000F02C818D68E90754
:1066E00040F1D2806B0800F0CF8032B1930704D123
:1066F0001179A639022940F2C780BAF1000F08D0FB
:106700001AF0030F05D19AF80410A639022940F2B5
:10671000BB80B3681AF0010B776908EE103A336951
:10672000218B08EE903A6369E6680293638B06F169
:106730000208618306F10401019306F1010306F1E9
:106740000309A6820393E382E16005D15146204606
:106750000392FFF78DF8039A11462046FFF788F859
:10676000A26C4946206CD26E9047A26C4146206CC8
:10677000D26A9047A26C206C926D9047002218EE6E
:10678000101A2046FFF7AAF818EE901A2046FFF7D5
:106790006FF8A26C711C206CD26A90472946204683
:1067A000FFF766F8A26C0E21206CD2F89C2090476F
:1067B000A26C4946206CD26A9047A26CBBF1000FD4
:1067C00058D1D36D206C9847A36C206C5B6E9847B2
:1067D000002DA36C206CACBF00210121D3F89C30AC
:1067E0009847A36C424601211B6F206C9847029B7F
:1067F0006361019B6383002F44D0A36C206C1B6EEC
:106800009847BBF1000F03D1A36C206C1B6E984717
:1068100039462046FFF72CF8E568206C6B1C2946AA
:10682000E360A36CDB6E98478BF00101A36C013130
:10683000206CDB689847A36C3146206CDB6A984774
:10684000A36C206C1B6E9847BBF1000F03D1A36CA7
:10685000206C1B6E984727B1A36C2946206CDB6A1D
:10686000984707B0BDEC028BBDE8F08F9246032538
:10687000024642E7206C926D904751462046FEF753
:10688000F7FFA5E73D46D6E7E5682046238BB4F839
:106890001A906F1C63836FEA4543D4F814A005F186
:1068A00002086FEA5343F168E782A382EB1CE360BE
:1068B000FEF7DEFFA36C0121206CD3F888309847E7
:1068C000A36C3946206CDB6A9847A36C4146206C68
:1068D000D3F88C3098470022B1682046FEF7FEFFBF
:1068E00020463169FEF7C4FFA36C206C9B68984773
:1068F00020B9A36C3946206CDB6E9847A36C4146E7
:10690000206CDB6A9847A36C206CD3F890309847D2
:1069100071692046C4F814A0A4F81A90FEF7A8FFE5
:10692000A36C2946206CDB6A07B0BDEC028BBDE886
:10693000F04F18470325D8E62DE9F74F0446904657
:106940000F4629B9194603B0BDE8F04FFEF790BFD6
:10695000C668321D06F1010A06F1020B06F10309B1
:10696000C260D8F80050002D00F0F28015F003024C
:1069700040F0EE8029797B2940F0EA80A968CDE9D2
:106980000032FEF775FFA16C206C896D8847A82145
:106990002046FEF7FEFB019AE9682046FEF79EFFBF
:1069A000009B3146204602220093FEF7F7FAA26CC4
:1069B0000321206CD268904708F10402009B791EE5
:1069C0002046FFF7B9FFA36C206C6FF00201DB6873
:1069D0009847A36C1021206C5B6B9847A36C206CCC
:1069E0005B6E9847A36C5146206CDB6E9847A36C96
:1069F0003146206CDB6A9847A36C206C9B6D9847EE
:106A0000A36C0122206C9B6921219847A36C206C08
:106A10000821D3F89C309847A36C5A460021206C7B
:106A20001B6F9847A36C206C9B6D9847A36C206CE0
:106A30009B6E9847A36C206C5B6E9847A36C0022FA
:106A4000A921206C9B6C9847A36C206C9B6E984787
:106A5000A36C206C9B6E9847A36C206C9B6D984731
:106A6000A36C00220A21206C5B6D9847A36C206CFC
:106A70005B6E9847A36C206C10215B6B9847A36CEE
:106A80000321206CD3F8C05000231A46A8472046A3
:106A9000FEF766FBA36C4A460021206C1B6F9847EB
:106AA000A36C206C1B6E9847A36C206C10215B6B51
:106AB0009847A36C4946206CDB6E9847A36C206C0A
:106AC0000221DB689847A36C5946206CDB6A984723
:106AD000A36C206C9B6E9847A36C206C9B6E9847B0
:106AE000A36C5146206CDB6A9847A36C0022206C93
:106AF0009B6CA9219847A36C1021206C5B6B984775
:106B0000A36C206C9B6D9847A36C206C9B6D984781
:106B1000A36C0321206CD3F8C05000231A46A84769
:106B20002046FEF71DFBA36C206C1B6E9847A36CE0
:106B3000206C4FF0FF31DB689847A36C206C49460E
:106B4000DB6A9847204603B0BDE8F04FFEF736BA3F
:106B5000294620460093FEF78BFEA26C206C926DB6
:106B600090472046A821FEF714FBA26C206C126E01
:106B7000904715E72DE9F041CD6804460E4635BB38
:106B80000378BBB1036A1D78A5B9CF21FEF760FB7E
:106B9000B1682046FEF76CFEA36C2A460121D3F8AB
:106BA000BC602B46206CB047A36C206C1B6EBDE80C
:106BB000F0411847B1688B0700F09A8001F00F038D
:106BC000022B40F09C802046FEF752FEECE7AF0718
:106BD00040F099806B68DAB25B2A14D1ED68002D21
:106BE00040F08F80006A0378072B40F08880896826
:106BF00001F00F03022B40F0828003220909BDE857
:106C0000F041FEF775B9562A13D101228968FEF7C3
:106C100065FEE9682046FEF72BFEA968A36C09090A
:106C2000206CD3F89C303F39C9B298470222B16832
:106C300059E0572A65D11B0A5F1E013355F823100E
:106C4000FEF716FE002F03DDA36C206C9B6D9847AA
:106C5000B1680835002600222046FEF73FFEBE42FE
:106C60004DDA0136BE4203DAA36C206C9B6D984767
:106C7000002255F8041B2046FEF730FEEFE76B6854
:106C8000DAB2062A3FD1B768002F3CD0B8073AD114
:106C90007A68D1B2062936D11B0AB3EB122F32D152
:106CA000022B30D1BB6823B1990702D11B79222B6B
:106CB00029D0FB6823B19A0702D11B79222B22D05D
:106CC000A9682046FEF7D4FDE9682046FEF7D0FD0E
:106CD000A36C206C5B6E98470022B9682046FEF7D3
:106CE000FDFD0022F9682046BDE8F041FEF7F6BD43
:106CF00000293FF468AF0B793A2B7FF464AFBDE80D
:106D0000F081AB07BBD029462046FEF7B1FD00223B
:106D10008DE700000023022A2DE9F04704460D46C6
:106D2000164600F1240742700162C36080F82420F7
:106D300031D1038DC384A36C4FF000083146206C21
:106D40001B682A46A4F82A80984706212046FEF7A9
:106D50001DF9617801290DD12B8BA5F82280023B0A
:106D6000A5F824809BB2012B04D87F4B2A463846D5
:106D70001B689847EE68DEB1B20719D133793F2B13
:106D800016D1B1682046FEF773FDA36C206CD3F8D2
:106D9000C43098473AE084BFC38C0385032ACAD124
:106DA000408D08B92063C6E78000FBF78EFBF9E74A
:106DB0002B784BB931462046FEF75AFDA36C5B6B2E
:106DC0001021206C9847E0E7072B25D16378012B31
:106DD00012D1002346222046A370644BF168FEF7CF
:106DE000FDF82B8B032B07D131692046FEF71CFDE4
:106DF000EB8A43EA8010E88220467169FEF738FD8D
:106E0000A36C206C9B6898470028D7D0A36C206C9B
:106E10005B68BDE8F0471847022B1BD1A36C3168B3
:106E20001B69206C98476378012B07D100234C2203
:106E30002046A3704E4BB168FEF7D0F8F1682046AB
:106E4000FEF716FDEB8ADB079FD5A36C206C1B6E4B
:106E50009847B3E7033B94F80180032B55D8B8F16A
:106E6000010FD6F80C900AD141460322206AFEF7A2
:106E70003FF805213846A5F81A8001F0CDF8A36C3B
:106E800031681B69206C98472B78032B24D1A36CA5
:106E90000122D3F8A0300021206C98472B78062BD4
:106EA00028D1A36C206C5B6C984701212046FEF72B
:106EB000CFF9A36C206C5B6C9847A36C206C5B6C67
:106EC00098470023B26849462046FFF708FB2B7815
:106ED000062B7FF45AAF71E7042B04D1A36C022276
:106EE000D3F8A030D7E7052BD8D1A36C0322D3F871
:106EF000A030D0E720460121FEF7AAF9A36C0121BA
:106F0000206CD3F888309847DBE7B8F1010F04D143
:106F100003220A212846FDF7EBFF17212046FEF742
:106F200097F916212046FEF7A7F9B168A36C090965
:106F3000206CDB6B98471A212046FEF79DF93169DA
:106F40002046FEF795FC0A212846FDF7C1FF03788D
:106F5000032BA36C3FF433AF5D690A214288002301
:106F6000206CA84711E700BF28990360F97B0060F7
:106F7000017C00602DE9F04F8D6887B004462B79C5
:106F8000032B0AD12946FEF78BF9AA69D38A43F06D
:106F90000103D38207B0BDE8F08F026AD28AD2071C
:106FA00006D4634A294607B0BDE8F04FFEF744BA5D
:106FB000162B40F0AF80C668E968331D06F1010A60
:106FC0004FEA111B06F10208C36006F10309FEF740
:106FD0004FFCA36C206C00229B6CAA219847A36CE9
:106FE000206CD3F8C07000231A461946B84759469A
:106FF0002046FEF741F9E7686369BA1C206C0293EA
:10700000E260638B228B01937B1C6283A26C194626
:10701000E382D26AA7820393904701225146204619
:10702000FDF7BCFF59462046FEF712F92046AC2179
:10703000FEF7AFF8A96820460022FEF74FFCA26CCD
:107040004146206CD2F894B00022D847A26C514639
:10705000206CD26A9047A26C206CD2F8D020904766
:10706000A26C206C926D9047A26C206C4FF42D7135
:10707000D2F818A00122D047A26C206C0821D2F8C7
:107080009C209047A26C0021206CD2F870A04A4648
:10709000D047A26C206C126E9047A26C3146206CD7
:1070A000D2F894A00122D047A26C4946206CD26A43
:1070B0009047A26C0121206CD26890472046FDF7D2
:1070C0007DFFA26C206CD2F8D4209047A26C414680
:1070D000206CD26A904729692046FEF7C9FB039BC2
:1070E000A26C1946206CD26E9047029B3146206CF0
:1070F0006361019B6383A36CDB6A984769692046DF
:10710000FEF7B6FBA36C3946206CDB6A07B0BDE81E
:10711000F04F184705AA7A2105F108002DF004F870
:10712000EB680146059A2046FFF706FC32E700BFF0
:107130005E9303602DE9F04F2DED028B83B0C5689F
:107140001E4604460E9B0F460192294608EE103A51
:10715000AB1C012205F1010AC360FDF71FFF394690
:1071600020460027FEF784FBA36C00225146D3F88B
:107170009430206C9847A36C2946206CDB6A9847B2
:10718000A36C206CD3F8D0309847D4F80C8008F169
:107190000103E360019B9F421BDB2046FDF70EFFCE
:1071A000A36C206CD3F8D4309847A36C5146206C64
:1071B000DB6A984718EE101A2046FEF759FBA36CBD
:1071C0004146206CDB6A03B0BDEC028BBDE8F04F9A
:1071D00018473346D4F80C90043601371A680092E9
:1071E00009F10102E260009AD2F808B0BBF1000F89
:1071F00047D1019ABA4237D10025A36C206CAB4627
:107200001B6E9847009B2046D968FEF731FBCDB135
:10721000A26C1021206C526B9047A26C5946206CD6
:10722000D26A9047A36C1021206C5B6B984729466B
:107230002046FEF721F820462946FEF73DF8204675
:10724000FDF7BCFEA36C01224146206CD3F89430BC
:107250009847A36C4946206CDB6A9847A36C0121D0
:10726000206CDB68984795E720461F4A1968FEF7AF
:10727000E3F8204603B0BDEC028BBDE8F04FFDF70C
:107280009DBE1BF003052DD19BF804205B46762A9A
:1072900003D1DD68DBF808B02D09A36C206C9B6D71
:1072A000984759462046FEF7E3FAA36C0821206C64
:1072B000D3F89C309847A36C4A4600211B6F206C82
:1072C0009847002D98D029462046FDF7D5FFD4F8E1
:1072D0000CB020460BF101025946E2600222FDF794
:1072E0005DFE8FE70025D8E7849303602DE9F04326
:1072F000C768164685B00D467A1C39460393044686
:10730000C2600222DDE90C98FDF748FE039B16BB24
:10731000A36C0321206CDB68984729462046FEF7C2
:10732000A7FAA36C6FF00201206CDB689847A36C8E
:107330001021206C5B6B9847A36C3946206CDB6A8C
:10734000984720464146FEF793FA204605B0BDE82F
:10735000F043FDF733BE324629462046CDF8009073
:10736000FFF7E8FEE3E77FB5CD6806460C462B79CC
:10737000782B09D1AB680193002300931A468968E2
:10738000FFF7B4FF04B070BD742B03AA4FF0770170
:1073900016D105F108002CF0C7FE2B6902463BB957
:1073A000EB6800933046039BA168FFF7C3FEE9E753
:1073B0009B683046A1680193EB680093039BDFE76D
:1073C00004F10C002CF0B0FE00230246E9E70000B7
:1073D00001F00F03022B2DE9F04705460C4604D1BE
:1073E0000909BDE8F047FDF767BF002956D011F045
:1073F000030653D10B792C2B38D18968FEF738FA64
:10740000E668002E4AD016F0030847D17768334665
:10741000FAB28E2A09D13F0A06F1080907F1FF3AAC
:10742000C24510DC013756F827301A79312A12D1BB
:1074300099682846FEF71CFAAB6C286C02211B6D7C
:10744000BDE8F047184759F8041B284608F1010821
:10745000FEF70EFAE4E7322A20D199680222AB6CDB
:10746000286C09095B6DBDE8F04718472D2B15D135
:107470008C689CB163681B0A022B07D004F10807D3
:107480006368B6EB132F10D3BDE8F087E368002BD9
:10749000F4D09A07F2D11B79AC2BEFD121462846C4
:1074A000054ABDE8F047FDF7C7BF57F8041B28465B
:1074B0000136FFF78DFFE3E7A2930360184B2DE938
:1074C000F041D3F8407304460D463FBBC668012225
:1074D0008968731CC3603346FEF706FBA36C1F214B
:1074E00001229B69206C9847E96851B12046FEF75C
:1074F000BFF9A36C3A460121D3F8BC503B46206C3F
:10750000A847A36C0121206CD3F8C8309847A36C1E
:107510003146206CDB6ABDE8F0411847BDE8F081D8
:1075200000080020026A10B512780446072A04D029
:107530000A4ABDE81040FDF77FBF896859B9836CDE
:107540001021006C5B6B9847A36C206CD3F8C4309F
:10755000BDE810401847FEF78BF9F5E7BA930360D2
:1075600001F00F03022B70B504460D4604D00C4AFF
:10757000BDE87040FDF760BF1146FEF779F9A36CD6
:10758000206C9B6D9847266A290920463378033B77
:10759000032B9CBF73682362FDF76EFE266270BDED
:1075A000A69203602DE9F04F002787B04FF0010B42
:1075B0000446B9463E46B84603A81D46CDE9022119
:1075C00005AAA4212CF0B0FD0190019B9F4211D18E
:1075D00026B1A36C4946206C9B6B9847029AA36C1A
:1075E000206C002A73D0D3F8C04033464246294667
:1075F000A04713E0059B53F827A0BAF1000F5BD01A
:107600001AF0030F58D19AF80420A62A19D1B0070E
:1076100007D5304A51462046FDF70EFF07B0BDE8BA
:10762000F08F1D2F01D92C4AF4E70BFA07F246F030
:107630000106DAF8081049EA02092046FEF718F9AF
:1076400020E0A72A0ED1A26C46F00206206C526CF4
:107650009047DAF8081008F101082046FEF708F90B
:107660000137B2E7A82A27D1DAF80C2072B19107C6
:107670000CD11179AA2907D192682046DAF80810AE
:10768000FFF76EFF0135EBE7AC290FD0DAF80810F1
:1076900001F00F02022A01D0104ABBE7A26C0909CF
:1076A000206CD26B9047DAF80C10D4E706225146D2
:1076B0002046FEF7C9FAE5E7B30701D5084AA9E76E
:1076C000B8F1000F01D0074AA4E75146B5E7D3F857
:1076D000BC408AE7D4930360E3930360F1930360B3
:1076E000129403602A94036070B50D4641780446F5
:1076F0001346012903D12A46FDF76BFD6861A36C8F
:10770000206CDB6C98476E690023204631461A4690
:10771000FDF781FCA36CB18ADB6B206C9847E968AC
:1077200029B18B0703D10B79A32B08BF0021204679
:1077300002230022FFF736FFB08A70BD036A10B53E
:1077400004461A8BFFF7D0FF01462046BDE81040E3
:10775000FDF792BD2DE9F04F85B004460026DFF815
:107760001CA1019102AA019B4221B14603F108002C
:107770002CF0DAFC236A83461D8B5E450AD1019BFF
:10778000D9680B79032B4FD12A462046FDF74BFDD4
:10779000054657E0029B03AA6C2153F8263003F1FB
:1077A000080000932CF0C0FC039B074619680A09E7
:1077B000732A0DD04FF001082046FEF759F8B8455E
:1077C00026D3009BD96859B12046FEF751F807E04F
:1077D000022807D052462046FDF72EFE09F1010986
:1077E0000136CAE759680B09412B0BD040F2DD3254
:1077F000934209D0B3F5916F08D0B3F5427FE9D138
:107800000425EBE70125E9E70546E7E70325E5E77A
:10781000039B0022206C53F8281008F10108A36C88
:1078200009095B6D9847CAE7442B17D18E682A4631
:1078300020463146FDF7F7FCB2690546D38A43F08E
:107840000103D3820026ABEB0909B1450BD82946C9
:107850002046FDF711FD05B0BDE8F08F2A46204611
:10786000FFF742FF94E7A36C0121206C0136D3F8A7
:10787000BC7000231A46B847E7E700BF4B9403608B
:10788000002389681A46FFF78DBE00002DE9F743F3
:107890000C4689680546FDF7EBFFE668002E58D0D8
:1078A0007768296AFBB209788E2BA36819BF04F1A7
