:0200000460009A
:10000000464346420004015600000000010303007D
:100010000101000001040000400000000000000099
:1000200000000000000000000000000000000000D0
:1000300000000000000000000000000000000000C0
:1000400000000000010406000000000000000000A5
:100050000000200000000000000000000000000080
:100060000000000000000000000000000000000090
:100070000000000000000000000000000000000080
:10008000EB04180A063204260000000000000000FD
:100090000504012400000000000000000000000032
:1000A0006B0418080832042600000000000000005D
:1000B0000604000000000000000000000000000036
:1000C0008104042400000000000000000000000083
:1000D00020041808000000000000000000000000DC
:1000E00001040420000000000000000000000000E7
:1000F0003204180804220000000000000000000084
:1001000090041830002400000000000000000000EF
:100110000204180800200000000000000000000099
:100120003504000000000000000000000000000096
:10013000600400000000000000000000000000005B
:10014000F5060000000000000000000000000000B4
:10015000000000000000000000000000000000009F
:10016000000000000000000000000000000000008F
:10017000000000000000000000000000000000007F
:10018000000000000000000000000000000000006F
:10019000000000000000000000000000000000005F
:1001A000000000000000000000000000000000004F
:1001B000000000000000000000000000000000003F
:1001C000000100000010000000000000000000001E
:1001D000000004000000000000000000000000001B
:1001E000000000000000000000000000000000000F
:1001F00000000000000000000000000000000000FF
:10100000D10020410020006000000000E09A046050
:1010100020100060001000600000000000000000D0
:10102000000000600000200000000000FFFFFFFF44
:102000000000022099DE02602D47000031470000E9
:102010002947000029470000294700000000000070
:102020000000000000000000000000003547000034
:1020300029470000000000007166026035770260E9
:102040004147000045470000494700004D47000058
:102050005147000055470000594700005D47000008
:102060006147000065470000694700006D470000B8
:102070007147000075470000794700007D47000068
:102080008147000029470000294700002947000038
:1020900085470000894700008D47000091470000F8
:1020A00095470000994700009D470000A1470000A8
:1020B000A5470000A9470000AD470000B147000058
:1020C000B5470000B9470000BD470000C147000008
:1020D000C5470000C9470000294700002947000004
:1020E0002947000029470000294700002947000030
:1020F0002947000029470000294700002947000020
:10210000294700002947000029470000294700000F
:1021100029470000294700002947000029470000FF
:10212000CD470000D1470000D5470000D947000047
:10213000DD4700002947000029470000294700002B
:1021400029470000294700002947000029470000CF
:1021500029470000294700002947000029470000BF
:1021600029470000294700002947000029470000AF
:10217000294700002947000029470000294700009F
:102180002501000035010000450100005501000057
:102190006501000075010000850100009501000047
:1021A000A5010000B5010000E1470000E54700007F
:1021B000294700002947000029470000294700005F
:1021C000294700002947000029470000294700004F
:1021D00029470000F97702602947000029470000DD
:1021E000294700002947000029470000E94700006F
:1021F000ED47000029470000F1470000F5470000C7
:102200003938026029380260F9470000FD470000B4
:1022100029470000294700002947000029470000FE
:102220002947000029470000290200002947000033
:1022300029470000294700002947000029470000DE
:102240002947000011020000170200001D020000D3
:102250002302000029470000294700002947000009
:1022600029470000294700002947000029470000AE
:10227000294700002947000029470000294700009E
:10228000294700002947000029470000294700008E
:10229000294700002947000029470000294700007E
:1022A00001480000054800000948000029470000D7
:1022B0000D48000029470000294700002947000079
:1022C000294700002947000029470000294700004E
:1022D000294700002947000029470000294700003E
:1022E000294700002947000029470000294700002E
:1022F000294700002947000029470000294700001E
:10230000294700002947000029470000294700000D
:1023100029470000294700002947000029470000FD
:1023200029470000294700002947000029470000ED
:1023300029470000294700002947000029470000DD
:1023400029470000294700002947000029470000CD
:1023500029470000294700002947000029470000BD
:1023600029470000294700002947000029470000AD
:10237000294700002947000029470000294700009D
:10238000294700002947000029470000294700008D
:10239000294700002947000029470000294700007D
:1023A000294700002947000029470000294700006D
:1023B000294700002947000029470000294700005D
:1023C000294700002947000029470000294700004D
:1023D000294700002947000029470000294700003D
:1023E000294700002947000029470000294700002D
:1023F000294700002947000029470000FFFFFFFF91
:10240000024B5A69026058610020704700080020A2
:10241000024B5A6912685A61704700BF00080020D9
:10242000C460056146618761C0F81C80C0F82090D7
:10243000C0F824A0C0F828B0C0F82CD080ED0C8BD8
:1024400080ED0E9B80ED10ABC0F808E0FFF7D8BF21
:10245000104908B54B690BB923F0EDFD1A685860B7
:102460004A611846C468056946698769D0F81C80C6
:10247000D0F82090D0F824A0D0F828B0D0F82CD0F4
:1024800090ED0C8B90ED0E9B90ED10ABD0F808E02A
:10249000012070470008002010B50021044631F0EB
:1024A00093FA18B914B1204631F07EFA10BD00211C
:1024B00031F08ABA10B50121044631F085FA18B915
:1024C00014B1204631F070FA10BDFFF7E5BF10B52A
:1024D00001220C4631F070FA18B914B1204631F0DF
:1024E00063FA10BD31F068BA31F09ABA054B1B6A35
:1024F0005A68824204D8801A043053F8200070478A
:102500001B68F5E700080020014441F205538842AA
:1025100004D398B2012838BF0120704703EB43135E
:1025200010F8012B5340F2E7034B044A1A620022D1
:10253000C3F82C23704700BF000800203C820460D1
:102540002DE9F84F80460D46FFF7DEFF134B074697
:102550001C6A0CB920461EE004F1100BE3685E46CD
:102560000BEB83094E45B24601D32468F1E756F8D8
:10257000040B0388BB42F5D18378AB42F2D12A46E3
:102580004146033024F0CDFC0028EBD1AAEB0B0A26
:10259000606800EBAA00BDE8F88F00BF00080020CB
:1025A0002DE9F04780460E46FFF7CAFF0246002895
:1025B00077D1FF2E03D94049404831F021FA404CF1
:1025C000351DD4F82C0390B1D4E9CC132B448B42A5
:1025D0002BD92944FFF786FF0746E8B90246D4F80D
:1025E0003413D4F82C03FFF77DFFC4F82C73802D2F
:1025F0002F4638BF80273846FFF759FFC4F82C0311
:10260000002852D12846FFF752FFC4F82C030028B7
:102610004AD1284631F0C8F9D4F830332B44C4F8F5
:102620003033D4F82C33002BE1D0D4F83493314636
:10263000D4F82CA340464D440AEB0907C4F83453A0
:10264000FFF762FF0AF80900000A32464146787037
:10265000F81CBE7024F004FCB9190026CE70236A61
:10266000D3E90253AB4212D36D000A2D38BF0A25BD
:10267000281D8000FFF71BFF0028CAD0226A53687C
:102680000260D268C6601344C0E901352062236A43
:10269000D9685A68481C0431013AD860024443F8AA
:1026A00021701046BDE8F0872F460023C4F8307330
:1026B000C4F83433B9E700BF8F3C036044B1036012
:1026C0000008002010B5044624F03DFC01462046D9
:1026D000BDE81040FFF764BF08B5FFF707FF0088AB
:1026E00008BD08B5FFF702FF807808BD08B5FFF701
:1026F000FDFE033008BD08B5FFF7F8FE8378033010
:102700000B6008BD2DE9F8431D46002307468846A7
:10271000036016460B6013602B60164BDFF8589071
:102720001C6A0CB14C4505D12B68326813442B60F0
:10273000BDE8F8833B6801333B60E268D8F80030BD
:102740001344C8F8003004F11003E26803EB82027E
:10275000934207D3204631F0B7F92B682468184418
:102760002860DEE753F8041B88783168043101449F
:102770003160EDE7000800203C8204602DE9F84359
:102780000E4B0F4F1C6ADFF83C80DFF83C900CB119
:10279000BC4201D1BDE8F88304F11005E36805EB04
:1027A0008306B54201D32468F1E755F8042B41466E
:1027B0004846033200F0DAFCF3E700BF00080020CF
:1027C0003C8204609D3C03600C8A036038B5446819
:1027D000054603682144994211D9037BDB0703D5E1
:1027E0000021074831F00CF901F11004806824F051
:1027F000070408342146FFF76AFE2C60A86038BD44
:1028000044B1036070B504460E4611461546FFF705
:10281000DDFF31462A46D4E90130184424F047FB55
:1028200062682A44626070BD70B546680446B14271
:1028300028BF31460D460121FFF7C8FFA368681C79
:10284000721B5919184424F032FB6368A0680133E5
:102850002844636070BD012938B538BF01210446A2
:102860000025084621606560FFF716FE237BA06007
:1028700065F30003237338BD38B505460C460131B6
:10288000FFF7E9FF6C6038BD00230160C0E9013249
:10289000037B43F0010303737047000038B514460F
:1028A0000546FFF7D8FF024B2560636038BD00BFC7
:1028B00005280060037BDB0710B5044602D480685E
:1028C000FFF712FE0023A36010BD13B50190102086
:1028D000FFF7E2FD04460199FFF7BDFF204602B075
:1028E00010BD10B5044650B1037BDB0702D48068ED
:1028F000FFF7FAFD2046BDE81040FFF7F5BD10BD1B
:1029000038B5037B04460D46DB0703D50021074895
:1029100031F076F8016880682944FFF7D8FD236814
:10292000A0601D441844256038BD00BF44B1036059
:1029300038B504460D46FFF749FFD4E901301D4480
:102940001844656038BDD0E9002310B59A420446AA
:1029500002D10121FFF7D4FF0021D4E90132D15483
:10296000A06810BD10B50C460121FFF7E1FF04700F
:1029700010BD7F29F8B50C46CEB204D80121FFF76F
:10298000D7FF0670F8BD06F03F06B1F5006FC1F342
:10299000871546F0800607D265F03F050221FFF754
:1029A000C7FF46700570EDE705F03F05B1F5803FC4
:1029B000C1F3073745F0800508D267F01F070321F0
:1029C000FFF7B6FF457007708670DBE7A40C07F0D1
:1029D0003F07042164F00F0467F07F07FFF7A8FFAB
:1029E000857004704770C670CCE713B5044608467E
:1029F000019124F0A8FA01990246204602B0BDE8F0
:102A00001040FFF7FFBE10B51446FFF70DFF04702E
:102A100010BD10B51446FFF707FF047010BD4368E2
:102A20008B422CBF591A00214160704738B50446CB
:102A30001546084662688A4203D929448A4201D869
:102A4000606038BDA368521A1844194424F02FFA64
:102A50006268521B6260F4E70846114630F06CBFB2
:102A600037B505460846019124F06DFA044620B1B9
:102A700002466B68019928689847204603B030BD2C
:102A80002DE9F74F89469DF8301017460D9A11F041
:102A9000DF0F0646A2EB07023DD030290CA82549DE
:102AA00013BF80464FF0100A88464FF0010A13F01A
:102AB000800535D002EBD2746510A2EB6404002DC2
:102AC00035DDAB46DA45524673684146A8BF5A46E3
:102AD000306801929847019AABEB020BBBF1000FF3
:102AE000F0DC2FB13D4473683A4649463068984758
:102AF000002C0CDD2544A245574673684146A8BF0B
:102B000027463068E41B3A469847002CF3DC2846F9
:102B100003B0BDE8F08FDFF820804FF0100AC6E761
:102B200013F0010401D11546C9E71446D9E7002581
:102B3000D7E700BF258A0360148A03602DE9F043BC
:102B4000064689B00020119D9DF84880139F8DF89E
:102B50000F000AB381421ADA2D2249428DF80F2064
:102B6000109A08AC0DF11009A2F10A008E46B1FBD3
:102B7000F3FC03FB1C126146092A8CBF1218303289
:102B800004F8012D4C450ED07345EFD90BE0A80792
:102B900027D52B228DF80F200029E1D130230DF10C
:102BA0001F048DF81F3015F040099DF80F301CD020
:102BB00023B301222B460DF10F013046013FCDE931
:102BC0000082FFF75DFF814608AA2B46214630466A
:102BD000121BCDE90087FFF753FF484409B0BDE859
:102BE000F0836A07D8D52022D4E7002BECD004AAC2
:102BF0009442E9D904F8013C013CE5E79946E3E752
:102C00002DE9F04F93B01E4681460C469DF8743076
:102C100092461C9D0793CB07DDE91E870BD48807DE
:102C200003D109687E4B994205D020460BF000F98C
:102C3000400040F0010415F0810306D1079A302AC4
:102C400003D1B845B8BFB8461F4620460DF1280B42
:102C50000EF0FEF9002818DBA90712D52B230DF181
:102C600029018DF82830EB06F6B21DD5BAF1020F16
:102C70000DD130200B4603F8020B701C487019462A
:102C800012E06A0701D52023E9E75946EBE7BAF1DC
:102C9000080F61D1A8054FF030030B7049BF06F152
:102CA0000E0301314B700231002315F0200FA1EB10
:102CB0000B020EA80B700CBF19462C21012F069297
:102CC000C8BF45F040050B9010208DF8273015F057
:102CD0004002CDE90C030592CDE9026146D00DAA70
:102CE0000CA90BA8CDE900A323460EF08DF80378BC
:102CF00082462D2B06D18DF8273000F1010A0D9B5D
:102D0000013B0D93012F40F384800D9C059BBC4239
:102D1000B8BF3C462BB19DF8273003B10134069B68
:102D20001C44A0452DDD15F00103A8EB040429D1B6
:102D300026461C4625F001054EB12023019639494F
:102D40004846009300231A46FFF79AFE0646059B65
:102D5000D3B9302307933AE0BAF1100FA4D1302051
:102D60000B4603F8020B06F1170087E70AAB0DAA22
:102D70000CA90BA8CDE900A323460EF045F8824626
:102D8000C0E700240026D5E7302307939DF82730BD
:102D90005BB1002301220DF12701484608F1FF38FD
:102DA000CDE90032FFF76CFE0644069B63B10023B9
:102DB000012259464846CDE90032069AFFF760FEE7
:102DC000069B0644A8EB0308012FD8BF4746079B84
:102DD00051460D9A484600932B460197FFF750FE47
:102DE00006444CB120230F49484601940093002328
:102DF0001A46FFF745FE06440B980EAB984201D0E9
:102E0000FFF772FB304613B0BDE8F08F0024264672
:102E1000BCE7059B002BF9D11C461E464746D6E76A
:102E200094B803606A0904602DE9F04316468BB03C
:102E300007469846B207DDF8489040D416F0040FD4
:102E40000CBF002320230A4600932021139B02A8D5
:102E500009F042FAF305044610D5431C1F2B0DD888
:102E600000F1280200210DEB0204252204F8202C99
:102E700003F128021C466A4402F8201C16F04005A3
:102E80001FD09DF808302F2B4FF000031BD80122D4
:102E900002A9384609F1FF39013CCDE90032FFF7BC
:102EA000EFFD0DF109010546334622463846CDE9CE
:102EB0000089FFF7E5FD28440BB0BDE8F0832B2324
:102EC000C1E702A9F0E702A91D46EDE72DE9F04FA1
:102ED000074689B014460025DFF88C820B461E4653
:102EE00013F8012B92B9B14213D30B78002B00F0E9
:102EF0003481013120234FF0000A084610F8012BDD
:102F000082B94FF000094FF00A0C2AE0252AE6D1D9
:102F1000E9E7A6EB01097B6838684A464D449847C3
:102F20003146E2E72D2A03D14AF0010A0146E4E7DF
:102F30002B2A02D14AF0020AF8E7202A02D14AF0ED
:102F4000040AF3E7212A02D14AF0080AEEE7302A00
:102F5000D7D14AF0400A1346E8E70CFB0929A9F14A
:102F600030090E4611F8012BA2F130000928F4D9DE
:102F70002E2A33D172782A2A0FD00A464FF00A0C33
:102F80000021164612F801BBABF13000092807D822
:102F90000CFB01BBABF13001F3E7023654F8041B24
:102FA00021EAE17B32786C2A08BF013631780029AA
:102FB00000F0D38078295FD8572912D8472959D8EB
:102FC000442959D907345246384624F00704CDE93C
:102FD000009BB4EC020BFFF727FF5FE04FF0FF3BD5
:102FE000E0E7A1F15802202A46D801A050F822F0CB
:102FF0002B310060793000607930006079300060FA
:10300000793000607930006079300060793000609C
:10301000793000607930006087300060A93000604E
:103020000F310060C52F0060C52F0060C52F006004
:10303000793000607930006079300060793000606C
:10304000793000607930006079300060793000605C
:103050004B310060BD30006079300060E7300060C7
:10306000793000602B310060793000607930006089
:103070002B310060502968D07B68012231463868C6
:10308000013598470BE054F8042BCDE9003953463D
:103090003AB1042233493846FFF7F2FC0544711C6B
:1030A0001CE705224146F6E754F8042B07A98DF8E2
:1030B0001C200122CDE900395346ECE707A954F85A
:1030C000040B0493FFF717FBBBF1FF3F0146049B82
:1030D00004D0079A934538BFCDF81CB0079ACDE9C4
:1030E00000395346D7E754F8041B0593084604916A
:1030F00023F029FFBBF1FF3F0246DDE9041302D0B4
:10310000584528BF5A46CDE900395346C3E7CDE9B3
:10311000023961230122CDF804A000930A2354F858
:10312000041B3846FFF70AFDB8E74A1C21F00F01DF
:10313000CDF804A002F006020F39CDE90239C9B278
:10314000C2F1100300910022E9E7CDE902396123C1
:10315000CDF804A000931023F5E7284609B0BDE898
:10316000F08F00BF008A0360058A03600EB403B5C8
:1031700003AA52F8041B0192FFF7A8FE02B05DF803
:1031800004EB03B0704790F9001002460378002961
:1031900001DB1846704703F07F004023184206D138
:1031A00012F8013F03F0C001802904D0704720EAE3
:1031B00003005B08F2E703F03F0343EA8010EFE708
:1031C000431C18460133027802F0C002802AF8D06E
:1031D000704703460020994200D8704711F8012D2E
:1031E00002F0C002802A18BF0130F4E70144034610
:1031F000002099421A4600D870471278013302F035
:10320000C002802A18BF0130F3E700007F289DBF6D
:10321000024B185CC0F3400000207047368A036000
:103220007F289DBF024B185CC0F3C0000020704790
:10323000368A03607F289DBF024B185CC0F3800074
:1032400000207047368A03607F289DBF024B185CC0
:10325000C0F3801000207047368A03607F2809D8A9
:10326000064B1B5C13F00C0F06D1A0F15F03584214
:10327000584170470020704701207047368A03602C
:103280007F289DBF024B185CC0F3001000207047E0
:10329000368A03607F289DBF024B185CC0F3401044
:1032A00000207047368A036008B50246FFF7E8FF42
:1032B00000B12032104608BD08B50246FFF7EAFF0C
:1032C00000B1203A104608BD3038092884BF20F0EC
:1032D00020000738704701440246002010B5E5245D
:1032E000914203D8B0FA80F0400917E012F8013B90
:1032F00030B103F0C003802B11D10138C0B2EFE729
:10330000BF2B09D9F72B09D8D80800F0060044FADA
:1033100000F000F00300E3E71B06E1D510BD00203C
:10332000FCE7023981420B4603D31A880239002A8E
:10333000F8D00233181A40107047B2EB131F70B563
:1033400005464FEA131615D9901B03F00F0401EB45
:10335000460102460E46012A31F8023B18BF336887
:10336000013A23FA04F39BB225F8023BF2D103B9E8
:10337000013870BD0020FCE7F0B5059F0024D21B8A
:103380002646A74210D100EB470C002401EB470171
:10339000A24214D10CEB42031EB1012102332CF8DE
:1033A0001210181A4010F0BD31F8145033F814C040
:1033B0006544354420F814502E0C0134E1E731F80F
:1033C000145035442CF814502E0C0134E0E7F0B4BE
:1033D000049F0025D21B2C46AF420BD100EB4706C1
:1033E000002301EB47059A420FD106EB4201F0BCE6
:1033F000FFF797BF31F81560344433F81560A41B0C
:1034000020F8154024140135E6E735F813100C4474
:1034100026F8134024140133E5E7022938B538BFF4
:103420000221044680680D4618B12368B1EB930F62
:1034300007D96900FFF74BF82368A06065F39F0385
:10344000236038BD38B504460C20FFF725F8054643
:1034500023682278C3F39D0023F0030302F00102E6
:10346000400013432B6063686B60FFF715F8A8609A
:103470002268A168C2F39D02520023F0F1FC2846A5
:1034800038BD994210B511D313D800EB410002EBBF
:10349000410209B9084610BD30F8023D32F8024D2C
:1034A0001B1B002B02DB04D10139F2E74FF0FF3088
:1034B000F1E70120EFE710B5044638B18068FFF767
:1034C00013F82046BDE81040FFF70EB810BD38B520
:1034D0000C4602210546FFF7A0FF002C2B78B5BF54
:1034E000012200226142214662F3000301222B7077
:1034F000AB68023B23F8021F090C104602F10102DF
:10350000F8D1686038BD0023C0E90033836070479C
:1035100028B103789B0702D48068FEF7E5BF7047A7
:1035200038B505460C464968FFF777FF22782B78B7
:10353000A86862F300032B706368A1686B6062681F
:10354000BDE83840520023F08BBC09B94160704798
:10355000FFF7BDBF08B5FFF7D6FFBDE80840FFF78E
:10356000F4BF920042F002020260002210B4C0E9EF
:1035700001215DF8044B1946FFF7E7BFF8B5144683
:103580001D469DF8187004210646FFF746FF2246A7
:103590002B4627B1002D0CDA624265EB45033178EA
:1035A00067F3000131700021716052EA030102D11A
:1035B000F8BD0027F3E7D6E901104C1C746020F831
:1035C0001120120C42EA03421B0CEEE72DE9F843EE
:1035D00053EC102B1E460378074610EE105AF20FDC
:1035E00062F30003037047F6F07313EA164203D147
:1035F00000237B60BDE8F8839A42F9D0C6F30A52F3
:10360000A2F2FF34002CF3DB04D10121BDE8F84322
:10361000FFF75DBFA2F2EF38C6F31306B8F1000F53
:1036200046F48016B8BFA2F57878332C4FEA2818F4
:103630003FDCC4F13402A4F11403C4F1140406FA0B
:1036400003F3D54026FA04F4D6401D432543002455
:10365000A14641463846FFF7E0FEC7F80480B9F1BD
:10366000000F05D04FEA49020021B86823F037FC6B
:103670009CB105FA04F2BB6823F81920C4F11003C9
:10368000103409F10109A3F12002DD4006FA04F427
:1036900026FA02F2DE40254315434B469845A9D051
:1036A000BA6822F813502D0C013345EA0645360C52
:1036B000F4E7A2F233430C34002B04F00F04B8BF3C
:1036C000A2F224434FEA2319C3E72DE9F8438F18E8
:1036D000C2F35B0204460D46511C9846089EFFF754
:1036E0009CFE237829461FFA86FC68F300032370AA
:1036F00000236360B942084602D3401BBDE8F8834B
:1037000002780131A2F13003092B05D9A2F141035E
:10371000192B14D8A2F13703B342EED2D4E901E059
:10372000F0468146B8F1000F10D100EB4E0213B104
:10373000023220F81E30121A52106260DAE7A2F14B
:103740006103192BD9D8A2F15703E5E7B9F8002096
:1037500008F1FF3802FB0C3329F8023B1B0CE1E7B0
:10376000F8B5044615461E46C1B1531E4FF0FF374B
:103770001E44E90020460F310909FFF74EFE237869
:1037800000216FF30003616023704DB9D4E901108B
:1037900000EB4101FFF7C5FD6060F8BD0127E8E7D8
:1037A00000230F290ADC3278013D3E4402FA01F27F
:1037B00001F1080143EA02039BB2F2D162681039B9
:1037C000501C6060A06820F81230DEE770B54668D3
:1037D00004460EB9486880B10B78257803F00103E0
:1037E00005F00100181A08D1A068D1E9013231466C
:1037F000FFF747FEEB0748BF404270BD884210B557
:10380000044601D0FFF78CFE23786FF3000323708A
:1038100010BD884210B5044601D0FFF781FE237821
:10382000C3F30002C2F1010262F30003237010BD72
:1038300088421FB5044601D0FFF772FE626862B984
:1038400001212046FFF7E9FD0123A2681380636090
:10385000237843F00103237010E02378D9070FD5B4
:103860006FF30003A168237001230846ADF80E3002
:1038700000930DF10E03FFF7AAFD606004B010BDC8
:10388000511C2046FFF7C9FD0123D4E90121ADF801
:103890000E30009308460DF10E03FFF76DFD6060DA
:1038A000D6E72DE9F8434B6805460E46144603B1AA
:1038B0002AB931462846BDE8F843FFF731BE02F188
:1038C0000F014FEA111803EB1111FFF7A6FD14F0D9
:1038D0000F04A8684FF0000C08BF1024D6E901318E
:1038E000C4F1100408EB030701EB430E194607F17E
:1038F0000042013A00EB42008146E9B96FF0010253
:103900002CFA04F45343C218C452C8F1010302EB69
:10391000430308F1FF321846520023F0E0FA831EF9
:1039200017B133F817209AB12B786F60327862F3B1
:1039300000032B70BDE8F8833EF8022D013942EAFE
:103940000C0C2CFA04F24FEA0C4C29F80229D4E7AB
:10395000013FE5E7F0B50E46496885B005461446D7
:1039600001B132B93146284605B0BDE8F040FFF755
:10397000D7BDFFF752FD2346A868D6E90121FFF71E
:10398000DCFC2B786860327862F300032B70DB0775
:103990002DD5002322097168ADF80E30994201D06F
:1039A00093420FD1914222D9B36804F00F0433F847
:1039B0001220012303FA04F4013C224213D0ADF893
:1039C0000E3008E0B76837F8137057B10123914201
:1039D000ADF80E30E8D8A968012350B90B806B60B0
:1039E00005E00133DAE7BDF80E30002BF3D105B066
:1039F000F0BD0246009308460DF10E03FFF7BCFC34
:103A00006860F4E773B50C4615460646D2E9013204
:103A1000D1E90110FFF735FD0028BEBF23462C4633
:103A20001D46237861682A785340DB0713D401319F
:103A30003046FFF7F2FC6B68B0680093AB68D4E9DE
:103A40000121FFF799FC33787060227862F300035C
:103A5000337002B070BD3046FFF7DFFC6B68B068B2
:103A60000093AB68D4E90121FFF7B1FCEBE7F7B5B0
:103A70000C4615460646D2E90132D1E90110FFF79E
:103A800000FD0028BDBF23462C4601270027B8BFF4
:103A90001D46237861682A785340DB0718D5013129
:103AA0003046FFF7BAFC6B68B0680093AB68D4E9A6
:103AB0000121FFF761FC7060237803F001030FB16F
:103AC00083F00103327863F30002327003B0F0BD7B
:103AD0003046FFF7A2FC6B68B0680093AB68D4E98E
:103AE0000121FFF774FCE6E72DE9F04F16464A681E
:103AF0000C4685B0736805469A423EBF34460B4675
:103B00001E4623786168DA0756BF3378012303F035
:103B100001031944FFF781FCB3687268367800939B
:103B2000A868D4E901E924788246A2EB0E02A9F143
:103B3000020984EA060106F001060392CB07C6F1EA
:103B40000008B44654BF04F0010B4FF0000B04F022
:103B500001041FFA88F8CBF10001274689B20191D0
:103B6000614289B20291714699B900EB4E01BBF1F5
:103B7000000F03D00123023120F81E30FFF7D1FBE4
:103B800034402B78686064F300032B7005B0BDE807
:103B9000F08F39F8022F0139029B5A40039B1744DA
:103BA0005A18914229BF009B424633F8022B82EA01
:103BB000080228BF0093019B944407EA0C024FEAD5
:103BC0001C4C3F0C5A401BFA82F24FEA124B2AF867
:103BD000022BC9E72DE9F04F16464A680C4685B01E
:103BE000736805469A423EBF34460B461E4623780C
:103BF0006168DB0756BF3378012303F001031944E2
:103C0000FFF70BFCA868D4E901A72478A7F1020804
:103C1000574614F0010F04F00104009018BF012270
:103C2000A446D6E901B3367808BF06F0010206F0D3
:103C300001065142C6F10009B64689B21FFA89F958
:103C40000191614289B20291ABEB0A01039167B91C
:103C500000EB4A013443FFF764FB2B78686064F3A0
:103C600000032B7005B0BDE8F08F38F802BF013FAC
:103C700002998BEA010B0399DC4401EB070B0199D4
:103C80005F452ABF33F802BBCB468BEA090BDE4403
:103C90004CEA0E0B4FEA1E4E4FEA1C4C8BEA010B0E
:103CA000009912FA8BF221F8022B120C0091CEE748
:103CB0002DE9F74F15464A680C4606466B684FF6E5
:103CC000FF7B9A423EBF2C460B461D462378616817
:103CD000DB0756BF2B78012303F001031944FFF7DC
:103CE0009CFB23782A78A16883EA020CD4F804802C
:103CF000B068DB43D243A1F1020A69680CF0010C01
:103D0000AF6803F00103A1EB080102F00102C6460F
:103D100081460191BEF1000F19D100EB4801BCF1C1
:103D2000000F03D00123023120F81830FFF7F9FA11
:103D3000706023782A78C3F30003C2F30002534073
:103D4000327863F30002327003B0BDE8F08F3AF8C6
:103D5000021F0EF1FF3E59440B44019971448E45F8
:103D60002ABF37F8021B4FF6FF7159440A4483EA11
:103D70000201120C1B0C1CFA81FC29F802CB4FEA41
:103D80001C4CC7E74B682DE9F04F064685B00D4641
:103D900014460BB1536823B90023736005B0BDE826
:103DA000F08F81422ED1FFF74DFBB4420546074606
:103DB00000D104466368304669681944FFF72DFB5B
:103DC00032680021B068C2F39D02520023F087F8E8
:103DD000AB68D6F808E00022D5F804900193F446C9
:103DE000A3680EEB49081146029363680393039B93
:103DF000934231D0ACF10200DDF804B00023CDF8DD
:103E0000009018E0824204D1FFF71CFB04460746ED
:103E1000D0E70027CEE730F802AF53443BF802ABBF
:103E20001946029B33F8123003FB0A1300990380F2
:103E300001391B0C009100990029ECD14146881CE6
:103E400013B10146A8F80030A1EB0E010CF1020CF1
:103E5000013280464910CAE77160384622782B78D3
:103E60005340327863F30002327005B0BDE8F04F82
:103E7000FFF721BB4B6870B50646144613B11378A3
:103E8000DA0702D50023736070BD636823B901218E
:103E9000BDE87040FFF71BBB0846FFF7D3FA0546A5
:103EA0002046FFF7CFFA012104463046FFF70FFB0B
:103EB000636883B1A3681B88DB0704D52A463146B3
:103EC0003046FFF75FFF0123D4E901210846FFF7E1
:103ED00034FA606038B92846FFF7EDFA2046BDE8AD
:103EE0007040FFF7E8BA2A4629462846FFF74AFFFE
:103EF000DEE72DE9F04F0D4651688FB09046013155
:103F000006460293FFF789FAD8F80420002400211E
:103F1000B0680132520022F0E2FF7460D8F8041059
:103F200028460131FFF779FA41462846FFF7F8FAAB
:103F3000029BAF68D5F8049038464946D3E9013A68
:103F400001935246B3680393019BFFF79AFA002846
:103F500023D10123039A686013807360029A98F852
:103F6000003012785340DB0714D5337843F0010357
:103F700033706B6873B14FF0FF310BA8FFF7EAFAAB
:103F80000BAA31463046FFF73DFD029A29462846E6
:103F9000FFF738FD0FB0BDE8F08F01DA7460DDE7A0
:103FA000019B03F10042013A4FEA420E3AF8123007
:103FB000180404F1010153D5A3B2002107EB490B0A
:103FC00009F1010027F81910BC4600930BF1020912
:103FD000C3F1100368600493CC4545D33AF812202E
:103FE000009B02FA03F30493019B012B0AD90AEB0D
:103FF0000E02009B32F8022CC3F11001CA40049952
:1040000011430491019BAAF1020AC01A039B70603C
:1040100000F10040013803EB400306930EF1020368
:1040200009936B680593059A019B934229D302F18A
:10403000004B009B00200BF1FF3BC3F1100407EB8A
:104040004B0B5F4573D96FF0004173682BB15A1861
:10405000039830F81220002A74D06FF0004176E007
:104060005B000C469BB2A3E7BCF80040009B04FA3F
:1040700003F31943049B2CF8021B24FA03F189B2C1
:10408000AAE7BBF8001000203BF8022C049B8646F0
:1040900042EA0142B2FBF3F2099BABEB03031C467D
:1040A000CDE9073AA3450ED8BBF800100844002814
:1040B00038D1069BABF1020B23F802290693059B2E
:1040C0005A1E6A60ADE7089BB4F8009033F8021FEF
:1040D00019FA80F90893009B994041EA1E4E1FFA95
:1040E0008EF151431FFA81FC090CA9EB0C0CC1EBBA
:1040F000204124F802CB01EB2C40D3E739F802CF62
:10410000009B0CFA03FC4CEA1E4EB4F800C011FAF6
:104110008EF1614424F8021B090CA345EED8084433
:10412000013AC4E70021D146079C8E46F5E7BBF86B
:104130000020009B42FA03F1A240014390B22BF809
:1041400002197EE7013B73607FE7013B6B606B68A0
:10415000002B3FF403AF5A1837F81220002AF4D08E
:10416000FCE6F0B51F464B6885B006460C46154682
:104170004BB11378DA0706D47B68012B07D1BB68F3
:104180001B88012B03D10023736005B0F0BD012112
:104190003046FFF79CF96B68002BF6D02046FFF7FE
:1041A00051F904462846FFF74DF9054601A8FFF7E7
:1041B000AAF96B68B3B1AB681B88DB070AD5224646
:1041C00031463046FFF7DEFD3B463246314601A818
:1041D000FFF78FFE0123D5E901210846FFF7ADF86F
:1041E000686048B901A8FFF793F92046FFF763F923
:1041F0002846FFF760F9C8E7224621462046FFF728
:10420000C1FD3B462246214601A8FFF772FED0E7DA
:10421000D0E901210346002001EB420210B5914292
:1042200004D31B78DB0748BF404210BD32F8024D73
:1042300044EA0040F3E730B5D0E90124002304EB61
:104240004202944206D302780120D20748BF5B4263
:104250000B6030BDB3F5004F04D232F8025D45EA81
:104260000343EEE70020F4E72DE9F0470546D1B11E
:10427000981800264FF0010C03EB02093746D5E9E8
:104280000184A4F1020EB8F1000F0ED1B9B3C21A25
:1042900018462B7813F0010FBDE8F04714BFFF213B
:1042A000002122F01CBE1846E3E73EF8024F10370B
:1042B00044EA064695F800A0072F0AF0010A02DC3E
:1042C00008F1FF38DFE7B4B2BAF1000F06D0E443DB
:1042D0005CFA84FC1FFA8CF4CCF3072CE4B249B1ED
:1042E00000F1FF3A00F8014C53450BD0083F360A65
:1042F0005046DFE782460AF8014BCA45F5E713440A
:104300001A1AC6E7BDE8F087D0E901329FED0C0B21
:104310009FED0D6B02EB43039A4205D30378DB0755
:1043200048BFB1EE400B704733F8021D07EE101A7C
:10433000B8EEC77B00EE067BB0EE470BECE700BFA4
:104340000000000000000000000000000000F0403D
:104350002DE9F84F44688046894615469B469DF8EE
:1043600028A00B9E9CB982B1551E334615F8011F3B
:10437000184639B930230370002300F8013F801B31
:10438000BDE8F88F03F8011BF0E73046F2E7640060
:10439000ABF13A0B2046FEF77FF807462246D8F8E5
:1043A000081022F05DFD314632463819A0F1020CAA
:1043B00000236745644639D930331446392B88BF0A
:1043C0005B4404F8013B3B4698429C4638D8BAF11E
:1043D000000F0AD00123A4EB010CBCF1030F02BFB4
:1043E000941C82F801A02146F3B13846FEF77CF810
:1043F0005DB1284622F0A7FD2A18611E1346AB4284
:1044000029D8954288BF0020044498F80030DB0783
:1044100044BF2D2304F8013B3346621E9A421FD845
:104420000023A01B2370ABE72246BFE7248844EAA1
:104430000343B3FBF9F409FB14332CF80249B8E742
:10444000BCF800C00233BCF1000FBDD0BAF1000FC0
:10445000EAD00023BFE713F8017D01F8017FCEE722
:104460001978107803F8010B02F80119D6E7D0E9A2
:10447000023293423DBF5A1C826018784FF0FF30E1
:104480007047036810B5044613B14068FEF72CF876
:104490002046BDE81040FEF727B80000F8B50C46EE
:1044A0001F46164605461020FDF7F6FF054B8460B3
:1044B000C0E900743444C4606B60034B2860AB6097
:1044C000F8BD00BF6F4400608344006002690A2A9F
:1044D00010B5044635D1836A013383620123A26992
:1044E000E36263696261226F2361002A31D0616EE9
:1044F0008A423BBF501CA16E0022206738BF8A5CF5
:10450000A2613BB9E26963662261226A2367626144
:10451000626AA26163690D2B08D10A22A3699342E2
:10452000626103D1D4E901039847A061A369013313
:1045300006D163695A1C03D00A2B1CBF0A23A3614E
:1045400010BDC36A092A04BF073323F007030133F0
:10455000C5E7D4E901039847A061DBE70369272B8E
:104560002BD0222B29D0A3F1620113291ED8174A80
:10457000CA40D2071AD54269272A1ED0222A1CD047
:10458000722B1CD1662A06D18269272A15D0222ACD
:1045900013D0722B15D14369622B0CD18069272867
:1045A0000BD0A0F12203584258417047662BF0D13E
:1045B0004269722AE8D00020704701207047662BBC
:1045C000F6D0622BF7D14369722BE6E711000900A0
:1045D00070B504460D4600262069431C01D13046C3
:1045E00070BD0A2808D115B1636B002BF7D02046A7
:1045F0000126FFF76BFFEFE7FEF708FE18B1204634
:10460000FFF764FFE8E72369232B08D12046FFF773
:104610005DFF23695A1CDFD00A2BF7D1DCE75C2B46
:10462000DDD163690A2BDAD12046FFF74FFFE6E7B9
:10463000436E2DE9F04F04462DED028B85B0A3B1FA
:10464000036F93B929216030FEF78CF92369E36188
:1046500063692362A3696362A36E1A7822615A7840
:1046600062619B78A3610323236700212046616573
:10467000FFF7AEFFA36AE56A6364236BA564002BB2
:1046800001930ADA019F0823013784F84C3027632D
:1046900005B0BDEC028BBDE8F08F05D0072384F890
:1046A0004C30019B5F1EF2E7002834D0636B93BB54
:1046B00006236FF00042013D84F84C30D4E90F30FE
:1046C000991830F811108D42E2D019D9A16B8B42A4
:1046D00007D308314900FDF7FAFEA36B20640833C5
:1046E000A363D4E90F32591CE16322F81350236B02
:1046F00001332363CCE7013BE363236B013B23637B
:10470000E36B991830F811108D42F4D3C0D0022316
:1047100084F84C30BCE725696A1C01D10023F7E717
:104720002046FFF71BFF8146002800F0A7810023E9
:1047300084F84C302369752B51D0622B07D1636903
:10474000722B51D1C84602260D23002512E0722B90
:1047500006D16369622BF5D0662B49D10523D7E7D3
:10476000662B49D16369722BF8D04D4601260C2384
:104770004FF0000894F84C20002A3FD184F84C30C8
:104780003EB12046FFF7A2FE022E02D12046FFF7DF
:104790009DFE23692046222B14BF4FF0270B4FF0BC
:1047A000220BFFF793FE23695B452AD163699B4582
:1047B00027D120464FF0030AFFF788FE2046FFF777
:1047C00085FE25B1AB4904F16000FEF70EF904F156
:1047D0006003002704F1500608EE103A1EE001269F
:1047E00000250C23A846C5E701260D230025BFE7B9
:1047F000C84601260C23A8E7019EF1E79A42BFD0E4
:1048000046E74FF0010ADCE7934533D1594630467D
:104810000137FEF7AEF82046FFF758FE2269511C1B
:1048200000F02181BAF1010F02D10A2A00F01B81A8
:104830005745E9D3394604F15000FEF7F0F801215D
:104840002046FFF7C5FE2046FFF788FE00287FF4CC
:1048500071AF1DE72046FFF739FE21697B291ED184
:104860003046FEF77FF82046FFF730FE7B213046CA
:10487000FEF778F821690DB17B29EBD05C2940F077
:10488000ED8020460291FFF721FE27690299B8F1D9
:10489000000F2AD03046FEF76CF83946BDE0676E4F
:1048A00021694B1C03D03A2901D07D2914D1D4E9C8
:1048B0001921881810F8010C3D2807D1D21B394462
:1048C0003046FDF79FFF636E013B63662C2118EEB7
:1048D000100AFEF747F8C9E718EE100AC9B2FEF74A
:1048E00041F82046FFF7F2FDDAE7782F06D85B2F74
:1048F0000BD8222F72D053D80A2F4FD0A7F13001F6
:10490000072900F2A58003279BE0A7F15C021C2A7F
:10491000F4D801A353F822F0DD490060FD4800609F
:10492000FD480060FD480060FD4800608D49006062
:10493000B9490060FD480060FD480060FD48006026
:10494000C9490060FD480060FD480060FD48006006
:10495000FD480060FD480060FD480060FD480060C3
:10496000C1490060FD480060FD480060FD480060EE
:10497000B5490060FD480060BD490060CD49006058
:10498000C5490060FD4800602D4A0060072194F889
:104990004C300C2B5ED13046FDF7EBFF00273AE799
:1049A000552F13D0AAD8272F18D04E2FA6D1324872
:1049B0002EF0EEFF0D21EAE70821E8E70921E6E7FE
:1049C0000A21E4E70B21E2E70C21E0E794F84C2010
:1049D0000D2A05D15C213046FDF7CBFF3946D6E7DD
:1049E000752F0CBF04270827002114E020460291F0
:1049F000FFF76CFD226910460392FEF725FC0028A4
:104A000000F04C810299039A090110460291FEF7C9
:104A10005BFC02990144013FE8D2481CBED0B1F5CD
:104A2000881FB4D3012384F84C30B7E70227DBE7B3
:104A300020460291FFF74AFD22690299303A02EBC3
:104A4000C1016269303A072AE7D8013FF0D1E4E7B3
:104A50005C211FE7FF29E5D80D2BE3D1C9B2304611
:104A6000FDF780FF9AE757453CBF032284F84C20AE
:104A7000E0E600BFFB8A0360048B03602846FEF774
:104A8000CFFB054620691DB95F2801D07F283ED99C
:104A9000092304F15005C1B284F84C302846FDF7D3
:104AA00061FF2046FFF712FD2069421C1BD12846FA
:104AB0007D4FFDF748FF0025064657F8041B30469A
:104AC00022F048FA00281CD10F35EDB2122D84F8DF
:104AD0004C507FF4DDAD754BD3F83833002B0CBF51
:104AE00011230F2314E6FEF79BFB40B920695F28D2
:104AF00005D07F2803D8FEF79DFB0028D7D0217C66
:104B0000CCE7FFF6C5AD0135242DD6D1C0E5FEF7C3
:104B100091FB68B321692E2935D10B2384F84C30E1
:104B200004F150060B273046FDF723FF2046FFF720
:104B3000CDFC2069431C3FF4ABAD002D39D120F0F2
:104B40002003452B35D16521304684F84C70FDF7A4
:104B500010FF2046FFF7BAFC21692B2901D02D292F
:104B6000E7D13046FDF705FF2046FFF7AFFCE0E751
:104B700023692E2B04D16069FEF75CFB0028C9D1A4
:104B800000264B4D35E00A23302984F84C30C7D13C
:104B9000656945F02005A5F16203162B97BF454DC9
:104BA0000125DD40ED4398BF05F0010585F00105C5
:104BB000B6E7FEF735FB28B121692E290DD184F81F
:104BC0004C70CEE72069FEF735FB0028F4D123694D
:104BD0002E2BF1D05F2BC7D05AE521F020034A2BB2
:104BE000BFD1ECE7652F01D0632F00D1013501362D
:104BF00001352F7817B12369BB42F3D12046FFF767
:104C000065FC0FB9012383E5212F07D123693D2BD3
:104C1000F8D12046FFF75AFC3A2379E52E2F0FD121
:104C200023692E2B02D163692E2B01D05D236FE502
:104C30002046FFF74BFC2046FFF748FC0E2367E5B4
:104C40000335334615F8027C632F0FD0652F0DD046
:104C5000194AD35C03F0FD0284F84C30552A01D088
:104C6000592B13D1636B0133636311E515F8012CE4
:104C700001362169914207D12046FFF727FC3346D0
:104C8000652FE5D00235DDE7632FFAE7562B02D01A
:104C9000582A7FF4FDAC636B013BE5E70123014635
:104CA00084F84C3073E600BFC08B0360000800201E
:104CB000B68A036001204000938B03607FB501AD8D
:104CC0000646742085E80E00FDF7E6FB0446034621
:104CD00095E8070043F8046B002583E807000123EB
:104CE0006FF001021420C4E90A320A22C4E90C550B
:104CF000C4E90E23FDF7D0FB2021206404F150000D
:104D0000FDF7A9FD294604F16000FDF7A4FD236C21
:104D100020461D802561C4E90555FFF7D7FB2046D5
:104D2000FFF7D4FB2046FFF7D1FB2046FFF780FCBE
:104D3000A36C2046012B1CBF072384F84C3004B021
:104D400070BD30B585B0054601AC2046FFF7A6FB27
:104D5000284694E80E00FFF7B1FF05B030BD30B52E
:104D600085B00546014601AC20461AF003F92846F5
:104D7000FDF7A8FC94E80E00FFF7A0FF05B030BDDA
:104D800010B5044690B1C3684068984704F15000DC
:104D9000FDF790FD04F16000FDF78CFD206CFDF740
:104DA000A3FB2046BDE81040FDF79EBB10BD0000F0
:104DB0002DE9F041054630200E4690461F46FDF78E
:104DC00084FB072D04460570C660A0F8148001D04E
:104DD000012D10D1B268C2F30F12E28207F0F2FE89
:104DE00004232061202067832385FDF755FBE062C3
:104DF0002046BDE8F081014B5A5DEEE7D691036095
:104E000010B50446C06AFDF76FFB2046BDE81040B0
:104E1000FDF76ABB30B500220446458D954201D8A6
:104E2000002030BDE36A03EBC20043688B42F8D038
:104E30000132F3E770B504460D461646FFF7EAFF68
:104E4000C0B9238D628D9A4208D30633E06AD90037
:104E5000FDF73DFB238DE06206332385638DE26A17
:104E6000591C02EBC300618502F8336000234560E2
:104E70004370438070BD034618465B68002BFBD12E
:104E8000FFF7C8BFF8B544680E462CB9F8BD032B30
:104E9000FCD104230370F9E7254628466D68002DF0
:104EA000F4D077683946FFF7B5FF0028F5D00378CE
:104EB000033B022BEAD805253570002239462046EF
:104EC000FFF7B8FF0378002BE1D105706468F4E7C1
:104ED000436A5B8B012B1EBF03695B18036170473C
:104EE000C36A10B50446DB6F806A9847A38B626A79
:104EF0000133D18C9BB29942A38338BFD38410BDB8
:104F0000838B013B10B583830446C36A806AD3F860
:104F10008430984720460121BDE81040FFF7D8BFF4
:104F2000F7B51E4659B111F0030511D14F68FCB217
:104F300094420DD13F0A01F10804BD4201DB03B0E8
:104F4000F0BD54F8041B01350190B0470198F4E717
:104F5000334603B0BDE8F04018472DE9F04F044652
:104F60000D4698462DED028B08EE102A83B01BB13A
:104F70000B8B43F008030B8318EE103A2B84636A03
:104F80001A8B42F030021A831B78002B4CD1E36A53
:104F900018EE102A2946A06AD3F8B4604346B446F6
:104FA00003B0BDEC028BBDE8F04F6047DB6A03EB5A
:104FB000C60B13F83630043B012B1DD84FF0000907
:104FC00017E0EB6A03EBC90213F83930052B0ED159
:104FD000DBF804105368994209D1E36A0AF1010A27
:104FE000BBF802205B69A06A1F460023B84709F19D
:104FF00001096B8D4B45E4DC0136636A5A8DB24280
:10500000D4DCBAF1000FC2D0E36A5246CDF800807A
:105010002946D3F8B86018EE103AA06AB04703B03A
:10502000BDEC028BBDE8F08F0026B246E5E700003C
:10503000F8B50E4611461A4600230446857947699D
:10504000837143610E4BFFF76BFFA368BBB9E18A25
:1050500051B1A28A42B9E36AA06AD3F8A030984756
:10506000E36AA06A5B6C9847A38A3146E28A2046CD
:10507000FFF773FF003D676118BF0125A571F8BDFB
:10508000B1660060024B9D228968FFF749BF00BFEF
:10509000C1730060024B6B228968FFF741BF00BFFC
:1050A0005D570060C36A002110B50446D3F888300C
:1050B000806A9847E36AA06A10215B6B9847E36AAD
:1050C000A06A0121D3F8CC30984720460321BDE8DF
:1050D0001040FFF7FDBE38B5C36A04460022806A5F
:1050E0009B6C9847E36AA06AD3F8C05000231A4625
:1050F0001946A8472046BDE83840FFF7D3BFC36A2A
:10510000002289685B6D0909806A1847C36A89684B
:105110001B6C806A184710B5044608461146226881
:10512000FFF746FE636A436000238360236A0BB97E
:10513000206210BD1A469B68002BFBD19060F8E7F7
:1051400070B5437905460C46012B06D1436A0A46E1
:1051500002215B8BFFF7DFFF2061A26828462169EF
:105160004C23BDE87040FFF763BF70B5134642792A
:1051700005460C46012A04D10A460721FFF7CBFF5A
:10518000A061A66928464623E2683146FFF750FF32
:10519000F08A70BD2DE9F04F87B005460C4600AF90
:1051A00011B90121116015E011F003081BD10B7931
:1051B000682B07D1CB681B0913608C68002CF0D0DA
:1051C0004FF0010804F00F03022B0FD12109B8F1B1
:1051D000000FE7D0EB6A0022A86A1B6B98471C37C8
:1051E000BD46BDE8F08F4FF00008EBE7B8F1000FC7
:1051F00002D1A3681B091360636800264FEA1329D4
:1052000004F1080309F1FF3A9B46FB604E4526DB9B
:105210000AF107034FF0000B23F00703ADEB030D7A
:105220006B461E46CB4522DB51461846FDF7B8F9C2
:10523000EB6A014600221B6BA86A9847B8F1000F81
:10524000CDD00C3401264E45C9DA54F8041B002297
:10525000EB6A01360909A86A5B6D9847F3E75BF8CA
:10526000040B01360009FDF73CFA8244CEE7BBF19E
:10527000000F03D04FF02E0206F8012B7B6007F1E0
:105280001401FB680BF1010B53F8040B0009FB60E0
:10529000FDF731FA7A6901463046BA6021F0E0FD47
:1052A000BA687B681644BDE731B101F00303C268F8
:1052B000134304BF0B68C3607047000038B58368B0
:1052C0000D46044611464BB905480AF01DFD294616
:1052D000A0602046BDE83840FFF7E6BF38BD00BFFC
:1052E000F8B103602DE9F04F0E4641620021427192
:1052F0008DB00446016115463378072B05D0844AEA
:105300000DB0BDE8F04FFFF7D9BF012A06D0436BBF
:1053100000F108022946006B1B6898476379D6F8AC
:105320000C90032B10D10BAA462109F10C002EF092
:1053300027FB636B01460B9A9B68206B9847A36819
:10534000B083002B40F0B480D9F81010C1B101F047
:105350000F06022E10D10B09752B3DD006D83E2B1F
:105360003CD05E2B0DD06B4A2046C9E740F2AF42DD
:105370009342F8D1032604E0674A2046FFF79EFFD8
:105380000226D9F814304FF0000A0AAA192109A8F8
:1053900009932EF0F5FA0690069B9A4520D1637981
:1053A000012B15D9636B3146206B5B689847637995
:1053B000042B0DD10023606A03960293226B818B2C
:1053C000CDE9003105210069D2E9023207F014FC71
:1053D000A368002B6CD114E00026D2E70126D0E7A9
:1053E0000A9B4FEA8A0B53F82A100B79082B02D13B
:1053F0000AF1010AD0E7052B06D0484A2046FFF7FC
:105400005DFF0DB0BDE8F08FCB68002BF5D18B6848
:105410001A792C2AF1D19F6807F00F02022AECD1E9
:10542000DB680593002BE8D09807E6D11B79302B79
:10543000E3D1059B0BAAA4213F0903F108002EF03C
:105440009FFA40F2E63380469F421BD1012805D1E6
:105450000B9A136803F00F03022B04D0304A0A9B07
:1054600053F80B10CAE72169012D01F101032361F3
:1054700019D01268636B1209206BDB68984790B9EA
:10548000284AECE7B7F5507F16D1012803D10B9BD2
:105490001968CA0701D4244AE1E7012D03D0491055
:1054A000206B03F004FAA368002BA1D0DDF8149060
:1054B000D9F80030E360A4E740F279339F421CD171
:1054C000012804D90B9B196811F0010701D1174A73
:1054D000C5E7012DE7D049100B9B53F82720D307D0
:1054E00001D4134ABBE701375210206B079103F038
:1054F000E5F9B8450799EFD1D5E7012DD3D0636B16
:1055000002463946206BD3F810B00B9BD847CAE748
:10551000DD910360019203600E9203603692036096
:10552000599203607592036085920360A1920360B3
:10553000C6920360014AFFF7C1BE00BFE892036054
:105540000B79092B4FF6FF7370B508BF058B044626
:1055500018BF458B9D4202D1064AFFF7AFFEA18BD3
:10556000E28BE36A8A1AA06A29469B6FBDE8704005
:10557000184700BF0593036013B50446B9B101F0A5
:105580000F03022B0FD10A091046019208F096F87A
:105590000028019A05DA074907480AF04BFCA06089
:1055A000002002B010BD054AFFF788FEF8E7084664
:1055B000F7E700BF2593036024B3036015920360EF
:1055C00010B404460B46406A6279012A03D15DF8A3
:1055D000044BFFF72FBCE16A0246A06A14315DF864
:1055E000044B02F04BBC10B4426A044640790B46AF
:1055F000012804D110465DF8044B02F031BCE16A89
:10560000A06A1C315DF8044B02F038BC436A10B547
:1056100004465A8BFFF7A9FD01462046BDE810401D
:10562000FFF7E1BFF0B58D6885B004460E4605F082
:105630000F030E2B06D0002D30D0AB072ED12B79C7
:10564000652B1ED10295002503AA652102A82EF024
:1056500097F9039B002140F2DE5203EB8000984251
:1056600015D1F26840F22E439A4236D1636A1F7810
:10567000B7B1394A3146204605B0BDE8F040FFF7E2
:105680001DBE622B0AD1AB680293ED68DCE753F8CC
:10569000047B97420CBF01310331E0E70021E0E7D2
:1056A000E36AA06A9B6B9847E36A0521A06ADB6BFB
:1056B0009847E36A3A460121D3F8A030A06A984798
:1056C00003AA29462046FFF765FDE36A0222394610
:1056D0001B6BA06A984705B0F0BDE36A0027A06A7B
:1056E0009B6B984706F10C0002AA6A212EF048F93C
:1056F0000646B742D4E90A0311D1D3F8A0300022FC
:10570000314698472946002503AA2046FFF742FD67
:10571000B542D4E90A030BD11B6E9847DBE7029A26
:10572000DB6B52F827200137916809099847E0E7B9
:10573000029A1B6B52F825700122B9680909019180
:105740009847FB682BB9019920460135FFF74BFFBD
:10575000DEE71909F8E700BF37930360C36A37B57E
:1057600004460D469B6B0021806A9847E36AA06A55
:1057700010215B6B984701AA29462046FFF70AFDD6
:1057800001992046FFF72FFF03B030BD10B4426AE5
:10579000044640790B46012804D110465DF8044BBD
:1057A00002F05EBBE16AA06A24315DF8044B02F0AE
:1057B00065BB000037B504460D46002936D0CA0740
:1057C00007D5C36A49109B6BA06A03B0BDE830409F
:1057D00018478B0736D001F00F050B09062D09D0AD
:1057E0000A2D0FD0022D23D1194603B0BDE8304059
:1057F000FFF7E6BEC26A1946806AD26B03B0BDE805
:10580000304010474279042A03D0C36A06211B6C3A
:10581000DAE701A91846FCF76EFFE36AA46A01996A
:105820001D6C0DF08FFF01462046A84703B030BD28
:10583000062BFBD0C26AD9B2806A526B03B0BDE8B6
:1058400030401047C36A09681B69806A98472A7903
:10585000024B2946204653F82230B6E7F8950360FC
:105860008B072DE9F14F04460D46164611D001F085
:105870000F03022B16D1D7074FEA111104D401B040
:10588000BDE8F04FFFF7AFBE01B0BDE8F04FFFF746
:1058900097BE4968CBB22D2B7BD00BD8062B0DD0F1
:1058A0002C2B12D04E4A2946204601B0BDE8F04FBD
:1058B000FFF704BD2E2B7FD09D2BF3D1002EF1D10D
:1058C00005F10802090A20467BE0022A02D0A968F5
:1058D000FFF770FFEF68002FE4D017F00309E1D164
:1058E0007B68B846DAB28E2A0DD1022E4FEA132811
:1058F00005D007F1080A08F1FF3BD94511DB08F193
:10590000010857F8288098F80430312B24D1022E52
:105910000FD1E36AA06A9B6E9847E36A1B6D012171
:1059200015E05AF8041B204609F10109FFF742FF70
:10593000E3E7D8F808102046FFF73CFF012EE36AA2
:10594000ECD1DB6DA06A9847E36A00211B6DA06A69
:1059500001B0BDE8F04F1847322BA3D1012ED4E996
:105960000A030CD19B6D9847E36AD8F8081000220F
:105970005B6D0909A06A01B0BDE8F04F1847022E1F
:1059800001D15B6E9847E36A0122D8F808105B6D7D
:10599000EFE7AA68002A85D0002E83D15168090A52
:1059A000022907D1D3682BB1980703D11B79AC2BFF
:1059B0003FF478AF083286E7002A7FF473AFA96816
:1059C00021B901B0BDE8F04F00F00CB88E0703D14B
:1059D0000B790A46922BE1D005F10802012172E70A
:1059E000549303602DE9F84304460D46904601F1B7
:1059F000FF3900264FF0FF37B9F1FF3F0CD17B1C78
:105A000005D1E36A2946A06AD3F8AC30984700264E
:105A1000AE421DD1BDE8F88358F8261071B18A074F
:105A20000CD10B79222B09D101370BD1E36A374610
:105A30004A463146D3F8B030A06A9847013609F19A
:105A4000FF39D9E72046084ABDE8F843FFF736BCDE
:105A500058F82610B7424FF00002204608BF896868
:105A60000136FFF7FDFED3E76F9303602DE9F74F93
:105A700004460D4616461F4628462DF069FF20B104
:105A8000CEB9E36A3946DB6E4CE028462DF090FF34
:105A900008B186B1F5E7002D55D0AB0753D16B683F
:105AA0004FEA132BDBB21E2B1BD1F6B1083505EBE9
:105AB0008B0B5D450DD103B0BDE8F08F43465AF81E
:105AC000041B2046019209F10109FFF7CFFF019A5B
:105AD00019E03B46324655F8041B2046FFF7C6FF47
:105AE000E7E71F2B23D1002EE0D0D4F8108005F17A
:105AF000080A4FF0000986F0010208F10103236152
:105B00000BF1FF330093009B4B45D7DC0BF10101F8
:105B10003B463246204655F82110FFF7A7FFE36ABF
:105B20004146DB6AA06A03B0BDE8F04F1847202B5E
:105B300003D1AD6886F001069EE72D2B03D1AB683B
:105B4000002BA6D19CE729462046FFF733FEE36AE7
:105B50003A4631461B6FA06A03B0BDE8F04F1847C4
:105B60002DE9F04707691E4604460D46BB1C394621
:105B7000904607F101090361C36A806ADB6A9847AE
:105B8000E36A4946A06AD3F88C309847A968002296
:105B90002046FFF765FE2D69002D2DD14146204698
:105BA000FFF708FE636AE06A197806291DD1D0F86C
:105BB000CC302946A06A984720460121FFF788F992
:105BC000E36AA06A1B6E9847E36A3946A06ADB6EF7
:105BD0009847E36AA06A4946DB6A9847E36AA06A85
:105BE000D3F89030BDE8F0471847B200D0F8A8507D
:105BF000A06A0532A847E7E72B79AD2B07D1A96842
:105C00003B4600222046FFF731FFED68C4E7E96814
:105C10002046FFF7CFFDE36AA06A0121D3F8883060
:105C20009847731C424629462046FFF799FFCBE769
:105C30002DE9F041C36A0D46002604464271114623
:105C400006612A461B684562806A984706212046FD
:105C5000FFF73EF96779012F08BF6E62EE686EB1FB
:105C6000B2070BD133793F2B08D1B168FFF7A2FD02
:105C7000E36AA06AD3F8C43098472CE02B784BB97C
:105C800031462046FFF796FDE36A5B6B1021A06A60
:105C90009847EDE7072B24D1012F12D1002346228C
:105CA0002046A3715E4BF168FFF73AF96B8B032B2B
:105CB00007D131692046FFF75FFC2B8B43EA801048
:105CC000288320467169FFF775FDE36AA06A9B6827
:105CD00098470028D8D0E36AA06A5B68BDE8F04125
:105CE0001847022B1BD1E36A31681B69A06A9847E9
:105CF0006379012B07D100234C222046A371494B25
:105D0000B168FFF70DF9F1682046FFF753FD2B8BC3
:105D1000DB07ADD5E36AA06A1B6E9847B4E7033B87
:105D2000032B4FD8012FD6F80C8005D1032239461A
:105D3000606AFFF77FF8AF83E36A31681B69A06A86
:105D400098472B78032B24D1E36A0122D3F8A030A3
:105D50000021A06A98472B78062B28D1E36AA06A15
:105D60005B6C984701212046FFF72AFCE36AA06A92
:105D70005B6C9847E36AA06A5B6C98470023B26843
:105D800041462046FFF7ECFE2B78062B7FF470AFE0
:105D90007AE7042B04D1E36A0222D3F8A030D7E7D4
:105DA000052BD8D1E36A0322D3F8A030D0E72046F0
:105DB0000121FFF705FCE36A0121A06AD3F88830CE
:105DC0009847DBE7012F04D103220A212846FFF779
:105DD00031F817212046FFF7F3FB16212046FFF785
:105DE00002FCB168E36A0909A06ADB6B98471A21D3
:105DF0002046FFF7F8FB31692046FFF7DBFC0A215C
:105E00002846FFF707F80378032BE36A3FF43DAF1A
:105E10005D690A2142880023A06AA84728E700BFDD
:105E20000D7B0060157B0060426A38B5127804462D
:105E30000B46072A06D0022A04D0154ABDE838408E
:105E4000FFF73CBA9D6885B9E36A1021A06A5B6BD5
:105E50009847E36A0021A06AD3F8CC3098472046DF
:105E60000121BDE83840FFF733B8AB070BD12B79E0
:105E7000AF2B08D12046A968FFF79CFC2046BDE85F
:105E80003840FFF70FB929462046FFF793FCE0E7BB
:105E90008993036001F00F03022B70B504460D4691
:105EA000164602D00B4AFFF709FA31462046FFF7A3
:105EB00081FCE36AA06A9B6D9847666A29092046BF
:105EC0003378033B032B9CBF73686362FFF78BFB44
:105ED000666270BD54930360D1E90212FFF7DABF26
:105EE00070B5437904461546CE68012B06D1436A46
:105EF0000A4629465B8BFFF70EF970610023716932
:105F000020461A46FFF729F8F1682046FFF752FCB1
:105F1000062D05D1E36A0021A06AD3F8883098479E
:105F2000E36A0121A06AD3F8BC500023AC461A46AC
:105F3000BDE87040604700002DE9F04F4FF0000BC6
:105F400087B004461E46D946DA465F46D84603A8BF
:105F5000CDE9022105AAA4212DF012FD0190019B9B
:105F60009B451AD16FB1BAF1000F72D1E36AA06AF2
:105F70005B6C9847B9F1000F71D1E36AA06A5B6C62
:105F80009847029AD4E90A03002A6ED0D3F8C04099
:105F90003B4642463146A04710E0059A52F82B5046
:105FA000002D49D0A80747D12A79A62A0FD1F90791
:105FB00007D52F4A29462046FFF780F907B0BDE8EC
:105FC000F08F47F00107AA460BF1010BC7E7A72A9C
:105FD00007D1BA0701D5274AECE747F00207A946DF
:105FE000F2E7A82A28D1EA686AB193070BD11179A0
:105FF000AA2906D192682046A968FFF74BFF01360F
:10600000E2E7AC2912D0A96801F00F02022A01D000
:10601000194ACFE7E26A0909A06A08F10108D26BC0
:106020009047E9682046FFF7C5FBCDE706222946E1
:106030002046FFF755FFE2E70FB1104ABAE7B8F183
:10604000000F01D00E4AB5E729462046FFF7B2FB04
:10605000D5E7DAF808102046FFF7ACFB8AE7D9F855
:1060600008102046FFF7A6FB8BE7D3F8BC408FE76C
:10607000A2930360B9930360D1930360F29303602A
:106080000D94036070B50D4641790446134601290D
:1060900003D12A46FFF73FF86861E36AA06ADB6C28
:1060A00098476E690023204631461A46FEF755FF91
:1060B000E36AF18ADB6BA06A9847E96829B18B072C
:1060C00003D10B79A32B08BF002120460223002215
:1060D000FFF732FFF08A70BD436A10B504465A8B51
:1060E000FFF7D0FF01462046BDE81040FFF77BBA1E
:1060F000002389681A46FFF71FBF38B505460C46CE
:10610000C968FFF757FBA1682846BDE83840FFF78C
:1061100051BB0B79342B70B504460D4610D18968FC
:10612000FFF748FBED68AD6885B9E36A1021A06A06
:106130005B6B9847E36A04220221D3F8A0301AE08F
:10614000C36A1021806A5B6B9847ECE7AB071FD1ED
:106150002B799A2B13D1E36A1021A06A5B6B9847C5
:10616000A9680029E6D02046FFF724FBE36A042251
:106170000321D3F8A030A06ABDE8704018479B2BDC
:1061800006D1A9682046FFF715FBEB689968E8E798
:1061900029462046FFF70EFBCCE710B50446896878
:1061A000FFF708FB0021E36AA06A1B6DBDE8104001
:1061B000184700002DE9F7438D68044616465DB97F
:1061C000002A75D0C36A02222946D3F8A030A06AFB
:1061D00003B0BDE8F043184715F0030740F08A808C
:1061E0002B79372B13D132B1C36A02220121806A85
:1061F000D3F8A030984720462946FFF7DBFAE36A38
:10620000A06AD3F8A43003B0BDE8F04318479F2B31
:1062100070D1EB681A79A12A5AD1A22101AA03F1FF
:1062200008002DF0ADFBA968804621B38B0722D171
:106230000B79372B1FD136B1E36A411C0222A06AC9
:10624000D3F8A0309847A9682046FFF7B3FAE36A6D
:106250004FF00109A06AD3F8A4309847474510D100
:10626000B9F1000F24D1E36A0322791CA06AD3F8A4
:10627000A03098471CE020464FF00009FFF79AFA3B
:10628000ECE7019B53F82710A9B18E0713D10E79C3
:10629000A6F13700464246412046FFF78BFAB9F196
:1062A000000F11D04EB9184A29462046FFF706F8CC
:1062B00003B0BDE8F0830026EEE7E36AA06AD3F8F6
:1062C000A43098470137C9E7002EFBD00F4AEBE70F
:1062D000AB685BB19A0709D11B79372B06D1042231
:1062E000294603B0BDE8F043FFF7FABD0522294671
:1062F0002046F6E729462046FFF75CFAE36A0322C8
:106300000121D3F8A03062E72F9403604C9403601E
:106310000122FFF74FBF00002DE9F7430C468968C3
:106320000546FFF747FAE668002E58D07768696A95
:10633000FBB209788E2BA36819BF04F10C06012764
:106340003F0A0836072903F00F024DD1022A49D12E
:106350001A099A2A4AD132681179302946D19268AD
:10636000002A43D10A212846FFF72AF96A6AD36A2C
:10637000528D3AB9414A2846316803B0BDE8F0432E
:10638000FEF79CBF5978C9070FD559682846FFF713
:1063900017F9022FEB6A0BD8D3F8BC400023022177
:1063A000A86A1A46A047012417E0013A0833E0E73B
:1063B000726811793229EFD1B46821793029EBD193
:1063C000916801229B6C0909A86A9847A168032477
:1063D000002301222846FFF7AFFDA74227D803B0CC
:1063E000BDE8F0830024F8E7022AFBD140F28D22B9
:1063F000B2EB131FF6D133681A79302AF2D19C68B8
:10640000002CEAD014F00302ECD123792F2BE9D130
:10641000EB6A1146A86AD3F8BC4013460192A04724
:1064200033682846019A9968FFF7C4FEBBE704F178
:106430000108A30056F82410B8451AD20A79322A66
:1064400017D13344D3F8049099F80430302B10D18D
:1064500089680022EB6A0909A86A9B6C98470023A7
:106460000122D9F808102846FFF766FD08F101045B
:10647000B3E72846A046FFF79DF9F7E76B94036062
:10648000426A0B4610B512780446072A06D0022A43
:1064900004D0074ABDE81040FEF710BF2046194659
:1064A000FFF73AFF2046BDE81040FEF7FBBD00BFF6
:1064B0008394036070B50D46C9680446FFF77AF906
:1064C000A968E36AC1F30711A06AD3F898303429A8
:1064D00016BF40390221C9B2BDE870401847F8B56F
:1064E0004F680C46002689683F0A0C340546FFF7C2
:1064F00061F902360834B74200DCF8BD54F8041CD8
:106500002846FFF757F954F8081CEB6A0909A86AEE
:10651000D3F89C302539C9B29847EAE72DE9F04114
:106520004E680C4601278968A6F10D080C34360A1E
:1065300005465FFA88F8FFF73DF9B74201DBBDE891
:10654000F08154F8041B2846FFF734F9EB6A414602
:10655000A86AD3F89C3001379847EEE72DE9F0415F
:106560004E680D4689680446360A0127FFF722F96E
:10657000032E89BFD4F810804FF0000808F1010302
:1065800023617B1C9E4222DC032E55DD2569A06A17
:106590006B1C29462361E36ADB6E9847E36A414638
:1065A000A06ADB6A9847E36A0121A06ADB68984722
:1065B000E36AA06A5B6E9847E36AA06A1B6E98471D
:1065C000E36A2946A06ADB6ABDE8F0411847023752
:1065D00029692046FFF7EEF8B74207DAE36AA06AB6
:1065E0009B6D9847E36AA06A9B6E9847E968E36AE7
:1065F00001F00F02A06AD3F89C300E2A11D1C1F32A
:106600000711262916BF35390621C9B29847B74266
:1066100005DAE36A42460021A06A5B6F98470835B5
:10662000AFE70A79852A01D13221EFE78A680AB9F2
:106630000721EBE73321E9E7BDE8F08110B5044617
:106640008968FFF7B7F80321E36AA06AD3F89830A6
:10665000BDE8104018472DE9F0474E680446D0F8D1
:10666000108001F108055FFA86F90027360AA9F1C2
:106670001E03D3F1000949EB030908F1010303618B
:10668000B74206DBE36A4146A06ADB6ABDE8F04731
:106690001847013755F8041B2046FFF78BF8B7421F
:1066A000F0DAE36A42464946A06A5B6F9847E7E73B
:1066B00001F00F03022B70B504460FD00B79492B64
:1066C00001D04F2B02D10123A37170BD4A2BFCD006
:1066D000502BFAD0482B0DD10D696DB9A379002B41
:1066E000F3D1E38A002BF0D020461D4ABDE870406C
:1066F000FEF7E4BDCD68F0E7A37943B3A38A8E68C3
:1067000001339BB2012BA3820ED1E18AD4E90A03A3
:10671000D1B1D3F8A03000229847E36A02220021C9
:10672000A06AD3F8A030984729462046FFF742F8E0
:10673000E36AA06A3109DB6B9847E36AA06AD3F881
:10674000A430BDE8704018475B6C9847E5E7E38AE2
:10675000294620460133E382BDE87040FFF72AB89E
:106760009C9403602DE9F04105690446D1F80C8042
:106770000E46AB1C0022D8F808106F1C03612B4694
:10678000FFF774F9B1682046FFF714F8E36A394659
:10679000A06ADB6E9847E36A2946A06ADB6A9847DD
:1067A000E36AA06A4FF0FF31DB689847D8F80C1015
:1067B0002046FEF7FFFFE36A3946A06ADB6ABDE8C0
:1067C000F04118472DE9F7430446904699460F4695
:1067D00029B9194603B0BDE8F043FEF7EBBF0669DF
:1067E000731C036115684DB315F0030226D12B7994
:1067F0007B2B23D1A9680192FEF7DCFF019A314679
:106800002046FEF76DFB019AE9682046FFF728F85D
:106810004B4608F10402791E2046FFF7D3FFE36AD6
:106820003146A06AD3F88030984703212046FEF70E
:106830004FFB03B0BDE8F043FEF762BB294620469C
:10684000FEF7B8FF204600223146FEF749FBE36A17
:10685000A06A1B6E9847DBE737B50C46054601AAD0
:106860007A2104F108002DF08BF8E3680146019AC3
:106870002846FFF7A7FF03B030BD00002DE9F04F19
:106880002DED028B83B005691E4604460E9B0F4614
:106890000192294608EE103AAB1C012205F1010ACB
:1068A0000361FEF71DFB394620460027FEF782FFF5
:1068B000E36A00225146D3F89430A06A9847E36A0D
:1068C0002946A06ADB6A9847E36AA06AD3F8D03009
:1068D0009847D4F8108008F101032361019B9F427F
:1068E0001BDB2046FEF70CFBE36AA06AD3F8D4302A
:1068F0009847E36A5146A06ADB6A984718EE101A77
:106900002046FEF757FFE36A4146A06ADB6A03B000
:10691000BDEC028BBDE8F04F18473346D4F8109019
:10692000043601371A68009209F101022261009AC7
:10693000D2F808B0BBF1000F47D1019ABA4237D163
:106940000025E36AA06AAB461B6E9847009B204671
:10695000D968FEF72FFFCDB1E26A1021A06A526B11
:106960009047E26A5946A06AD26A9047E36A1021CA
:10697000A06A5B6B984729462046FEF734FE204606
:106980002946FEF703FF2046FEF7BAFAE36A012222
:106990004146A06AD3F894309847E36A4946A06A12
:1069A000DB6A9847E36A0121A06ADB68984795E7AC
:1069B00020461F4A1968FEF781FC204603B0BDEC53
:1069C000028BBDE8F04FFEF79BBA1BF003052DD1FB
:1069D0009BF804205B46762A03D1DD68DBF808B01B
:1069E0002D09E36AA06A9B6D984759462046FEF739
:1069F000E1FEE36A0821A06AD3F89C309847E36A75
:106A00004A4600211B6FA06A9847002D98D029465E
:106A10002046FEF7E8FDD4F810B020460BF1010245
:106A2000594622610222FEF75BFA8FE70025D8E77C
:106A3000CA9403602DE9F0430769164685B00D46F8
:106A40007A1C39460393044602610222DDE90C9860
:106A5000FEF746FA039B16BBE36A0321A06ADB68D4
:106A6000984729462046FEF7A5FEE36A6FF002012B
:106A7000A06ADB689847E36A1021A06A5B6B9847BD
:106A8000E36A3946A06ADB6A984720464146FEF72A
:106A900091FE204605B0BDE8F043FEF731BA32461C
:106AA00029462046CDF80090FFF7E8FEE3E77FB5E2
:106AB000CD6806460C462B79782B09D1AB6801933B
:106AC000002300931A468968FFF7B4FF04B070BD35
:106AD000742B03AA4FF0770116D105F108002CF0B2
:106AE0004FFF2B6902463BB9EB6800933046039B8E
:106AF000A168FFF7C3FEE9E79B683046A1680193F0
:106B0000EB680093039BDFE704F10C002CF038FFE7
:106B100000230246E9E78B6803F00F03022B2DE9FF
:106B2000F04F04460E462DED028B87B040F00581F4
:106B3000CB68002B00F00181980740F0FE801A79A5
:106B40002C2A40F0FA809A6802F00F01022940F0E6
:106B5000F48012097C2A40F0F080DB681A79302A30
:106B600040F0EB809B6805AAA42104A804932CF0B4
:106B700007FF431E022B00F2E080059901280A68F6
:106B800000F0CD800228D1F804A000F02C818D689F
:106B9000E90740F1D2806B0800F0CF8032B1930753
:106BA00004D11179A639022940F2C780BAF1000F49
:106BB00008D01AF0030F05D19AF80410A63902295B
:106BC00040F2BB80B3681AF0010B776908EE103A07
:106BD0003369A18B08EE903AA36926690293E38B8F
:106BE00006F10208E18306F10401019306F10103B5
:106BF00006F10309268303936383216105D151467E
:106C000020460392FEF7D6FD039A11462046FEF772
:106C1000D1FDE26A4946A06AD26E9047E26A4146D7
:106C2000A06AD26A9047E26AA06A926D90470022F9
:106C300018EE101A2046FEF713FE18EE901A2046A2
:106C4000FEF7B8FDE26A711CA06AD26A9047294635
:106C50002046FEF7AFFDE26A0E21A06AD2F89C2022
:106C60009047E26A4946A06AD26A9047E26ABBF15D
:106C7000000F58D1D36DA06A9847E36AA06A5B6E93
:106C80009847002DE36AA06AACBF00210121D3F828
:106C90009C309847E36A424601211B6FA06A9847DF
:106CA000029BA361019BE383002F44D0E36AA06AA7
:106CB0001B6E9847BBF1000F03D1E36AA06A1B6EFD
:106CC000984739462046FEF775FD2569A06A6B1C7A
:106CD00029462361E36ADB6E98478BF00101E36A82
:106CE0000131A06ADB689847E36A3146A06ADB6A33
:106CF0009847E36AA06A1B6E9847BBF1000F03D167
:106D0000E36AA06A1B6E984727B1E36A2946A06A26
:106D1000DB6A984707B0BDEC028BBDE8F08F924666
:106D20000325024642E7A06A926D904751462046ED
:106D3000FEF740FDA5E73D46D6E725692046A38B33
:106D4000B4F81E906F1CE3836FEA4543D4F818A093
:106D500005F102086FEA5343F16867832383EB1C54
:106D60002361FEF727FDE36A0121A06AD3F888308A
:106D70009847E36A3946A06ADB6A9847E36A414666
:106D8000A06AD3F88C3098470022B1682046FEF7FD
:106D900067FD20463169FEF70DFDE36AA06A9B6836
:106DA000984720B9E36A3946A06ADB6E9847E36AE0
:106DB0004146A06ADB6A9847E36AA06AD3F890303C
:106DC000984771692046C4F818A0A4F81E90FEF7F1
:106DD000F1FCE36A2946A06ADB6A07B0BDEC028BCE
:106DE000BDE8F04F18470325D8E62DE9F0470669BE
:106DF0000446D0F818A00D46B31C06F10108B0F8FF
:106E00001E900361838B0683A0F81A80C383886871
:106E10002CF09EFDF8B92769A8687B1C23612CF033
:106E2000C7FD20B9E36A4146A06ADB6E9847E36A72
:106E30003946A06ADB6A9847E9682046FEF7BAFC43
:106E4000E36A4146A06ADB6A98473B460122A9688B
:106E50002046FEF70BFE29692046C4F818A0A4F8C6
:106E60001E90FEF7A7FCE36A3146A06ADB6ABDE824
:106E7000F04718472DE9F347066904460D46731C91
:106E8000036188682CF064FD024610BB2769204628
:106E9000A9687B1C23613B46FEF7E8FD2046E968B4
:106EA000FEF788FCA8682CF083FD00BB2B690BB9AA
:106EB0006B694BB1E36AA06A9B68984720B9E36AA3
:106EC0003146A06ADB6E9847E36A3946A06ADB6AFE
:106ED000984701AA712105F1100000272CF050FD00
:106EE00081464F450BD169692046FEF763FCE36A92
:106EF0003146A06ADB6A984702B0BDE8F087019B83
:106F000053F82780D8F808002CF022FD024620BB59
:106F1000D4F810A02046D8F808100AF10103236124
:106F20005346FEF7A3FD2046D8F80C10FEF742FCAE
:106F3000D8F808002CF03CFD0028D8D1E36AA06AFC
:106F40009B68984720B9E36A3146A06ADB6E984790
:106F5000E36A5146A06ADB6A98470137C1E72DE929
:106F6000F74F044690460F4629B9194603B0BDE8CD
:106F7000F04FFEF71FBC0669321D06F1010A06F14B
:106F8000020B06F103090261D8F80050002D00F051
:106F9000F28015F0030240F0EE8029797B2940F061
:106FA000EA80A968CDE90032FEF704FCE16AA06A34
:106FB000896D8847A8212046FEF78DF8019AE96877
:106FC0002046FEF74DFC009B3146204602220093EE
:106FD000FDF786FFE26A0321A06AD268904708F1B4
:106FE0000402009B791E2046FFF7B9FFE36AA06AFE
:106FF0006FF00201DB689847E36A1021A06A5B6BBF
:107000009847E36AA06A5B6E9847E36A5146A06AB4
:10701000DB6E9847E36A3146A06ADB6A9847E36A09
:10702000A06A9B6D9847E36A0122A06A9B692121AF
:107030009847E36AA06A0821D3F89C309847E36A2E
:107040005A460021A06A1B6F9847E36AA06A9B6DAD
:107050009847E36AA06A9B6E9847E36AA06A5B6EF2
:107060009847E36A0022A921A06A9B6C9847E36ACB
:10707000A06A9B6E9847E36AA06A9B6E9847E36A92
:10708000A06A9B6D9847E36A00220A21A06A5B6DA3
:107090009847E36AA06A5B6E9847E36AA06A10218A
:1070A0005B6B9847E36A0321A06AD3F8C0500023C2
:1070B0001A46A8472046FDF7F5FFE36A4A46002135
:1070C000A06A1B6F9847E36AA06A1B6E9847E36A41
:1070D000A06A10215B6B9847E36A4946A06ADB6EA1
:1070E0009847E36AA06A0221DB689847E36A594639
:1070F000A06ADB6A9847E36AA06A9B6E9847E36AD6
:10710000A06A9B6E9847E36A5146A06ADB6A98477B
:10711000E36A0022A06A9B6CA9219847E36A1021C8
:10712000A06A5B6B9847E36AA06A9B6D9847E36A25
:10713000A06A9B6D9847E36A0321A06AD3F8C05008
:1071400000231A46A8472046FDF7ACFFE36AA06A71
:107150001B6E9847E36AA06A4FF0FF31DB689847DF
:10716000E36AA06A4946DB6A9847204603B0BDE857
:10717000F04FFDF7C5BE294620460093FEF71AFBE7
:10718000E26AA06A926D90472046A821FDF7A3FF0E
:10719000E26AA06A126E904715E700002DE9F04FF1
:1071A0008D6887B004462B79032B0AD12946FEF758
:1071B0002DFAAA69138B43F00103138307B0BDE8CE
:1071C000F08F426A128BD20706D4634A294607B071
:1071D000BDE8F04FFEF772B8162B40F0AF8006699D
:1071E000E968331D06F1010A4FEA111B06F1020896
:1071F000036106F10309FEF7DDFAE36AA06A0022E3
:107200009B6CAA219847E36AA06AD3F8C070002358
:107210001A461946B84759462046FEF7E4F9276949
:10722000A369BA1CA06A02932261E38BA28B01932B
:107230007B1CE283E26A19466383D26A2783039345
:107240009047012251462046FDF74AFE5946204606
:10725000FEF7B6F92046AC21FDF73DFFA9682046B0
:107260000022FEF7FDFAE26A4146A06AD2F894B025
:107270000022D847E26A5146A06AD26A9047E26A81
:10728000A06AD2F8D0209047E26AA06A926D904737
:10729000E26AA06A40F2DE21D2F818A00122D047AB
:1072A000E26AA06A0821D2F89C209047E26A002195
:1072B000A06AD2F870A04A46D047E26AA06A126E6D
:1072C0009047E26A3146A06AD2F894A00122D047E2
:1072D000E26A4946A06AD26A9047E26A0121A06A3E
:1072E000D26890472046FDF70BFEE26AA06AD2F80A
:1072F000D4209047E26A4146A06AD26A9047296941
:107300002046FEF757FA039BE26A1946A06AD26E3E
:107310009047029B3146A06AA361019BE383E36A25
:10732000DB6A984769692046FEF744FAE36A394602
:10733000A06ADB6A07B0BDE8F04F184705AA7A21BA
:1073400005F108002CF01CFBEB680146059A20466D
:10735000FFF705FE32E700BFE894036070B58D6863
:1073600004463DB9C36A2946D3F8C830A06ABDE8CF
:1073700070401847AB070ED12B795E2B0BD1A96853
:10738000FEF718FAE9682046FEF714FAE36A0221CC
:10739000D3F8C830EAE729462046FEF70BFAE36A3D
:1073A0000121D3F8C830E1E710B504468968FEF73B
:1073B00001FAE36AA06A1B6EBDE81040184700009E
:1073C00001F00F03022B2DE9F04705460C4604D1CE
:1073D0000909BDE8F047FEF7D9B9002956D011F0E8
:1073E000030653D10B792C2B38D18968FEF7E2F9CB
:1073F000E668002E4AD016F0030847D17768334676
:10740000FAB28E2A09D13F0A06F1080907F1FF3ABC
:10741000C24510DC013756F827301A79312A12D1CB
:1074200099682846FEF7C6F9EB6AA86A02211B6D27
:10743000BDE8F047184759F8041B284608F1010831
:10744000FEF7B8F9E4E7322A20D199680222EB6A04
:10745000A86A09095B6DBDE8F04718472D2B15D1C7
:107460008C689CB163681B0A022B07D004F10807E3
:107470006368B6EB132F10D3BDE8F087E368002BE9
:10748000F4D09A07F2D11B79AC2BEFD121462846D4
:10749000054ABDE8F047FDF711BF57F8041B284621
:1074A0000136FFF78DFFE3E70E9503602DE9F0410C
:1074B0004E6801F108040546360A04EB8607BC4213
:1074C00008D1EB6A3146A86A0022D3F8A030BDE8A3
:1074D000F041184754F8041B2846FEF76BF9EEE715
:1074E0008968034610B441B9C26A806AD2F8A040E4
:1074F0000A4623465DF8044B18474A68120A022AD6
:107500000BD1CA684AB1940707D11279AC2A04D1C9
:1075100006225DF8044BFEF7E3BC18465DF8044B09
:10752000FFF7C4BF2DE9F041CD6804460E4635BBD8
:107530000379BBB1436A1D78A5B9CF21FEF740F8A6
:10754000B1682046FEF736F9E36A2A460121D3F8EE
:10755000BC602B46A06AB047E36AA06A1B6EBDE818
:10756000F0411847B1688B0700F09A8001F00F03D3
:10757000022B40F09C802046FEF71CF9ECE7AF0799
:1075800040F099806B68DAB25B2A14D1ED68002D67
:1075900040F08F80406A0378072B40F0888089682C
:1075A00001F00F03022B40F0828003220909BDE89D
:1075B000F041FDF73FBC562A13D101228968FEF73E
:1075C0004FF9E9682046FEF7F5F8A968E36A09096A
:1075D000A06AD3F89C303F39C9B298470222B168FB
:1075E00059E0572A65D11B0A5F1E013355F8231055
:1075F000FEF7E0F8002F03DDE36AA06A9B6D984771
:10760000B1680835002600222046FEF729F9BE425F
:107610004DDA0136BE4203DAE36AA06A9B6D9847F1
:10762000002255F8041B2046FEF71AF9EFE76B68B5
:10763000DAB2062A3FD1B768002F3CD0B8073AD15A
:107640007A68D1B2062936D11B0AB3EB122F32D198
:10765000022B30D1BB6823B1990702D11B79222BB1
:1076600029D0FB6823B19A0702D11B79222B22D0A3
:10767000A9682046FEF79EF8E9682046FEF79AF8CA
:10768000E36AA06A5B6E98470022B9682046FEF75D
:10769000E7F80022F9682046BDE8F041FEF7E0B8BF
:1076A00000293FF468AF0B793A2B7FF464AFBDE853
:1076B000F081AB07BBD029462046FEF77BF80022BD
:1076C0008DE700002DE9F04F85B004460026DFF875
:1076D0001CA1019102AA019B4221B14603F10800BD
:1076E0002CF04EF9636A83465D8B5E450AD1019B9F
:1076F000D9680B79032B50D12A462046FDF735FD7A
:10770000054658E0029B03AA6C2153F8263003F18A
:10771000080000932CF034F9039B074619680A0906
:10772000732A0DD04FF001082046FEF743F8B84504
:1077300027D3009BD96859B12046FEF73BF807E0F4
:10774000022807D052462046FDF7B8FD09F101098D
:107750000136CAE759680B09412B0CD040F21E4292
:1077600093420AD040F2CA42934208D0B3F5527F06
:10777000E8D10425EAE70125E8E70546E6E7032521
:10778000E4E7039B0022A06A53F8281008F10108DF
:10779000E36A09095B6D9847C9E7442B17D18E68E6
:1077A0002A4620463146FDF7E0FCB2690546138BB8
:1077B00043F0010313830026ABEB0909B1450BD855
:1077C00029462046FDF70FFF05B0BDE8F08F2A4699
:1077D0002046FEF757FC93E7E36A0121A06A0136D1
:1077E000D3F8BC7000231A46B847E7E72695036034
:1077F0004B682DE9F04105460E461F0A01F10808C5
:107800000024BC4201DBBDE8F08158F8041B284687
:10781000FDF7D0FFAB683BB10234284656F8241080
:10782000BDE8F041FDF740BD0134EAE710B504467C
:10783000FFF7DEFF2221E36AA06AD3F89C30BDE89F
:107840001040184770B58D68044645B9C36A0122D7
:107850002946D3F8A030A06ABDE870401847A907B0
:107860001ED16B68DAB2922A1AD11B0A022B0CD1F4
:10787000EB6853B19A0708D11B79AC2B05D1294687
:107880000322BDE87040FEF72BBB29462046FFF7D8
:10789000AFFF6968E36A0122090AD3F8A030DAE78A
:1078A00029462046FDF786FFE36A0122D3F8A0307F
